:020000040800F2
:10000000F0260020A90100080B2600082B23000879
:1000100009260008F9080008154000080000000043
:10002000000000000000000000000000EB270008B6
:10003000710900080000000087270008F727000862
:10004000C3010008C3010008C3010008C301000880
:10005000C3010008C3010008C3010008C301000870
:10006000C3010008C3010008C3010008C301000860
:10007000C3010008C3010008C3010008C301000850
:10008000C3010008C3010008C3010008000000000C
:10009000000000000000000000000000C301000894
:1000A000C3010008C3010008C3010008C301000820
:1000B000C3010008C3010008C3010008C301000810
:1000C000C3010008C3010008C3010008C301000800
:1000D000C3010008C3010008C301000800000000BC
:1000E000C3010008C3010008C301000800000000AC
:1000F000000000000000000000000000C301000834
:1001000000000000C3010008C3010008C30100088B
:1001100000000000000000000000000000000000DF
:10012000C3010008C3010008C3010008C30100089F
:10013000C3010008000000000000000000000000F3
:100140000000000000000000000000000D26000874
:10015000C3010008C3010008C3010008C30100086F
:10016000C3010008C30100080000000000000000F7
:10017000000000000000000000000000000000007F
:1001800000000000C30100080000000000000000A3
:10019000C3010008DFF80CD000F06EFA00480047F9
:1001A0008D490008F0260020064880470648004791
:1001B000FEE7FEE7FEE7FEE7FEE7FEE7FEE7FEE717
:1001C000FEE7FEE7AD280008950100082DE9F05F85
:1001D0000546002092469B468846064681464024B6
:1001E0001BE0284641464746224600F07CF853462D
:1001F0005A46C01A914110D311461846224600F0C3
:1002000063F82D1A67EB01084F46224601200021B2
:1002100000F05AF817EB00094E41201EA4F101042A
:10022000DFDC484631462A464346BDE8F09F40EAB7
:1002300001039B0703D009E008C9121F08C0042A64
:10024000FAD203E011F8013B00F8013B521EF9D24B
:100250007047D2B201E000F8012B491EFBD2704773
:100260000022F6E710B513460A4604461946FFF782
:10027000F0FF204610BD00F0004230F000400AD0F0
:10028000C10D01F56071C0F3160042EA0151C208C8
:1002900040071143704700200146704730B50B46B8
:1002A000014600202022012409E021FA02F59D42A6
:1002B00005D303FA02F5491B04FA02F52844151E7A
:1002C000A2F10102F1DC30BD202A04DB203A00FA61
:1002D00002F1002070479140C2F1200320FA03F39D
:1002E000194390407047202A04DB203A21FA02F09B
:1002F0000021704721FA02F3D040C2F12002914060
:100300000843194670472DE9FE4F804681EA0300F5
:10031000C00F0C46009021F0004123F00045B8EBDF
:100320000200A94105D24046214690461C460B4694
:10033000024623F00040104347D0270DC7F30A00C0
:10034000C3F30A510290401A019040286BDAC3F3BC
:10035000130040F4801B0098924620B10023D2EB9A
:10036000030A63EB0B0B01985946C0F1400250465B
:10037000FFF7AAFF06460D4650465946019A00F07F
:100380008DF910EB08006141002487EA115284EADC
:10039000E7731A4340D0009A62B3019A012A4FEAE8
:1003A000075215DC001B61EB02014FF0004202EA2C
:1003B0000752CDE90042001C41F5801132462B4620
:1003C00000F08DF903B0BDE8F08F40462146F9E713
:1003D000001B61EB0201001C41F5801300185B411A
:1003E0002018A2F5001747EB030140EAD570B619B3
:1003F0006D4111E06D084FEA360645EAC0754FEAD7
:100400000752001B61EB0201001C41F580114908F5
:100410004FEA30000019514132462B4603B0BDE887
:10042000F04F00F04DB90098012240000023D0EBBE
:10043000020263EBE073009821464FEAE074B8EBE8
:10044000000061EB0401E9E783F000435BE781F022
:10045000004158E72DE9FE4F81EA030404F000440F
:1004600021F0004100944FF0000B23F0004350EACC
:1004700001045ED052EA03045BD0C3F30A54C1F313
:100480000A552C44A4F2F3340194A0FB0254C1F3A6
:10049000130141F48011C3F3130343F4801301FBF0
:1004A000024400FB034E840A970A44EA815447EA57
:1004B0008357A4FB076802958D0A05FB07854FEA61
:1004C000932C04FB0C542705029D4FEA065847EA7B
:1004D0001637B5EB08056EEB070C870E920E47EA50
:1004E000811742EA8312A7FB0201B6EB0B0164EB12
:1004F00000042B0D43EA0C335E1844EB1C50DA4623
:100500005146E7FB0201C5F313044FEA0B3343EAFC
:1005100014534FEA0432019C43EA0603A4F10C048D
:100520000294009CCDE900B400F0D9F803B0BDE816
:10053000F08F00200146F9E72DE9F04D81EA030430
:1005400004F0004B21F0004514464FF0000A23F060
:10055000004150EA050220D054EA01021DD0C5F343
:100560000A570246C5F31303C1F31300C1F30A5639
:1005700040F4801543F48013A7EB0608101BD64601
:1005800008F2FD3873EB050002D308F1010801E021
:1005900092185B41B8F1000F03DA00200146BDE874
:1005A000F08D00204FF48011064684460EE0171BA4
:1005B00073EB050705D3121B63EB050306434CEAF7
:1005C000010C49084FEA300092185B4150EA0107DC
:1005D000EDD152EA030012D082EA040083EA050159
:1005E000084305D0101BAB4106D20122002306E0D0
:1005F00000224FF0004302E06FF0010253101AEBAB
:1006000006004CEB085110EB0A0041EB0B01BDE872
:10061000F04D00F055B8C1F30A52C1F3130140F296
:10062000FF3341F480119A4202DA002001467047FC
:1006300040F233439A42A2F2334202DC5242FFF7C5
:1006400052BEFFF741BE000030B5041E71F1000438
:1006500004DB4FF00044404264EB0101141E73F1CF
:10066000000405DB1C464FF00043524263EB0403D9
:10067000994208BF904230BD064C074D06E0E06845
:1006800040F0010394E8070098471034AC42F6D3D9
:10069000FFF784FD804B0008A04B0008202A06DBF2
:1006A000CB17203A41FA02F043EAE07306E041FA40
:1006B00002F3D040C2F1200291400843194670472E
:1006C00010B5141E73F1000408DA401C41F100015A
:1006D00092185B411A4301D120F0010010BD2DE9B1
:1006E000F04D92469B4611B1B1FA81F202E0B0FAA8
:1006F00080F220329046FFF7E7FD04460F4640EABD
:100700000A0041EA0B0153465A46084313D01146EA
:1007100053EA010019D0C8F140025046FFF7E3FD4B
:1007200005460E46504659464246FFF7CDFD084362
:1007300005D0012004E020463946BDE8F08D0020B8
:10074000054346EAE0762C4337430A986305E40AFA
:10075000A0EB08000022FD0A44EA47540A3002D503
:1007600000200146E9E7010510196941DDE9084566
:1007700000196941BDE8F04DA2E770B58C1810F87A
:10078000015B15F0070301D110F8013B2A1106D1D6
:1007900010F8012B03E010F8016B01F8016B5B1EF0
:1007A000F9D12B0705D40023521E0DD401F8013BCB
:1007B000FAE710F8013BCB1A921C03E013F8015B37
:1007C00001F8015B521EF9D5A142D8D3002070BDBB
:1007D000464910B54A6822F440324A604A68436884
:1007E0001A434A6001684A6822F480724A600168CC
:1007F0004A68036942EA03224A6001684A6822F0B3
:1008000040724A6001684A6883681A434A60016816
:100810008A6822F400628A6001688A68C3681A43A1
:100820008A60816A6FF07062D14201688A6822F042
:1008300070628A6001688A680CD0836A1A438A6091
:1008400001688A6822F040528A6001688A68C36A37
:100850001A4301E022F040528A6001688A6822F05F
:1008600002028A6001688A68037E42EA43028A6063
:1008700090F82010002901684A680FD042F4006205
:100880004A6001684A6822F460424A6001684A6826
:10089000174C436A04EB43331A4301E022F400622D
:1008A0004A600168CA6A22F47002CA620168CA6AB0
:1008B000838B104C04EB03531A43CA6201688A68A5
:1008C00022F400728A6001688A6890F8303042EA47
:1008D00043228A6001688A6822F480628A60016823
:1008E0008A68406942EA8020886010BD0023014088
:1008F00000E0FFFF0000F0FFFEE70020704700204F
:100900007047000010B500220449054802F0E4F8E1
:100910000449034802F0DAF8002010BDE80E002078
:1009200018020020E806002010B50146034802F036
:10093000CDF8024802F0AFF8002010BD18020020E8
:1009400000207047094A10B5D2F8BC22D2F8142210
:100950000AB1012010BD0A460146044802F0BCF865
:10096000BDE81040014802F017B90000180200204D
:1009700070474FF4FA742046214601F0F3FCFAE781
:1009800078B50024009490F83C20012A19D0012267
:1009900080F83C200A6807230568092A13D9EE6805
:1009A0000A3A02EB420293409E43EE600B788A685B
:1009B0000A3B03EB43039A400368DD682A43DA608D
:1009C00010E0022078BD2E6902EB420293409E4364
:1009D0002E610B788A6803EB43039A4003681D6914
:1009E0002A431A614A681F23072A13D205686E6BCF
:1009F000521E02EB820293409E436E630B790A887B
:100A00005B1E92B203EB83039A4003685D6B2A433B
:100A10005A6327E005680D2A12D22E6BD21F02EB13
:100A2000820293409E432E630B790A88DB1F92B2A9
:100A300003EB83039A4003681D6B2A431A6311E09A
:100A4000EE6A0D3A02EB820293409E43EE620B790E
:100A50000A880D3B92B203EB83039A400368DD6A78
:100A60002A43DA62164B0568144A9D4206D10D6886
:100A7000122D03D1556845F48005556005689D42E7
:100A800018D10B68102B01D0112B13D1536843F4EC
:100A900000035360096810290CD10A490A4A096801
:100AA000B1FBF2F101EB8101490000E0491E009128
:100AB0000029FBD180F83C40002078BD0023014094
:100AC000002001408400002040420F000068C06CFC
:100AD000704770B504004FF0000503D0206C00266D
:100AE00010B107E0012070BD204600F01DF86664DB
:100AF00084F83C60206CC00610D4206C20F4885030
:100B000040F0020020642046FFF762FE6664206C1D
:100B100020F0020040F00100206400E0012584F88C
:100B20003C60284670BD000010B586B00446142114
:100B30006846FFF795FB1149206888421CD1104890
:100B40000021026842F480720260006800F4807044
:100B500005900B481438026842F0010202600068F8
:100B600000F001000590012000900320CDE9010173
:100B70006946044800F0E8F806B010BD00200140C6
:100B800044380240000002402DE9F041044600686C
:100B90000D4681684FF0000749050BD58068C005F8
:100BA00008D5206C40F02000206484F83C700120BF
:100BB000BDE8F08100F098F906460FE0681C0DD002
:100BC00025B100F091F9801BA84207D9206C40F0B4
:100BD0000400206484F83C700320E9E72068006882
:100BE0008007EBD521686FF012000860206C40F49C
:100BF000007020642068816811F0405F13D1217E6D
:100C000089B9C16A11F4700F02D0806840050AD416
:100C1000206C20F480702064206CC00403D4206C0D
:100C200040F0010020640020C2E7000018B5002158
:100C3000009190F83C20012A07D0012280F83C2046
:100C400002689368DB0702D011E0022018BD9368A8
:100C500043F001039360204A204B1268B2FBF3F289
:100C600002EB420200E0521E0092002AFBD1026811
:100C70009368DB072DD0036C40F20164A34343F477
:100C80008073036453685B0505D5036C23F400533C
:100C900043F480530364036CDB0404D5436C23F0FA
:100CA0000603436400E0416480F83C100C496FF097
:100CB0002203136049680068C90602D009498842C6
:100CC00007D1816811F0405F03D1816841F0804114
:100CD0008160002018BD00008400002040420F0009
:100CE000002301400020014090F83C1001290CD065
:100CF000012180F83C1001688A6822F001028A60B4
:100D000001688968C90702D007E002207047016CBA
:100D100021F4885141F001010164002180F83C1068
:100D20000846704770B5044600F0DEF80546601CC2
:100D300002D004480078044400F0D6F8401BA042DA
:100D4000FAD370BD780000202DE9F84F00224FF053
:100D5000010803254FF00F0E0B6808FA02F4234038
:100D6000A34271D14E68012E05D0022E03D0112E60
:100D700001D0122E15D18668570005FA07FC26EA25
:100D80000C06D1F80CC00CFA07FC4CEA060CC0F8B3
:100D900008C04668A6430C79C4F300149440344359
:100DA0004460C668570005FA07FC8C6826EA0C0602
:100DB000BC403443C4604C68022C01D0122C13D1C7
:100DC000D40800EB8404A346D4F8209054074FEADB
:100DD000D46A0EFA0AF629EA06090E6906FA0AF634
:100DE00046EA0906CBF8206004680E7924EA0C0470
:100DF00006F00306BE40264306604C68E40056D564
:100E00002E4C266846F480462660246822F00306AD
:100E100004F4804400942A4C3444A446D4F808488E
:100E20009607370F0EFA07F6B443264EB04201D1AB
:100E3000002615E0244EB04201D1012610E0234ED9
:100E4000B04202D102260BE031E0214EB04201D186
:100E5000032605E01F4EB04201D1042600E007261C
:100E6000BE402643CCF808681B4E34684F689C434C
:100E7000FF0300D51C433460174E361D34684F689D
:100E80009C43BF0300D51C433460134E08363468BE
:100E90004F689C43FF0200D51C4334600E4E0C3655
:100EA00034684F689C43BF0200D51C433460521C19
:100EB000102AFFF451AFBDE8F88F0000443802401B
:100EC00000300140000002400004024000080240DF
:100ED000000C024000100240003C01400AB1816158
:100EE00070470904FBE70000014880687047000074
:100EF00078000020024881680278114481607047C0
:100F0000780000200B4810B5016841F400710160C1
:100F1000016841F480610160016841F48071016001
:100F2000032000F06FF8002000F006F800F024F82D
:100F3000002010BD003C024070B50D4D04464FF43A
:100F40007A712878B1FBF0F00A490968B1FBF0F03A
:100F500001F0D7F948B9102C07D200222146501EC3
:100F600000F030F800206C6070BD012070BD000002
:100F700078000020840000200A4808B5016841F488
:100F800080410160006800F4804000900548001F27
:100F9000016841F080510160006800F080500090CD
:100FA00008BD000044380240002809DB00F01F02A1
:100FB000012191404009800000F1E020C0F80011BB
:100FC00070470000F0B40E4B1B680C46C3F30223BD
:100FD000C3F10705042D00D90425191D072901D2E5
:100FE000002300E0DB1E012606FA05F1491E214020
:100FF00099409E40761E16403143F0BC03F020B865
:101000000CED00E0064900F0070208684FF6FF0308
:10101000184040EA0220034A10430860704700006D
:101020000CED00E00000FA05704700684162002006
:101030007047F0B50368586A39B19C6A4FF48276FC
:1010400000EB144400204D1E0AE040EA0240986282
:101050000FE006EB8007DF59401C04EB1744C0B2D9
:10106000A842F6D344EA02404FF4807202EB8101B9
:1010700058500020F0BDD0F8040401F0CCBFC1EB03
:10108000C10200EB8202D0F80404926C01F037BF79
:10109000C1EBC10200EB8202D0F80404D2F80822AE
:1010A00001F082BFD0F8040401F0B7BF70B5044668
:1010B0000B0601F00F00C0EBC00104EB81014FF003
:1010C00001024FF0000503D581F83D203C3103E0DB
:1010D00081F8FD5101F5FE71087094F8BC030128F8
:1010E00008D084F8BC23206802F030FB84F8BC539D
:1010F000002070BD022070BD70B5044601F00F00E5
:101100006268904201D9012070BD0B0601F00F0109
:10111000C1EBC10104EB81014FF001024FF000056A
:1011200003D581F83D203C3103E081F8FD5101F504
:10113000FE718D70087094F8BC03012808D084F803
:10114000BC23206802F0F8FC84F8BC53002070BD7A
:10115000022070BD01F00F01C1EBC10100EB810065
:10116000D0F8140270472DE9F04104460F0601F053
:101170000F00C0EBC00104EB81014FF001064FF0FE
:10118000000503D581F83D603C3103E081F8FD5155
:1011900001F5FE7108708A60CB704A7802B1C88090
:1011A000022B00D10D7194F8BC03012809D084F8FA
:1011B000BC63206802F026FA284684F8BC53BDE8D8
:1011C000F0810220FBE770B50C4601F00F05C5EB7E
:1011D000C50100EB8101C1F81032C1F808220023DB
:1011E000C1F8143281F8FD3181F8FC51036901F531
:1011F000FE71012B00D10A612207027C006803D036
:1012000002F0F2FC002070BD02F0DEFBFAE770B5E0
:1012100004460D4601F00F006168884201D90120A3
:1012200070BD29064FF000064FF0010207D5C0EB54
:10123000C00104EB810181F83D203C3107E0C5EBA2
:10124000C50104EB810181F8FD6101F5FE718A7031
:10125000087094F8BC03012807D084F8BC232068E8
:1012600002F096FC280702D007E0022070BD217C26
:1012700004F57172206802F033FC84F8BC6300202E
:1012800070BD70B50C4601F00F05C5EBC50100EB54
:1012900081010B658A6400234B65012381F83D3091
:1012A00001F83C5F0369012B00D10A612207027C2F
:1012B000006803D002F098FC002070BD02F084FBAF
:1012C000FAE700002DE9FC5F05680446284602F0B5
:1012D000B4FD00287ED1206802F0DBFD002879D023
:1012E000206802F0D6FD800704D52168486900F027
:1012F00002004861206802F0CCFDC10604F571705F
:10130000009034D52068816921F0100181612F6A35
:1013100007F00F00C0EBC00004EB8006C7F34340AA
:1013200006F5FE76022802D0062811D01AE047F60C
:10133000F070074216D0C7F30A1217462846F16824
:1013400002F0ABFDF0683844F060B069384408E062
:1013500008222846009902F0A0FDB069C7F30A11DF
:101360000844B0612068816941F010018161206802
:1013700002F08FFD00034FF0010A4FF0080B5BD520
:101380000026206802F064FD0746DFF8689351E00C
:10139000F8074DD0F1B2206802F073FD8046C00717
:1013A00007D005EB4611C1F808AB3146204601F0E5
:1013B00033F95FEA087022D505EB4611C1F808BB86
:1013C0002068016C00EB46100191D0F8082B4945CC
:1013D00007D900E08BE1110403D54FF40041C0F8B8
:1013E000081B204600F076FA0198484507D9206985
:1013F000012804D120680121009A02F071FB5FEA04
:10140000C86004D505EB46111020C1F8080B5FEA4F
:10141000886004D505EB46112020C1F8080B5FEA6F
:10142000884005D505EB46104FF40051C0F8081B65
:101430007F08761C002FABD1206802F02AFD400304
:101440004FF000095CD5206802F0FBFC074600263F
:1014500054E0F80750D0F1B2206802F000FD804659
:10146000C00723D006F00F020AFA02F0D5F834289C
:101470008243C5F8342805EB4610C0F808A9206956
:1014800001280FD1C6EBC60004EB8000D0E9112182
:101490001144816436B9206D20B920680121009A79
:1014A00002F01EFBF1B22046FFF7E9FD5FEA08708B
:1014B00003D505EB4611C1F808B95FEAC86004D549
:1014C00005EB46111020C1F808095FEA486004D511
:1014D00005EB46114020C1F808095FEA887004D581
:1014E00005EB46110220C1F808095FEA086003D540
:1014F0003146204601F0F6F87F08761C002FA8D16F
:10150000206802F0C6FC002811DAD5F8040820F0A3
:101510000100C5F8040894F8F403012829D02046F6
:1015200000F0BCF92068416901F000414161206888
:1015300002F0AFFC00050BD5D5F80808C00702D0B3
:10154000204600F0EFF92068416901F40061416133
:10155000206802F09EFCC00468D5D5F8040820F08D
:101560000100C5F804081021206802F047FC0021A2
:1015700027E084F8F49300212046FFF755FDD1E7DA
:1015800005EB41104FF67F32C0F80829D0F800393A
:1015900023F40013C0F80039D0F8003943F0006399
:1015A000C0F80039C0F8082BD0F8002B22F4001244
:1015B000C0F8002BD0F8002B42F00062C0F8002BDE
:1015C000491C60688842DBD8D5F81C0840F001103F
:1015D000C5F81C08206B60B1D5F8840840F00B00FA
:1015E000C5F88408D5F8440840F00B00C5F8440855
:1015F0000CE0D5F8141842F22B000143C5F814187A
:10160000D5F8100840F00B00C5F81008D5F8000810
:1016100020F4FE60C5F80008217C2068009A02F0E2
:101620005FFA2068416901F480514161206802F04D
:1016300030FC800415D5206802F024F8206802F000
:10164000EFFBE06000F0C8FA0146227B206802F060
:101650005BFC204600F00CF92068416901F4005160
:101660004161206802F015FC000707D5204600F014
:1016700019F92068416901F008014161206802F010
:1016800008FCC00208D50021204600F035F820688B
:10169000416901F480114161206802F0FAFB800287
:1016A00008D50021204600F02BF82068416901F49C
:1016B00000114161206802F0ECFB400007D5204694
:1016C000FFF7D9FC2068416901F080414161206841
:1016D00002F0DFFB40070AD520684568680702D59D
:1016E0002046FFF7DFFC2068416829434160BDE8E0
:1016F000FC9F00000A30544FD0F8040401F0DEBC17
:10170000D0F8040401F0DCBC2DE9F0418AB00400FB
:1017100005D094F8BD032668002520B108E001201B
:101720000AB0BDE8F08184F8BC53204600F05EF8B2
:10173000032084F8BD03F06BC00500D42561206848
:1017400002F03CF904F11001282288466846FEF7B1
:101750006EFD94E80F0001F0A3FF0226C8BB002134
:10176000206802F0A8FB002001270EE0C0EBC001BA
:1017700004EB810181F83D7001F83C0FC880CD7009
:101780008D60CD60401CC0B24D6161688142EDD872
:10179000002011E0C0EBC00104EB810181F8FD5194
:1017A00081F8FC0181F8FF51C1F80452C1F80852D8
:1017B000401CC0B2C1F8105261688142EAD82822A8
:1017C00041466846FEF733FD94E80F0002F03CF80E
:1017D00010B184F8BD63A2E784F8385084F8BD7373
:1017E000206802F025F800209AE7000010B586B0C6
:1017F000044614216846FEF733FD2068B0F1A04F7F
:101800002FD119480021026842F0010202600068ED
:1018100000F0010005904FF4C05000900220CDE987
:101820000101032003900A20049069460F48FFF746
:101830008BFA0D48001D016841F0800101600A48E3
:101840001430016841F4804101600068002200F416
:101850008040059011464320FFF7B4FB4320FFF77B
:10186000A3FB06B010BD000030380240000002406B
:1018700070B50446C068012570B1022801D0FFF799
:1018800078F82946D4F8040401F070FCD4F8040474
:10189000BDE8704001F02BBC0025F2E7D0F804044D
:1018A00001F04EBCD0F8040401F054BC10B504465D
:1018B00090F8BC0301280BD0012084F8BC0384F805
:1018C0003810206802F00EFB002084F8BC0310BD25
:1018D000022010BDD0F8042400F57171104601F00B
:1018E00051BC10B50446006894F8BC13012906D019
:1018F000012184F8BC13A16A012902D008E002206A
:1019000010BDA169012903D0816B41F4803181634D
:10191000206801F081FF206802F05AFA002084F864
:10192000BC0310BD10B50446D0F8040401F06CFCF3
:101930002068D0F8001E41F00101C0F8001E206AA6
:10194000002804D00248016841F00601016010BD82
:1019500010ED00E02DE9F843044600684FF001095E
:10196000C1074FF0000601D1400727D5DFF81C81E1
:10197000C8F86860FFF7B8FA0746454D05E000BFB4
:10198000FFF7B2FAC01B022857D828680001F7D425
:1019900060688101207A41EA00703D498431086025
:1019A000C8F86890FFF7A0FA074604E0FFF79CFA32
:1019B000C01B022841D828680001F7D5207880078D
:1019C00052D533484030016841F0805101600068D1
:1019D000304D00F080500090286840F480702860FE
:1019E000FFF782FA074604E0FFF77EFAC01B0228E1
:1019F00023D82868C005F7D5254D7035286810F420
:101A0000407020D0A18901F4407181421BD0286828
:101A100020F440712048C0F80090066029602868D2
:101A2000C00710D0FFF760FA064641F2883707E09A
:101A3000FFF75AFA801BB84202D90320BDE8F883A9
:101A400028688007F4D5E1681148C1F30122083005
:101A5000032A12D0016821F4F81101602868A189D5
:101A6000C1F30B01084328602078000703D50B4918
:101A7000207CC1F8E0010020E0E70268084B22F476
:101A8000F81219400A430260E8E7000000004742EC
:101A90000038024000700040400E474200104742AC
:101AA000FFFCFF0F2DE9F0470E46050065D0DFF87B
:101AB0001481D8F80000F7B200F00F00B04207D24E
:101AC00088F80070D8F8000000F00F00B04254D140
:101AD00028683D4C810712D5400703D5206840F4A3
:101AE000E05020602878000703D5206840F460406B
:101AF00020602068A96820F0F00008432060287862
:101B0000C0072DD0304968680839012812D0022852
:101B100013D0032811D00968890700292DDA21681C
:101B200021F0030101432160FFF7DEF9814641F214
:101B3000883A0EE009688903EFE709688901ECE754
:101B4000FFF7D2F9A0EB0901514502D90320BDE806
:101B5000F0872068696800F00C00B0EB810FEFD1CE
:101B6000D8F80010404601F00F01B14207D90770C4
:101B7000006800F00F00B04201D00120E7E72878AC
:101B8000400705D52068E96820F4E050084320604C
:101B90002878000706D52068296920F4604040EACB
:101BA000C100206000F01EF82168084AC1F303114B
:101BB000515CC8400649086006480068FFF7BCF958
:101BC0000020C4E7003C024008380240704B000887
:101BD000840000207C00002001480068704700005D
:101BE00084000020154810B5006810F00C0214485D
:101BF00013D01449042A0FD0082A0ED10F4C241FE9
:101C00002268236802F03F025B0207D52068C0F318
:101C10008810A0FB010106E0084610BD2168C1F351
:101C20008811A1FB00010023FEF7D0FA2168C1F35F
:101C30000141491C4900B0FBF1F010BD08380240D9
:101C40000024F40040787D012DE9F84F04006ED0A7
:101C50002078DFF83C93C007A9F104054AD009F1C8
:101C600004000168C1F38101012908D00068C0F3B4
:101C7000810002280AD1D9F80000400206D5286860
:101C8000800337D560680028E1D033E06068B0F5A4
:101C9000803F10D0B0F5A02F286810D020F48030FD
:101CA0002860286820F4802028606068A8B1FFF7C9
:101CB0001BF906460DE0286840F48030F4E740F454
:101CC00080202860F7E700BFFFF70EF9801B64282B
:101CD00073D828688003F7D50CE0FFF705F90646AE
:101CE00005E000BFFFF700F9801B6428F0D82868E2
:101CF0008003F7D42078DFF89C8280074FF0000A39
:101D00003ED5A348001D016811F00C0F08D00068F3
:101D1000C0F3810002280BD1D9F80000400207D49B
:101D20002868800716D5E068012800D112E02BE171
:101D3000E068B8B10120C8F80000FFF7D5F8064602
:101D400005E000BFFFF7D0F8801B0228C0D8286844
:101D50008007F7D52868216920F0F80040EAC10023
:101D600028600DE0C8F800A0FFF7BEF8064604E0C2
:101D7000FFF7BAF8801B02281FD828688007F7D41D
:101D80002078000722D5824E83486169703671B190
:101D900001210160FFF7A8F8074604E0FFF7A4F867
:101DA000C01B022809D830688007F7D50EE0C0F8BC
:101DB00000A0FFF799F8074605E082E0FFF794F8E6
:101DC000C01B02287DD830688007F7D420784007F0
:101DD00068D5DFF8BCB100270BF13C0BDBF8000045
:101DE000C0000BD4DBF8001041F08051CBF800109C
:101DF000DBF80000012700F080500090674E30684B
:101E0000C00510D4306840F480703060FFF76CF883
:101E1000009005E0FFF768F80099401A022850D8B2
:101E20003068C005F6D55A4EA0686C3601280FD030
:101E30000528306810D020F001003060306820F0B4
:101E400004003060A068B8B1FFF74EF800900FE0D2
:101E5000306840F00100F4E740F004003060F7E73C
:101E6000FFF742F80099411A41F28830814266D862
:101E700030688007F4D50EE0FFF736F8009007E0F1
:101E8000FFF732F80099411A41F28830814256D862
:101E900030688007F4D42FB1DBF8001021F08051B6
:101EA000CBF80010A069C8B33949091D0968C1F30E
:101EB000810102294AD00228504607D0C8F86000A4
:101EC00000E03CE0FFF710F804463BE04746C8F866
:101ED0006000FFF709F8064605E000BFFFF704F8C9
:101EE000801B02282BD828688001F7D4D4E9070189
:101EF0000843A16A2A4A490802EB0141626A41EAA1
:101F00008211084394F82C1040EA0161C9F80010CE
:101F100001203866FEF7E8FF044606E036E000BF21
:101F2000FEF7E2FF001B022809D828688001F7D5D8
:101F30002CE000BFFEF7D8FF001B022802D90320C7
:101F4000BDE8F88F28688001F4D41FE00128F7D09D
:101F5000D9F80000E26900F48001914214D1226AAC
:101F600000F03F0191420FD147F6C071626A014013
:101F7000914209D1A26A00F44031914204D1E16A50
:101F800000F07060884201D00120D9E70020D7E737
:101F90000438024000004742800E47420070004073
:101FA0000000FFFF0068503050F8210070470068C3
:101FB000503040F82120704710B500680B4641684A
:101FC0000D480140080CD870C1F304245C7001F086
:101FD0003F049C70C1F34231197052B900F0D4FB38
:101FE000D870587800F0D0FB5870987800F0CCFB8F
:101FF0009870002010BD00003FFFFF0010B50B4699
:102000000168896A596001680969C1F30E01996024
:10201000006801680E480140C1F305401870C1F323
:1020200006245C7001F07F049C70402404EA114196
:10203000D97052B900F0A8FB1870587800F0A4FBD2
:102040005870987800F0A0FB9870002010BD000038
:102050007F7F7F0070B5040002D0607F10B106E082
:10206000012070BD00202077204600F049F80220B2
:1020700060772168CA204862216853204862204660
:1020800000F096FBFF25042618BB206881681B4AD8
:10209000114081602168886862681043D4E9042394
:1020A0001A43104388602168E0680861206801696C
:1020B000228941EA024101612068C16821F0800162
:1020C000C16020688068800607D4204600F0FEF8D2
:1020D00018B1206845626677C2E72068016C21F478
:1020E000802101642068016CA269114301642068A9
:1020F000456201206077002070BD0000BFFF8FFFA8
:1021000000680349884202D10249012008607047F3
:10211000002800403C0E47422DE9F0470446007F6E
:102120000B4601281FD04FF0010984F81C900220B3
:102130006077DAB19878D97840EA0145587819780B
:10214000000240EA413005432168CA204862216804
:1021500053204862204600F02BFB0026FF274FF05B
:10216000040860BB1AE00220BDE8F0875878C10679
:1021700003D500F0EF000A305870D87800F00DFB5E
:102180000204587800F009FB42EA0022987800F037
:1021900004FB0243187842EA4035D5E70F48054072
:1021A000206845602068C16821F08001C160206816
:1021B000806880060AD4204600F088F830B1206894
:1021C000476284F81D8026770120CDE720684762AA
:1021D00084F81D9026770020C6E700003FFFFF002F
:1021E0002DE9F0470446007F0D46012827D04FF027
:1021F000010A84F81CA0022060772068002680680D
:102200004FEA4060F2B1002800DBEE70A878297830
:1022100040EA01476878E978000240EA0140074354
:102220002168CA204862216853204862204600F095
:10223000BFFA4FF0FF084FF00409A0BB16E00220E0
:10224000BDE8F087002800DBEE70287800F0A5FAE2
:102250000204687800F0A1FA42EA0022A87800F0AF
:102260009CFA0243E87842EA0047D9E7164807405B
:10227000206807602068816821F480218160D5E9A9
:102280000301084321688A68104388602068C16898
:1022900021F08001C1602068806880060BD4204650
:1022A00000F014F838B12168C1F8248084F81D903A
:1022B00026770120C4E72168C1F8248084F81DA096
:1022C00026770020BCE700007F7F7F0070B50446C2
:1022D0000068C16821F0A001C160FEF705FE054657
:1022E0004FF47A7607E000BFFEF7FEFD401BB042D8
:1022F00001D9032070BD2068C0688006F4D5002095
:1023000070BD10B5401EB0F1807F01D3012010BD1B
:102310004FF0E02460610F21601701F091FE002072
:10232000A06107202061002010BDFEE7F0B500236A
:102330000A24302537261F4611E000BFB4EB107F7A
:1023400002D905EB107C01E006EB107C01F813C00C
:1023500001EB430C00015B1C8CF80170DBB2934273
:10236000ECD3F0BD2DE9F0410B4F0C4605464FF480
:102370000056002231463846FEF7B0FD681EFEF7D3
:10238000D1FC012231463846FEF7A8FD601EBDE8AB
:10239000F041FEF7C7BC0000000802407FB50024F2
:1023A00021480094019402941E4903940160012580
:1023B0004FF480310561C0E90114047680F82050A3
:1023C0001A494562C0E90A140326C661C46080F850
:1023D00030404561FEF77DFB08B1FEF7CAFA0620E2
:1023E0000094CDE9015069460F48FEF7C9FA08B1DB
:1023F000FEF7BFFA102000900220019069460A48BB
:10240000FEF7BEFA08B1FEF7B4FA1120CDE90006D6
:1024100069460548FEF7B4FA002801D0FEF7A9FA8C
:102420007FBD000000200140B00100200100000F2E
:1024300070B586B014216846FDF712FF15480024D8
:10244000016841F004010160016801F00401059197
:10245000016841F080010160016801F0800105918F
:10246000016841F0010101600068012200F00100F3
:10247000094E5503059029463046FEF72FFD0120F1
:102480000095CDE90104694630460394FEF75CFCF3
:1024900006B070BD303802400008024070B586B00A
:1024A00014216846FDF7DCFE3F4800243D490594B1
:1024B000C0E900147F218160FF21C0E90314446159
:1024C0008461FFF7C7FD08B1FEF753FA01213648D2
:1024D000FFF768FD43F2F222904229D001213248F1
:1024E000FFF765FD8DF800408DF801408DF8024042
:1024F0000394012269462C480494FFF771FE08B149
:10250000FEF737FA01208DF8140006218DF815101A
:102510008DF8160020208DF81700012205A9224809
:10252000FFF7FAFD002801D0FEF723FA06B070BDD0
:102530001E4D28681E4C00014FF400560CD5002299
:1025400031462046FEF7CAFC0920FEF7EBFB0122CC
:1025500031462046FEF7C2FC286840011CD5002207
:1025600031462046FEF7BAFC0920FEF7DBFB0122CC
:1025700031462046FEF7B2FC6320FEF7D3FB002273
:1025800031462046FEF7AAFC0920FEF7CBFB0122CC
:1025900031462046FEF7A2FC286840F08070286093
:1025A000C4E7000000280040F80100207438024011
:1025B0000008024010B500220F49104800F073FCDB
:1025C00008B1FEF7D6F90E490C4800F045FE08B1F7
:1025D000FEF7CFF90B49094800F071FA08B1FEF790
:1025E000C8F9064800F0B2FE002803D0BDE810404C
:1025F000FEF7BFB910BD0000140000201802002033
:102600006401002064000020FEE770470148FEF7E7
:1026100059BE0000E81600202DE9F04103680D4680
:1026200004461E6C03EB4511D1F8080BD4F810E0FA
:102630004FF400474FF0200C04F57172BEF1010F0A
:1026400009D0DFF898E0764539D1020432D500BFD1
:10265000C1F8087B3FE0224B5FEA007E04D59E4232
:1026600039D90004F4D436E05FEA806E02D5C1F8AF
:1026700008CB30E010F0280F2DD19E4201D9000484
:10268000E6D4C5EBC50004EB8000D1F8101BD0F8F0
:102690000432C1F31201591AC0F81412D0F808120A
:1026A0001944C0F8081295B9D4F8100278B901217C
:1026B00020680AE080060AD5C1F808CB07E035B9E2
:1026C000D4F8100218B90021184601F009FAE9B24D
:1026D0002046FEF7DDFC0020BDE8F0810A31544FB2
:1026E0000A30544F2DE9F84F0E46C1EBC60100EBFE
:1026F000810481460568D4E914103C34884202D92B
:102700000120BDE8F88F081AA168814200D208466E
:10271000C01C870805EB46181BE000BFA0EB010AB0
:10272000A068504500D282460AF10300870899F854
:10273000100000901FFA8AF3F2B22846E16801F017
:1027400057FCE16801EB0A00E060A16901EB0A00B7
:10275000A061D8F8180980B2B84205D3D4E90501C0
:10276000814201D20028D9D1D4E90501884208D894
:1027700006F00F0101208840D5F834188143C5F8D0
:1027800034180020BDE77047010901EB810100F01A
:102790000F0000EB4100C0B27047002102E00A3890
:1027A000C0B2491C0A28FAD2090740EA11607047F2
:1027B00070B504460068C168490614D44FF0FF3173
:1027C000C160FEF791FB05464FF47A7607E000BF43
:1027D000FEF78AFB401BB04201D9032070BD206880
:1027E000C0684006F4D5002070BD7047017840787D
:1027F00041EA00207047FEF77DBB000030B597B07E
:1028000030216846FDF72CFD14210CA8FDF728FDAA
:10281000142111A8FDF724FD22480025016841F08C
:1028200080510160006800F0805016901E480168D9
:1028300021F4404141F4004101600068022400F4A9
:1028400040401690052000904FF480300190012008
:1028500002908005CDE90640192008904FF4A87039
:10286000099004200A9007200B906846FFF7ECF9C6
:1028700098B90CA90F2081E83100E002CDE90F05DD
:1028800002210CA8FFF70EF938B9E0011490119459
:1028900011A8FFF75FF8002801D0FEF76AF817B01B
:1028A00030BD00004038024000700040054801681B
:1028B00041F47001016003494FF000608039086005
:1028C0007047000088ED00E02DE9F0410C46D0F89B
:1028D000C432D0F8BC12F9B104EB840200EB8202DE
:1028E000002695694DB1C4EBC40703EB87035B6C0D
:1028F000B5FBF3F703FB175383B1C1F81462D0F8AB
:10290000C002D1F8085222460369284601F5047135
:1029100098470020BDE8F0810320FBE70023966183
:102920001A46214600F079FCF3E770B5D0F8BC42B6
:1029300005466CB100F07DFBC4F80C02D5F8C0125E
:10294000D4F80402CA6804F503719047002070BDF2
:10295000032070BD70B504460026812100F0C6FA40
:10296000002525870121204600F0C0FAA4F87851FF
:102970008221204600F0BAFAA4F84C50A4F84E5038
:10298000D4F8BC0248B1D4F8C00204F52F744068F2
:102990008047206801F0D2FF2560304670BD10B539
:1029A000D0E9AF4159B194F80002FF2807D08B68F5
:1029B00094F8012221469847FF2084F80002002065
:1029C00010BD00000A210180004870478C000020E3
:1029D0004321018000487047DC0000204321018032
:1029E000004870479800002043210180004870474C
:1029F000200100202DE9F04704464FF4077002F053
:102A000081F805004FF0000735D0C4F8BC52207C97
:102A10004FF010084FF40079012680B340230222C2
:102A20008121204600F04EFB26874023022201210F
:102A3000204600F047FBA4F87861A4F84E800823F4
:102A400003228221204600F03DFBA4F84C60D4F81C
:102A5000C00200688047C5F81472C5F81872207C5F
:102A6000D5F80422A8B140230121204600F036FB0E
:102A70000020BDE8F0870220C4F8BC72F9E7FFE748
:102A80004B4602228121204600F01CFB26874B4644
:102A9000CCE74B46E8E710B5D0F8BC1251B1027C48
:102AA000002AD1F8042207D04023012100F016FBB0
:102AB000002010BD032010BD4FF40073F5E719B1DD
:102AC000C0F8C0120020704703207047D0F8BC0245
:102AD000C0F8041200207047D0F8BC02C0F81022E1
:102AE000C0F80812002070472DE9FC410546D0F8D7
:102AF000BC7200208DF80000ADF80400064608788E
:102B00000C4610F0600121D020293DD1E288AAB105
:102B10000006607807D5D5F8C0128B68394698470B
:102B2000E288394628E087F80002A07987F8010298
:102B3000E2883946284600F06DF82AE0D5F8C01240
:102B4000607800228B682146984722E0607830B197
:102B500001281ED00A2809D00B2815D110E095F8BD
:102B60009C02032810D1022201A905E095F89C02DD
:102B7000032809D101226946284600F065F808E0DB
:102B800095F89C02032804D02146284600F037F827
:102B900003263046BDE8FC8110B5D0F8BC120122F6
:102BA00019B1D1F8143213B10FE0032010BD012286
:102BB000C1F81422D1F81022C262D1F81032D1F833
:102BC0000822812100F029FB0022104610BD10B51B
:102BD000D0F8B8220AB152689047002010BD1346C1
:102BE00010B50A46002100F079FA002010BD134606
:102BF00010B50A46002100F010FB002010BD10B5F2
:102C00000446802100F0EEFA2046BDE81040002185
:102C100000F0E8BA10B50323C0F85821C0F8943288
:102C2000C0F85C2113460A46002100F057FA002044
:102C300010BD10B505210023C0F894121A4619469C
:102C400000F04CFA002010BD10B502238261C0F8DC
:102C50009432C26113460A46002100F0DEFA0020D9
:102C600010BD10B504210023C0F894121A4619466D
:102C700000F0D3FA002010BD10B50A46024903A0A7
:102C800000F0E1F8004810BDE80400204344432070
:102C9000436F6E6669670000122008800048704725
:102CA0003400002010B50A46024903A000F0CBF81A
:102CB000004810BDE804002043444320496E746579
:102CC0007266616365000000042008800048704758
:102CD0003000002010B50A46024903A000F0B3F806
:102CE000004810BDE804002053544D6963726F65BD
:102CF0006C656374726F6E696373000010B50A4689
:102D0000024903A000F09FF8004810BDE80400202D
:102D100053544D3332205669727475616C20436F81
:102D20006D506F727400000010B51A2008800A48B8
:102D30000168001D0468001D0068081809D00822F9
:102D40000649FFF7F3FA0549042210312046FFF740
:102D5000EDFA0248801E10BD107AFF1F4A000020C5
:102D6000F8B504460020ADF8000048880D46010A79
:102D700008295FD2DFE801F05E0409175E5E3C457A
:102D8000D4F8B412207C0A6819E0207C02260028BE
:102D9000D4F8B80205D0C16A684688470146467033
:102DA00039E0816AF8E7C0B2062843D2DFE800F0D4
:102DB000030A1014181CD4F8B402426805E06946EE
:102DC00090471CE0D4F8B402826892B3207CF6E706
:102DD000D4F8B402C268F8E7D4F8B4020269F4E7A0
:102DE000D4F8B4024269F0E7D4F8B4028269ECE79F
:102DF000207CF0B9D4F8B802416B68468847014698
:102E000009E0207CA8B9D4F8B802016B684688476D
:102E1000014607204870EA888AB1BDF8000040B139
:102E2000824200D90246ADF800202046FFF70CFF91
:102E3000F8BDFFE729462046FFF7E1FEF8E7204608
:102E4000FFF70FFFF4E770B5002300281ED0002520
:102E5000044602E06D1CEDB2641C2678002EF9D108
:102E6000022404EB450414801278CA545B1C03222C
:102E7000CA5400245B1C06E0CA545B1CDAB28C54B2
:102E8000521CD3B2401C0278002AF5D170BD01005B
:102E90004FF0000004D0012901D0022901D0032005
:102EA00070470120704730B4A0B1D0F8B842002379
:102EB0000CB1C0F8B832D0F8CC420CB1C0F8CC326A
:102EC00009B1C0F8B412012180F89C12027030BC24
:102ED00000F0B4B830BC0320704710B5D0F8C4027D
:102EE000FEF70AF9BDE81040FFF7D1BF10B5D0F8E2
:102EF000C402FEF7DBF8BDE81040FFF7C8BF70B5AD
:102F00001646044649B1D4F8B80242691AB194F899
:102F10009C02032842D0032070BDD4F894120025EF
:102F200004F11400022932D1D0E902318B4206D9D2
:102F30005A1A826031462046FFF759FE0FE0994247
:102F400014D14068884211D3D4F8981288420DD227
:102F5000002211462046FFF74AFEC4F8985200238B
:102F60001A461946204600F0B9F810E0D4F8B80225
:102F7000C16829B194F89C02032801D120468847F2
:102F80008021204600F02EF92046FFF752FE94F8EB
:102F9000A002012806D184F8A05203E02046904701
:102FA0000028B9D1002070BD10B51346044649B1C0
:102FB000D4F8B80282691AB194F89C02032824D08C
:102FC000032010BDD4F8941204F5AA70032920D16F
:102FD000D0E9021291420AD98A1A8260C0688242FC
:102FE00000D3024619462046FFF7F9FD11E0D4F858
:102FF000B802016929B194F89C02032801D1204646
:1030000088472046FFF72DFE03E020469047002822
:10301000D7D1002010BD0020704710B5012180F8E5
:103020009C12D0F8B82212B1526801799047002062
:1030300010BDD0F8C402FEF78DB8000010B50178BD
:1030400039BB15490222C1F80404C0F8C4124FF07C
:10305000A0400860042048600020C1E90320C1E9C5
:10306000062008624862C86208630846FEF74CFB07
:1030700008B1FDF77EFC80210748FDF7D6FF40220E
:1030800000210548FDF7D5FF802201210248FDF708
:10309000D0FF002010BD0000E81600200A0601F055
:1030A0007F01D0F8C402C1EBC10100EB810002D561
:1030B00090F83E00704790F8FE017047002070477E
:1030C0000020704710B51C461346D0F8C4022246B3
:1030D000FEF749F8BDE81040FFF7D9BE10B5D0F8AB
:1030E000C402FEF770F8BDE81040FFF7D0BE70B51F
:1030F0000125044680F89C520020C4F894026060C8
:10310000C4F8A402D4F8BC0228B1D4F8B802002153
:103110004268204690470022402311462046FFF790
:10312000D1FF4026A4F86451334600228021204676
:10313000C4F86061FFF7C6FFA5840020266270BD59
:1031400090F89C12042903D190F89D1280F89C12EB
:103150000020704710B590F89C12032904D1D0F8D4
:10316000B812C96901B18847002010BD0174002060
:10317000704710B5D0F8C402FEF798FBBDE81040C8
:10318000FFF785BE70B5044600F2AA20054600F0A0
:103190004DF80120C4F89402B4F8B002C4F89802C3
:1031A00094F8AA0210F01F010AD001290ED00229BA
:1031B00012D000F080012046BDE8704000F012B847
:1031C00029462046BDE8704000F0C2B82946204696
:1031D000BDE8704000F0ECB929462046BDE87040DB
:1031E00000F040B910B5D0F8C402FEF710F8BDE801
:1031F0001040FFF74CBE10B5D0F8C402FEF771FBCB
:10320000BDE81040FFF743BE90F89C1280F89D1275
:10321000042180F89C120020704710B5D0F8C40239
:10322000FEF72FF8BDE81040FFF731BE70B5054638
:1032300011F8010B2870087868704C1C2046FFF7C5
:10324000D5FA6880A41C2046FFF7D0FAA880A01CFD
:10325000FFF7CCFAE88070BD38B504460020ADF821
:10326000000041B1C4F8B812896A68468847C4F8BA
:10327000CC02002038BD032038BD02460320D2F81E
:10328000B832002B02D01B68104618477047000068
:103290002DE9F0410F462C4E897800250446317007
:1032A000012906D939462046FFF7A9FC0320BDE8CD
:1032B000F08194F89C0202280CD003281DD03946D6
:1032C0002046FFF79CFC31782046FFF780FC032561
:1032D0002846ECE799B320466160FFF7CEFF050072
:1032E00004D039462046FFF78AFCF1E72046FFF775
:1032F000B8FC032084F89C02EAE74FF00208C1B151
:10330000606888421BD0C1B22046FFF760FC31786C
:1033100020466160FFF7B1FF050010D03946204616
:10332000FFF76DFC21792046FFF751FC84F89C8261
:10333000CEE784F89C8220466160FFF748FC204677
:10334000FFF78FFCC4E7000088000020FFF753BFA1
:103350002DE9F0410A78002512F0600208D0202AF9
:1033600001D0402A71D1D0F8B8229268904731E05C
:103370004B78002201260A2B67D2DFE803F0415E7A
:103380006658660805662D29FFF7EAFC5FE00446EB
:103390008888D8B9C888C8B94888802816D200F06B
:1033A0007F0794F89C02032810D084F89E72394657
:1033B0002046FFF7DEFE2046FFF753FC1FB1022038
:1033C00084F89C0243E084F89C6240E020463CE0A4
:1033D000FFF75EFF05463AE0CB88012B35D190F828
:1033E0009C32012B04D0022B02D0032B2DD104E000
:1033F0008260012200F1080116E00122011D13E0A4
:1034000090F89C22012A03D0022A01D0032A1CD161
:10341000CA88022A19D1C660D0F8A41209B10321C2
:10342000C160022200F10C01FFF70EFC0FE0498899
:1034300001290CD1C0F8A46211E090F89C32012B54
:1034400008D0022B06D0032B04D0FFF7D8FB284668
:10345000BDE8F08149880129F9D1C0F8A422FFF71D
:1034600000FCF4E72DE9F0410D46044628780027DA
:10347000097910F060000BD0202801D0402873D1CA
:10348000D4F8B802294682682046904707468CE067
:103490006878D8B3012822D0032865D194F89C021B
:1034A000022802D003287CD10BE0002979D08029A2
:1034B00077D02046FFF796FE80212046FFF792FE48
:1034C00073E0688838B931B1802904D0E88810B930
:1034D0002046FFF787FE2046FFF7C3FB65E094F820
:1034E0009C020228E1D003285BD16888D8BB48063B
:1034F00002D02046FFF7F1FC2046FFF7B2FBD4F8DC
:10350000B80229468268204690474EE0FFE794F8CB
:103510009C020026022802D0032842D111E009B102
:1035200080293ED1080601F07F0000EB800004EB0B
:10353000800101D5143101E001F5AA7102220E606B
:103540002BE0080601F00F0000EB800004EB800088
:103550000BD5808C40B101F07F0000EB800004EBC4
:10356000800514350CE020E01BE0B0F86401C0B128
:1035700001F07F0000EB800004EB800505F5AA75E3
:1035800041B1802906D02046FFF788FD10B1012007
:10359000286000E02E60022229462046FFF754FBF7
:1035A00003E029462046FFF72AFB3846BDE8F081B4
:1035B00070B50646087800240D4610F0600003D070
:1035C000202801D0402817D196F89C02012803D06A
:1035D000022801D003280FD1287901280CD8D6F869
:1035E000B8028268304690470446E888204306D1F6
:1035F0003046FFF736FB02E03046FFF700FB20467F
:1036000070BD000070B50A78012302F00F054E78F6
:10361000AB401B4CD0F81C58012E17D045EA034391
:10362000C0F81C3800EB4210D0F8002B12040BD469
:10363000D0F8002B0B89C978C3F30A031A4344EA74
:1036400081410A43C0F8002B002070BD9BB21D438E
:10365000C0F81C5800EB4210D0F800391B04F3D41A
:10366000D0F800390D89C978C5F30A0589042B43C0
:1036700041EA82510B432343C0F80039E4E70000DC
:1036800000800010D0F800196FF30A01C0F800198B
:10369000D0F8041841F48071C0F804180020704775
:1036A00070B5044606990A9E049D0D98012916D00E
:1036B000E06840F04000E060204600F02BF8A16B8D
:1036C0001EB321F48031A163012D07D1A16841F01F
:1036D0000601A160A16841F02001A16070BDA16B4D
:1036E00021F48031A163E168094A1140E160E16899
:1036F00021F44011E160012803D1E06840F480101A
:10370000E060204600F006F8DEE741F48031DAE7B9
:10371000BFFFBDFF01220C4902E0521C8A420BD8B8
:103720000369002BF9DA026942F001020261012209
:1037300004E0521C8A4201D9032070470369DB0769
:10374000F7D1002070470000400D030030B54C78E1
:103750000A78012300EB4212012C2CD0D2F8004B46
:10376000002C0BDAD2F8004B44F00064C2F8004B96
:10377000D2F8004B44F08044C2F8004BD0F83C58DB
:103780000C7804F00F0403FA04F425EA0444C0F8AA
:103790003C48D0F81C48097801F00F018B4024EA1E
:1037A0000341C0F81C18D2F8000B19490840C2F8B0
:1037B000000B002030BDD2F80049002C0BDAD2F803
:1037C000004944F00064C2F80049D2F8004944F0CE
:1037D0008044C2F80049D0F83C480D7805F00F0548
:1037E00003FA05F5ADB2AC43C0F83C48D0F81C482C
:1037F000097801F00F018B4099B28C43C0F81C4846
:10380000D2F8000903490840C2F80009D1E70000D6
:103810000078F3EF007833EC10B5D0F8041821F0FD
:103820000201C0F804180320FDF77CFA002010BD47
:1038300010B5D0F8041841F00201C0F804180320B4
:10384000FDF770FA002010BD2DE9F04F00250E465F
:103850000446DDF82CC0DDF824B0109F2846294628
:1038600004EB8002C2F80411401C0F28F8D3204654
:10387000C7B1806B20F40012A263A06B40F4002259
:10388000A26308468846C4F8000ED4F80018204603
:10389000C4F80018BCF1010F16D0D0F8001841F0A0
:1038A000030116E0D0F8040840F00202C4F804282E
:1038B000A06B40F40012A263A06B20F40022A2636C
:1038C000A06B20F48022DBE7D0F800180BB141F0A8
:1038D0000101C0F80018102100F090FA00B1012594
:1038E000204600F07BFA00B101254046C4F810885C
:1038F000C4F81488C4F81C8800214FF000694FF008
:10390000904A4FF67F3314E004EB4112D2F800C91D
:10391000BCF1000F06DA11B1C2F800A904E0C4F846
:10392000009901E0C2F80009C2F81009C2F808398C
:10393000491C8E42E8D8002115E000BF04EB41127B
:10394000D2F800CBBCF1000F06DA11B1C2F800AB1F
:1039500004E0C4F8009B01E0C2F8000BC2F8100BB1
:10396000C2F8083B491C8E42E8D8D4F8101821F45C
:103970008072C4F81028A0616FF080406061BBF1D4
:10398000000F03D1A06940F01000A061A0690949AF
:103990000843A0610C9818B1A06940F00800A0612C
:1039A000012F03D1A06904490843A0612846BDE85E
:1039B000F08F000000383C8004000040816821F056
:1039C000010181600020704770B50D784E78434C3E
:1039D000EBB200EB4313012E1FD0D3F8100B6FF3A3
:1039E0001200C3F8100BD3F8100B2040C3F8100BD3
:1039F000486908B188684861D3F8100B40F400208A
:103A0000C3F8100BD3F8100B8C68C4F312042043D6
:103A1000C3F8100B012A55D058E04E69002ED3F898
:103A2000106932D06FF31206C3F81069D3F8106929
:103A30002640C3F810694E698C68A64200D94C61D3
:103A4000D3F8104944F40024C3F81049D3F81049BE
:103A50004E69C6F312063443C3F81049012A22D036
:103A600000EB4512D2F8003943F00443C2F80039A4
:103A70004A6932B3D0F83428097801F00F030121E4
:103A800099400A43C0F8342826E02640C3F810695C
:103A9000D3F8104944F40024C3F81049D3F810496E
:103AA0006FF31204D8E7096919B100EB4512C2F8A7
:103AB000141900EB4510D0F8001941F00441C0F88A
:103AC000001909E0C86808B1C3F8140BD3F8000B5B
:103AD00040F00440C3F8000B002070BDFFFF07E07A
:103AE00010B5036C134CA34203D9D0F8003B002B54
:103AF0001EDB0023C0F8103BD0F8103B43F400233A
:103B0000C0F8103BD0F8103B43F01803C0F8103B4E
:103B1000D0F8103B43F0C043C0F8103B012907D157
:103B2000C0F8142BD0F8001B41F08021C0F8001B16
:103B3000002010BD0A30544F4A780B78012A00EB60
:103B400043100BD0D0F8002B22F40012C0F8002B49
:103B5000C978032914D0022912D017E0D0F800291F
:103B600022F40012C0F80029C978032901D00229E3
:103B70000CD1D0F8001941F08051C0F8001905E0CF
:103B8000D0F8001B41F08051C0F8001B00207047A6
:103B90000A784B78D1B200EB4110012B12D0D0F84B
:103BA000001B002906DB2AB1D0F8001B21F0804160
:103BB000C0F8001BD0F8001B41F40011C0F8001B36
:103BC00000207047D0F80019002906DB2AB1D0F890
:103BD000001921F08041C0F80019D0F8001941F413
:103BE0000011C0F80019EBE7F8B50C784F78774D65
:103BF000E3B26FF0604600EB4313012F26D0D3F8F9
:103C0000104B6FF31204C3F8104BD3F8104B2C4039
:103C1000C3F8104B4C69002C74D08D682C44641E82
:103C2000B4FBF5F4D3F8105BA4B206EAC4463543FE
:103C3000C3F8105BD3F8105B8E686643C6F31204BA
:103C40002543C3F8105B012A71D0A6E04F691FB36A
:103C5000D3F810796FF31207C3F81079D3F81079FD
:103C60002F40C3F810794F698D682F447F1EB7FB32
:103C7000F5F506EAC545D3F810693543C3F8105980
:103C8000D3F810594E69C6F312063543C3F81059DC
:103C9000CD78012D10D01BE0D3F810692E40C3F869
:103CA0001069D3F8105945F40025C3F81059D3F81A
:103CB00010596FF3120509E0D3F8105925F0C045EB
:103CC000C3F81059D3F8105945F00055C3F81059EE
:103CD000012A18D000EB4413D3F8004944F00444FF
:103CE000C3F80049CC78012C2FD04A6962B3D0F8D0
:103CF0003428097801F00F03012199400A43C0F8E4
:103D0000342860E036E00A691AB100EB4413C3F8C6
:103D10001429C97801290FD1D0F80818C90500EB7A
:103D20004411D1F8002903D442F0005202E030E0FF
:103D300042F08052C1F8002900EB4410D0F800197D
:103D400041F00441C0F800193DE0D0F80848E4050E
:103D5000D3F8004902D444F0005401E044F0805408
:103D6000C3F8004900928A8A93B20A78C96800F0C1
:103D70003FF928E0D3F8104B8D68C5F312052C43AA
:103D8000C3F8104BD3F8104B44F40024C3F8104B85
:103D900059E7CA680AB1C3F8142BC97801290CD1B4
:103DA000D0F80808C005D3F8000B02D440F000504A
:103DB00001E040F08050C3F8000BD3F8000B40F056
:103DC0000440C3F8000B0020F8BD0000FFFF07E02F
:103DD000816841F0010181600020704700211022BC
:103DE0000261054A491C914201D9032070470369C9
:103DF000DB06F7D400207047400D0300002220238B
:103E000043EA811101610549521C8A4201D903200C
:103E1000704703699B06F7D400207047400D0300EC
:103E2000D0F8080810F0060004D0022803D00628B5
:103E300001D00F20704702207047406900F0010058
:103E40007047D0F81818D0F81C08084080B27047A6
:103E5000D0F81818D0F81C080840000C704710B5AE
:103E6000D0F81038D0F8342801F00F0400EB4110DE
:103E7000E24002F00102D0F8080943EAC212104001
:103E800010BD00EB4111D1F8081BD0F81408084010
:103E900070474169806908407047D21C10B593088B
:103EA000002200F5805002E00468521C10C19A42C2
:103EB000FAD3084610BD10B5C26822F0C042C260F5
:103EC000012902D029B1012010BDC16841F0005183
:103ED00002E0C16841F08041C1603220FCF722FF5E
:103EE000002010BDD0F8002822F4FE62C0F800289F
:103EF000D0F800284FF4FE6303EA01110A43C0F82A
:103F00000028002070470000022A3ED1264A274B95
:103F10000A449A4201D20F2138E0254A254B0A442F
:103F20009A4201D20E2131E0234A244B0A449A429C
:103F300001D20D212AE0224A224B0A449A4201D2A0
:103F40000C2123E0204A214B0A449A4201D20B2142
:103F50001CE01F4A1F4B0A449A4201D20A2115E075
:103F60001D4A1E4B0A449A420FD31D4A1D4B0A4458
:103F70009A4201D2082109E01B4A11441B4A91428E
:103F800001D2072102E0062100E00921C26822F4E3
:103F90007052C260C2684FF4705303EA81210A4331
:103FA000C260002070470000405327FF00350C001E
:103FB000401E1BFF40420F0000DC0BFF804F120031
:103FC000808CF9FE20D6130060B6E5FE60E3160093
:103FD00000D3CEFE40771B00C05BB3FEC091210032
:103FE00000CA91FE20753800E05459FEE09C410063
:103FF00010B5029C64B9DB1C9C0800EB0230002366
:1040000000F5805002E004C902605B1CA342FAD3B1
:10401000002010BDFEE700000FB4084B10B504A946
:1040200002AA039800F0EEF8044602A9002000F06E
:1040300080FC204610BC5DF814FB000033490008EA
:104040000907090E002804DB00F1E02080F80014C5
:10405000704700F00F0000F1E02080F8141D704759
:1040600002E008C8121F08C1002AFAD17047704741
:10407000002001E001C1121F002AFBD1704700009F
:104080002DE9FF5F82B00021DDE90430020DDDF88B
:1040900040B0034318D044F61050A2F2FF3242431E
:1040A0001514119801281FD0A5EB0B00401C5FEAE6
:1040B000000A4FF000064E4FDFF83891B0465046E8
:1040C00015D5CAF1000413E0119801244AA3012870
:1040D00001D16FEA0B010298119AC0E90031C0E9E1
:1040E000024206B0BDE8F09FCBF10000DFE70446D6
:1040F0000021404A491842EB0450CDE9001012E07B
:10410000E00707D032463B4640464946FCF7A2F955
:104110008046894632463B4610461946FCF79AF9D6
:1041200006460F466410002CEAD1DDE90401DDE902
:104130000023BAF1000F06DAFCF78CF942464B4631
:10414000FCF788F905E0FCF7F7F942464B46FCF727
:10415000F3F904460E460022284BFCF775FA03D803
:104160004FF0FF30014607E00022254B2046314644
:10417000FCF7C9F8FCF74FFA102409E0002C0ADB21
:104180000A220023FCF722F8039B30321A55641EE2
:1041900050EA0102F2D1641C039AC4F111031444E1
:1041A000119A012A03D0012208430DD10AE00843E5
:1041B00004D000204FF0110B119072E7A3EB0B0518
:1041C0006D1E0DE05B4504DD4FF0000205F10105B9
:1041D00004E003DA4FF00002A5F10105002AECD05B
:1041E00002981199C0E90231C0E9004579E7000061
:1041F000000014400000F03F300000000000F043D9
:104200000000E03F2DE9FF4F95B09B4689460646EA
:1042100000250FE2252877D100242746F84A0121FE
:10422000059400E0044316F8013F203B01FA03F037
:104230001042F7D130782A2811D06FF02F03307850
:10424000A0F13002092A16D8059A44F0020402EBC4
:10425000820203EB42021044761C0590EFE759F806
:10426000042B0592002A03DA504244F400540590CE
:1042700044F00204761C30782E2816D116F8010F6F
:1042800044F004042A280DD06FF02F023078A0F1FA
:104290003003092B09D807EB870302EB4303C71848
:1042A000761CF3E759F8047B761C30786C280FD025
:1042B00006DC4C2817D068280DD06A2814D104E0F9
:1042C000742810D07A280FD10DE044F400140AE0CD
:1042D00044F4801401E044F440147278824202D124
:1042E00004F58014761C761C307866280BD013DC1D
:1042F000582877D009DC002875D04528F6D0462804
:10430000F4D047281AD19DE118E0632835D06428FD
:1043100079D0652812D195E1702873D008DC672820
:10432000F1D069286FD06E280DD06F2806D1B5E086
:1043300073282CD0752875D0782874D05A461799D0
:1043400090476D1C75E1C4F30250022809D0032880
:104350000DD0D9F8001004280DD00D6009F1040922
:1043600067E1D9F80010EA17C1E90052F6E7D9F879
:1043700000100D80F2E70D70F0E719F8041B8DF8BE
:10438000001000208DF80100EA46012003E059F8F2
:1043900004AB4FF0FF3061074FF0000102D40DE095
:1043A00008F101018846B9420FDA8045F8DB1AF8B6
:1043B00008100029F4D108E008F101018846814283
:1043C000FADB1AF808100029F6D105985B46A0EB35
:1043D000080721463846179A00F094FA284400EB63
:1043E000080507E04DE029E10DE01AF8010B5A46F7
:1043F00017999047B8F10108F7D25B462146384635
:10440000179A13E142E00A220092C4F302524FF0DD
:10441000000A022A08D059F804CB032A4FEAEC71AB
:104420000AD00DE029E02AE009F1070121F0070296
:10443000F2E802C1914609E00FFA8CFC4FEAEC71F8
:10444000042A03D14FFA8CFC4FEAEC71002907DAF9
:104450000A460021DCF1000C61EB02012D2202E092
:10446000220504D52B228DF80420012203E0E20767
:1044700001D02022F7E7904659E00A2102E01022FD
:104480000DE010214FF0000A00910BE010224FF0D8
:10449000000A44F004040827009203E008224FF0C9
:1044A000000A0092C4F30252022A05D059F804CB44
:1044B0000021032A08D009E009F1070121F00702D1
:1044C000F2E802C1914605E01FFA8CFC042A01D1F2
:1044D0000CF0FF0C4FF00008220728D5702806D0FA
:1044E000009B83F0100353EA0A0305D00EE040223C
:1044F0008DF80420012208E05CEA010206D0302297
:104500008DF804208DF8050002229046009B83F070
:10451000080353EA0A030AD15CEA010201D16207E7
:1045200005D530228DF804204FF001087F1E582851
:1045300004D034A003900EA802900DE036A0F9E755
:1045400053466046009AFBF741FE84460398825C1E
:104550000298401E029002705CEA0100F0D10298BD
:1045600006A9081A00F1200A600702D524F4803455
:1045700000E00127574502DDA7EB0A0000E000201C
:1045800000EB0A01009005984144401A0590E003B1
:1045900006D45B462146179A059800F0B3F9054406
:1045A000002706E001A85A46C05D179990476D1C88
:1045B0007F1C4745F6DBE0030CD55B462146179A86
:1045C000059800F09FF9054404E030205A461799F9
:1045D00090476D1C0099481E00900029F5DC08E00A
:1045E000029802995A460078491C029117999047FF
:1045F0006D1CBAF10001AAF1010AF1DC65E10000CD
:1046000009280100303132333435363738396162A8
:10461000636465660000000030313233343536376C
:1046200038394142434445460000000000F058F943
:104630000544761C307800287FF4ECAD19B028468C
:10464000BDE8F08F620700D4062709F1070222F0C7
:10465000070CFCE80223E14603F000485FEA080C7F
:1046600002D00FF2702C0DE05FEA045C02D50FF26D
:10467000682C07E05FEAC47C02D00FF2602C01E0F6
:10468000AFF2700C4FF0FF3823F00043CDF850C06C
:1046900065280CD006DC452809D046281DD04728BF
:1046A0003DD13DE0662818D067287ED138E0002152
:1046B000112F01DB112000E0781CCDE9000106A9D3
:1046C0000EA8FFF7DDFCDDE90F010E9A0391002132
:1046D000009207F1010A04914DE04FF0004000976D
:1046E000CDE9011006A90EA8FFF7CAFCDDE90F020B
:1046F00003920E9B11990022DDF80CA00093049206
:1047000011B9791C00EB010AB7EB0A0004D4C0F11F
:10471000FF3007F1010A0490AAEB0700019044E082
:10472000012F00DA01270021112F01DD112000E007
:104730003846CDE9000106A90EA8FFF7A1FCDDE986
:104740000F010E9A0391002104910092BA462107AD
:104750000CD40399514500DA8A46BAF1010F05DD00
:10476000009AAAF10101515C302908D0B84202DA5E
:1047700010F1040F06DA0121CDE9011015E0AAF1CC
:104780000101E9E7002805DC049901440491AAEB42
:10479000000102E0411C514500DD8A460499401A9F
:1047A000401C01904FF000400290200704D4019873
:1047B000504501DBCDF8048000208DF84F000298B1
:1047C0000DF14F07B0F1004F25D02B200E9002982D
:1047D0004FF0020800280CDA404202902D200E9083
:1047E00007E00A210298FBF759FD3031029007F8E3
:1047F000011DB8F10001A8F10108F2DC02980028BF
:10480000EFD1791E0E980870307800F0200040F04B
:10481000450007F8020D12A8C01B00F10708149804
:10482000007800B1012000EB0A01019801EBE07172
:1048300005984144401A401E0590E00306D45B46AB
:104840002146179A059800F05DF805441498007801
:1048500018B15A46179990476D1CE00324D55B4662
:104860002146179A059800F04DF805441CE004987D
:10487000002807DBDDE90301884203DD0098405C86
:10488000179901E0179930205A469047049805F18E
:104890000105401C04900198401E019004D12E2077
:1048A0005A46179990476D1CBAF10001AAF1010A06
:1048B000DDDC05E017F8010B5A46179990476D1C8F
:1048C000B8F10001A8F10108F4DC5B462146179A13
:1048D0000598ABE62D0000002B0000002000000032
:1048E0002DE9F041044600251E461746880404D4ED
:1048F00005E039462020B0476D1C641EF9D52846D6
:10490000BDE8F0812DE9F041044600251E469046A1
:10491000C80301D5302700E02027880404D505E02E
:1049200041463846B0476D1C641EF9D52846BDE89F
:10493000F0810A68531C0B601070704710B5002896
:1049400021D0114B0022001F196803E0814203D8D7
:104950000A4649680029F9D152B11368841A9C4269
:1049600004D1006818441060104602E0506000E076
:10497000186039B102680B1A934203D10B681A44CC
:1049800002604968416010BD9C01002094B0FCF7B2
:10499000B9FAFDF733FFFDF74BFDFDF7FFFCFDF71F
:1049A0007DFDFDF707FE3B4D12AC0DA900223A48F4
:1049B000FDF724FB002221463748FDF7FDFA9DF85C
:1049C0004A009DF835209DF834108DE807009DF8C9
:1049D00049309DF84B2031A103A8FFF71DFB81B2A0
:1049E00003A8FBF7AFFF64210520FDF7BBFC374EA2
:1049F000002440F6FF773648FCF718F920B9642107
:104A00003348FCF7C1F808B1FBF7B3FF3048FCF7B7
:104A10005DF826F8140036F8140040F6E4414843E7
:104A2000B0FBF7F045F82400641C032CE3D32848BE
:104A3000FCF75AF92C6825480C3804606968DFEDEA
:104A4000250A00EE101AB0EE041AB8EE400A70EE15
:104A5000600A80EE810AF3EE090A30EE200A80ED4A
:104A6000020AAE68466010EE100AFBF704FCCDE9BE
:104A700000013346224618A103A8FFF7CDFA81B200
:104A800003A8FBF75FFF4FF4FA610520FDF76AFC0E
:104A90008AE70000A4010020F80100200D0A5765F4
:104AA0004163742053747564696F0D0A3230253088
:104AB00032642F253032642F253032642025303285
:104AC000643A253032640D0A000000000C0000201A
:104AD000B001002000003E44205041303A202534EF
:104AE000646D560D0A567265663A202534646D561B
:104AF0000D0A74656D703A20252E31662027430D0E
:104B00000A000000F0B50B30154D20F0070100241D
:104B1000144A0FE003688B420BD38B4205D95E1A0F
:104B200043184768C3E9006700E04368136002C0A8
:104B300004E0021D10680028ECD12046002802D1B4
:104B4000286808B10020F0BD064A07481060074AEF
:104B5000121A22F00702C0E9002401202860D7E7DA
:104B6000A00100209C010020F41A0020F022002067
:104B7000000000000000000001020304060708090D
:104B8000A04B000800000020A40100007A070008E4
:104B9000644C0008A40100204C250000704000086F
:104BA000011413992C1B08C9041AD5041AFD041307
:104BB000292D1B0879081AA50417040309041201FA
:104BC0001402020216408304405726020102030128
:104BD000031A1A031305091408FF081B08FB041A1B
:104BE000290C1A410419331182105324F4130A06B4
:104BF00032022A401C1C0902435B1125C032090401
:104C00001B01020B130524161001052401100901D4
:104C100004240202052406170107058203081C105C
:104C2000090491320A1D07050102432C070581077B
:104C30000938442A40072A8107112B0907440A3BF7
:104C4000044413F5291B08550413E92A42081A9F46
:104C50000C13C9281B082B08C11ADD102AD12819EA
:044C6000049AC51CD1
:040000050800019559
:00000001FF
