:020000040800F2
:10000000D0040020AD010008C31500088D130008BE
:10001000C1150008C10300083919000800000000DC
:10002000000000000000000000000000171600089B
:10003000C303000800000000C515000845160008AD
:10004000C7010008C7010008C7010008C701000870
:10005000C7010008C7010008C7010008C701000860
:10006000C7010008C7010008C7010008C701000850
:10007000C7010008C7010008C7010008C701000840
:10008000C7010008C7010008C70100080000000000
:10009000000000000000000000000000C701000890
:1000A000C7010008C701000835170008C70100088C
:1000B000C7010008C7010008C7010008C701000800
:1000C000C7010008C7010008C7010008C7010008F0
:1000D000C7010008C7010008C701000800000000B0
:1000E000C7010008C7010008C701000800000000A0
:1000F000000000000000000000000000C701000830
:1001000000000000C7010008C7010008C70100087F
:1001100000000000000000000000000000000000DF
:10012000C7010008C7010008C7010008C70100088F
:10013000C7010008000000000000000000000000EF
:10014000000000000000000000000000C7010008DF
:10015000C7010008C7010008C7010008C70100085F
:10016000C7010008C70100080000000000000000EF
:10017000000000000000000000000000000000007F
:1001800000000000C701000800000000000000009F
:10019000C7010008C7010008DFF80CD000F07AF8AA
:1001A00000480047291C0008D0040020064880476A
:1001B00006480047FEE7FEE7FEE7FEE7FEE7FEE74C
:1001C000FEE7FEE7FEE7FEE7E116000899010008FA
:1001D0002DE9F05F0546002092469B46884606467C
:1001E000814640241BE0284641464746224600F00F
:1001F00041F853465A46C01A914110D31146184649
:10020000224600F028F82D1A67EB01084F462246D7
:100210000120002100F01FF817EB00094E41201EBD
:10022000A4F10104DFDC484631462A464346BDE8D6
:10023000F09FD2B201E000F8012B491EFBD27047BB
:100240000022F6E710B513460A4604461946FFF7A2
:10025000F0FF204610BD202A04DB203A00FA02F10C
:10026000002070479140C2F1200320FA03F31943A4
:1002700090407047202A04DB203A21FA02F0002146
:10028000704721FA02F3D040C2F1200291400843A6
:1002900019467047064C074D06E0E06840F0010340
:1002A00094E8070098471034AC42F6D3FFF778FF84
:1002B000B41D0008D41D0008B42801D900207047DF
:1002C0009FED0B1A9FED0B0A31B1C0F1B40000EEA7
:1002D000900AF8EEE00A03E000EE900AF8EE600AF9
:1002E00000EE810ABCEEC00A10EE100A7047000052
:1002F0008EE328410000164410B504462DED028B14
:10030000007B617B884202D8A17B884200D22173A6
:10031000207BD4ED010A00EE100AB8EE400AB4EEDC
:10032000600AF1EE10FA06D100F02EF9A060207BF1
:10033000BDEC028B10BD00F027F9A168DFED1F0AAC
:10034000401A00EE100AB8EE400A80EE808A00F0F3
:100350001BF9A06094ED000A207BC0EE080A00EEB5
:10036000100AB8EE401A94ED010AB4EEC01AF1EE8C
:1003700010FA10DD30EE200A00EE900AF8EE600A66
:10038000F4EEC00AF1EE10FA10D800BF00EE100A29
:10039000B8EE400A0AE030EE600A00EE900AF8EE8D
:1003A000600AF4EEC00AF1EE10FAEFDA84ED010A09
:1003B000BCEEC00A10EE100AC0B2B9E700007A44E1
:1003C000FEE770477047000070B5044600F0DCF8A7
:1003D0000546601C02D004480078044400F0D4F8BC
:1003E000401BA042FAD370BD280000202DE9F84F31
:1003F000DFF860B100224FF001084FF0030A4FF020
:100400000F090BF1040E00BF0B6808FA02F4234039
:10041000A3426ED14D68022D01D0122D0ED1D50808
:1004200000EB850CDCF820505607F70E09FA07F6AA
:10043000B5430E69BE402E43CCF8206006685500D7
:100440000F790AFA05FC07F0030726EA0C06AF400D
:10045000374307604E68012E05D0022E03D0112EBF
:1004600001D0122E0ED18668CF6826EA0C06AF4066
:10047000374387604668A6430C79C4F30014944060
:1004800034434460C6688C6826EA0C06AC403443AA
:10049000C4604C68E40056D52F4C256845F480456F
:1004A0002560246822F0030504F4804400942B4C5A
:1004B0002E19D6F8084895072F0F09FA07F5AC430F
:1004C000274DA84201D1002515E0264DA84201D1B3
:1004D000012510E0244DA84201D102250BE0234D57
:1004E000A84201D1032506E0214DA84202D10425EE
:1004F00001E028E00725BD402543C6F80858DBF891
:1005000000405D464E689C43F60300D51C432C60BA
:10051000DEF8004075464E689C43B60300D51C4388
:100520002C600C4D08352C684E689C43F60200D5B3
:100530001C432C60074D0C352C684E689C43B6025A
:1005400000D51C432C60521C102AFFF45DAFBDE89F
:10055000F88F0000003C0140443802400030014068
:10056000000002400004024000080240000C02406B
:10057000001002400069084000D0012070470AB115
:10058000816170470904FBE70148806870470000FB
:100590002800002002488168027811448160704779
:1005A000280000200B4810B5016841F4007101607B
:1005B000016841F480610160016841F4807101606B
:1005C000032000F06FF8002000F006F800F024F897
:1005D000002010BD003C024070B50D4D04464FF4A4
:1005E0007A712878B1FBF0F00A490968B1FBF0F0A4
:1005F00000F0CDFC48B9102C07D200222146501E35
:1006000000F030F800206C6070BD012070BD00006B
:1006100028000020340000200A4808B5016841F491
:1006200080410160006800F4804000900548001F90
:10063000016841F080510160006800F08050009036
:1006400008BD000044380240002809DB00F01F020A
:10065000012191404009800000F1E020C0F8001124
:1006600070470000F0B40E4B1B680C46C3F3022326
:10067000C3F10705042D00D90425191D072901D24E
:10068000002300E0DB1E012606FA05F1491E214089
:1006900099409E40761E16403143F0BC01F04DB9A2
:1006A0000CED00E0064900F0070208684FF6FF0372
:1006B000184040EA0220034A1043086070470000D7
:1006C0000CED00E00000FA052DE9F843044600684F
:1006D0004FF00109C1074FF0000601D1400729D5AD
:1006E000DFF82081C8F86860FFF74EFF0746464DE7
:1006F00005E000BFFFF748FFC01B022859D8286853
:100700000001F7D4A068217B800140EA0170616894
:1007100008433D4984310860C8F86890FFF734FF0A
:10072000074604E0FFF730FFC01B022841D82868C5
:100730000001F7D52078800752D533484030016852
:1007400041F0805101600068304D00F08050009011
:10075000286840F480702860FFF716FF074604E021
:10076000FFF712FFC01B022823D82868C005F7D561
:10077000254D7035286810F4407020D0218A01F48E
:10078000407181421BD02868214920F44070C1F893
:1007900000900E6028602868C00710D0FFF7F4FEB4
:1007A000064641F2883707E0FFF7EEFE801BB842AD
:1007B00002D90320BDE8F88328688007F4D52169B1
:1007C0001148C1F301220830032A12D0016821F434
:1007D000F81101602868218AC1F30B0108432860E1
:1007E0002078000703D50B49207DC1F8E0010020E7
:1007F000E0E70268084B22F4F81219400A4302604D
:10080000E8E7000000004742003802400070004066
:10081000400E474200104742FFFCFF0F2DE9F04712
:100820000E46050065D0DFF81481D8F80000F7B255
:1008300000F00F00B04207D288F80070D8F800002E
:1008400000F00F00B04254D128683D4C810712D50A
:10085000400703D5206840F4E05020602878000766
:1008600003D5206840F4604020602068A96820F02B
:10087000F000084320602878C0072DD03049686810
:100880000839012812D0022813D0032811D0096892
:10089000890700292DDA216821F003010143216035
:1008A000FFF772FE814641F2883A0EE0096889033B
:1008B000EFE709688901ECE7FFF766FEA0EB0901A5
:1008C000514502D90320BDE8F0872068696800F02F
:1008D0000C00B0EB810FEFD1D8F80010404601F0CA
:1008E0000F01B14207D90770006800F00F00B04255
:1008F00001D00120E7E72878400705D52068E9689E
:1009000020F4E050084320602878000706D52068CE
:10091000296920F4604040EAC100206000F016F828
:100920002168084AC1F30311515CC84006490860B8
:100930000020FFF751FE0020C5E70000003C024008
:1009400008380240A41D000834000020154810B5E6
:10095000006810F00C02144813D01449042A0FD078
:10096000082A0ED10F4C241F2268236802F03F0290
:100970005B0207D52068C0F38810A0FB010106E0E8
:10098000084610BD2168C1F38811A1FB00010023B6
:10099000FFF71EFC2168C1F30141491C4900B0FB6F
:1009A000F1F010BD083802400024F40040787D01C9
:1009B0002DE9F84F050076D02878DFF8F8B2BE4C64
:1009C000C00749D0DBF800105846C1F38101012966
:1009D00008D00068C0F3810002280AD1201D0068F9
:1009E000400206D52068800336D568680028E2D02A
:1009F00032E06868B0F5803F10D0B0F5A02F2068D5
:100A000010D020F480302060206820F48020206006
:100A10006868A0B1FFF7B8FD06460CE0206840F416
:100A20008030F4E740F480202060F7E7FFF7ACFD6A
:100A3000801B642873D820688003F7D50CE0FFF78B
:100A4000A3FD064605E000BFFFF79EFD801B64285E
:100A5000F0D820688003F7D42878DFF86082800718
:100A60004FF000093ED5DBF80010584611F00C0F8E
:100A700009D00068C0F3810002280BD18D48001F07
:100A80000068400206D42068800715D5E868012870
:100A900009D111E0E868B8B10120C8F80000FFF7FB
:100AA00073FD064605E002E1FFF76EFD801B02289C
:100AB000C0D820688007F7D52068296920F0F800A1
:100AC00040EAC10020600DE0C8F80090FFF75CFD2F
:100AD000064604E0FFF758FD801B02281FD8206857
:100AE0008007F7D42878000722D5724E74486969C8
:100AF0006C3671B101210160FFF746FD074604E045
:100B0000FFF742FDC01B022809D830688007F7D5DF
:100B10000EE0C0F80090FFF737FD074605E083E0E0
:100B2000FFF732FDC01B02287ED830688007F7D45B
:100B30002878400768D5DFF87CA100270AF1380A39
:100B4000DAF80000C0000BD4DAF8001041F0805150
:100B5000CAF80010DAF80000012700F08050009079
:100B6000584E3068C00510D4306840F48070306052
:100B7000FFF70AFD009005E0FFF706FD0099401A17
:100B8000022851D83068C005F6D54A4EA8686836A4
:100B900001280FD00528306810D020F00100306007
:100BA000306820F004003060A868B8B1FFF7ECFCB2
:100BB00000900FE0306840F00100F4E740F00400DE
:100BC0003060F7E7FFF7E0FC0099411A41F2883006
:100BD000814264D830688007F4D50EE0FFF7D4FC7A
:100BE000009007E0FFF7D0FC0099411A41F28830ED
:100BF000814254D830688007F4D42FB1DAF800105D
:100C000021F08051CAF80010A869C0B3DBF80010C9
:100C1000C1F3810102294AD00228484607D0C8F80A
:100C20006000FFF7B1FC00E039E005463AE04746D6
:100C3000C8F86000FFF7A8FC064604E0FFF7A4FC34
:100C4000801B02282BD820688001F7D4D5E9070142
:100C50000843A96A1C4A490802EB01416A6A41EA51
:100C60008211084395F82C1040EA01611148001FD9
:100C7000016001203866FFF787FC054605E014E0B7
:100C8000FFF782FC401B022809D820688001F7D5B5
:100C90000BE000BFFFF778FC401B022802D90320BD
:100CA000BDE8F88F20688001F4D40020F8E7012027
:100CB000F6E70000083802400038024000004742D2
:100CC000800E4742007000400000FFFF0068503077
:100CD00050F8210070470068503040F821207047DC
:100CE00070B5040002D0607F10B106E0012070BD35
:100CF00000202077204600F049F802206077216824
:100D0000CA204862216853204862204600F066FCF1
:100D1000FF25042618BB206881681B4A11408160AA
:100D20002168886862681043D4E904231A43104399
:100D300088602168E068086120680169228941EAC9
:100D4000024101612068C16821F08001C160206812
:100D50008068800607D4204600F0FEF818B12068AD
:100D600045626677C2E72068016C21F48021016446
:100D70002068016CA269114301642068456201206A
:100D80006077002070BD0000BFFF8FFF006803493F
:100D9000884202D1024901200860704700280040C3
:100DA0003C0E47422DE9F0470446007F0B460128E0
:100DB0001FD04FF0010984F81C9002206077DAB14F
:100DC0009878D97840EA014558781978000240EAC5
:100DD000413005432168CA20486221685320486297
:100DE000204600F0FBFB0026FF274FF0040860BB05
:100DF0001AE00220BDE8F0875878C10603D500F05C
:100E0000EF000A305870D87800F0DDFB0204587803
:100E100000F0D9FB42EA0022987800F0D4FB0243AC
:100E2000187842EA4035D5E70F480540206845600C
:100E30002068C16821F08001C16020688068800658
:100E40000AD4204600F088F830B12068476284F860
:100E50001D8026770120CDE72068476284F81D9029
:100E600026770020C6E700003FFFFF002DE9F0478E
:100E70000446007F0D46012827D04FF0010A84F870
:100E80001CA0022060772068002680684FEA40603E
:100E9000F2B1002800DBEE70A878297840EA01471B
:100EA0006878E978000240EA014007432168CA20D7
:100EB0004862216853204862204600F08FFB4FF0C3
:100EC000FF084FF00409A0BB16E00220BDE8F08740
:100ED000002800DBEE70287800F075FB02046878CB
:100EE00000F071FB42EA0022A87800F06CFB02439C
:100EF000E87842EA0047D9E71648074020680760CB
:100F00002068816821F480218160D5E903010843CC
:100F100021688A68104388602068C16821F08001D8
:100F2000C1602068806880060BD4204600F014F869
:100F300038B12168C1F8248084F81D9026770120FB
:100F4000C4E72168C1F8248084F81DA0267700201A
:100F5000BCE700007F7F7F0070B504460068C16871
:100F600021F0A001C160FFF70FFB05464FF47A7630
:100F700007E000BFFFF708FB401BB04201D9032088
:100F800070BD2068C0688006F4D5002070BD10B523
:100F9000401EB0F1807F01D3012010BD4FF0E0244E
:100FA00060610F21601700F0C8FC0020A0610720DD
:100FB0002061002010BD7047704710B5040003D0B9
:100FC00094F83D0010B107E0012010BD002084F826
:100FD0003C00204600F00CF8022084F83D00211D62
:100FE000206800F0ADFB012084F83D00002010BD1A
:100FF00008B500680B49884212D10B48016841F4DA
:10100000802101600068002200F4802000901146D9
:101010001A20FFF727FBBDE808401A20FFF714BB92
:1010200008BD00000048014044380240704770B5D8
:101030000446006801694FF00005C943890715D4CB
:10104000C168C943890711D4E91E016101202077D5
:10105000206880698007204602D0FFF7E7FF04E0A0
:1010600000F0C2F8204600F045F9257720680169B4
:10107000C943490717D4C168C943490713D46FF05E
:1010800004010161022020772068806910F4407F0C
:10109000204602D0FFF7CAFF04E000F0A5F8204682
:1010A00000F028F9257720680169C943090716D49B
:1010B000C168C943090712D46FF008010161042017
:1010C00020772068C0698007204602D0FFF7AEFF76
:1010D00004E000F089F8204600F00CF9257720683C
:1010E0000169C943C90617D4C168C943C90613D4E5
:1010F0006FF010010161082020772068C06910F4AA
:10110000407F204602D0FFF791FF04E000F06CF82A
:10111000204600F0EFF8257720680169C943C90728
:1011200008D1C168C943C90704D1891E016120469D
:1011300000F02AF920680169C943090609D4C16889
:10114000C943090605D46FF0800101612046FFF70D
:1011500032FF20680169C943490609D4C168C943FF
:10116000490605D46FF040010161204600F00DF9F9
:1011700020680169C94389060BD4C168C94389063F
:1011800007D46FF0200101612046BDE87040FFF7F1
:1011900013BF70BD10B586B0044614216846FFF732
:1011A0004FF80E492068884216D10D480021026888
:1011B00042F002020260006800F0020005904FF465
:1011C000007000900220CDE901010320CDE9031059
:1011D00069460448FFF70AF906B010BD004801400F
:1011E0003038024000040240704770B5044690F861
:1011F0003C000D4601280DD0012684F83C600220F9
:1012000084F83D0042B1042A18D0082A2AD00C2ABA
:101210004DD139E0022070BD206800F0EBFA206863
:10122000816941F0080181612068816921F0040130
:101230008161206881692A69114311E0206800F00A
:1012400001FB2068816941F4006181612068816946
:1012500021F480618161206881692A6941EA022163
:10126000816124E0206800F019FB2068C16941F029
:101270000801C1612068C16921F00401C1612068D1
:10128000C1692A69114311E0206800F033FB20682E
:10129000C16941F40061C1612068C16921F48061C4
:1012A000C1612068C1692A6941EA0221C16184F8EB
:1012B0003D60002084F83C0070BD10B5040003D0F0
:1012C00094F83D0010B107E0012010BD002084F823
:1012D0003C00204600F00CF8022084F83D00211D5F
:1012E000206800F02DFA012084F83D00002010BD98
:1012F0007047000010B5074CA0420AD1007F0128BA
:1013000007D10548FEF7F8FF0021FEF7D5FF216859
:10131000486310BD8C0000205C00002010B50268FE
:10132000044631B1042908D0082922D00C2908D15B
:1013300023E0D06840F0020002E0D06840F00400F2
:10134000D0600122206800F047FA0E4920688842E8
:1013500003D1416C41F4004141642068816801F08F
:101360000701062903D0016841F001010160002056
:1013700010BDD06840F00800E2E7D06840F01000EF
:10138000DEE700000000014070477047FEE7000004
:1013900070B586B014216846FEF752FF1D48002440
:1013A000016841F004010160016801F00401059148
:1013B000016841F080010160016801F08001059140
:1013C000016841F001010160016801F0010105912E
:1013D000016841F0020101600068012200F0020092
:1013E0000D4E5503059029463046FFF7C8F8009585
:1013F0000125CDE90154694630460394FEF7F6FF16
:10140000CDE90054694605480295FEF7EFFF06B0A6
:1014100070BD000030380240000802400000024069
:101420002DE9F04186B014216846FEF709FF4548D2
:10143000002443490594C0E900147F218160FF2105
:10144000C0E9031444618461FFF74AFC08B1FEF768
:10145000B9FFDFF8F48001213A48C8F80040FFF7EF
:1014600035FC43F2F2220125904227D00121354874
:10147000FFF731FC8DF800408DF801408DF80240F7
:101480000394012269462F480494FFF7EFFC08B14A
:10149000FEF798FF8DF814508DF815508DF8165002
:1014A0008DF81740012205A92648FFF77BFC00288C
:1014B00001D0FEF787FF06B0BDE8F081234C20681D
:1014C000234F00014FF4005610D500223146384614
:1014D000FFF755F80920FEF777FF0122314638461D
:1014E000FFF74DF840F2F310FEF76EFF2068400161
:1014F00021D5002231463846FFF741F80920FEF792
:1015000063FF012231463846FFF739F86320FEF7C2
:101510005BFF002231463846FFF731F80920FEF71D
:1015200053FF012231463846FFF729F86320FEF7C2
:101530004BFFC8F80050206840F080702060BAE788
:10154000002800406C000020240000207438024075
:101550000008024010B588B01C216846FEF770FEF6
:1015600016481549002401605F21C0E9011442F2C8
:101570000F71C0E903148461FFF71FFD08B1FEF786
:1015800021FF0E48FFF799FE08B1FEF71BFF602010
:10159000009040F2DC50CDE9010400226946074882
:1015A0000494FFF722FE08B1FEF70CFF0348FFF793
:1015B000F1FD08B010BD0000004801408C00002083
:1015C000FEE770477047002102E00A38C0B2491CAC
:1015D0000A28FAD2090740EA1160704770B504463C
:1015E0000068C168490614D44FF0FF31C160FEF7AE
:1015F000CBFF05464FF47A7607E000BFFEF7C4FF45
:10160000401BB04201D9032070BD2068C06840066D
:10161000F4D5002070BD7047074800219FED070AF0
:101620008173B42141735A21017380ED010A9FED4A
:10163000040A80ED000A70475C0000200000B442FC
:1016400000003443FEF7A6BF30B599B0302168469C
:10165000FEF7F6FD14210CA8FEF7F2FD182111A8E3
:10166000FEF7EEFD1C480025016841F08051016045
:10167000006800F0805017901848016841F440411C
:1016800001600068102100F4404017900A2000908B
:101690000120CDE9030105A9022481E831000820D9
:1016A00008906020CDE9090404200B906846FFF7FC
:1016B0007FF90CA90F2081E83100E002CDE90F0588
:1016C00003210CA8FFF7AAF820021590119411A885
:1016D000FEF7FAFF19B030BD4038024000700040FC
:1016E0001048016841F4700101600F48016841F041
:1016F000010101600C4A00210832116002680B4BA5
:101700001A400260031D0A4A1A60026822F480220D
:10171000026005480C3001600249580680390860B3
:101720007047000088ED00E000380240FFFFF6FE41
:10173000103000240148FFF77ABC00008C00002024
:10174000F0B502681D4B1E4C9F031E4D1E4E984265
:1017500007D0B84205D0A04203D0A84201D0B04281
:1017600004D122F0700C4A6842EA0C02984210D070
:10177000B8420ED0A0420CD0A8420AD0B04208D045
:10178000124CA04205D0124CA04202D0114CA042F3
:1017900003D122F44074CA6822434C6922F08002CB
:1017A000224302608A68C2620A688262984201D15A
:1017B0000969016301214161F0BD000000000140A1
:1017C0000004004000080040000C004000400140C0
:1017D000004401400048014010B501F01F03012101
:1017E000046A99408C430462016A9A401143016281
:1017F00010BD000030B5026A22F001020262026AE6
:101800004368846924F073050C682C4322F00205B8
:101810008A682A430A4DA8420BD122F00805CA68FB
:1018200023F440732A434D6922F004021D438B695F
:101830002B434360846149684163026230BD00000C
:101840000000014030B5026A22F010020262026A12
:10185000436884690D6824F4E64444EA05248D68ED
:1018600022F0200242EA05120B4DA8420ED1CD68AB
:1018700022F0800242EA05124D6923F4406343EAF4
:1018800085038D6922F0400243EA85034360846149
:1018900049688163026230BD0000014030B5026AD0
:1018A00022F480720262036A4268C46923F40073FE
:1018B00024F073050C682C438D6843EA05230C4D16
:1018C000A8420ED1CD6823F4006343EA05234D6995
:1018D00022F4405242EA05128D6923F4806342EA01
:1018E00005124260C4614968C163036230BD0000F3
:1018F0000000014030B5026A22F480520262046A9C
:101900004268C3690D6823F4E64343EA05238D6802
:1019100024F4005444EA0534064DA84204D14D692C
:1019200022F4804242EA85124260C3614968016440
:10193000046230BD00000140FEE70907090E0028DF
:1019400004DB00F1E02080F80014704700F00F0085
:1019500000F1E02080F8141D704702E008C8121F53
:1019600008C1002AFAD170477047002001E001C188
:10197000121F002AFBD1704710B501210348FEF762
:10198000F9FD002800D0012010BD00000000024039
:101990002DE9F05F04460078052700256D4E4FF0D5
:1019A00006094FF0040B4FF0030A4FF6FF780F289B
:1019B0001AD2DFE800F0080E1D263653636D7279E7
:1019C000898D96ABC900E068804700280ED10120C0
:1019D00068E06088401C80B26080E188884205D35E
:1019E000E068804708B902206CE02570BDE8F09FF0
:1019F0006178012000EB012000F0FEF884F800A0DF
:101A00006DE06088401C6080E06880476188A28843
:101A1000914204D20128E9D184F800B0E6E70B2016
:101A200050E03188414502D160883080658060880F
:101A3000401C80B26080E1888842D7D3E06880474C
:101A4000012808D084F800A06088318808446080AC
:101A5000A6F80080CAE727706580F9E76088401C17
:101A60006080E068804761882289914203D2002823
:101A7000BCD1072016E084F80090B7E7607807EB48
:101A8000002000F0B9F86178022000EB01205EE050
:101A90002046BDE8F05F00F083B8E0688047012889
:101AA000A4D1092020701AE06088401C80B26080B8
:101AB000E18888429AD3E0688047012801D0082055
:101AC00000E00A20207091E761780BEB01203EE0F6
:101AD000607809EB002000F08FF80C20E2E76580C9
:101AE00084E76088401C6080E0688047012801D15D
:101AF0000D2020706188608981428FD300288DD0AD
:101B0000607807EB002000F077F8E8E7B088404500
:101B100002D16088B08065806088401C80B260809F
:101B2000E188884296D3E0688047012809D00C20DC
:101B300020706088B1880844A4F80200A6F80480E8
:101B400054E70E202070F9E761780AEB012000F0DD
:101B500053F84AE70000002070B50125054E002427
:101B600006EB0410FFF714FF641CE4B2AC42F7D399
:101B700070BD000008000020084991F8210091F88C
:101B80002020904201D10020704731F81200521CF1
:101B900002F00F0281F8202070470000380000207A
:101BA0002DE9F041134D04464FF6FF766888002773
:101BB000B04202D16088688067806088401C80B233
:101BC0006080E188884209D3E068804740B1052001
:101BD000207060886988084460806E80BDE8F0816C
:101BE0006078072101EB002000F006F80820207043
:101BF0006780F2E7000000200A4991F8212021F8CF
:101C0000120091F82100401C00F00F0281F8212001
:101C100091F82000824204D1401C00F00F0081F8AE
:101C2000200070473800002001273E46FEF7BAFC2E
:101C3000FFF70AFDFFF7ACFBFFF7F2FBFFF78AFCAB
:101C4000FFF7EAFC00215248FFF768FB514C4FF0C8
:101C5000000B514DFEF798FC504533D0FEF794FC35
:101C60008246012F2ED160780028A08805D0401E22
:101C70000004000CA08009D00AE0401C80B2A080C3
:101C8000B0F5C86F04D30120607001E084F801B0A2
:101C9000A0885021B0FBF1F0C0B22070A1781429C7
:101CA00003D9594684F802B001E0491CA170C9B2B9
:101CB000814201D3012200E000224FF40051374855
:101CC000FEF75DFCFEF760FC484504D0FEF75CFCC7
:101CD0008146FFF741FFFEF757FCA0EB08000A28FA
:101CE000B8D3FEF751FC8046FFF746FFE080B0F521
:101CF000817F06D0B0F5827F1DD0B0F5837F2FD0D5
:101D00002FE0012E2DD195ED000ADFED250A0027E9
:101D100030EE200ABCEEC00A10EE100AA060B0F54A
:101D2000F07F01D90A20A06000EE100AB8EE400A48
:101D300085ED000A03E00027012E02D001260022D3
:101D400008E095ED010A00260122BCEEC00A10EE63
:101D5000100A28734FF400511048FEF710FC00E001
:101D60000127287BD5ED010A00EE100AB8EE400AE3
:101D7000F4EE400AF1EE10FA7FF46CAF012EFBD1C5
:101D80005A2802D385F80CB064E7B420287361E7C1
:101D90008C000020180000205C0000200008024099
:101DA00000002042000000000000000001020304C7
:101DB00006070809D41D00080000002038000000B4
:101DC0005A1900080C1E0008380000209804000072
:101DD0006A190008FFFFFFFFFFFF0000000100007D
:101DE000DC051400C800E8037919000800000000B1
:101DF00000000000000000000000000001000000E2
:0C1E000010000000000000000024F400AE
:040000050800019955
:00000001FF
