:020000040800F2
:10000000205F0020AD010008F3250008472000080C
:10001000F1250008330300085346000800000000E3
:10002000000000000000000000000000FB2E00089F
:1000300035030008000000007F270008FD2E00089F
:10004000C7010008C7010008C7010008C701000870
:10005000C701000881270008C7010008C701000880
:10006000C7010008C7010008C7010008C701000850
:10007000C7010008C7010008C7010008C701000840
:10008000C7010008C7010008C70100080000000000
:10009000000000000000000000000000C701000890
:1000A000C7010008C7010008C7010008C701000810
:1000B000C7010008C7010008C7010008C701000800
:1000C000C7010008C7010008C70100085D2D00082E
:1000D000C7010008C7010008C701000800000000B0
:1000E000C7010008C7010008C701000800000000A0
:1000F000000000000000000000000000C701000830
:1001000000000000C7010008C7010008C70100087F
:1001100000000000000000000000000000000000DF
:10012000C7010008C7010008C7010008C70100088F
:10013000C7010008000000000000000000000000EF
:10014000000000000000000000000000F52500088D
:10015000C7010008C7010008C7010008C70100085F
:10016000C7010008C70100080000000000000000EF
:10017000000000000000000000000000000000007F
:1001800000000000C701000800000000000000009F
:10019000C7010008C7010008DFF80CD000F08CF898
:1001A0000048004729630008205F00200648804778
:1001B00006480047FEE7FEE7FEE7FEE7FEE7FEE74C
:1001C000FEE7FEE7FEE7FEE7A12F00089901000821
:1001D0002DE9F05F0546002092469B46884606467C
:1001E000814640241BE0284641464746224600F00F
:1001F00053F853465A46C01A914110D31146184637
:10020000224600F03AF82D1A67EB01084F462246C5
:100210000120002100F031F817EB00094E41201EAB
:10022000A4F10104DFDC484631462A464346BDE8D6
:10023000F09F40EA01039B0703D009E008C9121FA1
:1002400008C0042AFAD203E011F8013B00F8013B90
:10025000521EF9D27047D2B201E000F8012B491EBC
:10026000FBD270470022F6E710B513460A46044653
:100270001946FFF7F0FF204610BD202A04DB203A84
:1002800000FA02F1002070479140C2F1200320FAE9
:1002900003F3194390407047202A04DB203A21FAE7
:1002A00002F00021704721FA02F3D040C2F120028F
:1002B0009140084319467047064C074D06E0E06838
:1002C00040F0010394E8070098471034AC42F6D39D
:1002D000FFF766FFB4130308D413030870B58C1836
:1002E00010F8015B15F0070301D110F8013B2A114A
:1002F00006D110F8012B03E010F8016B01F8016B37
:100300005B1EF9D12B0705D40023521E0DD401F832
:10031000013BFAE710F8013BCB1A921C03E013F8FB
:10032000015B01F8015B521EF9D5A142D8D3002030
:1003300070BDFEE770477047002200F001B8000072
:1003400030B50E4B054601205C7A002C14D1587A4A
:100350001C54587A03EB800045605D7A03F1080075
:100360002A54587A421C5A72303008703A20487029
:100370002F208870CC70002030BD0000103B002082
:1003800090F83510022903D0802141650120704783
:10039000052180F835100068016821F00101016035
:1003A0000020704770B5044600F0D8F80546601C80
:1003B00002D004480078044400F0D0F8401BA0426A
:1003C000FAD370BD940000202DE9F84FDFF860B13A
:1003D00000224FF001084FF0030A4FF00F090BF114
:1003E000040E00BF0B6808FA02F42340A3426ED14A
:1003F0004D68022D01D0122D0ED1D50800EB850CD1
:10040000DCF820505607F70E09FA07F6B5430E69D7
:10041000BE402E43CCF82060066855000F790AFADA
:1004200005FC07F0030726EA0C06AF4037430760D8
:100430004E68012E05D0022E03D0112E01D0122EAF
:100440000ED18668CF6826EA0C06AF403743876036
:100450004668A6430C79C4F30014944034434460C6
:10046000C6688C6826EA0C06AC403443C4604C680D
:10047000E40056D52F4C256845F480452560246856
:1004800022F0030504F4804400942B4C2E19D6F876
:10049000084895072F0F09FA07F5AC43274DA842E6
:1004A00001D1002515E0264DA84201D1012510E01B
:1004B000244DA84201D102250BE0234DA84201D1D1
:1004C000032506E0214DA84202D1042501E028E0E1
:1004D0000725BD402543C6F80858DBF800405D46B7
:1004E0004E689C43F60300D51C432C60DEF80040A8
:1004F00075464E689C43B60300D51C432C600C4DDA
:1005000008352C684E689C43F60200D51C432C60CD
:10051000074D0C352C684E689C43B60200D51C4331
:100520002C60521C102AFFF45DAFBDE8F88F00006C
:10053000003C0140443802400030014000000240CD
:100540000004024000080240000C0240001002407B
:100550000AB1816170470904FBE700000148806827
:10056000704700009400002002488168027811441E
:1005700081607047940000200B4810B5016841F479
:1005800000710160016841F480610160016841F41B
:1005900080710160032000F077F8002000F006F879
:1005A00000F024F8002010BD003C024070B50D4D55
:1005B00004464FF47A712878B1FBF0F00A490968D3
:1005C000B1FBF0F001F02BFD48B9102C07D200224E
:1005D0002146501E00F038F800206C6070BD0120EC
:1005E00070BD000094000020A00000200E4808B557
:1005F000016841F480410160006800F4804000908F
:100600000948001F016841F0805101600068002224
:1006100000F0805000901146052000F015F8BDE86C
:100620000840052000F002B844380240002809DBE9
:1006300000F01F02012191404009800000F1E020FC
:10064000C0F8001170470000F0B40E4B1B680C4658
:10065000C3F30223C3F10705042D00D90425191D96
:10066000072901D2002300E0DB1E012606FA05F16E
:10067000491E214099409E40761E16403143F0BCF1
:1006800004F02CB90CED00E0064900F00702086800
:100690004FF6FF03184040EA0220034A1043086067
:1006A000704700000CED00E00000FA05704700689C
:1006B000416200207047F0B50368586A39B19C6AFE
:1006C0004FF4827600EB144400204D1E0AE040EA0D
:1006D000024098620FE006EB8007DF59401C04EBF4
:1006E0001744C0B2A842F6D344EA02404FF48072E5
:1006F00002EB810158500020F0BDD0F8040402F054
:10070000A0BEC1EBC10200EB8202D0F80404926CDF
:1007100002F0F3BDC1EBC10200EB8202D0F8040489
:10072000D2F8082202F04CBED0F8040402F08BBECE
:1007300070B504460B0601F00F00C0EBC00104EBDE
:1007400081014FF001024FF0000503D581F83D20F3
:100750003C3103E081F8FD5101F5FE71087094F819
:10076000BC03012808D084F8BC23206803F0E6FA13
:1007700084F8BC53002070BD022070BD70B50446E3
:1007800001F00F006268904201D9012070BD0B0694
:1007900001F00F01C1EBC10104EB81014FF0010237
:1007A0004FF0000503D581F83D203C3103E081F88E
:1007B000FD5101F5FE718D70087094F8BC0301289D
:1007C00008D084F8BC23206803F08EFC84F8BC5366
:1007D000002070BD022070BD10B5044690F8BC0327
:1007E00001280AD0012084F8BC03080607D501F0CF
:1007F0000F01206803F0CAFD04E0022010BD20684C
:1008000003F0B4FD002084F8BC0310BD01F00F011B
:10081000C1EBC10100EB8100D0F8140270472DE953
:10082000F04104460F0601F00F00C0EBC00104EBDD
:1008300081014FF001064FF0000503D581F83D60BE
:100840003C3103E081F8FD5101F5FE7108708A60CA
:10085000CB704A7802B1C880022B00D10D7194F898
:10086000BC03012809D084F8BC63206803F0B6F902
:10087000284684F8BC53BDE8F0810220FBE770B540
:100880000C4601F00F05C5EBC50100EB8101C1F875
:100890001032C1F808220023C1F8143281F8FD316A
:1008A00081F8FC51036901F5FE71012B00D10A6149
:1008B0002207027C006803D003F06EFC002070BDAC
:1008C00003F060FBFAE770B504460D4601F00F0037
:1008D0006168884201D9012070BD29064FF00006E9
:1008E0004FF0010207D5C0EBC00104EB810181F894
:1008F0003D203C3107E0C5EBC50104EB810181F8E7
:10090000FD6101F5FE718A70087094F8BC0301283E
:1009100007D084F8BC23206803F012FC280702D01B
:1009200007E0022070BD217C04F57172206803F09D
:10093000AFFB84F8BC63002070BD70B50C4601F0BD
:100940000F05C5EBC50100EB81010B658A6400232F
:100950004B65012381F83D3001F83C5F0369012BB1
:1009600000D10A612207027C006803D003F014FC66
:10097000002070BD03F006FBFAE700002DE9FC5FE4
:1009800004460068002681464D4603F01EFD0028FF
:100990007ED1206803F045FD002879D0206803F05F
:1009A00040FD800704D52068416901F002014161E2
:1009B000206803F036FD010304F571704FF0010B60
:1009C000009076D5206803F00BFD0746DFF810A4F1
:1009D0006DE0F80769D0F1B2206803F01AFD804697
:1009E000C00707D005EB4611C1F808BB31462046C9
:1009F00001F006FE5FEA087033D52068016C00EB59
:100A000046100191D0F8081B2269012A019A0FD0E3
:100A1000F44B9A4214D1090403D54FF40041C0F8B5
:100A2000081B204600F0C1FA206901280FD013E00E
:100A3000524505D9090403D54FF40041C0F8081BFD
:100A4000204600F0B2FA01985045EDD804E0206845
:100A50000121009A03F01CFB05EB46110820C1F8A8
:100A6000080B5FEAC86004D505EB46111020C1F8F9
:100A7000080B5FEA88600FD52069012804D120683F
:100A80000121009A03F004FB202005EB461101E050
:100A9000A4E10EE0C1F8080B5FEA884005D505EB3C
:100AA00046114FF40050C1F8080B7F08761C002F48
:100AB0008FD1206803F0B5FC40034FF0000A60D5E9
:100AC000206803F086FC0746002658E0F80754D05B
:100AD000F1B2206803F08BFC8046C00726D006F0F8
:100AE0000F020BFA02F0D5F834288243C5F83428F7
:100AF00005EB4610C0F808B92069012807D1C6EBFC
:100B0000C60004EB8000D0E9112111448164F1B2E8
:100B10002046FFF7F6FD2069012807D136B9206D80
:100B200020B920680121009A03F0B2FA5FEA087048
:100B300004D505EB46110820C1F808095FEAC86032
:100B400004D505EB46111020C1F808095FEA48609A
:100B500004D505EB46114020C1F808095FEA88700A
:100B600004D505EB46110220C1F808095FEA0860C8
:100B700003D53146204601F0B1FD7F08761C002FD9
:100B8000A4D1206803F04DFC002811DAD5F8040840
:100B900020F00100C5F8040894F8F40301282BD0D4
:100BA000204600F0E6F92068416901F0004141610A
:100BB000206803F036FC00050BD5D5F80808C007FF
:100BC00002D0204600F01AFA2068416901F4006161
:100BD0004161206803F025FCC0045DD5D5F8040808
:100BE00020F00100C5F804081021206803F0CEFBB6
:100BF00000214FF67F321AE084F8F4A3002120464A
:100C0000FFF754FDCFE700BF05EB4110C0F80829FE
:100C1000D0F8003923F40013C0F80039C0F8082BCD
:100C2000D0F8003B23F40013C0F8003B491C606877
:100C30008842E9D8D5F81C0840F00110C5F81C0816
:100C4000206B60B1D5F8840840F00B00C5F884082B
:100C5000D5F8440840F00B00C5F844080CE0D5F87E
:100C6000140842F22B010843C5F81408D5F81008FF
:100C700040F00B00C5F81008D5F8000820F4FE601D
:100C8000C5F80008217C2068009A03F001FA20686A
:100C9000416901F480514161206803F0C2FB800486
:100CA00018D5206802F0DAFF206803F081FB60B3FA
:100CB0000320E06000F0FCFA23680146227B18461E
:100CC00003F0EAFB204600F041F92068416901F495
:100CD00000514161206803F0A4FBC00638D52068AC
:100CE000816921F010018161D9F8207007F00F00AF
:100CF000C0EBC00004EB8005C7F3434005F5FE756B
:100D0000022805D0062814D01DE0C4F80CA0D1E7B5
:100D100047F6F0710F4216D0C7F30A12174648463D
:100D2000E96803F082FBE8683844E860A869384461
:100D300008E008224846009903F077FBA869C7F34A
:100D40000A110844A8612068816941F0100181619D
:100D5000206803F066FB000707D5204600F00DF978
:100D60002068416901F008014161206803F059FBE6
:100D7000C00208D5F1B2204600F036F8206841697B
:100D800001F480114161206803F04BFB800208D51B
:100D9000F1B2204600F02CF82068416901F40011FE
:100DA0004161206803F03DFB400007D52046FFF776
:100DB000A4FC2068416901F080414161206803F092
:100DC00030FB40070AD520684568680702D52046F1
:100DD000FFF7AAFC2068416829434160BDE8FC9FF9
:100DE0000A30544F0A31544FD0F8040402F084BB47
:100DF000D0F8040402F082BB2DE9F0418AB004006F
:100E000004D094F8BD03002520B108E001200AB009
:100E1000BDE8F08184F8BC53204600F05BF8032065
:100E200084F8BD03206803F0A7F804F1100128221C
:100E300088466846FFF7FDF994E80F0002F028FFA6
:100E40000226D0BB0021206803F0FDFA0020012714
:100E50000FE000BFC0EBC00104EB810181F83D70E1
:100E600001F83C0FC880CD708D60CD60401CC0B2D1
:100E70004D6161688142EDD8002011E0C0EBC001F6
:100E800004EB810181F8FD5181F8FC0181F8FF51EB
:100E9000C1F80452C1F80852401CC0B2C1F8105247
:100EA00061688142EAD8282241466846FFF7C1F9C5
:100EB00094E80F0002F09AFF10B184F8BD63A5E733
:100EC00084F8385084F8BD73206802F083FF002056
:100ED0009DE7000000B5006887B0B0F1A04F2FD1AA
:100EE00018480021026842F001020260006800F028
:100EF000010005904FF4C05000900220CDE901019F
:100F0000032003900A20049069460F48FFF75CFA1B
:100F10000C48001D016841F080010160094814304F
:100F2000016841F4804101600068002200F48040C3
:100F3000059001214320FFF787FB4320FFF776FB55
:100F400007B000BD303802400000024070B50446D2
:100F5000C0680125022801D0FFF7EDF92946D4F831
:100F6000040402F01CFBD4F80404BDE8704002F055
:100F7000DCBAD0F8040402F000BBD0F8040402F09C
:100F800002BB10B5044690F8BC0301280BD0012029
:100F900084F8BC0384F83810206803F06BFA002052
:100FA00084F8BC0310BD022010BDD0F8042400F565
:100FB0007171104602F0FFBA10B50446006894F84B
:100FC000BC13012906D0012184F8BC13A16A0129B0
:100FD00002D008E0022010BDA169012903D0816B75
:100FE00041F480318163206802F0E8FE206803F05C
:100FF000B7F9002084F8BC0310BD000010B504460A
:10100000D0F8040402F016FB2068D0F8001E41F06E
:101010000101C0F8001E206A002804D002480168BF
:1010200041F00601016010BD10ED00E02DE9F8432C
:10103000044600684FF00109C1074FF0000601D1D6
:10104000400729D5DFF82081C8F86860FFF786FAE5
:101050000746464D05E000BFFFF780FAC01B022897
:1010600059D828680001F7D4A068217B800140EAA4
:101070000170616808433D4984310860C8F8689090
:10108000FFF76CFA074604E0FFF768FAC01B022876
:1010900041D828680001F7D52078800752D5334819
:1010A0004030016841F0805101600068304D00F02F
:1010B00080500090286840F480702860FFF74EFA56
:1010C000074604E0FFF74AFAC01B022823D8286825
:1010D000C005F7D5254D7035286810F4407020D034
:1010E000218A01F4407181421BD02868214920F4F3
:1010F0004070C1F800900E6028602868C00710D0CA
:10110000FFF72CFA064641F2883707E0FFF726FA88
:10111000801BB84202D90320BDE8F8832868800705
:10112000F4D521691148C1F301220830032A12D0F5
:10113000016821F4F81101602868218AC1F30B01CC
:10114000084328602078000703D50B49207DC1F8AB
:10115000E0010020E0E70268084B22F4F812194091
:101160000A430260E8E700000000474200380240FE
:1011700000700040400E474200104742FFFCFF0F46
:101180002DE9F0470E46050065D0DFF81481D8F848
:101190000000F7B200F00F00B04207D288F80070EC
:1011A000D8F8000000F00F00B04254D128683D4C40
:1011B000810712D5400703D5206840F4E050206035
:1011C0002878000703D5206840F46040206020683C
:1011D000A96820F0F000084320602878C0072DD0CF
:1011E000304968680839012812D0022813D0032832
:1011F00011D00968890700292DDA216821F003013F
:1012000001432160FFF7AAF9814641F2883A0EE0D6
:1012100009688903EFE709688901ECE7FFF79EF9A0
:10122000A0EB0901514502D90320BDE8F0872068F1
:10123000696800F00C00B0EB810FEFD1D8F8001016
:10124000404601F00F01B14207D90770006800F075
:101250000F00B04201D00120E7E72878400705D50C
:101260002068E96820F4E0500843206028780007EF
:1012700006D52068296920F4604040EAC10020605A
:1012800000F01CF82168084AC1F30311515CC84002
:10129000064908600020FFF789F90020C5E7000033
:1012A000003C02400838024062670008A0000020AD
:1012B0000148006870470000A0000020154810B5E4
:1012C000006810F00C02144813D01449042A0FD0FF
:1012D000082A0ED10F4C241F2268236802F03F0217
:1012E0005B0207D52068C0F38810A0FB010106E06F
:1012F000084610BD2168C1F38811A1FB000100233D
:10130000FEF766FF2168C1F30141491C4900B0FBAB
:10131000F1F010BD083802400024F40040787D014F
:101320002DE9F84F050076D02878DFF8F8B2BE4CEA
:10133000C00749D0DBF800105846C1F381010129EC
:1013400008D00068C0F3810002280AD1201D00687F
:10135000400206D52068800336D568680028E2D0B0
:1013600032E06868B0F5803F10D0B0F5A02F20685B
:1013700010D020F480302060206820F4802020608D
:101380006868A0B1FFF7EAF806460CE0206840F470
:101390008030F4E740F480202060F7E7FFF7DEF8C4
:1013A000801B642873D820688003F7D50CE0FFF712
:1013B000D5F8064605E000BFFFF7D0F8801B64288B
:1013C000F0D820688003F7D42878DFF8608280079F
:1013D0004FF000093ED5DBF80010584611F00C0F15
:1013E00009D00068C0F3810002280BD18D48001F8E
:1013F0000068400206D42068800715D5E8680128F7
:1014000009D111E0E868B8B10120C8F80000FFF781
:10141000A5F8064605E002E1FFF7A0F8801B0228C8
:10142000C0D820688007F7D52068296920F0F80027
:1014300040EAC10020600DE0C8F80090FFF78EF888
:10144000064604E0FFF78AF8801B02281FD82068B0
:101450008007F7D42878000722D5724E744869694E
:101460006C3671B101210160FFF778F8074604E09E
:10147000FFF774F8C01B022809D830688007F7D539
:101480000EE0C0F80090FFF769F8074605E083E03A
:10149000FFF764F8C01B02287ED830688007F7D4B5
:1014A0002878400768D5DFF87CA100270AF1380AC0
:1014B000DAF80000C0000BD4DAF8001041F08051D7
:1014C000CAF80010DAF80000012700F08050009000
:1014D000584E3068C00510D4306840F480703060D9
:1014E000FFF73CF8009005E0FFF738F80099401A44
:1014F000022851D83068C005F6D54A4EA86868362B
:1015000001280FD00528306810D020F0010030608D
:10151000306820F004003060A868B8B1FFF71EF80A
:1015200000900FE0306840F00100F4E740F0040064
:101530003060F7E7FFF712F80099411A41F288305E
:10154000814264D830688007F4D50EE0FFF706F8D2
:10155000009007E0FFF702F80099411A41F2883045
:10156000814254D830688007F4D42FB1DAF80010E3
:1015700021F08051CAF80010A869C0B3DBF8001050
:10158000C1F3810102294AD00228484607D0C8F891
:101590006000FEF7E3FF00E039E005463AE0474629
:1015A000C8F86000FEF7DAFF064604E0FEF7D6FF53
:1015B000801B02282BD820688001F7D4D5E90701C9
:1015C0000843A96A1C4A490802EB01416A6A41EAD8
:1015D0008211084395F82C1040EA01611148001F60
:1015E000016001203866FEF7B9FF054605E014E00A
:1015F000FEF7B4FF401B022809D820688001F7D508
:101600000BE000BFFEF7AAFF401B022802D903200F
:10161000BDE8F88F20688001F4D40020F8E70120AD
:10162000F6E7000008380240003802400000474258
:10163000800E4742007000400000FFFF00685030FD
:1016400050F8210070470068503040F82120704762
:1016500010B500680B4641680D480140080CD87071
:10166000C1F304245C7001F03F049C70C1F342316B
:10167000197052B901F085F8D870587801F081F8E6
:101680005870987801F07DF89870002010BD000027
:101690003FFFFF0010B50B460168896A5960016879
:1016A0000969C1F30E019960006801680E480140A4
:1016B000C1F305401870C1F306245C7001F07F048B
:1016C0009C70402404EA1141D97052B901F059F8D4
:1016D0001870587801F055F85870987801F051F862
:1016E0009870002010BD00007F7F7F0070B504005F
:1016F00002D0607F10B106E0012070BD002020778D
:10170000204600F049F8022060772168CA2048622C
:10171000216853204862204601F048F8FF2504263E
:1017200018BB206881681B4A114081602168886865
:1017300062681043D4E904231A4310438860216887
:10174000E068086120680169228941EA024101617B
:101750002068C16821F08001C1602068806880062F
:1017600007D4204600F0FEF818B12068456266777D
:10177000C2E72068016C21F4802101642068016CBB
:10178000A26911430164206845620120607700204E
:1017900070BD0000BFFF8FFF00680349884202D17F
:1017A0000249012008607047002800403C0E474273
:1017B0002DE9F0470446007F0B4601281FD04FF06B
:1017C000010984F81C9002206077DAB19878D97802
:1017D00040EA014558781978000240EA4130054353
:1017E0002168CA204862216853204862204600F0E0
:1017F000DDFF0026FF274FF0040860BB1AE002203F
:10180000BDE8F0875878C10603D500F0EF000A3034
:101810005870D87800F0BEFF0204587800F0BAFF84
:1018200042EA0022987800F0B5FF0243187842EAB5
:101830004035D5E70F480540206845602068C168FD
:1018400021F08001C1602068806880060AD42046AB
:1018500000F088F830B12068476284F81D80267750
:101860000120CDE72068476284F81D90267700208C
:10187000C6E700003FFFFF002DE9F0470446007F68
:101880000D46012827D04FF0010A84F81CA0022041
:1018900060772068002680684FEA4060F2B1002837
:1018A00000DBEE70A878297840EA01476878E9788B
:1018B000000240EA014007432168CA2048622168CB
:1018C00053204862204600F071FF4FF0FF084FF0B0
:1018D0000409A0BB16E00220BDE8F087002800DB69
:1018E000EE70287800F056FF0204687800F052FF8E
:1018F00042EA0022A87800F04DFF0243E87842EA6D
:101900000047D9E7164807402068076020688168CB
:1019100021F480218160D5E90301084321688A68A8
:10192000104388602068C16821F08001C160206890
:10193000806880060BD4204600F014F838B1216886
:10194000C1F8248084F81D9026770120C4E721681F
:10195000C1F8248084F81DA026770020BCE7000091
:101960007F7F7F0070B504460068C16821F0A00148
:10197000C160FEF7F3FD05464FF47A7607E000BF3D
:10198000FEF7ECFD401BB04201D9032070BD20687A
:10199000C0688006F4D5002070BD704738B5016876
:1019A00004464A688868C043430606D5C30704D185
:1019B000D3435B0601D4216C05E0830708D4D343ED
:1019C0001B0605D4616C01B02046BDE830400847D5
:1019D000830603D5430601D5C30551D4D3439B06E3
:1019E0004ED443060AD494F85130032B49D0636D8A
:1019F00043F004036365CB688B680093830609D4C6
:101A0000636D43F0010363658B6800930B6823F0FB
:101A100040030B60C00506D4606D40F008006065AF
:101A2000206880680090606D002829D02068416897
:101A300021F0E0014160012084F85100900701D4B9
:101A4000D00722D02068416821F003014160114D88
:101A5000E06C40B10565E06CFEF792FC18B1606D7A
:101A600040F040006065A06C002809D00565A06CBE
:101A7000FEF786FC002803D0606D40F040006065F2
:101A800038BDC8688868009038BD2046FFF785FFDC
:101A900038BD0000692D000870B5040005D0002590
:101AA000A56294F8510010B106E0012070BD84F8E1
:101AB0005050204600F030F8022084F85100206891
:101AC000016821F040010160D4E901010843D4E933
:101AD00003121143084361690843218B01F400712B
:101AE0000843E1690843216A0843A16A0843216861
:101AF0000860A069042101EA1040616A0843216876
:101B000048602068C16921F40061C16165650120F8
:101B100084F85100002070BD10B586B00446142131
:101B20006846FEF79FFB17492068884228D116486F
:101B30000021026842F480520260006800F4805084
:101B4000059011481438026842F0010202600068F2
:101B500000F001000590E02000900220CDE9010195
:101B6000032003900520049069460848FEF72CFCEA
:101B7000002211462320FEF767FD2320FEF756FDC5
:101B800006B010BD00300140443802400000024061
:101B90002DE9F84F044640680025984616460F4642
:101BA0004FF0040BB0F5827F01D1A06888B194F8A2
:101BB0005000012818D0012084F85000FEF7CEFC18
:101BC000814694F851004FF0000A01280ED00225FA
:101BD0007DE084F851B013460A462046CDF80080D7
:101BE00000F02CF9BDE8F88F0220FBE7002F6DD044
:101BF000002E6BD084F851B0C4F854A0A763A68718
:101C0000E687C4F830A0A4F834A0A4F836A0C4F83D
:101C100040A0C4F844A0A068B0F5004F04D12068EB
:101C2000016821F48041016020680168490603D4FD
:101C3000016841F040010160E068D8B139E02068F6
:101C40008168C90709D0007BA16B0870A06B401C9C
:101C5000A063E08F401EE0870CE0FEF77FFCA0EB66
:101C60000901414503D3B8F1FF3F03D036E0B8F195
:101C7000000F33D0E08F0028E1D11DE0206881689B
:101C8000C90709D0C068A16B0880A06B801CA06345
:101C9000E08F401EE0870CE0FEF760FCA0EB09013E
:101CA000414503D3B8F1FF3F03D017E0B8F1000F6F
:101CB00014D0E08F0028E1D14A464146204601F089
:101CC0005BF808B120206065606D00B1012501203E
:101CD00084F8510084F850A0284683E70325F6E7EE
:101CE0002DE9F84F044690F8500000271D4616468F
:101CF000894601280DD04FF0010B84F850B0FEF753
:101D00002DFC804694F85100BA46012804D00227E1
:101D10008EE00220BDE8F88FB9F1000F7DD0002ED3
:101D20007BD0032084F85100C4F854A0C4F830904C
:101D3000A686E686C4F838A0A4F83CA0A4F83EA085
:101D4000C4F844A0C4F840A0A068B0F5004F04D186
:101D50002068016841F480410160206801684906FB
:101D600003D4016841F040010160E068B0F5006F04
:101D7000606803D030B3012E24D040E008B1012EBA
:101D80001CD1206B21680088C86006E0206881684B
:101D9000890709D5216B0988C160206B801C2063ED
:101DA000E08E401EE08609E0FEF7D8FBA0EB0800BD
:101DB000A84202D3681C01D031E07DB3E08E002838
:101DC000E4D11FE0206B21680078087306E02068EA
:101DD0008168890709D5216B09780173206B401C44
:101DE0002063E08E401EE08609E0FEF7B7FBA0EB23
:101DF0000800A84202D3681C01D010E075B1E08E43
:101E00000028E4D142462946204600F0D6FF08B11A
:101E100020206065A06820B107E008E0FFE7032705
:101E200006E02068C16880680090606D00B10127FD
:101E300084F851B084F850A038466BE72DE9F84F8C
:101E4000044690F8500000270A9E1D4692468B4695
:101E50004FF0010901280ED0012084F85000FEF750
:101E60007DFB804694F85100616801280CD0B1F5E3
:101E7000827F07D102E00220BDE8F88FA16809B98E
:101E8000042801D00227C2E0BBF1000F27D0BAF12D
:101E9000000F24D01DB394F85100042802D005206F
:101EA00084F8510000206065C4F838A0E587A58754
:101EB000C4F830B0E586A5862064606420680168B7
:101EC000490603D4016841F040010160E068B0F5C3
:101ED000006F606805D0E8B3012D46D07FE0012790
:101EE00095E008B1012D39D1206B21680088C860C8
:101EF000206B801C2063E08E401EE0862EE0206870
:101F0000816889070FD5E18E69B1B9F1010F0AD156
:101F1000216B0988C160206B801C2063E08E401E0D
:101F2000E0864FF0000920688168C9070CD0E18F76
:101F300051B1C068A16B0880A06B801CA063E08FCA
:101F4000401EE0874FF00109FEF708FBA0EB0800F8
:101F5000B04200E009E001D3701C50D1E08E0028AF
:101F6000CDD1E08F0028CAD13FE0206B21680078F6
:101F70000873206B401C2063E08E401EE0862EE03C
:101F80002068816889070FD5E18E69B1B9F1010F29
:101F90000AD1216B09780173206B401C2063E08E0D
:101FA000401EE0864FF0000920688168C9070CD008
:101FB000E18F51B1C068A16B0870A06B401CA06399
:101FC000E08F401EE0874FF00109FEF7C7FAA0EB53
:101FD0000800B04202D3701C01D010E07EB1E08E48
:101FE0000028CDD1E08F0028CAD142463146204694
:101FF00000F0E3FE28B101272020606507E00327F9
:1020000005E0A06818B92068C168806800900120C8
:1020100084F85100002084F8500038462CE710B5B1
:10202000401EB0F1807F01D3012010BD4FF0E024AD
:1020300060610F21601702F051FC0020A0610720B1
:102040002061002010BDFEE7F0B500230A243025F2
:1020500037261F4611E000BFB4EB107F02D905EB15
:10206000107C01E006EB107C01F813C001EB430C7F
:1020700000015B1C8CF80170DBB29342ECD3F0BD25
:1020800070B5D0F89042054604F58051087E38B905
:10209000486928B1607A18B90121284601F0B8FAD8
:1020A0008121284601F0B4FA607A022809D141F270
:1020B0000C0022182846BDE870401F23012101F0C2
:1020C0002BBA70BD70B5D0F89042064604F5805525
:1020D00001212869286368696863304601F0C7F9FF
:1020E0001F280AD12649E868884206D1697E01295D
:1020F00003D8A87E08B1102808D9697E20230522BC
:10210000304600F0AFFD022060720AE041F21B0091
:102110002218304600F07AFB0028207A08DA0528D9
:1021200004D03046BDE87040FFF7AABF012121E08E
:10213000022824D0012822D0032820D06589C5B1E7
:1021400004F10C02D6F89042304604F580514B69F8
:10215000AB4200D32B464E6B9BB2751B4D630025E3
:1021600081F8385004212172BDE87040812101F0CE
:102170006ABA00213046BDE8704000F08BB870BDEF
:102180005553424310B5D0F89042627A022A08D0E3
:1021900009060BD5012A09D0BDE81040012100F045
:1021A00079B8812101F034FA0020607210BD10B5B9
:1021B000D0F890220446107A022805D0032801D0D6
:1021C000042811D100210AE041F21900815C801C31
:1021D0000244204600F01AFB002805DA01212046BF
:1021E000BDE8104000F056B810BD10B5D0F89022F0
:1021F0000446107A88B1012814D141F21900815C9B
:10220000801C0244204600F001FB00280ADA204628
:10221000BDE81040012100F03DB82046BDE8104067
:10222000FFF750BF10BDD0F8900200210172704737
:1022300070B5D0F8904205460021217204F5805017
:10224000617280F85D1080F85C10D5F89402016826
:10225000002088470121284601F000F98121284605
:1022600001F0FCF841F20C0022182846BDE870404D
:102270001F23012101F050B9D0F8901200221F2332
:102280000A7201224A7241F20C020A44012101F051
:1022900043B9000070B5D0F89042054604F580526D
:1022A0000B48D06282F838100020207241F22C00D6
:1022B00022180D238121284601F0C5F941F20C00B6
:1022C00022182846BDE870401F23012101F024B9DF
:1022D0005553425330B595B019491A48FEF72CF8BA
:1022E000174C0546641E48222070174901A8FDF7C7
:1022F000A0FF002D10D10122611C144803F092FAB6
:10230000207058B102202070C00200220090104BB3
:102310001146601C02F0E0FF15B030BD0A220DA18D
:10232000104803F0ABFA0028F6D113AB472201A9FD
:102330000C4803F0F4FB0B4802F0BAFFECE7000096
:1023400007000020100000206C130308D4010020B7
:102350004C22002053544D3332BACBD0C4B0E52EBA
:102360007478740008120020F0B587B01421684614
:10237000FDF778FF2A480024016841F0040101605C
:10238000016801F004010591016841F080010160DC
:10239000016801F080010591016841F001010160CF
:1023A000016801F001010591016841F0020101603D
:1023B0000068012200F002001A4D560305903146D4
:1023C0002846FEF7C5F8184F012210213846FEF7BF
:1023D000BFF800960126CDE90164694628460394BA
:1023E000FDF7F2FF48F20F700325CDE900056946BD
:1023F00002943846FDF7E8FF1020CDE90006694653
:102400003846CDE90245FDF7DFFF4FF2FF70CDE919
:102410000005694602940548FDF7D6FF07B0F0BDF8
:102420003038024000080240000002400004024030
:10243000F0B587B014216846FDF714FF4348002427
:1024400041490594C0E900147F218160FF21C0E962
:10245000031444618461FFF749F908B1FDF76BFF8C
:1024600001213A48FFF7EAF843F2F222904229D0DC
:1024700001213648FFF7E7F88DF800408DF801405C
:102480008DF8024003940122694630480494FFF716
:10249000F3F908B1FDF74FFF01208DF81400042176
:1024A0008DF815108DF8160019208DF817000122EF
:1024B00005A92648FFF77CF9002801D0FDF73BFF6E
:1024C00007B0F0BD224C2068224D00014FF40056A9
:1024D00040F2F3170FD5002231462846FEF738F8B0
:1024E0000920FDF75FFF012231462846FEF730F84C
:1024F0003846FDF757FF206840011FD500223146BE
:102500002846FEF725F80920FDF74CFF0122314649
:102510002846FEF71DF86320FDF744FF00223146F0
:102520002846FEF715F80920FDF73CFF0122314649
:102530002846FEF70DF83846FDF734FF206840F0D6
:1025400080702060BCE70000002800405C01002093
:1025500074380240000802400F4810B50D49016070
:102560004FF48271416000218160C1604FF40072BC
:102570000161C0E90512C1610162416281620A2103
:10258000C162FFF789FA002803D0BDE81040FDF7CB
:10259000D2BE10BD003001407C01002010B50022E9
:1025A0000F49104800F082FE08B1FDF7C4FE0E4945
:1025B0000C4801F05FF908B1FDF7BDFE0B49094871
:1025C00001F0B4F808B1FDF7B6FE064801F0A8F92D
:1025D000002803D0BDE81040FDF7ADBE10BD0000DF
:1025E000240000204C320020B000002074000020A5
:1025F000FEE770470148FEF7C1B90000E836002049
:102600002DE9F041044600680E46016C00EB4615CA
:10261000D5F8080B276920234FF40042012F08D07A
:102620002C4FB9424FD1010449D500BFC5F8082B42
:102630004DE0DFF8A4C05FEA007E04F5717711D5A4
:10264000614503D9000401D5C5F8082B2046FEF7E3
:10265000ACFC3A460121206801F01AFD0820C5F8BB
:10266000080B34E05FEA806E02D5C5F8083B2EE027
:1026700010F0280F2BD1614501D90004D6D4C6EB48
:10268000C60004EB8000D5F8102BD0F80412C2F37A
:1026900012028A1AC0F81422D0F808221144C0F895
:1026A0000812F1B22046FEF735F886B9D4F81002C8
:1026B00068B93A460121206801F0EAFC07E080068B
:1026C00001D5C5F8083BF1B22046FEF723F80020FB
:1026D000BDE8F0810A31544F0A30544F2DE9F84FCC
:1026E0000E46C1EBC60100EB810481460568D4E9C2
:1026F00014103C34884202D90120BDE8F88F081A32
:10270000A168814200D20846C01C870805EB461824
:102710001BE000BFA0EB010AA068504500D2824632
:102720000AF10300870899F8100000901FFA8AF355
:10273000F2B22846E16801F023FFE16801EB0A00EC
:10274000E060A16901EB0A00A061D8F8180980B225
:10275000B84205D3D4E90501814201D20028D9D17C
:10276000D4E90501884208D806F00F01012088400D
:10277000D5F834188143C5F834180020BDE77047F8
:102780007047010901EB810100F00F0000EB4100EF
:10279000C0B27047002102E00A38C0B2491C0A28C2
:1027A000FAD2090740EA11607047000070B504468C
:1027B0000068C168490614D44FF0FF31C160FDF7CD
:1027C000CDFE05464FF47A7607E000BFFDF7C6FE62
:1027D000401BB04201D9032070BD2068C06840068C
:1027E000F4D5002070BD10B5D0F890421A4404F51D
:1027F0008054236E9A4206D92123052200F032FA32
:102800004FF0FF3010BD002010BD00002DE9F04159
:1028100013780024232B70D00DDC1A2B6ED005DC2E
:10282000EBB1032B39D0122B11D168E01B2B01D057
:102830001E2B0CD18FE02A2B72D004DC252B70D0FC
:10284000282B04D1ADE02F2B6CD05A2B6BD020233A
:10285000052200F007FA4FF0FF30BDE8F081D0F814
:102860009072054607F580500E46416921B1417EC0
:10287000202305222846A1E0D5F89402816830463D
:10288000884740B13A2302223146284600F0EAF94F
:10289000052038729FE07C819DE0D0F890020021F5
:1028A0004318491CC9B21C731229F9D37021017352
:1028B0000C21C17400F5805191F85C5091F85D30A5
:1028C0009D4213D000EBC503A3F6C47303F5005378
:1028D0006D1C1E7886735E7906761B794376EBB2A3
:1028E00081F85C30042B01D181F85C4012214181D8
:1028F000117912296FD841816DE04CE02FE05478B6
:10290000D0F89032E4070FD0072034495881401E98
:102910000004000C03EB00040A5C2273F7D15AE0B8
:1029200042E03BE043E028E0D0F8940201EBC10133
:102930001279C06900EB81010879401D824200D8FC
:102940001046588104E0401E80B21C180A5C2273B5
:102950000028F8D13FE0D0F8900244813BE0D0F865
:10296000901208201E4A4881401E0004000C01EB12
:102970000004135C2373F7D12DE0D0F890020821F6
:10298000184A4181491E0904090C00EB0104535CFB
:102990002373F7D11FE000F02EF91CE000F0FDF8E2
:1029A00019E000F0B1F816E000F07CF913E052787D
:1029B000D0F89052920704D52423052200F052F952
:1029C00009E0A5F69C7202F500520CCAFFF70BFF56
:1029D000002800DB6C8100203FE700005213030851
:1029E00059130308611303082DE9F047D0F89062EA
:1029F000074606F580548846B4F85E00A56E4FF48D
:102A0000805145438D4200D30D46B5FBF0F083B2B3
:102A1000D7F8940206F10C01626ED0F810C0894616
:102A20004046E047002809DA11230422414638468F
:102A300000F018F94FF0FF30BDE8F087ABB24A461E
:102A40008121384600F0FFFDB4F85E00626EB5FBF0
:102A5000F0F1B5FBF0F011446166A16E081AA066B2
:102A6000616BA1EB0501616301D10320307200208D
:102A7000E2E72DE9F0478846D0F89012074601F5C5
:102A800080544FF48055B4F85E00A66E4643AE42C3
:102A900000D32E46B6FBF0F083B2D7F894020C3187
:102AA000626ED0F814C089464046E047002809DA33
:102AB000032304224146384600F0D4F84FF0FF309B
:102AC000BDE8F087B4F85E10626EB6FBF1F010441A
:102AD0006066B6FBF1F0A26E101AA066626BA2EB04
:102AE000060262630BD04843A84200D20546ABB24F
:102AF0004A460121384600F00FFD0020E0E70021A2
:102B00003846FFF7C7FBF8E72DE9F047D0F89052B9
:102B100007461646287A8946A8BB05F580544FF02B
:102B2000FF38207E00062AD5D7F8940281684846EF
:102B3000884730B13A2302224946384600F092F8DD
:102B400011E0D6F80200494600BA20F0FF02707981
:102B500002436266B6F8070043BA3846A366FFF739
:102B600042FE002802DA4046BDE8F08702202872C3
:102B7000B4F85E10A06E48436169884204D02023F7
:102B8000617E0522D9E7FFE74FF48050688149460E
:102B90003846BDE8F047FFF727BF70B505460E463B
:102BA000D5E9A44004F58351436841F25E00221840
:102BB0003046984740B13A2302223146284600F079
:102BC00051F84FF0FF3070BD04F58051086E401E83
:102BD000020E2273020C6273020AA273E0730020D9
:102BE00020746074B1F85E00010AA174E0740820DA
:102BF0006081002070BD2DE9FC410546D0F890426F
:102C000000200F4606462118401C80B20E730C2887
:102C1000F9D3D5F894026A4601A943683846984723
:102C200048B13A2302223946284600F01BF84FF0FB
:102C3000FF30BDE8FC810820E0730198401E010EC2
:102C40002174010C6174010AA174E07402202075E2
:102C50006675BDF80000010AA175E0750C20608161
:102C60000020E6E7D0F8901201F5805090F85D3032
:102C700001EBC30303F5805383F83C2090F85D30EB
:102C8000002201EBC30101F5805181F8402090F84A
:102C90005D10491CC9B280F85D10042901D180F88B
:102CA0005D2070472DE9F047D0F890520646174650
:102CB000287A894620B13046BDE8F047FFF7D9BEF3
:102CC00005F580544FF0FF38207E000631D4D6F849
:102CD000940281684846884728B13A230AE0304682
:102CE000FFF7C0FF1BE0D6F89402C168484688474A
:102CF00018B1272302224946F1E7D7F802004946D6
:102D000000BA20F0FF02787902436266B7F8070044
:102D100043BA3046A366FFF766FD002802DA404654
:102D2000BDE8F087B4F85E00A16E41436069884257
:102D300003D02023617E0522D1E74FF480508142E9
:102D400000D3014601208BB22872014605F10C0226
:102D5000304600F0E1FB0020E2E700000148FEF70A
:102D60001DBE00007C01002010B5806B0021C187D2
:102D7000C186FEF712FE10BD38B504464068B0F5B6
:102D8000827F0BD1A068B0F5004F02D0B0F5806F04
:102D900004D12068036823F0400303600B460092CF
:102DA00000228021204600F018F8002804D0606D31
:102DB00040F020006065032038BD38B50B46009216
:102DC00004460022802100F008F8002804D0606D3D
:102DD00040F020006065032038BD2DE9F0411D461C
:102DE00017460E460446DDF8188008E0681C06D039
:102DF000FDF7B4FBA0EB0800A8420BD255B1206848
:102E0000806836EA000030D00020B842EED10020C1
:102E1000BDE8F0812068416821F0E0014160606810
:102E2000B0F5827F0BD1A068B0F5004F02D0B0F5AD
:102E3000806F04D12068016821F040010160A06A20
:102E4000B0F5005F09D12068016821F400510160EC
:102E50002068016841F400510160012084F85100AC
:102E6000002084F850000320D2E70120CDE74FF482
:102E7000806008608000108000207047002070474C
:102E800010B501F04BFC002010BD00207047002061
:102E900070472DE9F0411F4615460E4600244FF4B9
:102EA000805809E029034246304601F057FC641C73
:102EB000A4B26D1C06F58056BC42F3D30020BDE8D9
:102EC000F0812DE9F047984616460F4600254FF44D
:102ED00080590DE03403204601F0BCFB21464A46F0
:102EE000384601F06BFC6D1CADB2761C07F58057BF
:102EF0004545EFD30020BDE8F0877047FDF734BBB0
:102F000030B599B030216846FDF7ACF914210CA812
:102F1000FDF7A8F9182111A8FDF7A4F91E4800250E
:102F2000016841F080510160006800F08050179006
:102F30001A48016841F4404101600068022400F42D
:102F400040401790052000904FF480300190012000
:102F500002908005CDE90640192008904FF4A87032
:102F6000099004200A9007200B906846FEF7D8F9D4
:102F70000CA90F2081E83100E002CDE90F05022104
:102F80000CA8FEF7FDF8E0011590119411A8FEF7CA
:102F90004DF819B030BD00004038024000700040CC
:102FA0001048016841F4700101600F48016841F068
:102FB000010101600C4A00210832116002680B4BCC
:102FC0001A400260031D0A4A1A60026822F4802235
:102FD000026005480C3001600249580680390860DB
:102FE0007047000088ED00E000380240FFFFF6FE69
:102FF0001030002410B5D0F88C2252689047002081
:1030000010BD134610B50A46002100F085FA0020D5
:1030100010BD134610B50A46002100F014FB002035
:1030200010BD10B50446802100F0F2FA2046BDE83C
:103030001040002100F0ECBA10B505210023C0F8C3
:103040006C121A46194600F067FA002010BD10B540
:103050000223C261C0F86C32026213460A460021A4
:1030600000F0F1FA002010BD10B504210023C0F8D3
:103070006C121A46194600F0E6FA002010BD000056
:1030800010B50A46024903A000F0E0F8004810BD60
:10309000E83400204D534320436F6E66696700009B
:1030A00012200880004870474400002010B50A46EE
:1030B000024903A000F0CAF8004810BDE83400201F
:1030C0004D534320496E746572666163650000006C
:1030D00004200880004870474000002010B50A46D0
:1030E000024903A000F0B2F8004810BDE834002007
:1030F00053544D6963726F656C656374726F6E696A
:103100006373000010B50A46024903A000F09EF860
:10311000004810BDE834002053544D3332204D6137
:1031200073732053746F72616765000010B51A20C5
:1031300008800A480168001D0468001D006808181E
:1031400009D008220649FEF77FFF05490422103105
:103150002046FEF779FF0248801E10BD107AFF1F3F
:103160005A000020F8B5044648880D46010A08298F
:103170004BD2DFE801F04A0409174A4A4048D4F824
:103180008812207C0A6832E0207C02260028D4F8CD
:103190008C0205D0C16A684688470146467041E006
:1031A000816AF8E7C0B206282FD2DFE800F00308F2
:1031B0000D12171CD4F88812207C4A6817E0D4F846
:1031C0008812207C8A6812E0D4F88812207CCA68B1
:1031D0000DE0D4F88812207C0A6908E0D4F888123F
:1031E000207C4A6903E0D4F88812207C8A69694609
:1031F0009047014616E0207C38B9D4F88C02416B28
:1032000068468847F5E7207C20B129462046FFF72D
:1032100008FFF8BDD4F88C02016B68468847014668
:1032200007204870BDF8000048B1EA8852B18242D8
:1032300000D90246ADF800202046FFF708FFE888D5
:103240000028E6D12046FFF70FFFF8BD70B5002338
:1032500000281ED00446002502E06D1CEDB2641C5F
:103260002678002EF9D1022404EB4504148012784C
:10327000CA545B1C0322CA5400245B1C06E0CA54D7
:103280005B1CDAB28C54521CD3B2401C0278002A68
:10329000F5D170BD01004FF0000004D0012901D02C
:1032A000022901D0022070470120704710B580B17B
:1032B000D0F88C3213B10023C0F88C3209B1C0F8B9
:1032C0008812012180F87412027000F0D5F80020F5
:1032D00010BD022010BD10B5D0F89802FDF74EFACF
:1032E000BDE81040FFF7D6BF10B5D0F89802FDF743
:1032F0001FFABDE81040FFF7CDBF2DE9F04117469A
:10330000044651B1D4F88C0242691AB194F874029F
:10331000032851D00220BDE8F081D4F86C3200259A
:1033200004F11400022B03D0042B3AD0C3B33CE0C9
:10333000D0E903639E4207D9F11AC1608AB23946C7
:103340002046FFF766FE12E08068B0FBF3F103FB56
:10335000110199B9984211D3D4F8701288420DD254
:10336000002211462046FFF754FEC4F87052002395
:103370001A461946204600F0CFF816E0D4F88C0221
:10338000C16829B194F87402032801D12046884706
:103390008021204600F03CF92046FFF74DFE04E076
:1033A000FFE78021204600F033F994F878020128E5
:1033B00004D184F8785201E0204690470020AAE723
:1033C00070B51546044649B1D4F88C0282691AB129
:1033D00094F87402032830D0022070BDD4F86C1227
:1033E00004F5A070032902D005291ED027E0D0E9FA
:1033F00003218A420BD9531AC3600846834200D383
:1034000003469AB229462046FFF7FBFD17E0D4F8A1
:103410008C02016929B194F87402032801D1204675
:1034200088472046FFF720FE09E000200146C4F847
:103430006C02204600F0ECF801E0204690470020A6
:1034400070BD0020704710B5012180F87412D0F8CB
:103450008C22017952689047002010BD10B5D0F839
:103460009802FDF7B9F9BDE81040FFF713BFD0F897
:103470009802FDF7CBB9000010B5017839BB1549AA
:103480000222C1F80404C0F898124FF0A04008606E
:10349000042048600020C1E90320C1E90620086239
:1034A0004862C86208630846FDF7A6FC08B1FCF74D
:1034B00042FF80210748FDF7FAF840220021054825
:1034C000FDF7F9F8802201210248FDF7F4F8002009
:1034D00010BD0000E83600200A0601F07F01D0F898
:1034E0009802C1EBC10100EB810002D590F83E00CB
:1034F000704790F8FE017047002070470020704729
:1035000010B51C461346D0F898022246FDF787F9FD
:10351000BDE81040FFF7BEBE10B5D0F89802FDF729
:10352000AEF9BDE81040FFF7B5BE70B50022044605
:1035300040231146FFF7E4FF40260125C4F85061FF
:103540003346002280212046C4F84451FFF7D8FFBB
:103550006662A56184F874520020C4F86C02606051
:10356000C4F87C02D4F8900228B1D4F88C0200216F
:10357000426820469047002070BD90F8751280F890
:1035800074120020704710B590F87412032904D10A
:10359000D0F88C12C96901B18847002010BD0174B0
:1035A0000020704710B5D0F89802FDF7EAFCBDE89E
:1035B0001040FFF76FBE70B5044600F52070054659
:1035C00000F044F90120C4F86C02B4F88602C4F893
:1035D000700294F8800210F01F010AD001290DD06A
:1035E000022910D000F08001204600F011F80020E0
:1035F00070BD2946204600F098F9F8E72946204694
:1036000000F0C4FAF3E72946204600F017FAEEE787
:1036100010B5D0F89802FDF756F9BDE81040FFF755
:1036200039BE10B5D0F89802FDF7C6FCBDE81040D1
:10363000FFF730BE90F8741280F87512042180F8FC
:1036400074120020704710B5D0F89802FDF775F994
:10365000BDE81040FFF71EBE10B5FEF7A8FD002024
:1036600010BD10B5FEF7C1FD002010BD70B50446B9
:103670000121FFF739FE002581212046C4F8585169
:10368000FFF732FE2046E562FEF7CDFDD4F890024A
:1036900018B102F0D5FCC4F89052002070BD0000B3
:1036A0000A21018000487047480100202021018044
:1036B0000048704708010020202101800048704721
:1036C000E8000020202101800048704728010020E8
:1036D00070B50446007C0125D0B1402302220121AF
:1036E0002046FFF70DFF4023C4F8585102228121E4
:1036F0002046FFF705FF41F26C00E56202F05CFE38
:10370000C4F8900280B12046FEF792FD002070BD03
:103710004FF400763346022201212046FFF7F0FEE7
:103720003346C4F85851E1E7022070BD09B1C0F832
:103730009412002070472DE9F8430026D0F89072CB
:103740000546ADF8006008780C46B04610F0600100
:1037500020D020293DD16178FE2902D0FF2938D11F
:103760000EE0618881BBE188012932D1000630D5A5
:10377000D5F89402806980470122394638601FE0FD
:10378000618809BBE188F9B9000622D42846FEF712
:1037900073FD23E0607830B1012825D00A2809D0D4
:1037A0000B2816D111E095F87402032811D10222DA
:1037B000694605E095F8740203280AD10122391DF3
:1037C0002846FFF744FC09E003E095F8740203285B
:1037D00007D021462846FFF724FC02263046BDE8E4
:1037E000F883A0787860F9E721792846FFF736FE5C
:1037F00021792846FFF778FDA0884FF001070106E0
:1038000000F00F0000EB80004FF4007305EB800028
:103810000BD5C0F81880287C00B1402302228121FA
:103820002846FFF76DFEEF620BE0C0F84481287C6C
:1038300000B14023022201212846FFF761FEC5F8AE
:10384000587121792846FEF79DFCC7E70A78027077
:103850004A7842708A78CB7802EB032242800A7958
:103860004B7902EB032282808A79C97902EB01212C
:10387000C18070470246002011B1C2F88C12704717
:103880000220704710B5D0F88C2202241AB11268B9
:10389000904700B90024204610BD000070B50E46C8
:1038A0001E4D897804462970012931D894F8740294
:1038B00002280BD003280FD031462046FFF7B1FB7A
:1038C00029782046BDE87040FFF794BBD9B10320AA
:1038D000616084F8740209E071B16068884212D0B6
:1038E000C1B22046FFF786FB297861602046FFF7CA
:1038F000C9FF02280CD006E0022084F8740220469A
:103900006160FFF777FB2046BDE87040FFF7ACBB76
:1039100031462046BDE87040FFF783BBAC00002075
:1039200010B5FFF77EFE002010BD2DE9F0410A78AA
:10393000002612F0600208D0202A01D0402A70D15F
:10394000D0F88C22926890476DE04B7800220125D8
:103950000A2B66D2DFE803F0405D65576508056510
:103960002C29FFF7FFFB5EE004468888D8B9C88899
:10397000C8B94888802816D200F07F0794F87402EE
:10398000032810D084F8767239462046FFF70AFEE5
:103990002046FFF769FB1FB1022084F8740242E061
:1039A00084F874523FE020463BE0FFF777FF3AE0AF
:1039B000CB88012B35D190F87432012B04D0022B27
:1039C00002D0032B2DD104E08260012200F1080116
:1039D00016E00122011D13E090F87422012A03D0A1
:1039E000022A01D0032A1CD1CA88022A19D1C56033
:1039F000D0F87C1209B10321C160022200F10C0150
:103A0000FFF725FB0FE0498801290CD1C0F87C5253
:103A100011E090F87432012B08D0022B06D0032B52
:103A200004D0FFF7FEFA3046BDE8F081498801294D
:103A3000F9D1C0F87C22FFF717FBF4E72DE9F0413C
:103A40000A46044610780027097910F060030AD06E
:103A5000202B01D0402B50D1D4F88C021146836822
:103A6000204698478FE0C0F34110012806D05078D7
:103A7000D0B301282AD003283FD107E0D4F88C0224
:103A8000114683682046BDE8F041184794F8740257
:103A9000022802D0032872D10AE071B380296ED0C7
:103AA0002046FFF7B5FD80212046FFF7B1FD6AE013
:103AB000508838B931B1802904D0D08810B9204657
:103AC000FFF7A6FD2046FFF7CFFA5CE094F87402FA
:103AD0000228E2D0032852D1508898BB4806F1D082
:103AE0002046FFF7F8FBEDE7FFE794F874020026A5
:103AF000022803D0032842D112E040E009B1802916
:103B00003DD1080601F07F0000EB800004EB80014E
:103B100001D5143101E001F5A07102220E602AE006
:103B2000080601F00F0000EB800004EB80000AD5CE
:103B3000806920B301F07F0000EB800004EB80057A
:103B400014350BE01FE0D0F84401C0B101F07F0054
:103B500000EB800004EB800505F5A07541B18029DC
:103B600006D02046FFF7B8FC10B10120286000E025
:103B70002E60022229462046FFF769FA03E011462B
:103B80002046FFF74EFA3846BDE8F08170B505468D
:103B900008780C4610F0600003D0202801D040289F
:103BA00016D195F87402012803D0022801D0032809
:103BB0000ED1207901280BD8D5F88C0282682846CE
:103BC0009047E188014306D12846FFF74DFA02E00D
:103BD0002846FFF726FA002070BD000070B50A786D
:103BE000012302F00F054E78AB401B4CD0F81C5857
:103BF000012E17D045EA0343C0F81C3800EB4210F1
:103C0000D0F8002B12040BD4D0F8002B0B89C97804
:103C1000C3F30A031A4344EA81410A43C0F8002B64
:103C2000002070BD9BB21D43C0F81C5800EB421031
:103C3000D0F800391B04F3D4D0F800390D89C978C5
:103C4000C5F30A0589042B4341EA82510B43234300
:103C5000C0F80039E4E7000000800010D0F8001937
:103C60006FF30A01C0F80019D0F80818C1F3410138
:103C7000022905D1D0F8001941F00301C0F800195C
:103C8000D0F8041841F48071C0F80418002070477F
:103C900070B5044606990A9E049D0D98012916D018
:103CA000E06840F04000E060204600F02BF8A16B97
:103CB0001EB321F48031A163012D07D1A16841F029
:103CC0000601A160A16841F02001A16070BDA16B57
:103CD00021F48031A163E168094A1140E160E168A3
:103CE00021F44011E160012803D1E06840F4801024
:103CF000E060204600F006F8DEE741F48031DAE7C4
:103D0000BFFFBDFF01220C4902E0521C8A420BD8C2
:103D10000369002BF9DA026942F001020261012213
:103D200004E0521C8A4201D9032070470369DB0773
:103D3000F7D1002070470000400D030030B50B782C
:103D40004D78012203F00F0402FA04F4012DD0F89B
:103D50003C5817D025EA0444C0F83C48D0F81C4829
:103D6000097801F00F018A4024EA0241C0F81C18CA
:103D700000EB4310D0F8001B0E4A1140C0F8001BA6
:103D8000002030BDA4B2A543C0F83C58D0F81C4870
:103D9000097801F00F018A4091B28C43C0F81C48A9
:103DA00000EB4310D0F80019034A1140C0F8001985
:103DB000E6E700000078F3EF007833EC10B5D0F8B8
:103DC000041821F00201C0F804180320FCF7EAFAF5
:103DD000002010BD10B5D0F8041841F00201C0F861
:103DE00004180320FCF7DEFA002010BD2DE9F04F87
:103DF0000025DDE90BCB0E460446DDF84090099F17
:103E00002846294604EB8002C2F80411401C0F2802
:103E1000F8D3B9F1000F204618D0006820F4001242
:103E20002260A06B40F40022A26308468846C4F8D2
:103E3000000ED4F800182046C4F80018BCF1010F99
:103E400010D0D0F8001841F0030110E0806B40F46E
:103E50000012A263A06B20F40022A263A06B20F4E6
:103E60008022E1E7D0F800180BB141F00101C0F861
:103E70000018102100F08AFA00B10125204600F058
:103E800075FA00B101254046C4F81088C4F81488BA
:103E9000C4F81C8800214FF000634FF090484FF6A3
:103EA0007F3A14E004EB4112D2F800C9BCF1000FD4
:103EB00006DA11B1C2F8008904E0C4F8003901E063
:103EC000C2F80009C2F81009C2F808A9491C8E42BC
:103ED000E8D8002115E000BF04EB4112D2F800CB76
:103EE000BCF1000F06DA11B1C2F8008B04E0C4F88F
:103EF000003B01E0C2F8000BC2F8100BC2F808AB9F
:103F0000491C8E42E8D8D4F8101821F4807221465A
:103F1000C4F81028012F08D1134AC1F83028D1F86D
:103F20003018124A1143C4F83018A0616FF0804075
:103F300060611FB9A06940F01000A061A0690C4940
:103F40000843A061BBF1000F03D0A06940F0080056
:103F5000A061B9F1010F03D1A06906490843A0612E
:103F60002846BDE8F08F000000018000030001003A
:103F700000383C8004000040816821F0010181602C
:103F80000020704770B50D784E78404CEBB200EBD6
:103F90004313012E1FD0D3F8100B6FF31200C3F898
:103FA000100BD3F8100B2040C3F8100B486908B170
:103FB00088684861D3F8100B40F40020C3F8100B58
:103FC000D3F8100B8C68C4F312042043C3F8100B11
:103FD000012A4ED051E04E69002ED3F8106932D03C
:103FE0006FF31206C3F81069D3F810692640C3F8BE
:103FF00010694E698C68A64200D94C61D3F810490B
:1040000044F40024C3F81049D3F810494E69C6F3AC
:1040100012063443C3F81049012A22D04A694AB132
:10402000D0F83428097801F00F03012199400A43A0
:10403000C0F8342800EB4510D0F8001941F00441D5
:10404000C0F800191FE02640C3F81069D3F81049E2
:1040500044F40024C3F81049D3F810496FF3120454
:10406000D8E709690029E5D000EB4512C2F8141918
:10407000E0E7C86808B1C3F8140BD3F8000B40F0B0
:104080000440C3F8000B002070BD0000FFFF07E0F4
:1040900010B5036C134CA34203D9D0F8003B002B9E
:1040A0001EDB0023C0F8103BD0F8103B43F4002384
:1040B000C0F8103BD0F8103B43F01803C0F8103B99
:1040C000D0F8103B43F0C043C0F8103B012907D1A2
:1040D000C0F8142BD0F8001B41F08021C0F8001B61
:1040E000002010BD0A30544F4A780B78012A00EBAB
:1040F00043100BD0D0F8002B22F40012C0F8002B94
:10410000C978032914D0022912D017E0D0F8002969
:1041100022F40012C0F80029C978032901D002292D
:104120000CD1D0F8001941F08051C0F8001905E019
:10413000D0F8001B41F08051C0F8001B00207047F0
:104140000A784B78D1B200EB4110012B12D0D0F895
:10415000001B002906DB2AB1D0F8001B21F08041AA
:10416000C0F8001BD0F8001B41F40011C0F8001B80
:1041700000207047D0F80019002906DB2AB1D0F8DA
:10418000001921F08041C0F80019D0F8001941F45D
:104190000011C0F80019EBE7F8B50C784F786F4DB7
:1041A000E3B26FF0604600EB4313012F26D0D3F843
:1041B000104B6FF31204C3F8104BD3F8104B2C4084
:1041C000C3F8104B4C69002C6FD08D682C44641ED2
:1041D000B4FBF5F4D3F8105BA4B206EAC446354349
:1041E000C3F8105BD3F8105B8E686643C6F3120405
:1041F0002543C3F8105B012A7ED096E04F691FB3B8
:10420000D3F810796FF31207C3F81079D3F8107947
:104210002F40C3F810794F698D682F447F1EB7FB7C
:10422000F5F506EAC545D3F810693543C3F81059CA
:10423000D3F810594E69C6F312063543C3F8105926
:10424000CD78012D10D01BE0D3F810692E40C3F8B3
:104250001069D3F8105945F40025C3F81059D3F864
:1042600010596FF3120509E0D3F8105925F0C04535
:10427000C3F81059D3F8105945F00055C3F8105938
:10428000012A13D0CB78012B18D04B692BB3D0F86F
:1042900034380D7805F00F060125B5402B43C0F8E2
:1042A0003438CB78012B09D017E02BE00B69002BB9
:1042B000F7D000EB4415C5F81439F2E7D0F8083808
:1042C000DB0500EB4413D3F8005902D445F0005548
:1042D00001E045F08055C3F8005900EB4413D3F8D2
:1042E000004944F00444C3F80049CB78012B32D193
:1042F00000928A8A93B200E013E00A78C96800F05D
:104300003FF928E0D3F8104B8D68C5F312052C4314
:10431000C3F8104BD3F8104B44F40024C3F8104BEF
:1043200069E7CA680AB1C3F8142BC97801290CD10E
:10433000D0F80808C005D3F8000B02D440F00050B4
:1043400001E040F08050C3F8000BD3F8000B40F0C0
:104350000440C3F8000B0020F8BD0000FFFF07E099
:10436000816841F001018160002070470021102226
:104370000261054A491C914201D903207047036933
:10438000DB06F7D400207047400D030000222023F5
:1043900043EA811101610549521C8A4201D9032077
:1043A000704703699B06F7D400207047400D030057
:1043B000D0F8080810F0060004D0022803D0062820
:1043C00001D00020704703207047406900F00100D1
:1043D0007047D0F81818D0F81C08084080B2704711
:1043E000D0F81818D0F81C080840000C704710B519
:1043F000D0F81038D0F8342801F00F0400EB411049
:10440000E24002F00102D0F8080943EAC21210406B
:1044100010BD00EB4111D1F8081BD0F8140808407A
:1044200070474169806908407047D21C10B59308F5
:10443000002200F5805002E00468521C10C19A422C
:10444000FAD3084610BD10B5C26822F0C042C2605F
:10445000012902D029B1012010BDC16841F00051ED
:1044600002E0C16841F08041C1603220FBF79AFF51
:10447000002010BDD0F8002822F4FE62C0F8002809
:10448000D0F800284FF4FE6303EA01110A43C0F894
:104490000028002070470000032A3ED1264A274BFF
:1044A0000A449A4201D20F2138E0254A254B0A449A
:1044B0009A4201D20E2131E0234A244B0A449A4207
:1044C00001D20D212AE0224A224B0A449A4201D20B
:1044D0000C2123E0204A214B0A449A4201D20B21AD
:1044E0001CE01F4A1F4B0A449A4201D20A2115E0E0
:1044F0001D4A1E4B0A449A420FD31D4A1D4B0A44C3
:104500009A4201D2082109E01B4A11441B4A9142F8
:1045100001D2072102E0062100E00921C26822F44D
:104520007052C260C2684FF4705303EA81210A439B
:10453000C260002070470000405327FF00350C0088
:10454000401E1BFF40420F0000DC0BFF804F12009B
:10455000808CF9FE20D6130060B6E5FE60E31600FD
:1045600000D3CEFE40771B00C05BB3FEC09121009C
:1045700000CA91FE20753800E05459FEE09C4100CD
:1045800010B5029C64B9DB1C9C0800EB02300023D0
:1045900000F5805002E004C902605B1CA342FAD31C
:1045A000002010BD02480021017000787047000013
:1045B0000F00002089B101290CD0022903D0032962
:1045C00005D0042070474FF48050108005E04FF470
:1045D000803001E04FF480601060002070472DE9CA
:1045E000F0411F4615460E4600244FF4805808E05F
:1045F00029034246304600F0B1F8641C6D1C06F5F4
:104600008056BC42F4D30020BDE8F081024800216E
:1046100001700078704700000F0000202DE9F0477E
:10462000984616460F4600254FF480590CE0340397
:10463000204600F00FF821464A46384600F0BEF802
:104640006D1C761C07F580574545F0D30020BDE86A
:10465000F087FEE738B50446FBF780FF05462020CB
:104660008DF80000200C8DF80100200A8DF8020062
:104670008DF8034000F002F9114C00221021204671
:10468000FBF766FF4FF47A73042269460D48FDF785
:1046900027FB012210212046FBF75AFF40F6B834D1
:1046A00007E000BFFBF75AFF401BA04201D90320DF
:1046B00038BD00F009F80228F4D0002038BD000011
:1046C000000002407C0100207CB511A0114C006864
:1046D0000090002210212046FBF73AFF4FF47A7534
:1046E0002B46012269460C48FDF7FAFA2B460122B7
:1046F00001A90948FDF74CFA012210212046FBF7D9
:1047000027FF9DF80400C00700D002207CBD0000F8
:1047100005000000000002407C01002038B50CA01C
:104720000C4C00680090002210212046FBF710FF7F
:104730004FF47A73022269460748FDF7D1FA012245
:1047400010212046FBF704FFBDE83840FFF7BCBF4F
:1047500066990000000002407C010020F8B5054683
:1047600003208DF80000080C8DF80100080A8DF870
:104770000200104F14468DF8031000221021384615
:10478000FBF7E6FE4FF47A763346042269460A4880
:10479000FDF7A6FAA2B2334629460748FDF7F8F915
:1047A00008B10120F8BD012210213846FBF7D0FEE8
:1047B0000020F8BD000002407C0100202DE9F84FE8
:1047C00016460C468346FBF7C9FE0746002001E06B
:1047D00000F58070A042FBD9051BB54200D93546D3
:1047E00004EB060ADFF88C804FF002094FF47A766A
:1047F0008DF80090200C8DF80100200A8DF8020041
:104800008DF8034000F03AF8002210214046FBF7F3
:104810009FFE3346042269461748FDF761FA30B916
:10482000AAB2334659461448FDF75AFA10B101208E
:10483000BDE8F88F012210214046FBF789FE06E013
:10484000FBF78CFEC01BB04201D90320F0E7FFF755
:104850003BFF0228F4D02C4404F58070AB44504553
:1048600002D9AAEB040501E04FF480755445BFD38B
:104870000020DDE7000002407C010020F8B514A014
:1048800000680090FBF76AFE124E054600221021D8
:104890003046FBF75DFE4FF47A74234601226946E9
:1048A0000D48FDF71DFA012210213046FBF750FE9E
:1048B00007E000BFFBF752FE401BA04201D90320D6
:1048C000F8BDFFF701FF0228F4D00020F8BD00007A
:1048D00006000000000002407C0100200907090ECC
:1048E000002804DB00F1E02080F80014704700F09D
:1048F0000F0000F1E02080F8141D704702E008C8A6
:10490000121F08C1002AFAD170477047002001E049
:1049100001C1121F002AFBD17047000010B50446E8
:104920000020E070401E2063204601F08CFD08B19D
:10493000042010BD04F2322001F0F0FCA0F52A4161
:10494000553901D0032010BD94F83400E92805D072
:10495000EB2814D194F83600902810D104F16A00A5
:1049600001F0D1FC0749B1EB002F06D004F186001D
:1049700001F0C9FC0449884201D1002010BD022089
:1049800010BD0000004641544641543300E0401C35
:1049900002780AB18A42FAD1D0B27047F0B500224B
:1049A000144D134605EB021426685EB10768BE423B
:1049B00009D166688768BE4205D1A4684669B442D9
:1049C00004D000E00123521C022AEBD3022A01D0BA
:1049D00069B904E04BB9022907D01220F0BD05EBFC
:1049E00002108089B0F5807F01D00020F0BD10203A
:1049F000F0BD0000F03A002030B50021054B0C4618
:104A000003EB01121568854200D11460491C02298C
:104A1000F6D330BDF03A00200268090BC06A528913
:104A2000B1FBF2F1001D04C81AB1914203D3891AF7
:104A3000F8E7002070470068084470478269891EC3
:104A4000921E8A4201D800207047C26A408901FB49
:104A5000002070472DE9F05F82460C4601F11A00F4
:104A600001F05CFC78BB2078012700F03F00401E7D
:104A700000EB8001DFF8589001EBC00500264FF6EF
:104A8000FF7B00BF19F80600204401F047FC804678
:104A90006FB1FF2D17D201F02FF907463AF8150034
:104AA0006D1C01F029F987420DD1474601E0D84538
:104AB00009D1761C0D2EE5D32078400606D52FB1FE
:104AC0003AF8150010B10020BDE8F09F0120FBE787
:104AD000726700082DE9F04105680F00804606D096
:104AE00001F01CFB022809D20120BDE8F0812E69EB
:104AF00016B1A869B04207D8012605E0411CF4D0E0
:104B0000A9698142F1D83E463446A869641CA04296
:104B100002D80224022E0AD32146404601F0FEFAB2
:104B200038B10128E1D0411CDFD0B442EDD10020E2
:104B3000DBE74FF0FF3632462146284601F09CFC69
:104B400030B957B122463946284601F095FC20B1CC
:104B500001280FD001242046C7E72C61D5E90501C3
:104B6000891E884201D8401E6861287940F0010002
:104B70002871F0E73446EEE72DE9F84F82460068E9
:104B80000F680024C66888462546785D6D1C20287D
:104B90002AD32F2823D05C2821D0FF2C49D2A0F182
:104BA00081017D290BD8795D6D1C01EB0020A1F1FD
:104BB000400280B23F2A02D380397F2939D20121B5
:104BC00001F074F85FEA000933D0B9F1800F12D216
:104BD000014675A0FFF7DAFE58BB0CE06D1C795D4D
:104BE0002F29FBD05C29F9D07A19C8F80020202899
:104BF00005D204250FE026F81490641CC5E70025B3
:104C000009E000BF06EB440030F8020C202801D078
:104C10002E2802D1641E002CF4D1002026F81400A6
:104C20003CB10B2220210AF1240001F005FC0027F1
:104C300003E00620BDE8F88F7F1C36F81700202817
:104C4000FAD02E28F8D01FB145F0030500E0641E0D
:104C50002CB106EB440030F8020C2E28F7D14FF0AF
:104C600000094FF0080BCDF8009000BF36F8170090
:104C700007F101075FEA000824D0B8F1200F04D043
:104C8000B8F12E0F04D1A74202D045F00305EDE79D
:104C90000098584501D2A74219D1BBF10B0F0FD094
:104CA000A74201D045F003050CD84FF00800009052
:104CB0004FEA896027464FF00B0B4FEA1069D5E7A2
:104CC00045F003059AF82400E52849D04BE040461A
:104CD000B8F1800F07D301F00FF8002100F0E6FFD4
:104CE000804645F00205B8F1FF0F13D90099ABF1EA
:104CF0000100814204D345F00305CDF800B0B5E7CB
:104D00000AEB01004FEA182280F824200098401C8A
:104D100000901CE0B8F1000F04D0014625A0FFF779
:104D200035FE20B14FF05F0845F003050FE0A8F114
:104D30004100192802D849F0020908E0A8F16100F1
:104D4000192804D8413049F001091FFA80F8009A67
:104D50000AEB020181F824800098401C009085E74E
:104D600005218AF82410BBF1080F03D14FEA8960AE
:104D70004FEA1069C9F38100032803D06FEA0901E3
:104D8000890701D145F00205A90709D409F00301FB
:104D9000012901D145F01005012801D145F0080590
:104DA0008AF82F50002045E7222A3A3C3E3F7C7F7C
:104DB000000000002B2C3B3D5B5D0000401E0228E4
:104DC00012D20A4901EB00118889B0F5807F05D025
:104DD00008B1401E80B2888110B103E00020FAE7DC
:104DE000002008600020704702207047F03A002041
:104DF0002DE9F04704460021D0F8009000F0CCF9EE
:104E000000285BD1FF25471EA84627634846E16975
:104E100001F019FB060050D1216A087850B1CA7A16
:104E2000E52802F03F02A2713FD0130704D50F2AF4
:104E30003BD105E0042640E00F2A01D0E5B120E097
:104E400094F82F20520632D4420606D591F80D80F0
:104E500000F0BF00626905462263A84209D14A7B7F
:104E6000424506D1D9F80C00FFF7F4FD08B16D1EDC
:104E700000E0FF25EDB21AE0084601F0CCFB40450A
:104E80001BD094F82F00C0070FD1D4F8201004F1E4
:104E900024000B2211F8013B10F8015B5B1B521E32
:104EA00002D0002BF6D000E03BB1FF2527630021A4
:104EB000204600F005F80600A8D03046BDE8F0878F
:104EC0002DE9F047054647690468C06989462037DF
:104ED00010B1B7F5001F02D30420BDE8F0873905F3
:104EE00060D1401CE861A9694FF0000829B16089D0
:104EF000401E10EA173F05D054E02089B0EB571F41
:104F00001DD94FE0284601F009F9064601281BD9B2
:104F1000701C33D0A069B0423ED8B9F1000F0ED05A
:104F20002846A969FFF7D6FD06000BD0012E0BD04D
:104F3000701C23D0204601F0BFFBF8B906E0C5F88D
:104F40001C80C9E70720C8E70220C6E74FF480525B
:104F5000002104F1340001F06FFA4FF000083146EF
:104F60002046FFF76BFD4FF0010920630DE000BF05
:104F700084F80390204601F09FFB08B10120ACE7C4
:104F8000206B08F10108401C206361894145EFD87E
:104F9000216BA1EB0800206331462046AE61FFF78C
:104FA0004DFDE861C7F30B00204434306F61286287
:104FB000002092E72DE9F04F0446D0F8009090F8D9
:104FC0002F0089B010F0A00F03D0062009B0BDE873
:104FD000F08F0025D9F80C0000E06D1C30F815109A
:104FE0000029FAD104F124010C226846039101F052
:104FF00019FA9DF80B00C00719D0402084F82F0043
:10500000012633466946D9F80C20039801F040F890
:105010002046FFF7EDFE10B9761C642EF1D3642E06
:105020000FD00428D2D19DF80B0084F82F009DF8F2
:105030000B00800707D50D200C35B5FBF0F56D1C76
:1050400002E00720C2E7012500212046276800F082
:10505000A3F888B900263846E16901F0F4F958B997
:10506000206A0078E5280AD048B1002601212046B0
:10507000FFF726FF0028EED0042812D012E0761C9D
:105080002846AE42F2D1451E059567D06169684257
:1050900001EB4011204600F07FF85FEA000803D0E2
:1050A00076E00720804673E0039801F0B4FA4FF6EB
:1050B000FF7B07904846E16901F0C5F95FEA000807
:1050C00066D1D9F80C0006900598D4F82080C0B2BB
:1050D0000490079988F80D100F2188F80B10002113
:1050E00088F80C1008F11A0001F091FA0498DFF822
:1050F000A4A0401E00EB800101EBC006002701E0E8
:105100005D4503D0069830F81650761C1AF8071043
:1051100001EB0800294601F07AFA05B95D467F1CCB
:105120000D2FEDD35D4505D0069830F8160008B177
:10513000049803E0049840F04000049088F80000D0
:10514000012189F8031000212046FFF7B9FE5FEA2C
:1051500000081DD10598401E0590ABD14846E16975
:1051600001F071F95FEA000812D120220021206AC3
:1051700001F062F90B22206A039901F053F994F8C7
:105180002F00216A00F018000873012089F803003D
:1051900040461BE7726700082DE9F04107680E469C
:1051A0000546B1F5001F36D2F00634D16E61AC6809
:1051B00024B93878032805D3BC6A1CB178894FEA32
:1051C000003812E03889B0EB561F24D9B86A12E0D3
:1051D000284600F0A3FF0446401C1AD0022C1AD324
:1051E000B869A04217D9A6EB080646452146EFD27A
:1051F0003846FFF723FCC5E9064060B100EB1630E6
:10520000E861C6F30B003844343028620020BDE862
:10521000F0810120FBE70220F9E70000084910B502
:105220000B5C002253B901220A540A1801EB8000DA
:10523000127A40680168104688470246104610BD41
:10524000103B002030B4054C231804EB80001B7A7F
:10525000406804691846A44630BC6047103B0020F3
:1052600030B4054D2C1805EB8000247A4068856821
:105270002046AC4630BC6047103B0020044A111861
:1052800002EB8000097A4068426808461047000037
:10529000103B002030B4054D2C1805EB8000247A1B
:1052A0004068C5682046AC4630BC6047103B0020D3
:1052B00038B5044600F0ECFB00280CD169462046C6
:1052C00001F023FA002806D12069FFF777FD0028B6
:1052D00001D10021216038BD2DE9FF4F91B01E465C
:1052E000144611A81E9D00F09DFF002803DA0B2034
:1052F00015B0BDE8F08FF64951F8201009B1002231
:105300000A70C0B20490FFF789FFC10701D00320E3
:10531000EEE7400701D50A20EAE70EAA0321049828
:10532000FFF790FF38B90E9828B1B0F5004F02D8BA
:10533000411E084201D001200E904FF4805A24B142
:1053400054453AD3B4F1807F37D8601E044234D13B
:10535000B5FBFAFBB4FBFAF75FEA0B30344610906A
:105360007ED00CAA01210498FFF76CFF002878D1A9
:1053700012980C9900076FEAA0104FEA906949450E
:105380006ED3A1EB090086460C90802868D3802F4D
:1053900013D812984FF6F5728007129840F6F573FD
:1053A00007D500F0070002287ED01298C0077BD0F6
:1053B00001E0C00701D0022696E0132098E73D00E7
:1053C0000ED100204FEA5E4C0125C24901E06D007C
:1053D000401C31F81080B8F1000F01D0E045F6D93B
:1053E000BEFBF5F00AEB8001C91DB1FBFAF82021E4
:1053F000039100210791904232D9B74988422FD8B2
:1054000029E000BFB349002001254FEA1E3C0E39B8
:1054100001E06D00401C31F81080B8F1000F01D0A0
:10542000E045F6D9BEFBF5F0984203D9042101EB23
:10543000400006E0012600EB40000321401C01EB88
:1054400050005044401EB0FBFAF801208103039045
:10545000B1FBFAF007900398484400EB080101E023
:1054600055E034E10590079808440E9900EB010CD3
:10547000491EACF1010C2CEA010CACEB0001032E2F
:1054800019D0884400EB0511A1EB090171453ED804
:1054900003990798AEEB0101A1EB0801081AB0FBD4
:1054A000F5F00190032E00E024E00ED0022E13D080
:1054B000012E2AD02DE0DDF80CC08C44CDF80CC0B4
:1054C000DDF814C061440591DCE7904221D8F7B9BA
:1054D0006F087FF474AF1AE0904211D93FB94020B1
:1054E000B0EB450F03D36F003D009BD18AE71298C4
:1054F000800707D5032662E76F00802FF4D906E006
:10550000984206D8002FF7D001E0984201D90E202A
:10551000EEE652460021204600F08EFF0B226FA1DE
:10552000204600F07FFF514604F10B0001F06FF8B8
:105530006573039881B204F10E0001F068F8012050
:105540002074032E0ED0410204F1110001F05FF827
:105550000C99B1F5803F07D289B204F1130001F034
:1055600056F805E00021EFE704F1200001F047F8CC
:10557000F82060753F2104F1180001F048F8FF2180
:1055800004F11A0001F043F8494604F11C0001F04F
:1055900036F82927032E27D000F01EFE014604F11D
:1055A000270001F02CF81FFA88F104F1160001F031
:1055B0002EF8802084F8240084F8267013224AA153
:1055C00004F12B0000F02EFF04F5FF704AF6552180
:1055D000089001F01CF801234A4621460498FFF781
:1055E00059FE002873D124E000F0F6FD014604F1D5
:1055F000430001F004F8414604F1240000F0FFFFED
:10560000022104F12C0000F0FAFF012104F1300026
:1056100000F0FDFF062104F1320000F0F8FF8020C9
:1056200084F8400084F84270132234A104F147004A
:10563000C8E7032E32D1012309F10602214604985E
:10564000FFF728FE52460021204600F0F5FE3049C3
:10565000204600F0D4FF2F4904F5F27000F0CFFF90
:10566000019904F5F470491E00F0C9FF022104F508
:10567000F67000F0C4FF4AF65521089800F0C7FF05
:10568000012309F1070221460498FFF703FE0123D5
:1056900009F1010221460498FFF7FCFD0021204694
:1056A000109A00F0C9FE6FF00701032E02D0012E00
:1056B00032D032E0204600F0A2FF4FF0FF31201D33
:1056C00000F09DFF6FF0704104F1080026E073E0E8
:1056D000A80000208E670008F5FFFF0FEBFE904D3D
:1056E00053444F53352E30004E4F204E414D4520F0
:1056F0002020204641542020202020004E4F204EC4
:10570000414D4520202020464154333220202000A6
:1057100052526141727241614149204600F06FFF6F
:10572000474658465F4500D8384680460346DDE97F
:1057300004022146FFF7AEFDF0BB52460021204691
:1057400000F07AFE0599B7EB080701EB0800059019
:10575000E7D1032E00D0079D58465D4501D9074685
:1057600000E02F46DDE904023B462146FFF792FDAB
:1057700010BB0598ED1B38440590EDD1032E05D0E4
:105780000C98B0F5803F03D3062604E00C2602E017
:10579000022E38D001261298000736D45246002136
:1057A000204600F049FE4AF65521089800F02FFFE8
:1057B00004F5DF75002000E02FE0287001216970FA
:1057C000A970E8702E710C9909EB010043F6C161D4
:1057D000B0FBF1F0FE2169713F2141EA9001A9710E
:1057E000E871494605F1080000F009FF05F10C00D9
:1057F0000C9900F004FF0123002221460498FFF7D2
:1058000049FD50B901E00426C5E70022114604987D
:10581000FFF718FD00283FF47BAD012068E500008C
:10582000F8FFFF002DE9F74181B090460298009003
:10583000684600F0F7FC040003D50B2004B0BDE877
:10584000F0810D4E002756F824501DB12846FFF771
:10585000D3F82F700198002800D0077046F8240074
:1058600002D0B8F1010F01D00020E7E7002201A922
:1058700002A800F081FAE1E7A80000202DE9F74333
:10588000ADF5147D05000BD002F03F0632466946A7
:1058900095A800F071FA04004FF0000805D0EFE081
:1058A00009200DF5177DBDE8F083009810A901903F
:1058B000C16001A8959900F089FB04000ED19DF804
:1058C0003300000601D5062408E0700801D001214C
:1058D00000E0002101A8FFF761F8044616F01C0F54
:1058E0005DD04FF00109C4B1042C10D100206749EC
:1058F00002E0401C022804D201EB00121268002AC8
:10590000F7D1022807D001A8FFF754FB044646F060
:1059100008065CB1B4E01224B2E09DF80A0010F071
:10592000110F47D1700701D50824A9E0300747D5EA
:1059300000F052FC0746099839460E3000F05FFE31
:1059400009983946163000F05AFE09992020C8728D
:105950000999009800F0C4FC0746002209990098B4
:1059600000F039FE099800211C3000F048FE009933
:1059700081F8039017B3D1F830900022394601A87E
:1059800000F0EFFD04007BD14946009800F05BFD7C
:1059900004000098A7F1010707610DD070E0ECBB8F
:1059A0009DF80A00C10601D5042469E0B10703D5BA
:1059B000C00701D0072463E0300701D546F0400658
:1059C0000098006B68620998A862700801D00121F4
:1059D00000E0002101A800F043FC2861B8B3099958
:1059E000009800F07DFCA86009981C3000F08BFC4A
:1059F000C5F82C80E86000992960009905F1300015
:105A00004FF48052C988A9802E7585F81580C5F895
:105A1000208000218146C5F8188000E030E000F0C9
:105A20000BFDB0062ED5EE6866B3AE610098A9688E
:105A3000408907030FE0284600F070FB014601286B
:105A400000D80224481C03D0F61B24B105E01BE05B
:105A50000124F61B01E0BE42EDD8E96184B93005AE
:105A600010D00098FEF7EAFF70B100EB16322A6200
:105A70000098012349464078FFF7F2FB10B101245A
:105A8000C5F8008020460CE70224F9E7F03A002030
:105A9000F8B50446694600F038FE00280ED1217D95
:105AA0004A060BD508060ED50098226A01234078D5
:105AB00004F13001FFF7EEFB08B10120F8BD207DB5
:105AC00000F07F00207500F087FB0646616A0098B1
:105AD00000F0B9FC0028F1D1A56A2946E87A40F027
