:020000040800F2
:10000000789F00206D020008D7290008932300087C
:10001000D529000807040008254C0008000000004E
:10002000000000000000000000000000AD0100081A
:10003000090400080000000009020008C13300089C
:10004000870200088702000887020008870200086C
:10005000870200088702000887020008870200085C
:10006000870200088702000887020008870200084C
:10007000870200088702000887020008870200083C
:1000800087020008870200088702000800000000BD
:1000900000000000000000000000000087020008CF
:1000A0008702000887020008DD3400088702000884
:1000B00087020008870200088702000887020008FC
:1000C0008702000887020008870200083D31000807
:1000D000870200088702000887020008000000006D
:1000E000870200088702000887020008000000005D
:1000F000000000000000000000000000870200086F
:10010000000000008702000887020008870200083C
:1001100000000000000000000000000000000000DF
:10012000870200088702000887020008870200088B
:10013000870200080000000000000000000000002E
:10014000000000000000000000000000D9290008A5
:10015000870200088702000887020008870200085B
:10016000870200088702000800000000000000006D
:10017000000000000000000000000000000000007F
:1001800000000000870200080000000000000000DE
:100190008702000887020008DFF80CD000F0F6F8AC
:1001A0000048004773740008789F00202C4B1968A2
:1001B0000868B0E8F04F80F30988BFF36F8F4FF005
:1001C000000080F3118870470000000008480068B4
:1001D000006880F308884FF0000080F3148862B64E
:1001E00061B6BFF34F8FBFF36F8F00DF00BF00BF5B
:1001F00008ED00E0DFF80C00016841F470010160D7
:10020000704700BF88ED00E0EFF30980BFF36F8F08
:10021000134B1A681EF0100F08BF20ED108A20E95A
:10022000F04F106009B44FF0500080F31188BFF315
:100230004F8FBFF36F8F08F061F84FF0000080F32D
:10024000118809BC19680868B0E8F04F1EF0100F5B
:1002500008BFB0EC108A80F30988BFF36F8F704736
:10026000BC000020EFF3058070470000064880477F
:1002700006480047FEE7FEE7FEE7FEE7FEE7FEE78B
:10028000FEE7FEE7FEE7FEE7893400089901000873
:100290002DE9F05F0546002092469B4688460646BB
:1002A000814640241BE0284641464746224600F04E
:1002B0005AF853465A46C01A914110D3114618466F
:1002C000224600F041F82D1A67EB01084F462246FE
:1002D0000120002100F038F817EB00094E41201EE4
:1002E000A4F10104DFDC484631462A464346BDE816
:1002F000F09F40EA01039B0703D009E008C9121FE1
:1003000008C0042AFAD203E011F8013B00F8013BCF
:10031000521EF9D27047D2B201E000F8012B491EFB
:10032000FBD270470022F6E710B513460A46044692
:100330001946FFF7F0FF204610BD421C10F8011BC4
:100340000029FBD1801A7047202A04DB203A00FAEA
:1003500002F1002070479140C2F1200320FA03F31C
:10036000194390407047202A04DB203A21FA02F01A
:100370000021704721FA02F3D040C2F120029140DF
:10038000084319467047002070470000064C074D8F
:1003900006E0E06840F0010394E807009847103455
:1003A000AC42F6D3FFF7FCFE443C0308643C030870
:1003B00070B58C1810F8015B15F0070301D110F827
:1003C000013B2A1106D110F8012B03E010F8016B54
:1003D00001F8016B5B1EF9D12B0705D40023521ED7
:1003E0000DD401F8013BFAE710F8013BCB1A921C3F
:1003F00003E013F8015B01F8015B521EF9D5A1423D
:10040000D8D3002070BDFEE770477047002200F08F
:1004100001B8000030B50E4B054601205C7A002C77
:1004200014D1587A1C54587A03EB800045605D7AE9
:1004300003F108002A54587A421C5A72303008706E
:100440003A2048702F208870CC70002030BD00000A
:10045000383E002090F83510022903D080214165F4
:1004600001207047052180F835100068016821F0EF
:10047000010101600020704770B5044600F0D8F813
:100480000546601C02D004480078044400F0D0F80F
:10049000401BA042FAD370BDA40000202DE9F84F04
:1004A000DFF860B100224FF001084FF0030A4FF06F
:1004B0000F090BF1040E00BF0B6808FA02F4234089
:1004C000A3426ED14D68022D01D0122D0ED1D50858
:1004D00000EB850CDCF820505607F70E09FA07F6FA
:1004E000B5430E69BE402E43CCF820600668550027
:1004F0000F790AFA05FC07F0030726EA0C06AF405D
:10050000374307604E68012E05D0022E03D0112E0E
:1005100001D0122E0ED18668CF6826EA0C06AF40B5
:10052000374387604668A6430C79C4F300149440AF
:1005300034434460C6688C6826EA0C06AC403443F9
:10054000C4604C68E40056D52F4C256845F48045BE
:100550002560246822F0030504F4804400942B4CA9
:100560002E19D6F8084895072F0F09FA07F5AC435E
:10057000274DA84201D1002515E0264DA84201D102
:10058000012510E0244DA84201D102250BE0234DA6
:10059000A84201D1032506E0214DA84202D104253D
:1005A00001E028E00725BD402543C6F80858DBF8E0
:1005B00000405D464E689C43F60300D51C432C600A
:1005C000DEF8004075464E689C43B60300D51C43D8
:1005D0002C600C4D08352C684E689C43F60200D503
:1005E0001C432C60074D0C352C684E689C43B602AA
:1005F00000D51C432C60521C102AFFF45DAFBDE8EF
:10060000F88F0000003C01404438024000300140B7
:10061000000002400004024000080240000C0240BA
:10062000001002400AB1816170470904FBE7000035
:100630000148806870470000A400002002488168DB
:100640000278114481607047A40000200B4810B567
:10065000016841F400710160016841F4806101604A
:10066000016841F480710160032000F08DF80020E2
:1006700000F006F800F03EF8002010BD003C0240FB
:1006800010B5014688B000221A2000F05DF81A204B
:1006900000F04CF813480024016841F48021016007
:1006A000006805A900F480200690684600F086FEE8
:1006B00000F0AAFE0C490D4AB0FBF1F10C48491EAE
:1006C000026040F2E732C0E90324C0E9011401F0FE
:1006D00072FD10B1012008B010BD054801F087FD82
:1006E000F9E700004438024040420F000048014052
:1006F000343500200C4882B0016841F4804101602B
:10070000006800F4804000900748001F016841F035
:10071000805101600068002200F0805000900F219D
:10072000901E02B000F010B844380240002809DBE7
:1007300000F01F02012191404009800000F1E020FB
:10074000C0F8001170470000F0B40E4B1B680C4657
:10075000C3F30223C3F10705042D00D90425191D95
:10076000072901D2002300E0DB1E012606FA05F16D
:10077000491E214099409E40761E16403143F0BCF0
:1007800004F01FBC0CED00E0064900F00702086809
:100790004FF6FF03184040EA0220034A1043086066
:1007A000704700000CED00E00000FA05704700689B
:1007B000416200207047F0B50368586A39B19C6AFD
:1007C0004FF4827600EB144400204D1E0AE040EA0C
:1007D000024098620FE006EB8007DF59401C04EBF3
:1007E0001744C0B2A842F6D344EA02404FF48072E4
:1007F00002EB810158500020F0BDD0F8040403F052
:10080000E0B8C1EBC10200EB8202D0F80404926CA4
:1008100003F033B8C1EBC10200EB8202D0F804044C
:10082000D2F8082203F08CB8D0F8040403F0CBB857
:1008300070B504460B0601F00F00C0EBC00104EBDD
:1008400081014FF001024FF0000503D581F83D20F2
:100850003C3103E081F8FD5101F5FE71087094F818
:10086000BC03012808D084F8BC23206803F026FDCF
:1008700084F8BC53002070BD022070BD70B50446E2
:1008800001F00F006268904201D9012070BD0B0693
:1008900001F00F01C1EBC10104EB81014FF0010236
:1008A0004FF0000503D581F83D203C3103E081F88D
:1008B000FD5101F5FE718D70087094F8BC0301289C
:1008C00008D084F8BC23206803F0D4FE84F8BC531D
:1008D000002070BD022070BD10B5044690F8BC0326
:1008E00001280AD0012084F8BC03080607D501F0CE
:1008F0000F01206804F020F804E0022010BD2068F9
:1009000004F00AF8002084F8BC0310BD01F00F01C8
:10091000C1EBC10100EB8100D0F8140270472DE952
:10092000F04104460F0601F00F00C0EBC00104EBDC
:1009300081014FF001064FF0000503D581F83D60BD
:100940003C3103E081F8FD5101F5FE7108708A60C9
:10095000CB704A7802B1C880022B00D10D7194F897
:10096000BC03012809D084F8BC63206803F0F6FBBF
:10097000284684F8BC53BDE8F0810220FBE770B53F
:100980000C4601F00F05C5EBC50100EB8101C1F874
:100990001032C1F808220023C1F8143281F8FD3169
:1009A00081F8FC51036901F5FE71012B00D10A6148
:1009B0002207027C006803D003F0B4FE002070BD63
:1009C00003F0A0FDFAE770B504460D4601F00F00F4
:1009D0006168884201D9012070BD29064FF00006E8
:1009E0004FF0010207D5C0EBC00104EB810181F893
:1009F0003D203C3107E0C5EBC50104EB810181F8E6
:100A0000FD6101F5FE718A70087094F8BC0301283D
:100A100007D084F8BC23206803F058FE280702D0D2
:100A200007E0022070BD217C04F57172206803F09C
:100A3000F5FD84F8BC63002070BD70B50C4601F074
:100A40000F05C5EBC50100EB81010B658A6400232E
:100A50004B65012381F83D3001F83C5F0369012BB0
:100A600000D10A612207027C006803D003F05AFE1D
:100A7000002070BD03F046FDFAE700002DE9FC5FA1
:100A800005680446284603F076FF00287ED12068DA
:100A900003F09DFF002879D0206803F098FF8007BD
:100AA00004D52068416901F002014161206803F02A
:100AB0008EFF010304F571704FF0010A4FF0080B2F
:100AC000009075D50026206803F060FF0746DFF828
:100AD00008946BE0F80767D0F1B2206803F06FFF6D
:100AE0008046C00707D005EB4611C1F808AB314678
:100AF000204601F077FF5FEA087032D52068016C6C
:100B000000EB46100191D0F8081B2269012A019AD6
:100B10000FD0F24B9A4214D1090403D54FF400418F
:100B2000C0F8081B204600F0C6FA206901280FD043
:100B300013E04A4505D9090403D54FF40041C0F834
:100B4000081B204600F0B7FA01984845EDD804E0AC
:100B500020680121009A03F061FD05EB4611C1F800
:100B600008BB5FEAC86004D505EB46111020C1F848
:100B7000080B5FEA88600ED52069012804D120683F
:100B80000121009A03F04AFD202100E0A1E105EBDC
:100B90004610C0F8081B5FEA884005D505EB4610F3
:100BA0004FF40051C0F8081B7F08761C002F91D12C
:100BB000206803F00CFF40034FF000095FD5206868
:100BC00003F0DDFE0746002657E0F80753D0F1B2E8
:100BD000206803F0E2FE8046C00726D006F00F0230
:100BE0000AFA02F0D5F834288243C5F8342805EB18
:100BF0004610C0F808A92069012807D1C6EBC60035
:100C000004EB8000D0E9112111448164F1B2204647
:100C1000FFF7F7FD2069012807D136B9206D20B90B
:100C200020680121009A03F0F9FC5FEA087003D5FF
:100C300005EB4611C1F808B95FEAC86004D505EBB9
:100C400046111020C1F808095FEA486004D505EB99
:100C500046104021C0F808195FEA887004D505EBFA
:100C600046100221C0F808195FEA086003D5314632
:100C7000204601F025FF7F08761C002FA5D12068B3
:100C800003F0A5FE002811DAD5F8040820F00100D1
:100C9000C5F8040894F8F40301282BD0204600F08E
:100CA000EEF92068416901F000414161206803F0DC
:100CB0008EFE00050BD5D5F80808C00702D02046E7
:100CC00000F022FA2068416901F400614161206866
:100CD00003F07DFEC00461D5D5F8040820F00101C1
:100CE000C5F804181021206803F026FE00214FF6F5
:100CF0007F321AE084F8F49300212046FFF756FD76
:100D0000CFE700BF05EB4110C0F80829D0F8003943
:100D100023F40013C0F80039C0F8082BD0F8003BCA
:100D200023F40013C0F8003B491C60688842E9D8EE
:100D3000D5F81C0840F00111C5F81C18206B0028DC
:100D400028460DD0D0F8840840F00B00C5F8840880
:100D5000D5F8440840F00B012846C5F844180DE0CA
:100D6000D0F8140842F22B010843C5F81408D5F84E
:100D7000100840F00B012846C5F81018D0F80008FC
:100D800020F4FE61C5F80018217C2068009A03F069
:100D900045FC2068416901F480514161206803F0FD
:100DA00016FE800415D5206803F018FA206803F0B9
:100DB000D5FDE06000F022FB0146227B206803F0B5
:100DC00041FE204600F048F92068416901F40051D5
:100DD0004161206803F0FBFDC00634D520688169BD
:100DE00021F0100181612F6A07F00F00C0EBC000F5
:100DF00004EB8006C7F3434006F5FE76022802D0D6
:100E0000062811D01AE047F6F070074216D0C7F353
:100E10000A1217462846F16803F0DDFDF0683844F1
:100E2000F060B069384408E008222846009903F0D1
:100E3000D2FDB069C7F30A110844B061216888691E
:100E400040F010008861206803F0C1FD000707D55D
:100E5000204600F018F92168486900F00800486150
:100E6000206803F0B4FDC00208D50021204600F040
:100E700037F82168486900F480104861206803F061
:100E8000A6FD800208D50021204600F02DF821683B
:100E9000486900F400104861206803F098FD4000A4
:100EA00007D52046FFF7A9FC2068416901F0804181
:100EB0004161206803F08BFD40070AD52068456832
:100EC000680702D52046FFF7AFFC20684168294338
:100ED0004160BDE8FC9F00000A30544F0A31544F76
:100EE000D0F8040402F0C8BDD0F8040402F0C6BD76
:100EF0002DE9F0418AB0040005D094F8BD032668BE
:100F0000002520B108E001200AB0BDE8F08184F896
:100F1000BC53204600F05EF8032084F8BD03F06B5C
:100F2000C00500D42561206803F0E6FA04F1100141
:100F3000282288466846FFF7DCF994E80F0003F0A2
:100F400067F90226C8BB0021206803F052FD00208B
:100F500001270EE0C0EBC00104EB810181F83D7078
:100F600001F83C0FC880CD708D60CD60401CC0B2D0
:100F70004D6161688142EDD8002011E0C0EBC001F5
:100F800004EB810181F8FD5181F8FC0181F8FF51EA
:100F9000C1F80452C1F80852401CC0B2C1F8105246
:100FA00061688142EAD8282241466846FFF7A1F9E4
:100FB00094E80F0003F0DAF910B184F8BD63A2E7FA
:100FC00084F8385084F8BD73206803F0C3F900201A
:100FD0009AE7000010B586B0044614216846FFF772
:100FE000A1F92068B0F1A04F2FD119480021026863
:100FF00042F001020260006800F0010005904FF429
:10100000C05000900220CDE90101032003900A2086
:10101000049069460F48FFF741FA0D48001D01682A
:1010200041F0800101600A481430016841F48041B8
:1010300001600068002200F48040059005214320F3
:10104000FFF782FB4320FFF771FB06B010BD0000E5
:10105000303802400000024070B50446C0680125E7
:10106000022801D0FFF7D1F92946D4F8040402F090
:1010700056FDD4F80404BDE8704002F016BDD0F867
:10108000040402F03ABDD0F8040402F03CBD10B5EF
:10109000044690F8BC0301280BD0012084F8BC035F
:1010A00084F83810206803F0BBFC002084F8BC03EF
:1010B00010BD022010BDD0F8042400F57171104657
:1010C00002F039BD10B50446006894F8BC1301293C
:1010D00006D0012184F8BC13A16A012902D008E0DE
:1010E000022010BDA169012903D0816B41F4803138
:1010F0008163206803F022F9206803F007FC0020D8
:1011000084F8BC0310BD000010B50446D0F80404F8
:1011100002F050FD2068D0F8001E41F00101C0F837
:10112000001E206A002804D00248016841F0060130
:10113000016010BD10ED00E02DE9F84304460068A1
:101140004FF00109C1074FF0000601D1400729D532
:10115000DFF82081C8F86860FFF76AFA0746464D55
:1011600005E000BFFFF764FAC01B022859D82868C1
:101170000001F7D4A068217B800140EA017061681A
:1011800008433D4984310860C8F86890FFF750FA79
:10119000074604E0FFF74CFAC01B022841D8286834
:1011A0000001F7D52078800752D5334840300168D8
:1011B00041F0805101600068304D00F08050009097
:1011C000286840F480702860FFF732FA074604E090
:1011D000FFF72EFAC01B022823D82868C005F7D5D0
:1011E000254D7035286810F4407020D0218A01F414
:1011F000407181421BD02868214920F44070C1F819
:1012000000900E6028602868C00710D0FFF710FA21
:10121000064641F2883707E0FFF70AFA801BB8421A
:1012200002D90320BDE8F88328688007F4D5216936
:101230001148C1F301220830032A12D0016821F4B9
:10124000F81101602868218AC1F30B010843286066
:101250002078000703D50B49207DC1F8E00100206C
:10126000E0E70268084B22F4F81219400A430260D2
:10127000E8E70000000047420038024000700040EC
:10128000400E474200104742FFFCFF0F2DE9F04798
:101290000E46050065D0DFF81481D8F80000F7B2DB
:1012A00000F00F00B04207D288F80070D8F80000B4
:1012B00000F00F00B04254D128683D4C810712D590
:1012C000400703D5206840F4E050206028780007EC
:1012D00003D5206840F4604020602068A96820F0B1
:1012E000F000084320602878C0072DD03049686896
:1012F0000839012812D0022813D0032811D0096818
:10130000890700292DDA216821F0030101432160BA
:10131000FFF78EF9814641F2883A0EE009688903A9
:10132000EFE709688901ECE7FFF782F9A0EB090113
:10133000514502D90320BDE8F0872068696800F0B4
:101340000C00B0EB810FEFD1D8F80010404601F04F
:101350000F01B14207D90770006800F00F00B042DA
:1013600001D00120E7E72878400705D52068E96823
:1013700020F4E050084320602878000706D5206854
:10138000296920F4604040EAC100206000F04CF878
:101390002168084AC1F30311515CC840064908603E
:1013A0000020FFF76DF90020C5E70000003C024077
:1013B00008380240888E0008B00000200F2202602A
:1013C0000C4A136803F003034360136803F0F0034F
:1013D0008360136803F4E053C36012684FF4E05372
:1013E00003EAD20202610448006800F00F000860BE
:1013F0007047000008380240003C02400148006885
:1014000070470000B00000200448054900680968E2
:10141000044AC1F34231515CC8407047B00000201B
:1014200008380240988E0008154810B5006810F082
:101430000C02144813D01449042A0FD0082A0ED1E4
:101440000F4C241F2268236802F03F025B0207D57D
:101450002068C0F38810A0FB010106E0084610BD1B
:101460002168C1F38811A1FB00010023FEF710FFE2
:101470002168C1F30141491C4900B0FBF1F010BDE6
:10148000083802400024F40040787D012DE9F84F2F
:10149000050076D02878DFF8F8B2BE4CC00749D0F6
:1014A000DBF800105846C1F38101012908D000681B
:1014B000C0F3810002280AD1201D0068400206D531
:1014C0002068800336D568680028E2D032E068687A
:1014D000B0F5803F10D0B0F5A02F206810D020F4D8
:1014E00080302060206820F4802020606868A0B1EF
:1014F000FFF79EF806460CE0206840F48030F4E7E1
:1015000040F480202060F7E7FFF792F8801B642802
:1015100073D820688003F7D50CE0FFF789F80646FA
:1015200005E000BFFFF784F8801B6428F0D820682E
:101530008003F7D42878DFF8608280074FF0000935
:101540003ED5DBF80010584611F00C0F09D00068AA
:10155000C0F3810002280BD18D48001F00684002B3
:1015600006D42068800715D5E868012809D111E064
:10157000E868B8B10120C8F80000FFF759F806463E
:1015800005E002E1FFF754F8801B0228C0D820686C
:101590008007F7D52068296920F0F80040EAC100EB
:1015A00020600DE0C8F80090FFF742F8064604E01E
:1015B000FFF73EF8801B02281FD820688007F7D469
:1015C0002878000722D5724E744869696C3671B16B
:1015D00001210160FFF72CF8074604E0FFF728F827
:1015E000C01B022809D830688007F7D50EE0C0F884
:1015F0000090FFF71DF8074605E083E0FFF718F8B5
:10160000C01B02287ED830688007F7D428784007AE
:1016100068D5DFF87CA100270AF1380ADAF8000063
:10162000C0000BD4DAF8001041F08051CAF8001065
:10163000DAF80000012700F080500090584E306822
:10164000C00510D4306840F480703060FEF7F0FFC1
:10165000009005E0FEF7ECFF0099401A022851D8EF
:101660003068C005F6D54A4EA868683601280FD004
:101670000528306810D020F001003060306820F07C
:1016800004003060A868B8B1FEF7D2FF00900FE008
:10169000306840F00100F4E740F004003060F7E704
:1016A000FEF7C6FF0099411A41F28830814264D8A2
:1016B00030688007F4D50EE0FEF7BAFF009007E02F
:1016C000FEF7B6FF0099411A41F28830814254D8A2
:1016D00030688007F4D42FB1DAF8001021F080517F
:1016E000CAF80010A869C0B3DBF80010C1F381018B
:1016F00002294AD00228484607D0C8F86000FEF701
:1017000097FF00E039E005463AE04746C8F8600038
:10171000FEF78EFF064604E0FEF78AFF801B0228D4
:101720002BD820688001F7D4D5E907010843A96ABE
:101730001C4A490802EB01416A6A41EA82110843E6
:1017400095F82C1040EA01611148001F016001204A
:101750003866FEF76DFF054605E014E0FEF768FF0A
:10176000401B022809D820688001F7D50BE000BF94
:10177000FEF75EFF401B022802D90320BDE8F88F68
:1017800020688001F4D40020F8E70120F6E700008B
:10179000083802400038024000004742800E4742AD
:1017A000007000400000FFFF0068503050F821003A
:1017B00070470068503040F82120704710B500682D
:1017C0000B4641680D480140080CD870C1F3042451
:1017D0005C7001F03F049C70C1F34231197052B942
:1017E00001F0BFF9D870587801F0BBF958709878BB
:1017F00001F0B7F99870002010BD00003FFFFF0016
:1018000010B50B460168896A596001680969C1F31E
:101810000E019960006801680E480140C1F305405F
:101820001870C1F306245C7001F07F049C704024A2
:1018300004EA1141D97052B901F093F9187058783F
:1018400001F08FF95870987801F08BF998700020AA
:1018500010BD00007F7F7F0070B5040002D0607F64
:1018600010B106E0012070BD00202077204600F076
:1018700049F8022060772168CA2048622168532015
:101880004862204601F082F9FF25042618BB206833
:1018900081681B4A11408160216888686268104332
:1018A000D4E904231A43104388602168E068086182
:1018B00020680169228941EA024101612068C1680A
:1018C00021F08001C16020688068800607D420462E
:1018D00000F0FEF818B1206845626677C2E720681C
:1018E000016C21F4802101642068016CA26911431C
:1018F00001642068456201206077002070BD00000F
:10190000BFFF8FFF00680349884202D102490120CE
:1019100008607047002800403C0E47422DE9F04720
:101920000446007F0B4601281FD04FF0010984F8C0
:101930001C9002206077DAB19878D97840EA0145A6
:1019400058781978000240EA413005432168CA20DE
:101950004862216853204862204601F017F90026AA
:10196000FF274FF0040860BB1AE00220BDE8F087B3
:101970005878C10603D500F0EF000A305870D878C7
:1019800001F0F8F80204587801F0F4F842EA002275
:10199000987801F0EFF80243187842EA4035D5E72D
:1019A0000F480540206845602068C16821F080012B
:1019B000C1602068806880060AD4204600F088F85C
:1019C00030B12068476284F81D8026770120CDE77A
:1019D0002068476284F81D9026770020C6E7000043
:1019E0003FFFFF002DE9F0470446007F0D46012828
:1019F00027D04FF0010A84F81CA0022060772068ED
:101A0000002680684FEA4060F2B1002800DBEE70EB
:101A1000A878297840EA01476878E978000240EA26
:101A2000014007432168CA20486221685320486268
:101A3000204601F0ABF84FF0FF084FF00409A0BBBF
:101A400016E00220BDE8F087002800DBEE70287861
:101A500001F090F80204687801F08CF842EA002264
:101A6000A87801F087F80243E87842EA0047D9E70E
:101A700016480740206807602068816821F48021AB
:101A80008160D5E90301084321688A6810438860B2
:101A90002068C16821F08001C160206880688006EC
:101AA0000BD4204600F014F838B12168C1F8248026
:101AB00084F81D9026770120C4E72168C1F82480AE
:101AC00084F81DA026770020BCE700007F7F7F0000
:101AD00070B504460068C16821F0A001C160FEF73E
:101AE000A7FD05464FF47A7607E000BFFEF7A0FD9C
:101AF000401BB04201D9032070BD2068C068800639
:101B0000F4D5002070BD704738B5016804464A68B6
:101B10008868C043430606D5C30704D1D3435B0698
:101B200001D4216C05E0830708D4D3431B0605D4F8
:101B3000616C01B02046BDE830400847830603D5FC
:101B4000430601D5C30551D4D3439B064ED4430667
:101B50000AD494F85130032B49D0636D43F0040349
:101B60006365CB688B680093830609D4636D43F08B
:101B7000010363658B6800930B6823F040030B60DF
:101B8000C00506D4606D40F008006065206880687C
:101B90000090606D002829D02068416821F0E001A4
:101BA0004160012084F85100900701D4D00722D071
:101BB0002068416821F003014160114DE06C40B1A3
:101BC0000565E06CFEF746FC18B1606D40F0400022
:101BD0006065A06C002809D00565A06CFEF73AFC92
:101BE000002803D0606D40F04000606538BDC868D3
:101BF0008868009038BD2046FFF785FF38BD00009B
:101C00004931000870B5040005D00025A56294F89C
:101C1000510010B106E0012070BD84F850502046FC
:101C200000F030F8022084F851002068016821F0AB
:101C300040010160D4E901010843D4E903121143D2
:101C4000084361690843218B01F400710843E1698D
:101C50000843216A0843A16A084321680860A06913
:101C6000042101EA1040616A084321684860206845
:101C7000C16921F40061C1616565012084F85100EA
:101C8000002070BDF0B587B0044614216846FEF709
:101C900049FB2049206888423AD11F480024016846
:101CA00041F480510160006800F4805005901A48AA
:101CB0001438016841F001010160016801F001017F
:101CC0000591016841F0020101600068022500F001
:101CD00002000590A020CDE9000502AA03260527F1
:101CE00082E8D00069460D48FEF7D8FB1020CDE908
:101CF000000502AA694682E8D0000948FEF7CEFB3B
:101D0000002205212320FEF71FFD2320FEF70EFDF4
:101D100007B0F0BD003001404438024000000240EE
:101D2000000402402DE9F84F04464068002598461B
:101D300016460F464FF0040BB0F5827F01D1A06824
:101D400088B194F85000012818D0012084F8500080
:101D5000FEF76EFC814694F851004FF0000A01280E
:101D60000ED002257DE084F851B013460A46204685
:101D7000CDF8008000F02CF9BDE8F88F0220FBE7D9
:101D8000002F6DD0002E6BD084F851B0C4F854A051
:101D9000A763A687E687C4F830A0A4F834A0A4F807
:101DA00036A0C4F840A0C4F844A0A068B0F5004F25
:101DB00004D12068016821F4804101602068016835
:101DC000490603D4016841F040010160E068D8B1E0
:101DD00039E020688168C90709D0007BA16B0870D1
:101DE000A06B401CA063E08F401EE0870CE0FEF774
:101DF0001FFCA0EB0901414503D3B8F1FF3F03D01D
:101E000036E0B8F1000F33D0E08F0028E1D11DE0BB
:101E100020688168C90709D0C068A16B0880A06BE1
:101E2000801CA063E08F401EE0870CE0FEF700FC02
:101E3000A0EB0901414503D3B8F1FF3F03D017E000
:101E4000B8F1000F14D0E08F0028E1D14A46414696
:101E5000204601F081F908B120206065606D00B175
:101E60000125012084F8510084F850A0284683E71A
:101E70000325F6E72DE9F84F044690F850000027B7
:101E80001D461646894601280DD04FF0010B84F8F7
:101E900050B0FEF7CDFB804694F85100BA460128B9
:101EA00004D002278EE00220BDE8F88FB9F1000FC0
:101EB0007DD0002E7BD0032084F85100C4F854A0BC
:101EC000C4F83090A686E686C4F838A0A4F83CA0F2
:101ED000A4F83EA0C4F844A0C4F840A0A068B0F59F
:101EE000004F04D12068016841F4804101602068FE
:101EF0000168490603D4016841F040010160E068CF
:101F0000B0F5006F606803D030B3012E24D040E0FC
:101F100008B1012E1CD1206B21680088C86006E042
:101F200020688168890709D5216B0988C160206B09
:101F3000801C2063E08E401EE08609E0FEF778FBFF
:101F4000A0EB0800A84202D3681C01D031E07DB3A9
:101F5000E08E0028E4D11FE0206B21680078087330
:101F600006E020688168890709D5216B097801732B
:101F7000206B401C2063E08E401EE08609E0FEF7E7
:101F800057FBA0EB0800A84202D3681C01D010E068
:101F900075B1E08E0028E4D142462946204601F082
:101FA00009F908B120206065A06820B107E008E0C9
:101FB000FFE7032706E02068C16880680090606D35
:101FC00000B1012784F851B084F850A038466BE77F
:101FD0002DE9F84F044690F8500000270A9E1D4650
:101FE00092468B464FF0010901280ED0012084F85B
:101FF0005000FEF71DFB804694F8510061680128EF
:102000000CD0B1F5827F07D102E00220BDE8F88F45
:10201000A16809B9042801D00227C2E0BBF1000F72
:1020200027D0BAF1000F24D01DB394F85100042832
:1020300002D0052084F8510000206065C4F838A063
:10204000E587A587C4F830B0E586A586206460647E
:1020500020680168490603D4016841F0400101602D
:10206000E068B0F5006F606805D0E8B3012D46D098
:102070007FE0012795E008B1012D39D1206B21685F
:102080000088C860206B801C2063E08E401EE086C4
:102090002EE02068816889070FD5E18E69B1B9F11A
:1020A000010F0AD1216B0988C160206B801C20635D
:1020B000E08E401EE0864FF0000920688168C90765
:1020C0000CD0E18F51B1C068A16B0880A06B801C5F
:1020D000A063E08F401EE0874FF00109FEF7A8FAE9
:1020E000A0EB0800B04200E009E001D3701C50D121
:1020F000E08E0028CDD1E08F0028CAD13FE0206BD0
:10210000216800780873206B401C2063E08E401E1D
:10211000E0862EE02068816889070FD5E18E69B1DD
:10212000B9F1010F0AD1216B09780173206B401CB2
:102130002063E08E401EE0864FF000092068816831
:10214000C9070CD0E18F51B1C068A16B0870A06BBA
:10215000401CA063E08F401EE0874FF00109FEF7AE
:1021600067FAA0EB0800B04202D3701C01D010E067
:102170007EB1E08E0028CDD1E08F0028CAD1424642
:102180003146204601F016F828B10127202060656D
:1021900007E0032705E0A06818B92068C1688068D7
:1021A0000090012084F85100002084F85000384647
:1021B0002CE77047704710B5040003D094F83D0039
:1021C00010B107E0012010BD002084F83C0020463B
:1021D00000F00CF8022084F83D00211D206801F079
:1021E00083F9012084F83D00002010BD704701688C
:1021F000CA6842F00102CA600068816801F0070104
:10220000062903D0016841F00101016000207047F8
:10221000704770B50446006801694FF00005C94376
:10222000890715D4C168C943890711D4E91E016122
:1022300001202077206880698007204602D0FFF7C0
:10224000E7FF04E000F098F8204600F096F82577C4
:1022500020680169C943490717D4C168C9434907C0
:1022600013D46FF004010161022020772068806997
:1022700010F4407F204602D0FFF7CAFF04E000F0D0
:102280007BF8204600F079F8257720680169C9437A
:10229000090716D4C168C943090712D46FF00801B1
:1022A0000161042020772068C0698007204602D0A1
:1022B000FFF7AEFF04E000F05FF8204600F05DF8A5
:1022C000257720680169C943C90617D4C168C94385
:1022D000C90613D46FF0100101610820207720682F
:1022E000C06910F4407F204602D0FFF791FF04E060
:1022F00000F042F8204600F040F825772068016998
:10230000C943C90708D1C168C943C90704D1891E97
:102310000161204600F032F820680169C9430906CE
:1023200009D4C168C943090605D46FF08001016171
:102330002046FFF73EFF20680169C943490609D4DA
:10234000C168C943490605D46FF0400101612046C8
:1023500000F01EF820680169C94389060BD4C168E2
:10236000C943890607D46FF0200101612046BDE80A
:102370007040FFF71FBF70BD70477047006803498A
:10238000884201D1FEF75AB9704700000048014069
:102390007047FEE7F0B500230A24302537261F4694
:1023A00011E000BFB4EB107F02D905EB107C01E017
:1023B00006EB107C01F813C001EB430C00015B1C21
:1023C0008CF80170DBB29342ECD3F0BD70B5D0F85D
:1023D0009042054604F58051087E38B9486928B115
:1023E000607A18B90121284601F0D2FB81212846E4
:1023F00001F0CEFB607A022809D141F20C002218CC
:102400002846BDE870401F23012101F045BB70BD87
:1024100070B5D0F89042064604F580550121286930
:10242000286368696863304601F0E1FA1F280AD121
:102430002649E868884206D1697E012903D8A87E2A
:1024400008B1102808D9697E20230522304600F003
:10245000F9FD022060720AE041F21B0022183046AA
:1024600000F0C4FB0028207A08DA052804D03046A2
:10247000BDE87040FFF7AABF012121E0022824D067
:10248000012822D0032820D06589C5B104F10C02AF
:10249000D6F89042304604F580514B69AB4200D3E8
:1024A0002B464E6B9BB2751B4D63002581F838504F
:1024B00004212172BDE87040812101F084BB00211C
:1024C0003046BDE8704000F08BB870BD55534243B4
:1024D00010B5D0F89042627A022A08D009060BD5CE
:1024E000012A09D0BDE81040012100F079B881210E
:1024F00001F04EFB0020607210BD10B5D0F89022A4
:102500000446107A022805D0032801D0042811D1EE
:1025100000210AE041F21900815C801C024420463F
:1025200000F064FB002805DA01212046BDE81040D8
:1025300000F056B810BD10B5D0F890220446107ABD
:1025400088B1012814D141F21900815C801C024439
:10255000204600F04BFB00280ADA2046BDE8104078
:10256000012100F03DB82046BDE81040FFF750BF04
:1025700010BDD0F8900200210172704770B5D0F8FC
:10258000904205460021217204F58050617280F866
:102590005D1080F85C10D5F894020168002088472F
:1025A0000121284601F01AFA8121284601F016FA85
:1025B00041F20C0022182846BDE870401F2301217B
:1025C00001F06ABAD0F8901200221F230A72012289
:1025D0004A7241F20C020A44012101F05DBA000086
:1025E00070B5D0F89042054604F580520B48D06291
:1025F00082F838100020207241F22C0022180D239E
:102600008121284601F0DFFA41F20C002218284609
:10261000BDE870401F23012101F03EBA55534253DB
:1026200010B59CB022492348FDF7F0FE204C641EF3
:102630000028207010D10122611C1F4804F02EF9DF
:10264000207058B102202070C002002200901B4B65
:102650001146601C03F07CFE1CB010BD062218A1C0
:102660001E4804F059F90028F6D11D484168026857
:102670000B0D1CA101A802F07DFC01A8FDF75DFE79
:1026800002461AAB01A9154804F0A5FA214901A890
:1026900002F070FC01A8FDF750FE02461AAB01A93A
:1026A0000E4804F098FA0D4803F03AFED4E7000013
:1026B0001900002004000020EC0100206822002006
:1026C000576541637420436F72652D426F61726478
:1026D00020BACBD0C4B0E52E747874002412002048
:1026E000D00100205732355158580D0A466C61739D
:1026F000682049443A20305825580D0A466C6173C9
:10270000682053697A653A202564204D420D0A0DF0
:102710000A000000D83B030800B587B01C22064918
:102720006846FDF7E6FD0021684604F0A9FF03496D
:10273000886007B000BD0000488E0008240000201B
:10274000F0B587B014216846FDF7ECFD2A48002457
:10275000016841F004010160016801F00401059184
:10276000016841F080010160016801F0800105917C
:10277000016841F001010160016801F0010105916A
:10278000016841F0020101600068012200F00200CE
:102790001A4D5603059031462846FDF743FF184F62
:1027A000012210213846FDF73DFF00960126CDE9B4
:1027B0000164694628460394FDF770FE48F24F70A5
:1027C0000325CDE90005694602943846FDF766FE0B
:1027D0001020CDE9000669463846CDE90245FDF7EF
:1027E0005DFE4FF2EF70CDE90005694602940548A1
:1027F000FDF754FE07B0F0BD30380240000802403B
:102800000000024000040240F0B587B01421684681
:10281000FDF788FD4548002443490594C0E90014AC
:102820007F218160FF21C0E9031444618461FFF7C7
:1028300013F808B1FDF7E9FD3D4F01213B483C602D
:10284000FEF7B2FF43F2F22290422BD0012137482B
:10285000FEF7AFFF12208DF800008DF801408DF8D3
:10286000024003940122694630480494FFF7BAF805
:1028700008B1FDF7CAFD02208DF8140011208DF873
:10288000150005208DF8160019208DF8170001227B
:1028900005A92648FFF742F8002801D0FDF7B5FD4D
:1028A00007B0F0BD234C2068234E00014FF40055C3
:1028B00010D5002229463046FDF7B4FE0920FDF769
:1028C000DBFD012229463046FDF7ACFE40F2F31055
:1028D000FDF7D2FD2068400121D50022294630466F
:1028E000FDF7A0FE0920FDF7C7FD0122294630466D
:1028F000FDF798FE6320FDF7BFFD00222946304614
:10290000FDF790FE0920FDF7B7FD0122294630466C
:10291000FDF788FE6320FDF7AFFD012038602068D9
:1029200040F080702060BBE700280040BC340020ED
:102930003000002074380240000802400F4810B5F3
:102940000D4901604FF48271416000218160C160D6
:102950004FF400720161C0E90512C1610162416278
:1029600081620A21C162FFF74DF9002803D0BDE85A
:102970001040FDF74ABD10BD00300140DC3400209E
:1029800010B500220F49104800F050FF08B1FDF7C4
:102990003CFD0E490C4801F02DFA08B1FDF735FD5C
:1029A0000B49094801F082F908B1FDF72EFD0648F0
:1029B00001F076FA002803D0BDE81040FDF725BDF0
:1029C00010BD0000340000207435002020010020DC
:1029D00084000020FEE770470148FEF74FB8000072
:1029E000103800202DE9F041044600680E46016CC5
:1029F00000EB4615D5F8080B276920234FF4004259
:102A0000012F08D02C4FB9424FD1010449D500BF46
:102A1000C5F8082B4DE0DFF8A4C05FEA007E04F59E
:102A2000717711D5614503D9000401D5C5F8082B8C
:102A30002046FEF740FB3A460121206801F0EEFDFA
:102A40000820C5F8080B34E05FEA806E02D5C5F8AF
:102A5000083B2EE010F0280F2BD1614501D900046E
:102A6000D6D4C6EBC60004EB8000D5F8102BD0F806
:102A70000412C2F312028A1AC0F81422D0F80822F3
:102A80001144C0F80812F1B22046FDF7C3FE86B922
:102A9000D4F8100268B93A460121206801F0BEFD61
:102AA00007E0800601D5C5F8083BF1B22046FDF7E6
:102AB000B1FE0020BDE8F0810A31544F0A30544F76
:102AC0002DE9F84F0E46C1EBC60100EB81048146AB
:102AD0000568D4E914103C34884202D90120BDE8CD
:102AE000F88F081AA168814200D20846C01C8708E6
:102AF00005EB46181BE000BFA0EB010AA06850459B
:102B000000D282460AF10300870899F8100000906D
:102B10001FFA8AF3F2B22846E16802F007F8E1688A
:102B200001EB0A00E060A16901EB0A00A061D8F89E
:102B3000180980B2B84205D3D4E90501814201D217
:102B40000028D9D1D4E90501884208D806F00F0140
:102B500001208840D5F834188143C5F83418002086
:102B6000BDE7010901EB810100F00F0000EB41001E
:102B7000C0B27047002102E00A38C0B2491C0A28DE
:102B8000FAD2090740EA11607047000070B50446A8
:102B90000068C168490614D44FF0FF31C160FDF7E9
:102BA00047FD05464FF47A7607E000BFFDF740FD8C
:102BB000401BB04201D9032070BD2068C0684006A8
:102BC000F4D5002070BD10B5D0F890421A4404F539
:102BD0008054236E9A4206D92123052200F032FA4E
:102BE0004FF0FF3010BD002010BD00002DE9F04176
:102BF00013780024232B70D00DDC1A2B6ED005DC4B
:102C0000EBB1032B39D0122B11D168E01B2B01D073
:102C10001E2B0CD18FE02A2B72D004DC252B70D018
:102C2000282B04D1ADE02F2B6CD05A2B6BD0202356
:102C3000052200F007FA4FF0FF30BDE8F081D0F830
:102C40009072054607F580500E46416921B1417EDC
:102C5000202305222846A1E0D5F894028168304659
:102C6000884740B13A2302223146284600F0EAF96B
:102C7000052038729FE07C819DE0D0F89002002111
:102C80004318491CC9B21C731229F9D3702101736E
:102C90000C21C17400F5805191F85C5091F85D30C1
:102CA0009D4213D000EBC503A3F6C47303F5005394
:102CB0006D1C1E7886735E7906761B794376EBB2BF
:102CC00081F85C30042B01D181F85C4012214181F4
:102CD000117912296FD841816DE04CE02FE05478D2
:102CE000D0F89032E4070FD0072034495881401EB5
:102CF0000004000C03EB00040A5C2273F7D15AE0D5
:102D000042E03BE043E028E0D0F8940201EBC1014F
:102D10001279C06900EB81010879401D824200D818
:102D20001046588104E0401E80B21C180A5C2273D1
:102D30000028F8D13FE0D0F8900244813BE0D0F881
:102D4000901208201E4A4881401E0004000C01EB2E
:102D50000004135C2373F7D12DE0D0F89002082112
:102D6000184A4181491E0904090C00EB0104535C17
:102D70002373F7D11FE000F02EF91CE000F0FDF8FE
:102D800019E000F0B1F816E000F07CF913E0527899
:102D9000D0F89052920704D52423052200F052F96E
:102DA00009E0A5F69C7202F500520CCAFFF70BFF72
:102DB000002800DB6C8100203FE70000803A030818
:102DC000873A03088F3A03082DE9F047D0F890625C
:102DD000074606F580548846B4F85E00A56E4FF4A9
:102DE000805145438D4200D30D46B5FBF0F083B2D0
:102DF000D7F8940206F10C01626ED0F810C0894633
:102E00004046E047002809DA1123042241463846AB
:102E100000F018F94FF0FF30BDE8F087ABB24A463A
:102E20008121384600F0CFFEB4F85E00626EB5FB3B
:102E3000F0F1B5FBF0F011446166A16E081AA066CE
:102E4000616BA1EB0501616301D1032030720020A9
:102E5000E2E72DE9F0478846D0F89012074601F5E1
:102E600080544FF48055B4F85E00A66E4643AE42DF
:102E700000D32E46B6FBF0F083B2D7F894020C31A3
:102E8000626ED0F814C089464046E047002809DA4F
:102E9000032304224146384600F0D4F84FF0FF30B7
:102EA000BDE8F087B4F85E10626EB6FBF1F0104436
:102EB0006066B6FBF1F0A26E101AA066626BA2EB20
:102EC000060262630BD04843A84200D20546ABB26B
:102ED0004A460121384600F0DFFD0020E0E70021EE
:102EE0003846FFF77DFBF8E72DE9F047D0F8905220
:102EF00007461646287A8946A8BB05F580544FF048
:102F0000FF38207E00062AD5D7F89402816848460B
:102F1000884730B13A2302224946384600F092F8F9
:102F200011E0D6F80200494600BA20F0FF0270799D
:102F300002436266B6F8070043BA3846A366FFF755
:102F400042FE002802DA4046BDE8F08702202872DF
:102F5000B4F85E10A06E48436169884204D0202313
:102F6000617E0522D9E7FFE74FF48050688149462A
:102F70003846BDE8F047FFF727BF70B505460E4657
:102F8000D5E9A44004F58351436841F25E0022185C
:102F90003046984740B13A2302223146284600F095
:102FA00051F84FF0FF3070BD04F58051086E401E9F
:102FB000020E2273020C6273020AA273E0730020F5
:102FC00020746074B1F85E00010AA174E0740820F6
:102FD0006081002070BD2DE9FC410546D0F890428B
:102FE00000200F4606462118401C80B20E730C28A4
:102FF000F9D3D5F894026A4601A943683846984740
:1030000048B13A2302223946284600F01BF84FF017
:10301000FF30BDE8FC810820E0730198401E010EDE
:103020002174010C6174010AA174E07402202075FE
:103030006675BDF80000010AA175E0750C2060817D
:103040000020E6E7D0F8901201F5805090F85D304E
:1030500001EBC30303F5805383F83C2090F85D3007
:10306000002201EBC30101F5805181F8402090F866
:103070005D10491CC9B280F85D10042901D180F8A7
:103080005D2070472DE9F047D0F89052064617466C
:10309000287A894620B13046BDE8F047FFF7D9BE0F
:1030A00005F580544FF0FF38207E000631D4D6F865
:1030B000940281684846884728B13A230AE030469E
:1030C000FFF7C0FF1BE0D6F89402C1684846884766
:1030D00018B1272302224946F1E7D7F802004946F2
:1030E00000BA20F0FF02787902436266B7F8070061
:1030F00043BA3046A366FFF766FD002802DA404671
:10310000BDE8F087B4F85E00A16E41436069884273
:1031100003D02023617E0522D1E74FF48050814205
:1031200000D3014601208BB22872014605F10C0242
:10313000304600F0B1FC0020E2E700000148FEF755
:10314000E3BC0000DC34002010B5806B0021C18797
:10315000C186FEF7D8FC10BDF8B5044640684FF4B0
:103160008273984221D1A0684FF48065B0F5004F7A
:1031700001D0A8420AD12068066826F04006066001
:103180006068984211D1A068A8420ED000920B4608
:1031900000228021204600F039F8002804D0606D1C
:1031A00040F0200060650320F8BD00920B4600222D
:1031B0000121EFE738B504461248134B0068B0FB15
:1031C000F3F04FF47A73584300906068B0F5827F53
:1031D0000DD10B46009200228021204600F016F807
:1031E00070B1606D40F020006065032038BD00982C
:1031F00030B1401E009020688068C0430006F6D5BC
:10320000002038BDB000002000366E012DE9F041ED
:103210001D4617460E460446DDF8188008E0681C77
:1032200006D0FDF705FAA0EB0800A8420BD255B175
:103230002068806836EA000030D00020B842EED125
:103240000020BDE8F0812068416821F0E001416084
:103250006068B0F5827F0BD1A068B0F5004F02D056
:10326000B0F5806F04D12068016821F04001016051
:10327000A06AB0F5005F09D12068016821F400510F
:1032800001602068016841F400510160012084F868
:103290005100002084F850000320D2E70120CDE740
:1032A000034803690B60808A10800020704700008B
:1032B000D001002000207047002070470020704798
:1032C000002070472DE9F0411F4615460E460024A8
:1032D000DFF82C800FE000BFD8F8141001FB05F0D8
:1032E0000A460146304601F057FDD8F81400641C28
:1032F0000644A4B26D1CBC42EED30020BDE8F081B0
:10330000D00100202DE9F041984615460F460024D3
:103310000B4E10E07069684301F086FC716901FB97
:1033200005F00A460146384601F092FD7069641CBA
:103330000744A4B26D1C4445ECD30020BDE8F081E5
:10334000D0010020FFF76CF9FFF71AFB50261A4C4A
:10335000DFF8688000254FF40057012004F0FEF8E4
:1033600060780028A08805D0401E0004000CA080D2
:1033700009D009E0401C80B2A080B0F5C86F03D32B
:103380000120607000E06570A088B0FBF6F0C1B26B
:103390002170A078142801D9A57001E0401CA0700C
:1033A000A078884201D3012200E00022394640463D
:1033B000FDF738F9D1E700002400002000080240A2
:1033C00010B5502080F31188BFF34F8FBFF36F8F7C
:1033D00005F0A4FB18B104494FF0805008600020AC
:1033E00080F3118810BD000004ED00E030B599B005
:1033F00030216846FCF796FF14210CA8FCF792FFD9
:10340000182111A8FCF78EFF1D480025016841F026
:1034100080510160006800F08050179019480168E1
:1034200041F4404101600068022400F440401790DC
:10343000052000904FF4803001900120029080051B
:10344000CDE9064019200890C020CDE909040420E8
:103450000B906846FEF71AF80CA90F2081E831009E
:10346000E002CDE90F0503210CA8FDF70FFFE001F5
:103470001590119411A8FDF75FFE19B030BD000042
:1034800040380240007000401048016841F470016B
:1034900001600F48016841F0010101600C4A002100
:1034A0000832116002680B4B1A400260031D0A4A81
:1034B0001A60026822F48022026005480C30016024
:1034C00002495806803908607047000088ED00E026
:1034D00000380240FFFFF6FE103000240148FEF7DE
:1034E00098BE000034350020F0B502681D4B1E4C1C
:1034F0009F031E4D1E4E984207D0B84205D0A042F1
:1035000003D0A84201D0B04204D122F0700C4A6826
:1035100042EA0C02984210D0B8420ED0A0420CD021
:10352000A8420AD0B04208D0124CA04205D0124C9A
:10353000A04202D0114CA04203D122F44074CA68C8
:1035400022434C6922F08002224302608A68C262F0
:103550000A688262984201D10969016301214161CF
:10356000F0BD0000000001400004004000080040E1
:10357000000C004000400140004401400048014070
:1035800010B5D0F88C2252689047002010BD134629
:1035900010B50A46002100F07FFA002010BD134646
:1035A00010B50A46002100F00EFB002010BD10B53A
:1035B0000446802100F0ECFA2046BDE810400021CE
:1035C00000F0E6BA10B505210023C0F86C121A46C7
:1035D000194600F061FA002010BD10B50223C26147
:1035E000C0F86C32026213460A46002100F0EBFA82
:1035F000002010BD10B504210023C0F86C121A463B
:10360000194600F0E0FA002010BD000010B50A468F
:10361000024903A000F0DAF8004810BD183C002071
:103620004D534320436F6E66696700001220088087
:10363000004870475400002010B50A46024903A014
:1036400000F0C4F8004810BD183C00204D53432042
:10365000496E74657266616365000000042008802D
:10366000004870475000002010B50A46024903A0E8
:1036700000F0ACF8004810BD183C002057654163CD
:103680007400000010B50A46024903A000F09EF83D
:10369000004810BD183C00205765416374204D61FF
:1036A00073732053746F72616765000010B51A2040
:1036B00008800A480168001D0468001D0068081899
:1036C00009D008220649FEF765FE0549042210319B
:1036D0002046FEF75FFE0248801E10BD107AFF1FD5
:1036E0006A000020F8B5044648880D46010A0829FA
:1036F0004BD2DFE801F04A0409174A4A4048D4F89F
:103700008812207C0A6832E0207C02260028D4F847
:103710008C0205D0C16A684688470146467041E080
:10372000816AF8E7C0B206282FD2DFE800F003086C
:103730000D12171CD4F88812207C4A6817E0D4F8C0
:103740008812207C8A6812E0D4F88812207CCA682B
:103750000DE0D4F88812207C0A6908E0D4F88812B9
:10376000207C4A6903E0D4F88812207C8A69694683
:103770009047014616E0207C38B9D4F88C02416BA2
:1037800068468847F5E7207C20B129462046FFF7A8
:103790000EFFF8BDD4F88C02016B684688470146DD
:1037A00007204870BDF8000048B1EA8852B1824253
:1037B00000D90246ADF800202046FFF70EFFE8884A
:1037C0000028E6D12046FFF715FFF8BD70B50023AD
:1037D00000281ED00446002502E06D1CEDB2641CDA
:1037E0002678002EF9D1022404EB450414801278C7
:1037F000CA545B1C0322CA5400245B1C06E0CA5452
:103800005B1CDAB28C54521CD3B2401C0278002AE2
:10381000F5D170BD01004FF0000004D0012901D0A6
:10382000022901D0022070470120704710B580B1F5
:10383000D0F88C3213B10023C0F88C3209B1C0F833
:103840008812012180F87412027000F0D5F800206F
:1038500010BD022010BD10B5D0F89802FDF70EF88B
:10386000BDE81040FFF7D6BF10B5D0F89802FCF7BE
:10387000DFFFBDE81040FFF7CDBF2DE9F04117464F
:10388000044651B1D4F88C0242691AB194F874021A
:10389000032851D00220BDE8F081D4F86C32002515
:1038A00004F11400022B03D0042B3AD0C3B33CE044
:1038B000D0E903639E4207D9F11AC1608AB2394642
:1038C0002046FFF76CFE12E08068B0FBF3F103FBCB
:1038D000110199B9984211D3D4F8701288420DD2CF
:1038E000002211462046FFF75AFEC4F8705200230A
:1038F0001A461946204600F0CFF816E0D4F88C029C
:10390000C16829B194F87402032801D12046884780
:103910008021204600F03CF92046FFF753FE04E0EA
:10392000FFE78021204600F033F994F8780201285F
:1039300004D184F8785201E0204690470020AAE79D
:1039400070B51546044649B1D4F88C0282691AB1A3
:1039500094F87402032830D0022070BDD4F86C12A1
:1039600004F5A070032902D005291ED027E0D0E974
:1039700003218A420BD9531AC3600846834200D3FD
:1039800003469AB229462046FFF701FE17E0D4F815
:103990008C02016929B194F87402032801D12046F0
:1039A00088472046FFF726FE09E000200146C4F8BC
:1039B0006C02204600F0ECF801E020469047002021
:1039C00070BD0020704710B5012180F87412D0F846
:1039D0008C22017952689047002010BD10B5D0F8B4
:1039E0009802FCF779FFBDE81040FFF713BFD0F84D
:1039F0009802FCF78BBF000010B5017839BB154960
:103A00000222C1F80404C0F898124FF0A0400860E8
:103A1000042048600020C1E90320C1E906200862B3
:103A20004862C86208630846FDF762FA08B1FCF70D
:103A3000ECFC80210748FCF7BAFE40220021054833
:103A4000FCF7B9FE802201210248FCF7B4FE0020F9
:103A500010BD0000103800200A0601F07F01D0F8E8
:103A60009802C1EBC10100EB810002D590F83E0045
:103A7000704790F8FE0170470020704700207047A3
:103A800010B51C461346D0F898022246FCF747FFB3
:103A9000BDE81040FFF7BEBE10B5D0F89802FCF7A5
:103AA0006EFFBDE81040FFF7B5BE70B500220446BA
:103AB00040231146FFF7E4FF40260125C4F850617A
:103AC0003346002280212046C4F84451FFF7D8FF36
:103AD0006662A56184F874520020C4F86C026060CC
:103AE000C4F87C02D4F8900228B1D4F88C020021EA
:103AF000426820469047002070BD90F8751280F80B
:103B000074120020704710B590F87412032904D184
:103B1000D0F88C12C96901B18847002010BD01742A
:103B20000020704710B5D0F89802FDF7B0FABDE854
:103B30001040FFF76FBE70B5044600F520700546D3
:103B400000F044F90120C4F86C02B4F88602C4F80D
:103B5000700294F8800210F01F010AD001290DD0E4
:103B6000022910D000F08001204600F011F800205A
:103B700070BD2946204600F098F9F8E7294620460E
:103B800000F0C4FAF3E72946204600F017FAEEE702
:103B900010B5D0F89802FCF716FFBDE81040FFF70B
:103BA00039BE10B5D0F89802FDF78CFABDE8104088
:103BB000FFF730BE90F8741280F87512042180F877
:103BC00074120020704710B5D0F89802FCF735FF4A
:103BD000BDE81040FFF71EBE10B5FEF78EFC0020BA
:103BE00010BD10B5FEF7A7FC002010BD70B504464F
:103BF0000121FFF739FE002581212046C4F85851E4
:103C0000FFF732FE2046E562FEF7B3FCD4F89002DF
:103C100018B103F0ABFAC4F89052002070BD000058
:103C20000A21018000487047B8010020202101804E
:103C3000004870477801002020210180004870472B
:103C40005801002020210180004870479801002081
:103C500070B50446007C0125D0B140230222012129
:103C60002046FFF70DFF4023C4F85851022281215E
:103C70002046FFF705FF41F26C00E56203F00EFC01
:103C8000C4F8900280B12046FEF778FC002070BD99
:103C90004FF400763346022201212046FFF7F0FE62
:103CA0003346C4F85851E1E7022070BD09B1C0F8AD
:103CB0009412002070472DE9F8430026D0F8907246
:103CC0000546ADF8006008780C46B04610F060017B
:103CD00020D020293DD16178FE2902D0FF2938D19A
:103CE0000EE0618881BBE188012932D1000630D520
:103CF000D5F89402806980470122394638601FE078
:103D0000618809BBE188F9B9000622D42846FEF78C
:103D100059FC23E0607830B1012825D00A2809D069
:103D20000B2816D111E095F87402032811D1022254
:103D3000694605E095F8740203280AD10122391D6D
:103D40002846FFF74AFC09E003E095F874020328CF
:103D500007D021462846FFF72AFC02263046BDE858
:103D6000F883A0787860F9E721792846FFF736FED6
:103D700021792846FFF778FDA0884FF0010701065A
:103D800000F00F0000EB80004FF4007305EB8000A3
:103D90000BD5C0F81880287C00B140230222812175
:103DA0002846FFF76DFEEF620BE0C0F84481287CE7
:103DB00000B14023022201212846FFF761FEC5F829
:103DC000587121792846FEF783FBC7E70A7802700D
:103DD0004A7842708A78CB7802EB032242800A79D3
:103DE0004B7902EB032282808A79C97902EB0121A7
:103DF000C18070470246002011B1C2F88C12704792
:103E00000220704710B5D0F88C2202241AB1126833
:103E1000904700B90024204610BD000070B50E4642
:103E20001E4D897804462970012931D894F874020E
:103E300002280BD003280FD031462046FFF7B7FBEE
:103E400029782046BDE87040FFF79ABBD9B103201E
:103E5000616084F8740209E071B16068884212D030
:103E6000C1B22046FFF78CFB297861602046FFF73E
:103E7000C9FF02280CD006E0022084F87402204614
:103E80006160FFF77DFB2046BDE87040FFF7B2BBE5
:103E900031462046BDE87040FFF789BB1C01002079
:103EA00010B5FFF77EFE002010BD2DE9F0410A7825
:103EB000002612F0600208D0202A01D0402A70D1DA
:103EC000D0F88C22926890476DE04B780022012553
:103ED0000A2B66D2DFE803F0405D6557650805658B
:103EE0002C29FFF7FFFB5EE004468888D8B9C88814
:103EF000C8B94888802816D200F07F0794F8740269
:103F0000032810D084F8767239462046FFF70AFE5F
:103F10002046FFF76FFB1FB1022084F8740242E0D5
:103F200084F874523FE020463BE0FFF777FF3AE029
:103F3000CB88012B35D190F87432012B04D0022BA1
:103F400002D0032B2DD104E08260012200F1080190
:103F500016E00122011D13E090F87422012A03D01B
:103F6000022A01D0032A1CD1CA88022A19D1C560AD
:103F7000D0F87C1209B10321C160022200F10C01CA
:103F8000FFF72BFB0FE0498801290CD1C0F87C52C8
:103F900011E090F87432012B08D0022B06D0032BCD
:103FA00004D0FFF704FB3046BDE8F08149880129C1
:103FB000F9D1C0F87C22FFF71DFBF4E72DE9F041B1
:103FC0000A46044610780027097910F060030AD0E9
:103FD000202B01D0402B50D1D4F88C02114683689D
:103FE000204698478FE0C0F34110012806D0507852
:103FF000D0B301282AD003283FD107E0D4F88C029F
:10400000114683682046BDE8F041184794F87402D1
:10401000022802D0032872D10AE071B380296ED041
:104020002046FFF7B5FD80212046FFF7B1FD6AE08D
:10403000508838B931B1802904D0D08810B92046D1
:10404000FFF7A6FD2046FFF7D5FA5CE094F874026E
:104050000228E2D0032852D1508898BB4806F1D0FC
:104060002046FFF7F8FBEDE7FFE794F8740200261F
:10407000022803D0032842D112E040E009B1802990
:104080003DD1080601F07F0000EB800004EB8001C9
:1040900001D5143101E001F5A07102220E602AE081
:1040A000080601F00F0000EB800004EB80000AD549
:1040B000806920B301F07F0000EB800004EB8005F5
:1040C00014350BE01FE0D0F84401C0B101F07F00CF
:1040D00000EB800004EB800505F5A07541B1802957
:1040E00006D02046FFF7B8FC10B10120286000E0A0
:1040F0002E60022229462046FFF76FFA03E01146A0
:104100002046FFF754FA3846BDE8F08170B5054601
:1041100008780C4610F0600003D0202801D0402819
:1041200016D195F87402012803D0022801D0032883
:104130000ED1207901280BD8D5F88C028268284648
:104140009047E188014306D12846FFF753FA02E081
:104150002846FFF72CFA002070BD000070B50A78E1
:10416000012302F00F054E78AB401B4CD0F81C58D1
:10417000012E17D045EA0343C0F81C3800EB42106B
:10418000D0F8002B12040BD4D0F8002B0B89C9787F
:10419000C3F30A031A4344EA81410A43C0F8002BDF
:1041A000002070BD9BB21D43C0F81C5800EB4210AC
:1041B000D0F800391B04F3D4D0F800390D89C97840
:1041C000C5F30A0589042B4341EA82510B4323437B
:1041D000C0F80039E4E7000000800010D0F80019B2
:1041E0006FF30A01C0F80019D0F80818C1F34101B3
:1041F000022905D1D0F8001941F00301C0F80019D7
:10420000D0F8041841F48071C0F8041800207047F9
:1042100070B5044606990A9E049D0D98012916D092
:10422000E06840F04000E060204600F02BF8A16B11
:104230001EB321F48031A163012D07D1A16841F0A3
:104240000601A160A16841F02001A16070BDA16BD1
:1042500021F48031A163E168094A1140E160E1681D
:1042600021F44011E160012803D1E06840F480109E
:10427000E060204600F006F8DEE741F48031DAE73E
:10428000BFFFBDFF01220C4902E0521C8A420BD83D
:104290000369002BF9DA026942F00102026101228E
:1042A00004E0521C8A4201D9032070470369DB07EE
:1042B000F7D1002070470000400D030030B50B78A7
:1042C0004D78012203F00F0402FA04F4012DD0F816
:1042D0003C5817D025EA0444C0F83C48D0F81C48A4
:1042E000097801F00F018A4024EA0241C0F81C1845
:1042F00000EB4310D0F8001B0E4A1140C0F8001B21
:10430000002030BDA4B2A543C0F83C58D0F81C48EA
:10431000097801F00F018A4091B28C43C0F81C4823
:1043200000EB4310D0F80019034A1140C0F80019FF
:10433000E6E700000078F3EF007833EC10B5D0F832
:10434000041821F00201C0F804180320FCF794F8C7
:10435000002010BD10B5D0F8041841F00201C0F8DB
:1043600004180320FCF788F8002010BD2DE9F04F59
:104370000025DDE90BCB0E460446DDF84090099F91
:104380002846294604EB8002C2F80411401C0F287D
:10439000F8D3B9F1000F204618D0006820F40012BD
:1043A0002260A06B40F40022A26308468846C4F84D
:1043B000000ED4F800182046C4F80018BCF1010F14
:1043C00010D0D0F8001841F0030110E0806B40F4E9
:1043D0000012A263A06B20F40022A263A06B20F461
:1043E0008022E1E7D0F800180BB141F00101C0F8DC
:1043F0000018102100F0A0FA00B10125204600F0BD
:104400008BFA00B101254046C4F81088C4F814881E
:10441000C4F81C8800214FF000634FF090484FF61D
:104420007F3A14E004EB4112D2F800C9BCF1000F4E
:1044300006DA11B1C2F8008904E0C4F8003901E0DD
:10444000C2F80009C2F81009C2F808A9491C8E4236
:10445000E8D8002115E000BF04EB4112D2F800CBF0
:10446000BCF1000F06DA11B1C2F8008B04E0C4F809
:10447000003B01E0C2F8000BC2F8100BC2F808AB19
:10448000491C8E42E8D8D4F8101821F480722146D5
:10449000C4F81028012F08D1134AC1F83028D1F8E8
:1044A0003018124A1143C4F83018A0616FF08040F0
:1044B00060611FB9A06940F01000A061A0690C49BB
:1044C0000843A061BBF1000F03D0A06940F00800D1
:1044D000A061B9F1010F03D1A06906490843A061A9
:1044E0002846BDE8F08F00000001800003000100B5
:1044F00000383C8004000040816821F001018160A7
:104500000020704770B50D784E78434CEBB200EB4D
:104510004313012E1FD0D3F8100B6FF31200C3F812
:10452000100BD3F8100B2040C3F8100B486908B1EA
:1045300088684861D3F8100B40F40020C3F8100BD2
:10454000D3F8100B8C68C4F312042043C3F8100B8B
:10455000012A55D058E04E69002ED3F8106932D0A8
:104560006FF31206C3F81069D3F810692640C3F838
:1045700010694E698C68A64200D94C61D3F8104985
:1045800044F40024C3F81049D3F810494E69C6F327
:1045900012063443C3F81049012A22D000EB451219
:1045A000D2F8003943F00443C2F800394A6932B303
:1045B000D0F83428097801F00F03012199400A430B
:1045C000C0F8342826E02640C3F81069D3F8104913
:1045D00044F40024C3F81049D3F810496FF31204CF
:1045E000D8E7096919B100EB4512C2F8141900EBBC
:1045F0004510D0F8001941F00441C0F8001909E055
:10460000C86808B1C3F8140BD3F8000B40F004409D
:10461000C3F8000B002070BDFFFF07E010B5036C6E
:10462000134CA34203D9D0F8003B002B1EDB002320
:10463000C0F8103BD0F8103B43F40023C0F8103B07
:10464000D0F8103B43F01803C0F8103BD0F8103BF3
:1046500043F0C043C0F8103B012907D1C0F8142B28
:10466000D0F8001B41F08021C0F8001B002010BDD5
:104670000A30544F4A780B78012A00EB43100BD0D4
:10468000D0F8002B22F40012C0F8002BC9780329BF
:1046900014D0022912D017E0D0F8002922F4001219
:1046A000C0F80029C978032901D002290CD1D0F81B
:1046B000001941F08051C0F8001905E0D0F8001B46
:1046C00041F08051C0F8001B002070470A784B78F9
:1046D000D1B200EB4110012B12D0D0F8001B002901
:1046E00006DB2AB1D0F8001B21F08041C0F8001B86
:1046F000D0F8001B41F40011C0F8001B00207047E7
:10470000D0F80019002906DB2AB1D0F8001921F0F1
:104710008041C0F80019D0F8001941F40011C0F828
:104720000019EBE7F8B50C784F78774DE3B26FF0EE
:10473000604600EB4313012F26D0D3F8104B6FF3E4
:104740001204C3F8104BD3F8104B2C40C3F8104B95
:104750004C69002C74D08D682C44641EB4FBF5F4B5
:10476000D3F8105BA4B206EAC4463543C3F8105B25
:10477000D3F8105B8E686643C6F312042543C3F872
:10478000105B012A71D0A6E04F691FB3D3F81079EE
:104790006FF31207C3F81079D3F810792F40C3F8DC
:1047A00010794F698D682F447F1EB7FBF5F506EA37
:1047B000C545D3F810693543C3F81059D3F81059DB
:1047C0004E69C6F312063543C3F81059CD78012D52
:1047D00010D01BE0D3F810692E40C3F81069D3F84D
:1047E000105945F40025C3F81059D3F810596FF348
:1047F000120509E0D3F8105925F0C045C3F8105947
:10480000D3F8105945F00055C3F81059012A18D0B3
:1048100000EB4413D3F8004944F00444C3F80049C2
:10482000CC78012C2FD04A6962B3D0F834280978AB
:1048300001F00F03012199400A43C0F8342860E0D9
:1048400036E00A691AB100EB4413C3F81429C97899
:1048500001290FD1D0F80818C90500EB4411D1F88F
:10486000002903D442F0005202E030E042F08052CE
:10487000C1F8002900EB4410D0F8001941F00441C0
:10488000C0F800193DE0D0F80848E405D3F8004925
:1048900002D444F0005401E044F08054C3F80049CD
:1048A00000928A8A93B20A78C96800F03FF928E03A
:1048B000D3F8104B8D68C5F312052C43C3F8104B89
:1048C000D3F8104B44F40024C3F8104B59E7CA68DE
:1048D0000AB1C3F8142BC97801290CD1D0F8080803
:1048E000C005D3F8000B02D440F0005001E040F0C6
:1048F0008050C3F8000BD3F8000B40F00440C3F81D
:10490000000B0020F8BD0000FFFF07E0816841F0C8
:104910000101816000207047002110220261054AD8
:10492000491C914201D9032070470369DB06F7D483
:1049300000207047400D03000022202343EA81112C
:1049400001610549521C8A4201D90320704703695D
:104950009B06F7D400207047400D0300D0F80808EC
:1049600010F0060004D0022803D0062801D00F2042
:10497000704702207047406900F001007047D0F88E
:104980001818D0F81C08084080B27047D0F81818E2
:10499000D0F81C080840000C704710B5D0F810384B
:1049A000D0F8342801F00F0400EB4110E24002F08F
:1049B0000102D0F8080943EAC212104010BD00EB12
:1049C0004111D1F8081BD0F814080840704741691C
:1049D000806908407047D21C10B59308002200F58A
:1049E000805002E00468521C10C19A42FAD3084673
:1049F00010BD10B5C26822F0C042C260012902D0C9
:104A000029B1012010BDC16841F0005102E0C16828
:104A100041F08041C1603220FBF72EFD002010BD27
:104A2000D0F8002822F4FE62C0F80028D0F8002850
:104A30004FF4FE6303EA01110A43C0F80028002086
:104A400070470000022A3ED1264A274B0A449A4268
:104A500001D20F2138E0254A254B0A449A4201D25F
:104A60000E2131E0234A244B0A449A4201D20D21FF
:104A70002AE0224A224B0A449A4201D20C2123E026
:104A8000204A214B0A449A4201D20B211CE01F4AC2
:104A90001F4B0A449A4201D20A2115E01D4A1E4BBF
:104AA0000A449A420FD31D4A1D4B0A449A4201D22E
:104AB000082109E01B4A11441B4A914201D20721F7
:104AC00002E0062100E00921C26822F47052C260AF
:104AD000C2684FF4705303EA81210A43C260002088
:104AE00070470000405327FF00350C00401E1BFF9D
:104AF00040420F0000DC0BFF804F1200808CF9FE5B
:104B000020D6130060B6E5FE60E3160000D3CEFEAB
:104B100040771B00C05BB3FEC091210000CA91FE2C
:104B200020753800E05459FEE09C410010B5029C0D
:104B300064B9DB1C9C0800EB0230002300F58050B8
:104B400002E004C902605B1CA342FAD3002010BD3E
:104B500010B500F0FDF8034900B101200870087895
:104B600010BD00000000002079B1094801290AD0D9
:104B7000022903D0032904D004207047808A1080C2
:104B800003E0C06800E0006910600020704700008A
:104B9000D00100202DE9F0411F4615460E460024A5
:104BA000DFF82C800EE000BFD8F8141001FB05F0F0
:104BB0000A460146304600F0EFF8D8F81400641CAD
:104BC00006446D1CBC42EFD30020BDE8F08100001C
:104BD000D0010020024800210170007870470000D9
:104BE000000000202DE9F041984614460F460025AC
:104BF0000B4E0FE07069604300F016F8716901FB1D
:104C000004F00A460146384600F022F97069641C37
:104C100007446D1C4545EDD30020BDE8F081000040
:104C2000D0010020FEE7000038B50446FBF700FD88
:104C3000054620208DF80000200C8DF80100200A88
:104C40008DF802008DF8034000F062F9114C00224B
:104C500010212046FBF7E6FC4FF47A7304226946E4
:104C60000D48FDF707F9012210212046FBF7DAFC79
:104C700040F6B83407E000BFFBF7DAFC401BA04267
:104C800001D9032038BD00F009F80228F4D0002033
:104C900038BD000000000240DC3400207CB511A0CB
:104CA000114C00680090002210212046FBF7BAFC4E
:104CB0004FF47A752B46012269460C48FDF7DAF865
:104CC0002B46012201A90948FDF72CF801221021E9
:104CD0002046FBF7A7FC9DF80400C00700D0022087
:104CE0007CBD00000500000000000240DC34002014
:104CF00038B504464FF48070A06100016061000186
:104D0000E060684600F078F8BDF80000A0F56F405C
:104D10001338052801D3012038BD00EE100AF8EE43
:104D2000C00AB0EE000A00F05DF9BCEEC00ABDF8A2
:104D3000001010EE100A0005C4E900106169B0FB14
:104D4000F1F12161E168B0FBF1F0A060002038BD15
:104D500038B50DA00D4C00680090002210212046AF
:104D6000FBF760FC4FF47A73022269460848FDF7AE
:104D700081F8012210212046FBF754FCBDE83840A1
:104D80000448FFF7B5BF000066990000000002402C
:104D9000DC340020D0010020F8B5054603208DF852
:104DA0000000080C8DF80100080A8DF80200104F71
:104DB00014468DF80310002210213846FBF732FC10
:104DC0004FF47A763346042269460A48FDF752F8D2
:104DD000A2B2334629460748FCF7A4FF08B10120D8
:104DE000F8BD012210213846FBF71CFC0020F8BD5D
:104DF00000000240DC3400207CB5044611A0124DB6
:104E000000680190002210212846FBF70BFC4FF4AC
:104E10007A763346042201A90C48FDF72BF8334675
:104E2000022269460948FCF77DFF9DF801009DF8C4
:104E30000010012200EB0120208010212846FBF702
:104E4000F1FB7CBD9000000000000240DC3400203B
:104E50002DE9F84F16460C468346FBF7E9FB07465B
:104E6000002001E000F58070A042FBD9051BB5428F
:104E700000D9354604EB060ADFF88C804FF00209B2
:104E80004FF47A768DF80090200C8DF80100200AFE
:104E90008DF802008DF8034000F03AF8002210214E
:104EA0004046FBF7BFFB3346042269461748FCF730
:104EB000E1FF30B9AAB2334659461448FCF7DAFF8D
:104EC00010B10120BDE8F88F012210214046FBF708
:104ED000A9FB06E0FBF7ACFBC01BB04201D90320E5
:104EE000F0E7FFF7DBFE0228F4D02C4404F58070D5
:104EF000AB44504502D9AAEB040501E04FF480759C
:104F00005445BFD30020DDE700000240DC34002020
:104F1000F8B515A000680090FBF78AFB134E054614
:104F2000002210213046FBF77DFB4FF47A742346B4
:104F3000012269460E48FCF79DFF012210213046F0
:104F4000FBF770FB0AE000BFFBF772FB401BA042BF
:104F500001D90320F8BD012002F000FBFFF79EFEFF
:104F60000228F1D00020F8BD060000000000024039
:104F7000DC3400200FB4084B10B504A902AA039832
:104F800000F09EFB044602A9002000F0F9FC204638
:104F900010BC5DF814FB00008159000841000802B4
:104FA00018BF04200A0E18BF40F001004FF07F42E6
:104FB00032EA010108BF40F00200012808BF0520C5
:104FC00070470907090E002804DB00F1E02080F893
:104FD0000014704700F00F0000F1E02080F8141D6D
:104FE0007047000010B510EE100A2DED068BB7EEDD
:104FF000001A10EE901AB0EE418A0022A0F5000CC3
:10500000DFEDFE9A4FF00073BCF1FE4F4FF07F448E
:1050100003EB410C80F0B481BCF1804FC0F02082E2
:10502000F74901449FEDF73AB1F5005F40F2D482B1
:1050300000F58021CB0C03F00F0101EE901AC3F3B1
:1050400007137F3BA0EBC350B8EEE12A00EE100A35
:105050001A44DFEDED2AF0EE411A42EE221AF0EE8C
:10506000613A70EE232A30EE632A12EE900A00F5C0
:1050700000606FF30B0001EE900A73EEE13A33EE3D
:10508000804AC1EE223A22EE230A10EE100A00F501
:1050900000606FF30B0000EE100A00EE612A00EED4
:1050A000442A62EE232A70EE221A21EEA12ADFEDB5
:1050B000D73A02EE233A23EE023A20EE012A22EEFC
:1050C000811A03EE211A32EE010A10EE100A00F5E1
:1050D00000606FF30B0000EE100A72EE401A31EE22
:1050E000812A9FEDCB1A60EE011A9FEDCA1A20EEBD
:1050F000011A9FEDC90A02EE001A31EE810A10EE84
:10510000100A00F500606FF30B0000EE100AC348B0
:1051100071EEC01A31EE812A784400EBC10090EDA7
:10512000003AD0ED011A100101EE100AF8EEC12A82
:1051300032EE211A31EE001A31EE031A31EE221A44
:1051400011EE100A00F500606FF30B0009EE100A73
:1051500039EE621A31EE431A31EE400A30EE610A3E
:1051600032EE40AA10EE900A002100F500606FF3C5
:105170000B0008EE900A084670EEE8AAFBF703F968
:1051800029EE280A00F00C01F0EEC00A10EE900A99
:10519000B0F18B4F0DDD10EE900AB4EB400F08D349
:1051A00010EE100A4FF08B4262F31E0008EE900AD8
:1051B00013E069EE2A0A38EEAA1A4AEE010A30EE26
:1051C000201A11EE100A00F500606FF30B0008EED4
:1051D000900A30EE680A70EE209A0C20FBF7D3F8A4
:1051E00038EEA90AB5EEC00AF1EE10FA34BFFEEEB1
:1051F000000AF6EE000A30EE800ABDEEC00A10EE9C
:10520000100A011100EE101AF8EEC00A00EE100AA2
:10521000B8EEC00A38EEC00A30EE290ADFED801A77
:105220009FED801A00EE211ADFED7F1A7F4900F012
:105230000F0040EE011A21EE800A794401EB800153
:1052400091ED001A7A49794401EB8001D1ED001A01
:10525000784901EE801A794401EB8000764990ED9F
:10526000000A31EE001AB0EEE00A10EE100A884291
:1052700015DA10EE100AB4EB400F10D39FED6F0A51
:1052800030EE800ADFED6E0A20EE200A68EE010A99
:10529000BDEC068BBCEEC00A20EE200A10BD10EE5D
:1052A000100A6849884243DA10EE100AB4EB400F46
:1052B0003ED3BDEEE00A68EE010A10EE100A00EBE4
:1052C000D0725110C90501F17E5100EE101AA0EB09
:1052D0006200C00560EE200A00F17E5000EE100A68
:1052E00060EE808A18EE900AB4EB400F0FD10220D6
:1052F00000F0E0F900F0BEF910EE101A18EE100AF6
:10530000BDEC068B61F31E0000EE100A10BD18EE16
:10531000900A400011D018EE900AFFF73FFE0428D3
:1053200008BF00F0AFF9B0EE680ABDEC068B10BD07
:10533000F5EEC00AF1EE10FA0FD2022000F0BAF931
:1053400000F0A0F910EE101A18EE100ABDEC068B52
:1053500061F31E0000EE100A10BD022000F0AAF951
:1053600000F088F910EE101AB0EE480A10EE100A9C
:10537000BDEC068B61F31E0000EE100A10BD00BFED
:10538000BCF1804F6CD300BF00F1FF43B3F1FE4F7F
:1053900024D200BFB0EEC00A10EE100AC1F3C7530A
:1053A0007F2B0DDB972BBFF63BAEC3F196034FF07F
:1053B000010C0CFA03F3A3F1010C1CEA010F08D055
:1053C000012000F077F9BDEC068BBDE8104000F03D
:1053D00049B90B4218BFBFEE008A21E643001CBF4B
:1053E0004FF08073B3EB400F34D96FF01A02DFED4A
:1053F000161A20EE210A10EE100A27E00000000025
:10540000001080C0ABAAAA3E0000803D7EE24C3E68
:1054100000B03842D49AB8BB3BAA38427CE90200BB
:10542000FC596337C9FF753A1872313D1AE9020019
:105430004EE90200BEE802000000FC420000FE420D
:105440000000004B000040430000004D10F0004FF2
:10545000A0D1E5E5A0F50003B3F1FE4F21D2DFE5D1
:1054600003EB4103B3F1007F11D3F5EEC00AF1EE77
:1054700010FA05D1430018BFB4EB400F76D883E78C
:1054800001F0004141F0FC5100EE901A7CE7B3F1CD
:10549000807F06D210EE903AA3F5000300EE903A1A
:1054A00072E720F000426FF0FF4C604C02EB0C03FF
:1054B000A34210D321F000439C44A4450BD3B0F188
:1054C0007E5F18BF5FEA410C50D0B2F1FF4F98BF2A
:1054D000B3F1FF4F05D9BDEC068BBDE8104000F0DD
:1054E000BDB8B0F1FF4F0FD0C1F3C7527F2A09DB1F
:1054F000972A11DAC2F19602012303FA02F2531E2F
:105500000B4205D0002208E011F0004F55D128E0F1
:105510000A4218BF012200D1022210F5000F13D059
:1055200028B3B0F1004F26D010F1814F4FD04FF08B
:10553000FE42B2EB400F94BF01200020012202EB9B
:10554000E171884239D10CE011F0004F02D0012AFC
:1055500038D032E0012A02BF9FED350ABDEC068B40
:1055600010BD9FED340ABDEC068B10BD2FE011F08D
:10557000004F0CD121E0B1F1FF4F1ED011F5000F0B
:1055800005D011F0004F15D00AB1012A08D0022031
:1055900000F090F8BDEC068BBDE8104000F054B868
:1055A000022000F087F800F04FF8BDEC068BB1EE5A
:1055B000400A10BD0AB1012A04D0B0EE690ABDEC60
:1055C000068B10BDBDEC068B9FED1B0A10BDBDEC1C
:1055D000068BB7EE000A10BD30EE410AB5EE001A98
:1055E0009FED172A00EE413AB6EE001A60EE001A5F
:1055F00000EE431A61EEC11A9FED101A20EE011A57
:1056000020EE020A9FED0F2A01EE820A71EE001AC7
:1056100011EE900A00F500606FF30B0009EE100A1E
:1056200031EE491A31EE00AA9CE50000FFFF3F0071
:10563000000080FF0000807F0000008000B0B841C3
:10564000D49A38BB3BAAB841DFED030AB7EE001A83
:1056500081EE200A704700000000000030EE200AB2
:1056600070470000DFED020A80EEA00A70470000DC
:10567000000000009FED020A20EE000A70470000C3
:10568000000000709FED020A20EE000A7047000043
:105690000000001002E008C8121F08C1002AFAD159
:1056A00070477047002001E001C1121F002AFBD1A2
:1056B000704700000149086070470000CC010020DD
:1056C0002DE9FF4F8DB09B460F460446002606E0AD
:1056D00025280BD05A460F999047641C761C2078D9
:1056E0000028F5D111B03046BDE8F08F0025A8465E
:1056F0000122984900E0054314F8013F203B02FADB
:1057000003F00842F7D120782E2817D114F8010FA2
:1057100045F004052A280ED06FF02F022078A0F162
:10572000300109290AD808EB880102EB410100EB9E
:105730000108641CF2E757F8048B641C20786C287D
:105740000DD004DC4C2812D06A2811D104E0742852
:105750000DD07A280CD10AE045F4001507E06178F5
:1057600045F48015814202D1641C05F58015641C46
:105770002278692A45D008DC002AB3D0582A69D09B
:10578000632A10D0642A08D13BE0702A67D0732ABC
:1057900013D0752A5CD0782A5CD010465A460F99EF
:1057A0009047761CD3E017F8040B8DF8000000201A
:1057B0008DF80100E946012003E057F8049B4FF003
:1057C000FF3069074FF0000501D40AE06D1C454524
:1057D0000DDA8542FADB19F805100029F6D106E04A
:1057E0006D1C8542FCDB19F805100029F8D12E4408
:1057F00004E019F8010B5A460F9990476D1EF8D234
:10580000A5E00A200021CDE90801C5F302500228D5
:105810000DD001CFC117031E71F100030DDA4FF057
:10582000000CD0EB0C006CEB01012D2308E0FF1DF8
:1058300027F00707F7E80201EDE72B0504D52B2336
:105840008DF8283001233BE0EB0739D02023F7E720
:105850000A2000E010200021CDE9080107E0102017
:10586000002145F00405CDE908014FF00808C5F313
:10587000025002280FD001CF00214FF0000A2B0761
:105880001FD5702A0DD0DDE908C38CF0100C5CEA3E
:10589000030C0CD015E0FF1D27F00707F7E8020105
:1058A000EBE740228DF828204FF0010A0BE050EA88
:1058B000010306D030238DF828308DF829200223EB
:1058C0009A46582A04D024A20DF120090B9209E02F
:1058D00026A2F9E7DDE90823FAF7DAFC0B9B9B5CCB
:1058E00009F8013D50EA0102F4D1ADEB0900203086
:1058F0000890680701D44FF001080899884502DD37
:10590000A8EB010000E000208046002506E00AA880
:105910005A46405D0F9990476D1C761C5545F6DB45
:1059200004E030205A460F999047761CB8F10001E8
:10593000A8F10108F5DC05E019F8010B5A460F99AA
:105940009047761C0899481E08900029F4DC641CD6
:10595000C5E60000092801003031323334353637CE
:1059600038396162636465660000000030313233AB
:10597000343536373839414243444546000000004B
:105980000A68531C0B6010707047000010B5044685
:105990000020E070401E6063204601F0C6FD08B1A3
:1059A000042010BD04F2362001F054FDA0F52A4178
:1059B000553901D0032010BD94F83800E92805D0EE
:1059C000EB2814D194F83A00902810D104F16E001D
:1059D00001F035FD0749B1EB002F06D004F18A0034
:1059E00001F02DFD0449884201D1002010BD0220A4
:1059F00010BD0000004641544641543300E0401CB5
:105A000002780AB18A42FAD1D0B27047F0B50022CA
:105A1000144D134605EB021426685EB10768BE42BA
:105A200009D166688768BE4205D1A4684669B44258
:105A300004D000E00123521C022AEBD3022A01D039
:105A400069B904E04BB9022907D01220F0BD05EB7B
:105A500002108089B0F5807F01D00020F0BD1020B9
:105A6000F0BD0000183E002030B50021054B0C466B
:105A700003EB01121568854200D11460491C02290C
:105A8000F6D330BD183E00200268090BC06A528967
:105A9000B1FBF2F1001D04C81AB1914203D3891A77
:105AA000F8E700207047006808447047C269891E03
:105AB000921E8A4201D800207047026B408901FB88
:105AC000002070472DE9F05F82460C4601F11A0074
:105AD00001F0C0FC78BB2078012700F03F00401E99
