:020000040800F2
:10000000D01A0020AD0100080319000811170008DC
:10001000011900084F030008DB2F00080000000052
:100020000000000000000000000000003D19000872
:100030008503000800000000111900083F1900089E
:10004000C7010008C7010008C7010008C701000870
:10005000C7010008C7010008C7010008C701000860
:10006000C7010008C7010008C7010008C701000850
:10007000C7010008C7010008C7010008C701000840
:10008000C7010008C7010008C70100080000000000
:10009000000000000000000000000000C701000890
:1000A000C7010008C7010008C7010008C701000810
:1000B000C7010008C7010008C7010008C701000800
:1000C000C7010008C7010008C7010008C7010008F0
:1000D000C7010008C7010008C701000800000000B0
:1000E000C7010008C7010008C701000800000000A0
:1000F000000000000000000000000000C701000830
:1001000000000000C7010008C7010008C70100087F
:1001100000000000000000000000000000000000DF
:10012000C7010008C7010008C7010008C70100088F
:10013000C7010008000000000000000000000000EF
:100140000000000000000000000000000519000889
:10015000C7010008C7010008C7010008C70100085F
:10016000C7010008C70100080000000000000000EF
:10017000000000000000000000000000000000007F
:1001800000000000C701000800000000000000009F
:10019000C7010008C7010008DFF80CD000F09AF88A
:1001A0000048004799330008D01A002006488047CD
:1001B00006480047FEE7FEE7FEE7FEE7FEE7FEE74C
:1001C000FEE7FEE7FEE7FEE7391A0008990100089E
:1001D0002DE9F05F0546002092469B46884606467C
:1001E000814640241BE0284641464746224600F00F
:1001F00060F853465A46C01A914110D3114618462A
:10020000224600F047F82D1A67EB01084F462246B8
:100210000120002100F03EF817EB00094E41201E9E
:10022000A4F10104DFDC484631462A464346BDE8D6
:10023000F09F40EA01039B0703D009E008C9121FA1
:1002400008C0042AFAD203E011F8013B00F8013B90
:10025000521EF9D27047D2B201E000F8012B491EBC
:10026000FBD270470022F6E710B513460A46044653
:100270001946FFF7F0FF204610BD30B504460020B8
:10028000034600E05B1C934203D2E05CCD5C401B64
:10029000F8D030BD202A04DB203A00FA02F1002019
:1002A00070479140C2F1200320FA03F319439040B4
:1002B0007047202A04DB203A21FA02F0002170471F
:1002C00021FA02F3D040C2F12002914008431946BE
:1002D00070470000064C074D06E0E06840F001035F
:1002E00094E8070098471034AC42F6D3FFF758FF64
:1002F000083900082839000870B58C1810F8015B1F
:1003000015F0070301D110F8013B2A1106D110F8AE
:10031000012B03E010F8016B01F8016B5B1EF9D1B2
:100320002B0705D40023521E0DD401F8013BFAE738
:1003300010F8013BCB1A921C03E013F8015B01F8A3
:10034000015B521EF9D5A142D8D3002070BDFEE753
:1003500000207047002070470748084A0021D0F865
:100360009002402903D0435C53540131F9E704481B
:100370000121017000207047000400207C01002052
:100380007801002070477047DE4A0329136823F480
:10039000407313604FF4407338BF0B021168194368
:1003A0001160116821F0F8011160116841EAC00084
:1003B00040F002001060106840F480301060704718
:1003C0001348016889050FD5016821F400710160A7
:1003D000016841F400610160016821F4006101607D
:1003E000016841F400710160016849050FD5016899
:1003F00021F480610160016841F48051016001686D
:1004000021F480510160016841F48061016070470E
:10041000003C0240BB490A6822F440720A600A6844
:1004200042F004020A600A6842EA002040F4803088
:1004300008607047B34A136823F44073136013686D
:100440001360136843F0010313600170704700BF2D
:1004500010B5AC490C6824F440740C600C6844F48A
:1004600040740C600C6844F001040C600260BFF33F
:100470006F8F436010BD00BFA24A136823F440731E
:100480001360136843F480731360136843F001032F
:1004900013600180704700BF9A4A136823F44073C9
:1004A0001360136843F400731360136843F001038F
:1004B00013600160704700BF32480168C90606D565
:1004C0008F49CA6942F01002CA61102101600168B7
:1004D000890606D58A49CA6942F00802CA61202104
:1004E00001600168490606D58549CA6942F00402DF
:1004F000CA61402101600168090606D58049CA69C0
:1005000042F00202CA61802101600168C90507D575
:100510007B49CA6942F00102CA614FF480710160EF
:100520000168890706D57649CA6942F02002CA6186
:1005300002210160704700BFF8B5044670480021F1
:10054000104EC16100F044FA0546671C3068C003D4
:1005500009D5002FFAD024B100F03AFA401BA0428E
:10056000F4D90320F8BD3068C0071CBF01203060FB
:10057000306810F4F97F03D0FFF79EFF0120F8BD2B
:100580000020F8BD0C3C024080B509484FF0FF3117
:1005900000220161026141614261016002604160CB
:1005A00042608160826000F05BFA002080BD00BF85
:1005B00010380240B0B5044600F00AFA0546054876
:1005C000611C007818BF044400F002FA401BA042EE
:1005D000FAD3B0BD180000202DE9F843DFF82081E0
:1005E000054698F81800012801D102263EE00120B6
:1005F000894688F818004CF25030FFF79DFF0646F8
:1006000088BB4FF0FF303F4CC9F800002868012834
:100610000CD1287CFFF7FEFE4CF25030FFF78CFF28
:100620000646206820F0040020601AE0A86807460B
:10063000E9680844874210D2297C3846FFF7A4FEB7
:100640004CF25030FFF778FF0646206820F0FA00A1
:10065000206026B9A8680137EAE7002601E0C9F85A
:100660000070FFF7ADFE002088F818003046BDE8A6
:10067000F88300BF2348016841F000410160002079
:10068000704700BF2DE9F041DFF87480074698F805
:100690001800012804BF0220BDE8F08101201E4699
:1006A00014460D4688F818004CF25030FFF744FF0E
:1006B00008BB022F07D0012F0AD077B9E1B2284634
:1006C000FFF7B8FE0EE028462146FFF7E5FE09E0F9
:1006D000A1B22846FFF7D0FE04E028462246334662
:1006E000FFF7B6FE4CF25030FFF726FF05490A68C7
:1006F00022F001020A60002188F81810BDE8F0819C
:10070000A40A0020103C02400648C168B1F1FF3F36
:10071000C4BF002070470449016004490160C068FB
:10072000C00F7047043C024023016745AB89EFCD01
:100730002DE9F84F934A07244FF0000A4FF00009C3
:1007400000279042904A08BF042402444FEAB22393
:10075000042B38BF4FEAB2248C4A009401230F24A3
:10076000A2F57E7B102F08BFBDE8F88F03FA07F2D1
:100770000A4240D00AF00C0CD24304FA0CF8BC0830
:100780005BF824E0009B0EEA080503FA0CF6B5427C
:1007900013D17E4B1D6815401D605D6815405D607E
:1007A0009D6815409D607A4B1D6815401D605BF883
:1007B000245025EA08054BF824500323056803FA62
:1007C00009F40F23A54305600AF01C0503FA05F59B
:1007D0006FF0030303EA57060644336AAB43336200
:1007E000C368A343C36043681A4001234260826820
:1007F000A2430F2482600AF1040A09F102090137B9
:10080000B0E700BF2DE9FC4F5E4A07244FF0010B13
:100810004FF000084FF0000E90425B4A08BF0424DE
:1008200002444FEAB223042B38BF4FEAB22400221D
:100830000094BEF1200F08BFBDE8FC8F0F680BFAD3
:1008400002F6374200F090804F68122F00F292803B
:100850000BFA07F414F0061F00F08C8003234FEA14
:10086000420A03FA0EF48368CD686FEA040CA343CE
:1008700005FA0EF52B4383603B0945689340B54369
:100880002B434360C4688D6804EA0C0405FA0AF53A
:100890002C43C46047F01004122C12D108F01C0441
:1008A0000F2303FA04F56FF0030303EA520707442A
:1008B000D7F820900B6929EA0505A3402B433B623A
:1008C0004F68036807F0030404FA0AF403EA0C0310
:1008D00023430360FB0047D500232E4C2B4F22F00F
:1008E000030501932368BC463D4443F480432360E1
:1008F00023680F2403F48043019308F00C03019F45
:100900009C40254FB946EF5927EA0404009F07FA97
:1009100003F3234345F80930DCF800304D6843EA1F
:100920000604EF0358BF23EA0604CCF80040AF03E7
:10093000DCF8043043EA060458BF23EA0604CCF886
:100940000440EF02DCF80830114F43EA060458BFB8
:1009500023EA0604CCF80840AD023B6843EA0604EB
:1009600058BF23EA06043C6008F104080EF1020EA9
:1009700001325EE70323F24603FA0EF46FEA040C39
:1009800080E700BF001002400000FEBF003C0140B5
:100990000C3C01404438024008FCFFFF006908405D
:1009A00018BF0120704742690A408A4208BF090403
:1009B00081617047002A08BF090481617047000007
:1009C000024800686FF31F30704700BF002004E04A
:1009D00005480068704700BF1F48034900780A684F
:1009E00010440860704700BFC80E002080B50B4857
:1009F000016841F400710160016841F480610160A7
:100A0000016841F480710160032000F083F8002048
:100A100000F006F800F026F8002080BD003C0240FF
:100A200070B50D4E04464FF47A713078B1FBF0F09A
:100A30000A490968B1FBF0F000F058FE01250F2CBF
:100A400008D838B94FF0FF3021460022002500F0C9
:100A500045F87460284670BD180000205000002042
:100A60007047000082B000200B4901904A6842F4B0
:100A700080424A604A6802F480420192019A0090E2
:100A8000086840F080500860086800F080500090CE
:100A9000009802B0704700BF4038024000280CD4D4
:100AA00000F01F010122400902FA01F1034A42F855
:100AB0002010BFF34F8FBFF36F8F704780E100E0CE
:100AC000002808D400F01F010122400902FA01F1B8
:100AD000014A42F82010704700E100E070B5134B66
:100AE0004FF0FF351B68C3F30223DC1E83F00703BE
:100AF00038BF0024042B28BF042305FA04F605FAA6
:100B000003F3B2439943A1401143BDE8704002F0A2
:100B100065BA00BF05494FF6FF030A681A4060F343
:100B20000A22034810430860704700BF0CED00E044
:100B30000000FA0502F064FA704700684162002084
:100B40007047B0B50068436AB1B1846A013903EBFC
:100B500014430024E5B2A94207D900EB850501340E
:100B6000D5F8045103EB1543F4E700EB810043EAA9
:100B70000241C0F8041102E043EA02418162002010
:100B8000B0BDD0F8040401F069BAC1EBC10200EBBA
:100B90008202D0F80404926C01F0B9B9C1EBC10231
:100BA00000EB8202D0F80404D2F8082201F00EBA59
:100BB00070B110B50446032084F8BD03204600F050
:100BC0005DFD204600F0AEFC002084F8BD0310BDA2
:100BD00001207047D0F8040401F042BA10B5044671
:100BE00001F00F000906C0EBC00104EB81015DBFFD
:100BF000002281F8FD2101F5FE71012244BF81F838
:100C00003D203C31087094F8BC03012804BF022049
:100C100010BD012084F8BC03206801F0EDFD002028
:100C200084F8BC0310BDB0B5044601F00F00626843
:100C3000904201D9012521E009064FF00005C0EBE3
:100C4000C00104EB81015DBF002281F8FD2101F5A7
:100C5000FE71012244BF81F83D203C3108708D7047
:100C600094F8BC03012801D1022507E0012084F893
:100C7000BC03206801F08EFF84F8BC532846B0BD49
:100C8000B0B5044601F00F000906C0EBC00104EB4B
:100C900081015DBF002581F8FD5101F5FE7101253F
:100CA00044BF81F83D503C318A60CB7008704A786F
:100CB00002B1C880022B04BF0020087194F8BC0365
:100CC000012804BF0220B0BD012084F8BC032068C5
:100CD00001F0E4FC002084F8BC03B0BDB0B501F025
:100CE0000F04C4EBC40100EB81050021C5E9843188
:100CF00085F8FD11C5F8082285F8FC4105F5FE715F
:100D00000369012B08BFC5F80C22DAB2006814B1E0
:100D100001F074FF01E001F09DFE0020B0BDB0B510
:100D20000446406801F00F05854284BF0120B0BD34
:100D3000080609D4C1EBC100002104EB800080F853
:100D4000FD1100F5FE7108E0C5EBC500012104EBC3
:100D5000800080F83D1000F13C0194F8BC23012094
:100D60000D708870012A04BF0220B0BD84F8BC0356
:100D7000206801F027FF2DB9217C206804F57172ED
:100D800001F0DCFE002084F8BC03B0BD70B501F0BA
:100D90000F040026C4EBC40100EB8105294601F8CD
:100DA0003C4FC1E905360123CA604B700369012B32
:100DB00008BFEA64DAB2006814B101F01FFF01E075
:100DC00001F048FE002070BD2DE9F04F87B081464C
:100DD0000068059001F0F2FF10B107B0BDE8F08F98
:100DE000D9F8000002F016F80028F6D0D9F8000073
:100DF00002F010F80146D9F80000890703D54169CF
:100E000001F00201416102F005F8000310D4D9F8A5
:100E1000000001F0FFFF400300F1DE80D9F8000080
:100E200001F0F8FF002800F18E81D9F80000A6E15A
:100E3000D9F8000001F0CDFF064609F5717009F5FB
:100E4000057A4FF0000B4FF430680690002EDED08C
:100E5000F00700F0B9805FFA8BF5D9F80000294659
:100E600001F0D0FF0746C0075ED00598012140443D
:100E70008160D9F8000008EB0004016CA068D9F883
:100E80001020012A28D1020735D482064AD410F056
:100E9000280F49D1E24A914202D310F400403ED1DA
:100EA0005AE9040101444AF80C1C21696FF3DF413F
:100EB000401A2946CAF800004846FFF76FFEB8F509
:100EC000306F31D1D9F8100270BBD9F80000069A02
:100ED000012101F033FE27E0D14AFF32914205D1D2
:100EE00001041CD4800644BF2020A0604846294647
:100EF000FFF754FE18E0CA4A914205D310F40040AF
:100F00001CBF4FF40040A060484600F091FBD9F8A8
:100F10000000069A012101F011FE082003E04FF4C1
:100F2000004000E02020A060380730D5D9F800103C
:100F300008EB01000C6C8168D9F81020012A03D15C
:100F4000B74A944204D20DE0B54AFF32944209D127
:100F500011F4004106D04FF400418160484600F092
:100F600067FB06E0484600F063FBAD480138844269
:100F700009D9D9F81000012805D1D9F80000069A3E
:100F8000012101F0DBFD0598082140448160F8064D
:100F900003D50598102140448160B8060DD5D9F8D5
:100FA0001000012805D1D9F80000069A012101F0AE
:100FB000C5FD0598202140448160B80404D50598FA
:100FC0004FF40051404481600AF11C0A08F12008E6
:100FD00076080BF1010B39E7D9F8000001F0F2FEB9
:100FE000044609F5717000270190059800F5106618
:100FF0000296002C3FF412AFE00700F0A180D9F870
:101000000000F9B2069101F0EBFE0546C0072CD0B6
:10101000059A07F00F00012303FA00F0D2F8341804
:1010200021EA0000C2F8340806EB47108360D9F8C3
:101030001000012807D1C7EBC70009EB8000D0E9F9
:1010400011121144816406994846FFF79EFD67B965
:10105000D9F81000012808D1D9F8500028B9D9F8DA
:101060000000019A012101F069FD280742BF06EB4B
:10107000471008218160E80642BF06EB47101021A7
:101080008160680642BF06EB471040218160A807D7
:1010900042BF06EB471002218160280650D5C7EBFE
:1010A000C70009EB800AD3465BF8500FD84658F8C2
:1010B000042F904244D35AF8441FD9F800500494A6
:1010C0003B46841A4F468C4288BF0C4605EB4311C1
:1010D0000AF10406039301F5106917E03C7CDAF885
:1010E000003031680094841A28469C4288BF1C4610
:1010F000069AA3B201F060FF306820443060D8F84F
:1011000000000219DBF80000C8F80020D9F81830F8
:10111000E11C9BB2B3EB910F28BF9042DED8B946D9
:10112000049CDDE9026790420AD807F00F00012114
:1011300001FA00F0D5F8341821EA0000C5F83408A7
:101140006408013755E70599D1F8040820F001003B
:10115000C1F8040899F8F403012807D10020002100
:1011600089F8F4034846FFF7E7FC02E0484600F040
:1011700043FAD9F80000416901F00041416101F0F2
:1011800049FE000502D4D9F800000DE00598D0F81A
:101190000808C00702D0484600F08CFAD9F80000D1
:1011A000416901F40061416101F034FEC00402D4E0
:1011B000D9F8000053E0059C1021D4F8040820F071
:1011C0000100C4F80408D9F8000001F0D9FDD9F8ED
:1011D000042004F5106104F500604FF67F337AB106
:1011E0008B60013A0C6824F400140C60C1F80832DA
:1011F000D1F8004224F40014C1F800422031EEE797
:10120000C16941F00111C161D9F8301051B1D0F874
:10121000841041F00B01C0F8841000F1440108E093
:101220000B30544F416942F22B021143416100F1EE
:1012300010010A6842F00B020A6009F57172016838
:1012400021F4FE610160D9F8000099F8101001F056
:1012500075FCD9F80000416901F48051416101F049
:10126000D9FD0146D9F8000089041AD501F054FAD5
:10127000D9F8000001F094FDD9F80050C9F80C002D
:1012800000F030FA99F80C200146284601F0FAFDEA
:10129000484600F09FF9D9F80000416901F4005177
:1012A000416101F0B7FD0146D9F80000C9063FD5FC
:1012B000816921F0100181610598046AC4F34340FB
:1012C00004F00F0506281CD002282BD147F6F07039
:1012D000044027D0C5EBC500220909EB800505981D
:1012E000D5F8081201F09AFDD5F80802D5F81412C5
:1012F00000EB1410C5F8080201EB1410C5F8140235
:1013000010E0059809F57171082201F087FDC5EB21
:10131000C50009EB8000D0F81412C4F30A1211447E
:10132000C0F81412D9F80000816941F01001816100
:1013300001F070FD000702D4D9F8000008E048462B
:1013400000F05EF9D9F80000416901F0080141613F
:1013500001F060FDC00202D4D9F8000009E048465F
:10136000002100F03AF8D9F80000416901F4801139
:10137000416101F04FFD800202D4D9F8000009E07C
:101380004846002100F02DF8D9F80000416901F429
:101390000011416101F03EFD400002D4D9F8000087
:1013A00008E04846FFF7EDFBD9F80000416901F07D
:1013B0008041416101F02EFD40077FF50EADD9F867
:1013C00000004468610704D54846FFF703FCD9F8DC
:1013D0000000416821434160FFE4D0F8040400F0BC
:1013E0008BBED0F8040400F089BE2DE9F04F8BB01D
:1013F000002800F087800446056890F8BD0328B9EE
:10140000002084F8BC03204600F0A4F8032084F8F0
:10141000BD03E86BC0055CBF00202061206801F0BF
:1014200013FB206804F1140E04F1040B04F1240AE8
:101430000A90D4E90C509EE8C0509BE80E089AE848
:101440000007CDE9085002A8CDE900B680E8805039
:1014500005A880E800070A9801F07AF900284ED123
:1014600020680021002501F0E6FC616801200022CF
:10147000D3B2994210D9C3EBC30604EB860686F8B3
:101480003C20A6F8423086F83D003565C6E9115586
:1014900086F83F500132EBE700200022D3B2994298
:1014A0000FD9C3EBC30304EB8303C3F81002C3E9F2
:1014B000810083F8FC2183F8FF0183F8FD010132EC
:1014C000ECE7A06804F1140E04F1240A22680A90E3
:1014D000D4E90C50D4E9033B9EE8C0509AE80007D9
:1014E000CDE9085002A8CDE900B680E8805005A8F3
:1014F00080E8000710460A9A01F0CEF938B10220C0
:1015000084F8BD03012528460BB0BDE8F08F002507
:10151000012084F8385084F8BD03206801F0B0F948
:10152000F1E7000080B50068B0F1A04F18BF80BDA2
:101530000748016821F08001016025484FF4C0513F
:10154000FFF7F6F84320BDE88040FFF7A7BA00BFD9
:1015500034380240B0B586B0044601A81421FEF725
:1015600081FE2068B0F1A04F2FD10025BE4C01A90B
:101570000095206840F001002060206800F0010024
:1015800000900A2005900320CDE90350022002902C
:101590004FF4C050019000980D48FFF733F9606890
:1015A0000121002240F0800060600095606940F4F5
:1015B00080406061606900F48040009000984320A2
:1015C000FFF78CFA4320FFF77BFA06B0B0BD00BFEF
:1015D0000000024010B50446C068022818BFFEF79C
:1015E000D2FED4F80404012100F0D9FDD4F804049B
:1015F000BDE8104000F099BDD0F8040400F0BDBD76
:10160000D0F8040400F0BFBD10B5044690F8BC0348
:10161000012804BF022010BD84F83810012084F88E
:10162000BC03206801F01EFC002084F8BC0310BD40
:10163000D0F8042400F57171104600F0BCBD10B55F
:10164000044690F8BC03012804BF022010BD01210C
:10165000206884F8BC13A16A012906D1A169012977
:1016600003D0816B41F48031816301F0FDF8206883
:1016700001F072FB002084F8BC0310BDB0B5044635
:1016800090F8BC03012801D1022510E02068012553
:1016900084F8BC5301F0D8F9206801F06BFC18B94C
:1016A000206801F0EDF80025002084F8BC032846EE
:1016B000B0BD000010B50446D0F8040400F0C1FD30
:1016C0002068D0F8001E41F00101C0F8001E206A19
:1016D00020B10348016841F00601016010BD00BF60
:1016E00010ED00E03F480068704700BF411E002039
:1016F000B0EB116F1CBF01207047234AF0235160EB
:1017000002490B70072190601160704723ED00E0E3
:10171000FEE7F0B55200002337240025AA4208BF97
:10172000F0BD04EB1076070FB0F1204F4FEA001028
:1017300038BF07F130064E5545F0010602358B558E
:10174000ECE7000018B54FF47A710091C1684906C2
:1017500016D44FF0FF310C4AC1600021C368009CD1
:101760007CB113F040030CD11368DB0302D5009B5E
:10177000013B0093C368009C002C08BF0121EEE7E9
:101780000021C8B218BD00BF10E000E0B0B50446AB
:10179000CA200D466062532060622046FFF7D2FFE8
:1017A000012801D1012015E007CDA36823F04003F3
:1017B000184347F6FF73A0602069984310432061E7
:1017C000206920F4FE0040EA014020616FF08000B3
:1017D000E0600020FF216162B0BD000001490860A7
:1017E000704700BF50000020F0B587B000261E48AB
:1017F0001E4C01224FF40055012706960196016800
:1018000041F004010160016801F0040101910199B6
:101810000196016841F080010160016801F08001DA
:10182000019101990196016841F0010101604FF4B5
:101830000051006800F00100019001982046FFF778
:10184000B9F8CDE90466CDE9025702AD2046294634
:10185000FEF7D8FFA4F5006029460497CDE902768B
:10186000FEF7D0FF07B0F0BD30380240000802405C
:10187000BFB50D480D4DFF24016841F400410160E2
:101880007F2001A90394029000200190A5F110008F
:10189000FFF77CFF286840F4FE002860286864F3A6
:1018A0000E002860BFBD00BF703802401028004005
:1018B00080B50F480F49002200F002FB08B1FEF787
:1018C00062FD0B480C4900F0D9FC08B1FEF75BFD46
:1018D00007480A4900F059F908B1FEF754FD0448D9
:1018E00000F0E0FC18B1BDE88040FEF74CBD80BDC3
:1018F00000040020340000205400002028010020B3
:10190000FEE770470148FFF75FBA00BF9C06002062
:10191000704700000749084A0120652808BF704742
:1019200051F82030134403F1784341F8203001305E
:10193000F3E700BF04C0002000C000207047FFF79D
:101940004BB8000010B54C4C0221D4F8000461F3F0
:101950000300C4F80004D4F800043248016841F4DC
:1019600040410160216841F4803121602168890390
:10197000FCD5016841F480710160206F40F4803033
:101980002067206F20F480302067206F40F0010036
:101990002067206F8007FCD5206F012161F30920AB
:1019A0002067206F40F4004020671F48636800F103
:1019B00070621A401D4B1A436260626861F3114203
:1019C0006260616808401A4908436060206840F01E
:1019D0008070206020688001FCD5A068042120F080
:1019E000F000A060A06861F38C200221A060A068D4
:1019F00020F46040A060A06861F30100A060A068CE
:101A000000F00C000828FAD10A48FFF7E7FE002092
:101A1000FFF706F8D4F88C0020F08070C4F88C0032
:101A200010BD00BF007000400080BFF0042A4000DD
:101A3000042A400700BD010510B50E480F4CD0F830
:101A4000801041F47001C0F880100B490A6842F020
:101A500001020A6000228A600B6823400B60084B79
:101A60004B600B6823F480230B60CA604FF0006169
:101A7000016010BD08ED00E000380240FFFFF6FEF7
:101A800010300024D0F89002002180F8501000207F
:101A90007047B0B5D0E9A452044628786978D26876
:101AA0009047204601212A46402300F035FB0020C4
:101AB000B0BDB0B58121044600F020FA00252046D3
:101AC0000121E56200F01AFAD4F89002C4F85851E6
:101AD00048B1D4F8940280688047D4F8900201F0AD
:101AE000B5FEC4F890520020B0BD10B5D0F89042B9
:101AF000E16C012908D1D0F8940222786178C3689A
:101B0000104698470020E064002010BD0A210180A3
:101B100000487047F00000202921018000487047EC
:101B20008C0000202921018000487047B800002067
:101B30002921018000487047FC00002070B58121F8
:101B400003224023054600F0DBFA01242846012148
:101B500003224023EC6200F0D3FA5420C5F8584128
:101B600001F09CFEC5F8900268B10024064680F89A
:101B70005040D5F8940240688047284601213246FB
:101B8000402300F0C9FA204670BD19B1C0F8941284
:101B90000020704702207047B0B513460A4690F8FF
:101BA000741203290AD1D0F89042012194F85050C0
:101BB0002DB984F85010812100F04CFB002108461B
:101BC000B0BD00001CB50022D0F89032ADF8062060
:101BD0000A7812F060020FD0202A38D14A78023AEF
:101BE000092A34D8DFE802F0053E33333333333784
:101BF000454803F1440137E04A780B2A0CD0062A05
:101C000011D00A2A1CD012BB90F87422032A1ED1CC
:101C10000DF10601022228E090F87422032A16D161
:101C20008878986423E0CA78212A28D0222A2CD1E7
:101C3000CA88142A28BF1422D0F89412096814E024
:101C400090F87422032A02D103F148010CE000F05D
:101C500038F802201CBD0122DA64CA88194600F057
:101C60003BF804E003F14001012200F04DF80020B0
:101C70001CBDC8785864FAE788781864F7E7CA8802
:101C80000349092A28BF0922EFE700220021ECE7D7
:101C9000E400002080B5D0F88C22526890470020E4
:101CA00080BD80B513460A46002100F035FA0020B9
:101CB00080BD80B513460A46002100F0CBFA002013
:101CC00080BD10B58021044600F0A0FA2046002116
:101CD000BDE8104000F09ABA80B513460A460321C9
:101CE000C0E95233C0F86C12002100F015FA002050
:101CF00080BD80B5052100220023C0F86C120021B0
:101D000000F00AFA002080BD80B513460A46022181
:101D1000C0E90733C0F86C12002100F09BFA0020E4
:101D200080BD80B5042100220023C0F86C12002180
:101D300000F090FA002080BD10B50446012084F820
:101D40007402D4F88C0221794268204690472046DC
:101D500000F06EFA204600F078F9002010BD000077
:101D600010B5334C0A4603A0214600F07DF820460A
:101D700010BD00BF53544D33322048494420426FB8
:101D80006F746C6F6164657220436F6E6669670083
:101D900012200880004870473801002010B5244CFC
:101DA0000A4603A0214600F05FF8204610BD00BFA0
:101DB00053544D33322048494420426F6F746C6F46
:101DC0006164657220496E746572666163650000C6
:101DD00004200880004870474C01002010B5144CC6
:101DE0000A4603A0214600F03FF8204610BD00BF80
:101DF00057654163742053747564696F0000000077
:101E000010B50B4C0A4603A0214600F02DF82046E1
:101E100010BD00BF57654163742053747564696FCA
:101E20002048494420426F6F746C6F616465720092
:101E3000C0010020B0B51A200880094908688A68E6
:101E400080180BD0074D4C680822A91CFFF761FCD5
:101E500005F1120120460422FFF75BFC0148B0BDEA
:101E6000107AFF1F50010020B0B5D8B100230446FE
:101E7000257815B101340133FAE7DCB2022303EB14
:101E8000440414800C70032201240A5502784AB1DC
:101E9000DCB29D1C01300A5543F001022B46D4B23E
:101EA0000022F2E7B0BD0000032884BF0220704783
:101EB0000249C00021FA00F0C0B2704700020102DE
:101EC00088B180B5D0F88C3213B10023C0F88C32C1
:101ED00009B1C0F888120121027080F8741200F074
:101EE000CBF8002080BD0220704780B5D0F8980262
:101EF000FEF799FEBDE88040FFF7D6BF80B5D0F869
:101F00009802FEF76BFEBDE88040FFF7CDBFB0B58D
:101F1000044669B1D4F88C0242693AB194F874026B
:101F2000032803D1204690470020B0BD0220B0BD59
:101F3000D4F86C0280B104280ED002283DD1D4E937
:101F4000081081420DD9081A114683B2206220463A
:101F50001A46FFF7AEFE18E02046802100F056F941
:101F60002BE0E169814217D3B1FBF0F202FB1010C4
:101F700090B9D4F8700281420ED22046002100228E
:101F80000025FFF796FEC4F870522046002100227B
:101F9000002300F0C1F810E0D4F88C02C16829B128
:101FA00094F87402032801D12046884720468021F6
:101FB00000F02CF92046FFF79CFE94F878120020E0
:101FC000012904BF84F87802B0BDB0BDB0B50446A5
:101FD00061B1D4F88C02826932B194F8740203289A
:101FE00002D1204690472DE002252CE0D4F86C0267
:101FF0000025052812D0032825D1D4E953108142A9
:1020000013D9091AC4F84C11814238BF084683B26B
:10201000114620461A46FFF744FE13E020460021F1
:10202000C4F86C5200F0F2F80DE0D4F88C020169AB
:1020300029B194F87402032801D12046884720462C
:10204000FFF76FFE00252846B0BD80B5D0F8980296
:10205000FEF7AEFDBDE88040FFF726BF00207047C9
:1020600080B5D0F88C22012180F874120179526871
:102070009047002080BD000010B5017841BB154994
:102080000222C0F89812C1F804040020C1E90B0034
:10209000C1E90620C1E90800C1E9032004204FF08E
:1020A000A042C1E900200846FFF79FF908B1FEF7FA
:1020B0006AF9084C80212046FEF73FFD20460021AA
:1020C0004022FEF73EFD204601218022FEF739FD29
:1020D000002010BD9C06002001F07F02D0F898027D
:1020E0000906C2EBC20200EB820000F13E0258BFBB
:1020F00000F5FF721078704700207047002070478D
:1021000010B51446D0F898021A462346FEF7B8FDDB
:10211000BDE81040FFF7C8BE80B5D0F89802FEF7C2
:10212000DDFDBDE88040FFF7BFBEF8B5002100220D
:102130004023044600254026FFF7E2FF0127204602
:10214000802100224023C4F85061C4F84471FFF795
:10215000D7FFD4F8900284F874726662A761C4F85D
:102160006C52C4F87C52656028B1D4F88C0200210E
:102170004268204690470020F8BD90F8751280F81C
:1021800074120020704780B590F87412032904D1AE
:10219000D0F88C12C96901B18847002080BD017454
:1021A0000020704780B5D0F89802FFF72DFABDE8FF
:1021B0008040FFF779BEB0B500F52075044628468B
:1021C00000F051F8B4F886120120C4E99B0194F89C
:1021D000800200F01F01022907D001290AD071B93D
:1021E0002046294600F064F80EE02046294600F01B
:1021F0008FF909E02046294600F029FA04E000F0B2
:102200008001204600F002F80020B0BD80B5D0F873
:102210009802FEF784FDBDE88040FFF745BE80B51B
:10222000D0F89802FFF70BFABDE88040FFF73CBEFC
:1022300080B5D0F89802FFF721FABDE88040FFF79B
:1022400033BE90F8741280F87512042180F874126D
:102250000020704780B5D0F89802FEF797FDBDE8E2
:102260008040FFF721BE0A7802704A7842704A889F
:1022700042808A888280C988C180704719B1C0F8BD
:102280008C12002070470220704780B5D0F88C2255
:1022900032B112689047002818BF0120400080BD6D
:1022A000022080BD80B5FFF7BAFF002080BD00008E
:1022B000BCB5044608780D4610F060000BD04028ED
:1022C00002D0202840F0D680D4F88C0229468268BB
:1022D00020469047D1E06878092800F2CB80DFE8FB
:1022E00000F0051BC927C95274C92F3D94F8740228
:1022F0000138022800F2BE80E888022840F0BA8047
:10230000D4F87C0203222146002808BF012241F8AC
:102310000C2F2046022273E094F874020138022840
:1023200000F2A8806888012840F0A780002004E01F
:102330006888012840F0A1800120C4F87C02C7E031
:10234000E888012840F0968094F87402411E022922
:1023500051D20020214641F8080F4FE068886B4DAC
:10236000C1B22870022980F0858094F87402032895
:1023700049D0022840F06580002900F0A9800320A0
:1023800084F8740249E0A888002840F07380E88847
:10239000002840F06F8068887F2800F26B8094F8F6
:1023A0007412032900F06680C5B284F876022046D4
:1023B0002946FFF7F7FE2046FFF7B3FC002D0CBFC0
:1023C0000120022084F8740257E068884FF0FF3142
:1023D00001EB102106294DD8DFE801F0043B264C23
:1023E0004C414A00D4F88812207C0A680DF106019D
:1023F000904701465CE003283CD1211D2046012284
:10240000FFF782FC39E0002939D0606888425FD04C
:10241000C1B22046FFF73EFC297820466160FFF7F5
:1024200034FF022826D053E0C0B2052822D8DFE8C6
:1024300000F00353585D6267D4F88812207C4A6824
:10244000D4E72046FFF73DFC29782046FFF722FC21
:1024500013E0217CD4F88C02D1B1C16A19E0207C50
:1024600040B9D4F88C02416B0DF106008847C0E7F3
:10247000207CA0B12046FFF724FC0020BCBD00203A
:102480006060022084F874022046FFF703FC1FE01E
:10249000816A0DF1060088470146022007E0D4F862
:1024A0008C02016B0DF10600884701460720487039
:1024B000BDF8060048B1EA883AB1904238BF0246FA
:1024C0002046ADF80620FFF71FFCE8880028D4D18D
:1024D0002046FFF726FCD0E7D4F88812207C8A68D3
:1024E00084E7D4F88812207CCA687FE7D4F8881281
:1024F000207C0A697AE7D4F88812207C4A6975E75B
:10250000D4F88812207C8A6970E700BFBC010020E3
:10251000B0B5044608780A4610F060000AD040289A
:1025200001D0202875D1D4F88C021146836820464A
:10253000984771E0202807D1D4F88C0211468368AF
:102540002046BDE8B040184750781179A8B101285D
:102550002ED003285DD194F8740203282CD1508822
:10256000002863D141F0800080285FD0D088002807
:102570005CD12046FFF74AFE58E094F87402032825
:1025800028D0022845D141F08000802841D101F0B7
:102590007F00090600EB800004EB800000F11402CC
:1025A00058BF00F5A07200201146106020464AE096
:1025B00094F87402032831D002282AD141F0800017
:1025C000802826D02046FFF721FE20468021FFF7F5
:1025D0001DFE21E001F00F0211F0800002EB8202EB
:1025E00004EB820214BF9269D2F844218AB101F04F
:1025F0007F02002841F0800002EB820204EB82029D
:1026000002F5A07518BF02F11405802812D1002030
:1026100016E02046FFF755FB0020B0BD508800288B
:10262000FAD1480602D02046FFF75FFC2046FFF7AC
:1026300078FBF1E72046FFF74FFD0028E7D00120A7
:102640002860204629460222FFF75EFBE4E7B0B58A
:10265000044608780D4610F0600018BF402815D1D8
:1026600094F874020138022812D8A88810F0FE0FDE
:102670000ED1D4F88C02294682682046904750B982
:10268000E88840B92046FFF74CFB04E02028E7D05B
:102690002046FFF716FB0020B0BD0000B0B50A7859
:1026A0004C78012502F00F03012C05FA03F318D131
:1026B000D0F81C482343C0F81C38530100F51060C3
:1026C000C458240424D41C588D68C9786FF3DF25BE
:1026D00045EA8252224342EA81410E4A114319508F
:1026E00016E0D0F81C48520144EA0343C0F81C38F5
:1026F00000F5306083581B040AD413588C68C978DD
:102700006FF3DF24234343EA8141024B1943115005
:102710000020B0BD00800010D0F8001940F2FF7218
:102720009143C0F80019D0F8081801F006010429F7
:1027300005D1D0F8001941F00301C0F80019D0F814
:10274000041841F48071C0F804180020704700009C
:1027500070B504460698049D012817D1A16B194A4B
:102760000D9821F480310128A163E16801EA02019A
:10277000E160E16821F44011E16003D1E06840F4D8
:102780008010E060204600F01FF80FE0E0680A9E2D
:1027900040F04000E060204600F016F8A16B16B152
:1027A00021F4803101E041F48031A163012D07D192
:1027B000A16841F00601A160A16841F02001A1607B
:1027C00070BD00BFBFFFBDFF0A490A46013A0FD0E6
:1027D0000369B3F1FF3FF9DC026942F001020261D3
:1027E000013905D00269D20704BF00207047F7E71E
:1027F00003207047410D0300B0B50A784D780121E0
:1028000002F00F04012D01FA04F316490FD1D0F89C
:102810003C489C43C0F83C48D0F81C4824EA0303D9
:10282000C0F81C3800EB421000F5106014E0D0F83E
:102830003C5801F1707125EA0343C0F83C384FF46D
:102840008033A340D0F81C4824EA0303C0F81C38A6
:1028500000EB421000F5306002681140016000207A
:10286000B0BD00BF007833EC80B5D0F8041821F07B
:102870000201C0F804180320FDF79CFE002080BD73
:1028800080B5D0F8041841F00201C0F80418032004
:10289000FDF790FE002080BD2DE9F84F8346DDF85E
:1028A0004490DDE90C08DDF828A00D464121002206
:1028B000502903D04BF821200131F9E7B9F1000F7D
:1028C0000AD0DBF8001021F40011CBF80010DBF87F
:1028D000381041F400210FE0DBF8381041F400110A
:1028E000CBF83810DBF8381021F40021CBF8381081
:1028F000DBF8381021F48021CBF8381000210128B2
:10290000CBF8001EDBF80018CBF8001806D1DBF876
:102910000008002B18BF40F0010003E0DBF80008BE
:1029200040F00300CBF800085846102100F028FAC8
:102930000646584600F016FA002130430BF51062A7
:102940004FF67F330026CBF81018CBF81418CBF8CD
:102950001C18B5420FD04FF09047002E06F101062B
:1029600008BF4FF00067146807EAE474146011614F
:1029700093602032EDE70BF5306100224FF67F3394
:102980000026002818BF0120B5420FD04FF0904418
:10299000002E06F1010608BF4FF000640F6804EA3C
:1029A000E7740C600A618B602031EDE7DBF81018EA
:1029B000BAF1010F21F48071CBF8101810D11E4923
:1029C0001E4ACBF83018DBF830181143CBF830181A
:1029D00000214BF8181F6FF080414BF8041C0FE0EA
:1029E0000021BAF1000F4BF8181F6FF080414BF82F
:1029F000041C05D1DBF8001041F01001CBF80010E9
:102A0000DBF800100E4AB8F1000F41EA0201CBF8E2
:102A1000001005D0DBF8001041F00801CBF80010E1
:102A2000B9F1010F05D1DBF80010064A1143CBF8CC
:102A30000010BDE8F88F00BF000180000300010016
:102A400000383C8004000040816821F00101816071
:102A500000207047F0B54B7891F800E0012B1DD1B4
:102A600000EB4E13334F344CD3F810694D6903F526
:102A70001063C5B326401E611E693E401E618E680C
:102A8000B54284BF4E6135461E6946F400261E617C
:102A900007F100561F692E403E432FE000EB4E1019
:102AA000244CD0F8103B6FF31203C0F8103BD0F861
:102AB000103B6FF3DC43C0F8103B00F530634D6909
:102AC000886805B148611D6904F10054012A00EAD3
:102AD000040045F400251D611C6940EA04001861EA
:102AE00012D1C8680EE006EA07051D611D6945F4AC
:102AF00000251D611D6905EA04060025012A1E61E5
:102B000009D1086900B158614FF0044118680843C1
:102B100018600020F0BD1968002D41F004411960D3
:102B2000F7D00EF00F01012200F6340302FA01F192
:102B3000ECE700BFFFFF07E00000F8FF10B5036CF3
:102B4000134CA34203D3D0F8003B002B1ED4002328
:102B50000129C0F8103BD0F8103B43F40023C0F823
:102B6000103BD0F8103B43F01803C0F8103BD0F8EE
:102B7000103B43F0C043C0F8103B07D1C0F8142B02
:102B8000D0F8001B41F08021C0F8001B002010BDD0
:102B90000B30544F0A784B785201012B14BF00F5CB
:102BA000306000F51060835823F400138350C97817
:102BB00001F0FE01022903D1115841F0805111505A
:102BC000002070470A78497800EB4210012919BFAC
:102BD000D0F8001B00F53060D0F8001900F5106047
:102BE0002AB1002903D4016821F080410160016805
:102BF00041F400110160002070470000F8B54B78E7
:102C00000C78012B2BD100EB4413D3F810694D69DC
:102C100003F51063002D44D06FF312061E611E6988
:102C20006FF3DC461E618E68AF19013FB7FBF6F605
:102C3000484F07EAC6461F693E431E612E461F697C
:102C40006FF3DF463E431E61CE78012E34D11E69FC
:102C500026F0C0461E611E6946F000562BE000EBD0
:102C60004413D3F8104B6FF31204C3F8104BD3F88E
:102C7000104B6FF3DC44C3F8104B03F530634D6920
:102C80008C68B5B32544334E1F69013DB5FBF4F59F
:102C900006EAC546ADB26C433E436FF3DF441E61A6
:102CA0002EE06FF3DC461E611E6946F400261E61AD
:102CB0001E696FF312061E61012A01D10A6926E01E
:102CC0001E6846F004461E60CE78012E35D1D0F83D
:102CD0000868F6054FF0805658BF4FF000561F6841
:102CE0003E431E60ABB2C9680092224600F064F910
:102CF00021E01D696FF3DF442C431C614FF4002475
:102D00001D69012A44EA05041C6102D1CA6802B1A6
:102D10005A61C97801290AD1D0F80808C0054FF0D6
:102D2000805058BF4FF00050196808431860186869
:102D300040F0044018600020F8BD002DFBD004F0E6
:102D40000F01012202FA01F1D0F834281143C0F832
:102D50003418F0E70000F81F816841F0010181603C
:102D600000207047102101610C49013904BF032084
:102D700070470269D2065CBF00207047F5E700BFCC
:102D80008901203101610549013904BF03207047E1
:102D9000026992065CBF00207047F5E7410D030011
:102DA000D0F8080800F006010F2041F00402062ABE
:102DB00008BF0220002908BF08467047406900F09C
:102DC00001007047D0F81818D0F81C08084080B2ED
:102DD0007047D0F81818D0F81C080840000C70474D
:102DE00010B5D0F81028D0F8344801F00F0300EBEC
:102DF0004110D0F8080924FA03F3DB01DBB21A43CF
:102E0000104010BD00EB4111D1F8081BD0F8140898
:102E100008407047416980690840704710B5033227
:102E20004FF48053920822B1C458013A41F8044B40
:102E3000F9E7084610BD80B5C268012922F0C042FA
:102E4000C26003D061B94FF0804101E04FF0005102
:102E5000C2681143C1603220FDF7ACFB002080BD89
:102E6000012080BDD0F8002801F07F0122F4FE622D
:102E7000C0F80028D0F8002842EA0111C0F8001874
:102E800000207047022A34D1284A294B0A449A422A
:102E900002D24FF470512EE0264A274B0A449A4240
:102EA00002D24FF4605126E0244A254B0A449A424C
:102EB00002D24FF450511EE0224A234B0A449A4258
:102EC00002D24FF4405116E0204A214B0A449A4264
:102ED00002D24FF430510EE01E4A1F4B0A449A4270
:102EE00002D24FF4205106E01C4A1D4B0A449A427C
:102EF0000AD24FF41051C26822F47052C260C26804
:102F00001143C16000207047164A174B0A449A4289
:102F100002D24FF40051EEE7144A154B0A444FF425
:102F2000C0519A4238BF4FF4E051E4E7405327FFC5
:102F300000350C00401E1BFF40420F0000DC0BFF61
:102F4000804F1200808CF9FE20D6130060B6E5FE9B
:102F500060E3160000D3CEFE40771B00C05BB3FEDB
:102F6000C091210000CA91FE20753800E05459FE3E
:102F7000E09C410010B504460E484FF67F3130B159
:102F800022182030C2F8E81AC2F8E81CF7E700203F
:102F9000C4F81008C4F81408C4F81C082046FFF749
:102FA000E1FE00B110BD20461021BDE81040FFF742
:102FB000E7BE00BF20FEFFFF10B5029C0CB1002051
:102FC00010BD0333120300F580509B08002BF6D090
:102FD00051F8044B013B1450F8E7FEE710B5074CDD
:102FE00000F00F03044AB0F1FF3F2344C8BF831829
:102FF0000801187010BD00BF00E400E014ED00E00F
:103000000648BFF34F8F064A016801F4E06111439F
:103010000160BFF34F8F00BFFDE700BF0CED00E084
:103020000400FA0586B0022005900120CDE90100D8
:10303000FDF76AFB01A80021FDF7CEFAFDF71AFBA8
:10304000FEE7000010B50B4C4FF000614FF48042DA
:103050002046FDF7EEF8FEF75DFC074807490160E2
:10306000074881F30888204400F17840BDE810400B
:10307000004700BF00C0002008ED00E000C00020B5
:103080002530000810B50A480A4C0121006820606C
:103090000948FDF783FC48B1206841F23421884299
:1030A00004D0B248BDE8104000F03EB810BD00BFEB
:1030B0009C280040C40E00200000024070B5194D4D
:1030C00000240020C6B20B2E09D871197059C968A6
:1030D000884202D0FFF7B6FF0134301DF2E7200628
:1030E00008BF70BDFDF782FC9B4CA4F50065284627
:1030F0000121FDF753FC0028F9D020464FF4005180
:103100000022FDF757FC0420FDF754FA20464FF447
:1031100000510122FDF74EFC4FF4FA70FDF74AFA18
:10312000E5E700BF047AFF1F0168054A1140B1F1CD
:10313000005F18BF70474168006880F3088808473F
:103140000000F82F2DE9F04F87B0DFF800A29AF8C1
:103150000000012840F08980DFF8F49100215046FA
:10316000062200F8041B09F10801FDF786F8002883
:1031700047D0BAF80200774F0AF1040140223844E0
:10318000FDF757F8BAF802004030AAF80200BAF882
:103190000200B0F5806F68D16F48D9F804504FF441
:1031A000005101224FF001088346FDF703FCAC02F9
:1031B000FDF7AAFA680605D0A5F110004FEA301015
:1031C00003280FD8B9F80000411CA9F8001002210B
:1031D00006910021CDE90218CDE9040802A801A951
:1031E000FDF7FAF904F1006400260025B6EB952FEF
:1031F0001AD17A59611902200023FDF743FA0435E8
:10320000F4E79AF80A0004282FD8DFE800F0033129
:103210003F2E59001020C9F804000120A9F8000031
:103220000020AAF8020020E058464FF40051002286
:103230000024FDF7BFFBFDF71DFAD9F80400392182
:103240000130C9F80400AAF80240444CE01DFDF723
:1032500009F843F674202146A080414820600320ED
:10326000A07140484022FEF797FC07B0BDE8F08F00
:103270000A20FDF79FF93B48FEF75EFD0A20FDF7A7
:1032800099F907B0BDE8F04FFDF754BCB9F80C0050
:10329000324CA080D9F808002060FDF791FB03466E
:1032A000314835A139A200880090A01D00F044F9F2
:1032B0002C482146402207B0BDE8F04FFEF76CBC19
:1032C000B9F80C00DFF8948001270597A8F80400EE
:1032D000D9F80800C8F800000220069000200290EB
:1032E0002148CDE903770488FDF70EFA1F48102521
:1032F0000DF108090DF1040AAEB2A64217D200681A
:10330000013014D048465146FDF766F9013705F102
:103310008001402EB8B2049008BF802138BF05F16B
:10332000100188B20D46800200F10060E4E7FDF76D
:10333000A1F96FF00F000EA110FA85F208F1060056
:1033400000F0FAF8074841468CE700BF78010020FA
:1033500008000020C40A002000080240C00300202A
:103360005765416300040020227AFF1F00400008D7
:1033700025644B420000000025732030782558203A
:10338000524F4D3A2025644B4200000056312E32F8
:1033900020384D487A000000FEF726FAFFF78EFE2F
:1033A000FFF770FEFDF722FBFEF7CCFA5C4CA4F5AC
:1033B000006528460121FDF7F1FA40B920464FF497
:1033C0000051FDF7F0FA3C20FDF7F4F8F1E7204654
:1033D0004FF400510122FDF7EDFAFEF749FAFEF72E
:1033E00067FA5048DFF8408100214FF0780B4FF02A
:1033F00001090160FFF7A6FEFDF7EAFAB84234D0F2
:103400005FFA89FAFDF7E4FA0746BAF1010F2CD109
:1034100098F80010B8F8020039B1013881B2A8F864
:1034200002006E290BD8002107E0013081B2A8F814
:103430000200B1F5966F02D3012188F8001098F8C8
:10344000011080B2B0FBFBF04A1C142988BF002297
:10345000C0B2D1B288F80120814220464FF4005119
:1034600034BF00220122FDF7A5FAFDF7B1FA801B57
:103470003228BFD3FDF7ACFA064628460121FDF7F6
:103480008DFA08B328460121FDF788FA2749097803
:103490008842AFD028460121FDF780FA2349087001
:1034A000D8F8040007280BD820464FF40051012219
:1034B000FDF780FA5FFA89F0B0FA80F04FEA501910
:1034C0000020C8F8040095E7184900200870D8F8D3
:1034D000040001300D28C8F80400FFF48BAF284623
:1034E0000121FDF75BFA40B920464FF40051FDF78A
:1034F0005AFA6420FDF75EF8F1E70D48FEF71CFC70
:1035000020464FF400510122FDF754FA0A20FDF73E
:1035100051F8FDF739F80748FFF706FE6AE700BFE4
:10352000000802409C280040700100206A01002031
:10353000000400200000FF1F0FB4084B10B504A9C1
:1035400002AA039800F01CF8044602A9002000F02B
:1035500077F9204610BC5DF814FB000041380008E4
:1035600002E008C8121F08C1002AFAD1704770474C
:10357000002001E001C1121F002AFBD170470000AA
:103580002DE9FF4F8DB09B460F460446002606E00E
:1035900025280BD05A460F999047641C761C20783A
:1035A0000028F5D111B03046BDE8F08F0025A846BF
:1035B0000122984900E0054314F8013F203B02FA3C
:1035C00003F00842F7D120782E2817D114F8010F04
:1035D00045F004052A280ED06FF02F022078A0F1C4
:1035E000300109290AD808EB880102EB410100EB00
:1035F0000108641CF2E757F8048B641C20786C28DF
:103600000DD004DC4C2812D06A2811D104E07428B3
:103610000DD07A280CD10AE045F4001507E0617856
:1036200045F48015814202D1641C05F58015641CA7
:103630002278692A45D008DC002AB3D0582A69D0FC
:10364000632A10D0642A08D13BE0702A67D0732A1D
:1036500013D0752A5CD0782A5CD010465A460F9950
:103660009047761CD3E017F8040B8DF8000000207B
:103670008DF80100E946012003E057F8049B4FF064
:10368000FF3069074FF0000501D40AE06D1C454585
:103690000DDA8542FADB19F805100029F6D106E0AB
:1036A0006D1C8542FCDB19F805100029F8D12E4469
:1036B00004E019F8010B5A460F9990476D1EF8D295
:1036C000A5E00A200021CDE90801C5F30250022837
:1036D0000DD001CFC117031E71F100030DDA4FF0B9
:1036E000000CD0EB0C006CEB01012D2308E0FF1D5A
:1036F00027F00707F7E80201EDE72B0504D52B2398
:103700008DF8283001233BE0EB0739D02023F7E781
:103710000A2000E010200021CDE9080107E0102078
:10372000002145F00405CDE908014FF00808C5F374
:10373000025002280FD001CF00214FF0000A2B07C2
:103740001FD5702A0DD0DDE908C38CF0100C5CEA9F
:10375000030C0CD015E0FF1D27F00707F7E8020166
:10376000EBE740228DF828204FF0010A0BE050EAE9
:10377000010306D030238DF828308DF8292002234C
:103780009A46582A04D024A20DF120090B9209E090
:1037900026A2F9E7DDE90823FCF71AFD0B9B9B5CE9
:1037A00009F8013D50EA0102F4D1ADEB09002030E7
:1037B0000890680701D44FF001080899884502DD98
:1037C000A8EB010000E000208046002506E00AA8E2
:1037D0005A46405D0F9990476D1C761C5545F6DBA7
:1037E00004E030205A460F999047761CB8F100014A
:1037F000A8F10108F5DC05E019F8010B5A460F990C
:103800009047761C0899481E08900029F4DC641C37
:10381000C5E600000928010030313233343536372F
:10382000383961626364656600000000303132330C
:1038300034353637383941424344454600000000AC
:103840000A68531C0B6010707047000010B5002808
:1038500021D0114B0022001F196803E0814203D8D8
:103860000A4649680029F9D152B11368841A9C426A
:1038700004D1006818441060104602E0506000E077
:10388000186039B102680B1A934203D10B681A44CD
:1038900002604968416010BD00000020F0B50B30A7
:1038A000154D20F007010024144A0FE003688B42F5
:1038B0000BD38B4205D95E1A43184768C3E90067EA
:1038C00000E04368136002C004E0021D1068002895
:1038D000ECD12046002802D1286808B10020F0BDB4
:1038E000064A07481060074A121A22F00702C0E988
:1038F000002401202860D7E70400002000000020F9
:10390000D40E0020D0160020283900080000002026
:1039100070010000F8020008E8390008700100207A
:10392000601900007035000881320132108F576530
:103930004163743A10120613FF092809A1017508A2
:103940009540910306168103C0911D1B08D1041AEE
:10395000DD0413011E1B0835041A610C1A9D0411A5
:103960001324F4133D1B1408B31A1B08C508411A8D
:10397000EB0C1A85041A9304C11A25201A19041A8B
:1039800031041A0D041409022913010125C032095A
:10399000043302031509211101140122142607051D
:1039A0008103402C07050107291A091E2C4A052C02
:1039B000AA051A31130A0632022A40E0092A701AAF
:1039C00020031355031B0851041A59044B120148D4
:1039D0001583042A571D02010203512E0403090412
:0839E0001A47011529722100AC
:020000042000DA
:10C0000001FF01FF01FF01FF01FF01FF01FF01FF30
:10C0100001FF01FF01FF01FF01FF01FF01FF01FF20
:10C0200001FF01FF01FF01FF01FF01FF01FF01FF10
:10C0300001FF01FF01FF01FF01FF01FF01FF01FF00
:10C0400001FF01FF01FF01FF01FF01FF01FF01FFF0
:10C0500001FF01FF01FF01FF01FF01FF01FF01FFE0
:10C0600001FF01FF01FF01FF01FF01FF01FF01FFD0
:10C0700001FF01FF01FF01FF01FF01FF01FF01FFC0
:04C08000014000007B
:040000050800019955
:00000001FF
