:020000040800F2
:10000000F8FF0120C1CA0408033D0408F13C0408BC
:10001000053D0408153D0408253D040800000000C6
:10002000000000000000000000000000353D040852
:10003000373D040800000000754D0408D14D040848
:10004000B5C90408253E0408313E0408393E0408B9
:1000500039BB0408B5C90408B93D0408BF3D04080C
:10006000C53D0408CB3D0408D13D04082D700408AB
:100070003D7004084D7004085D7004086D7004083C
:100080007D7004088D700408B5C9040800000000E4
:10009000000000000000000000000000D73D040840
:1000A0004D3E0408533E0408653E04086B3E0408B8
:1000B000713E0408773E04087D3E0408AF3E040804
:1000C000B53E0408BB3E0408C13E0408B5C9040897
:1000D000B5C904089D3E0408A33E040800000000C2
:1000E000FB3D04082B3E0408453D040800000000C9
:1000F0000000000000000000000000009D700408E7
:1001000000000000B5C90408853E0408B5C904080C
:1001100000000000000000000000000000000000DF
:10012000AD700408BD700408CD700408DD700408CB
:10013000ED70040800000000000000000000000056
:10014000000000000000000000000000393D04082D
:10015000FD7004080D7104081D710408A93E04080F
:10016000C73E0408CD3E0408000000000000000067
:10017000000000000000000000000000000000007F
:1001800000000000B5C904080000000000000000E5
:10019000B5C90408B5C9040842884378007843EA21
:1001A000022340EA032070470B0A017043700B0CD6
:1001B000090E8370C1707047036A0239023B8B429B
:1001C00083BFC389406B01FB0300002070470246D8
:1001D00000F10B010020C30143EA500312F8010BA8
:1001E00050FA83F38A42D8B2F5D1704737B50D463D
:1001F000044620B9092000232B6003B030BD0368FA
:10020000002BF7D05A79002AF4D081885A8991427C
:10021000F0D118680DF10702062102F0EDFA9DF801
:10022000073003F00103184310F0FF00E2D1236808
:10023000E2E738B50468054614F8010B20B140F236
:10024000B51153F0C5F908B12C6038BD4FF0FF303F
:10025000FBE7CA7E8B7E032843EA022301BF487D69
:100260000A7D42EA002243EA024318467047C2F37D
:1002700007238A76CB760378032B01BF120C0A750D
:10028000120A4A75704770B5C37904460BB900204D
:1002900070BD00F13C06826B00680123314602F01C
:1002A00096FA80B9A16BE36A626AE071CB1A934255
:1002B000EDD2A379022BEAD10A440123314620680A
:1002C00002F085FAE3E70120E2E7836B8B4270B529
:1002D00006460D4612D0FFF7D6FF044660B92A46FF
:1002E000012306F13C01306802F062FA00281CBFCD
:1002F0004FF0FF350124B563204670BD0024FBE7B5
:10030000002310B5C3714FF0FF3383630446FFF73A
:10031000DCFF18BB94F83B2294F83A3243EA0223FC
:100320004AF6552293421BD194F83C30EB2B03D074
:100330001833DBB2012B15D803220B4904F17200EC
:100340003FF00CF848B10522084904F18E003FF057
:1003500005F8002814BF0220002010BD0420FCE78F
:100360000320FAE70220F8E7E38B0608E78B06088C
:100370002DE9F043437987B0044601F0FE059BB1B7
:1003800006210DF10702006802F036FA9DF8070019
:10039000C10709D4002D00F0268110F0040000D020
:1003A0000A2007B0BDE8F083002363710DF1070256
:1003B0000521206802F020FA9DF80730DA0700F1E5
:1003C00014810DB15B07EBD400212046FFF798FFA5
:1003D0000228034603D0012824D8257975B302AD3D
:1003E00004F2022104F242262F4611F8040C10B147
:1003F0000846FFF7D1FE10318E4245F8040BF4D1C8
:10040000267906B1013E57F826507DB1294620468F
:10041000FFF776FF0346227952B9012B0ED9013638
:10042000032EF0D9042B07D10120BAE70323F2E70A
:10043000042BF9D0012B01D90D20B2E794F8482004
:1004400094F8473043EA0223B3F5007FF4D194F8DF
:10045000533094F8526056EA032604D104F1600048
:10046000FFF79AFE064694F84C1066624B1E012B6D
:10047000A171E1D894F849901FFA89F3E381002B28
:10048000DAD009F1FF3313EA090FD5D194F84E30D1
:1004900094F84D7047EA03273FB21FFA87F818F027
:1004A0000F0FA4F80C80C7D194F8503094F84F0087
:1004B00050EA032003D104F15C00FFF76DFE94F8CD
:1004C0004B2094F84A3053EA0223B5D006FB01FCD6
:1004D00003EB181262448242AED8801A4845B0FB42
:1004E000F9F1A9D346488142A6D84FF6F57081426A
:1004F0007DD94FF0030902312B442A44B9F1030F8F
:100500002162A562E36262635BD194F8672094F88C
:10051000663043EA02231F433FB2002F8CD104F11F
:100520006800FFF739FE2063890001F2FF11B6EB86
:10053000512F81D34FF0FF33C4E90533B9F1030FD5
:100540004FF0800323722FD194F86D2094F86C3013
:1005500043EA0223012B27D1691C2046FFF7B5FE91
:1005600010BB94F83B2294F83A32207243EA0223FB
:100570004AF65522934217D104F13C00FFF70CFED6
:10058000204B984210D104F50870FFF705FE1E4B72
:10059000984209D104F50970FFF7FEFDA06104F54A
:1005A0000A70FFF7F9FD6061184A84F80590138816
:1005B00001339BB2138063810020154B2361E061FE
:1005C000EFE6B8F1000F3FF437AF6344B9F1020F23
:1005D00023634FEA41031BBF5B1801F00101194679
:1005E00001EB5301A1E72846DBE60320D9E640F6FC
:1005F000F57949458CBF4FF002094FF001097AE7C0
:10060000F5FFFF0F5252614172724161205B002081
:10061000225B002001292DE9F04705460C461746CC
:1006200072D9036A8B426FD94379022B3FD0032BD7
:1006300050D0012B68D101EB5108C16A01EB582160
:10064000FFF743FE064638BB05F13C0908F1010AF5
:10065000C8F3080814F001041FBF19F8083003F0AC
:100660000F023B0103F0F00314BF1343FBB209F880
:100670000830E96A0123EB7101EB5A212846FFF7A4
:1006800024FE064640B9CAF3080A44B1C7F3071767
:1006900009F80A700123EB713046BDE8F08719F8BC
:1006A0000A30C7F3032723F00F031F43F0E7C16AA3
:1006B00001EB1421FFF709FE06460028ECD1640087
:1006C00005F13C0304F4FF741A191F55C7F30727FB
:1006D0005770DFE7C16A01EBD411FFF7F6FD06465C
:1006E0000028D9D1A40005F13C0304F4FE741C4495
:1006F0002046FFF751FD27F0704700F07041394365
:100700002046FFF751FDC5E70226C5E70129F8B5E8
:1007100005460C4652D9036A99424FD24379022BBF
:1007200029D0032B38D0012B48D101EB5106C16AE7
:1007300001EB5621FFF7C9FD10B14FF0FF30F8BDB6
:10074000771CE96AC6F308062E4401EB57212846B8
:1007500096F83C60FFF7B9FD0028EED1C7F3080713
:100760003D44E30795F83C0046EA00204CBF0009F1
:10077000C0F30B00E3E7C16A01EB1421FFF7A5FD0D
:100780000028DAD164003C3504F4FF742B19285D8D
:100790005B7840EA0320D2E7C16A01EBD411FFF78E
:1007A00094FD0028C9D1A40005F13C0004F4FE74B6
:1007B0002044FFF7F1FC20F07040C0E70120BEE7C5
:1007C000B1F5001FF8B506460D4601D30220F8BD6D
:1007D000CA06FBD1826804683161CAB96379022B09
:1007E00001D9236B9BB9A389B3EB551FEED9236BBA
:1007F000B361B3697261002BE8D003EB55233C343D
:10080000C5F308052C44B361F4610020DFE71A4604
:10081000E7897F02BD42114604D22046FFF7CCFC97
:10082000B061E6E73068FFF771FF431C024606D06F
:100830000128CBD9236A8342C8D9ED1BEAE70120FE
:10084000C5E72DE9F041804605680F4649B96E6954
:10085000C6B12B6AB34298BF0126AB69A3B9002485
:1008600006E02846FFF752FF0128044603D801247A
:100870002046BDE8F081421C51D02B6A8342F7D854
:100880003E46EAE70126E8E7BE4215D12B6AD8F8D2
:100890000000741CA34298BF02242146FFF736FFD4
:1008A0000128E4D0431C3AD0D8B16B69012B03D99D
:1008B0002A6A934238BF1E4634462B6A0134A3424B
:1008C00002D8012ECBD902242146D8F80000FFF728
:1008D0001DFF40B10128CAD0013020D0B442ECD174
:1008E000BDE7002CE8D04FF0FF3221462846FFF745
:1008F00091FE90B957B92A6AAB696C61023A93428A
:1009000010D92B7A43F001032B72B1E72246394606
:100910002846FFF77FFE0028EDD00128A7D14FF031
:10092000FF34A5E7013BAB61EBE7F8B50D46012DC0
:100930000746114604682BD9236AAB4228D92AB14D
:100940004FF0FF322046FFF765FE30B92946386880
:10095000FFF7DCFE064608B90020F8BD012817D0D5
:10096000431C17D0002229462046FFF753FE0028DB
:10097000F3D1226AA369911E8B4205D20133A36190
:10098000237A43F001032372B2423546DED8E3E70F
:100990000220E2E70120E0E7F8B505460E46FFF742
:1009A00072FC0446F8B931462846FFF705FC05F10C
:1009B0003C060746A8634FF40072214630463EF0DD
:1009C000A7FCEB899C4204D3E889001B18BF0120D7
:1009D000F8BD01233A193146286801F0F8FE0028D5
:1009E000F2D10134EDE70120F2E72DE9F843076980
:1009F00005682037B7F5001F24BF00238361836992
:100A00000446894673B1C7F30808B8F1000F39D11D
:100A100041690133836139B9AB89B3EB571F31D8D1
:100A20000023A36104200BE0EB89013B13EA572369
:100A300028D12846FFF76AFE0128064602D8022080
:100A4000BDE8F883421C01D10120F9E72B6A8342FB
:100A500012D8B9F1000FE3D061692046FFF7F1FE2B
:100A60000646A8B10128EAD0431CEDD0014628462D
:100A7000FFF792FF0028E7D1666131462846FFF76D
:100A80009BFBA0613C3545442761E5610020D7E729
:100A90000720D5E7F8B50F46002104460668FFF7A2
:100AA0008FFEA8B90546A1693046FFF70EFC78B95C
:100AB000E3691B78E52B00D01BB90135BD4201D19C
:100AC000F8BD054601212046FFF78FFF0028EAD038
:100AD000042808BF0720F3E72DE9F84FFF25066833
:100AE00081460F462C464FF0040A4FF6FF78D9F89E
:100AF000181019B9BAF1000F78D067E03046FFF747
:100B0000E4FB8246002861D1D9F81C000378002B51
:100B100076D0C27AE52B02F03F0289F806205BD03E
:100B20002E2B59D022F02001A1F1080CDCF100019C
:100B300041EB0C01B9424FD10F2A52D1590649D588
:100B4000D9F81020457BC9F82C2003F0BF03427B65
:100B5000AA4241D1C17E827E42EA012212B2002A1B
:100B60003AD10178D6F810C0DFF89CA021F04001FE
:100B700001390D2461434FF0010E1AF8014B00EBCF
:100B8000040B045D9BF801B044EA0B24BEF1000F96
:100B900024D0FF2920D82CF81140A646013101327B
:100BA0000D2AEAD10278520607D5BEF1000F04D013
:100BB000FF2911D800222CF811205C1EE4B200217C
:100BC0004846FFF712FF8246002890D00023C9F85C
:100BD00018300DE09C42BAD0FF24F0E74445DED047
:100BE000FAE744B9FFF7F3FAA84204D14FF0000A3C
:100BF0005046BDE8F88F4FF0FF33C9F82C30F7E7C7
:100C00004FF0040AE2E700BFC48B0608C16A4B1C20
:100C10002DE9F04104460568066918D1E5274FF033
:100C20000108A1692846FFF750FB60B9E3691F700E
:100C300085F807802369B3420DD201462046FFF7AD
:100C4000D4FE0028EDD0042808BF022003E0FFF7FF
:100C5000B7FD0028E2D0BDE8F08100002DE9F04F9B
:100C6000002185B00446D0F80080FFF7A9FD814639
:100C7000002840F08B804FF0FF334FF0FF0AE36213
:100C800057460093A1694046FFF71FFB81460028A5
:100C90007CD1E5692E78002E7CD0EA7AE52E02F030
:100CA0003F03A37103D0120704D50F2B04D0009B80
:100CB000E36252E00F2B57D194F82B30580642D400
:100CC000710648D5236995F80DA0E36206F0BF06CA
:100CD0006B7B534541D1EA7EAB7E53EA02233CD184
:100CE0002F78D8F810B007F03F077B1E0D275F4321
:100CF0002A4B012113F8012BA81815F8029040780F
:100D000049EA002959B3FF2F039326D8484652F0E9
:100D100073FC7A1C02903BF81700019252F06CFCB5
:100D20000299814219D1019A039B494617461C4AF0
:100D30009A42DFD12B785A0603D511B13BF8173010
:100D40005BB9013EF7B200212046FFF74EFE814617
:100D5000002897D01AE0B742BAD0FF27F3E74FF642
:100D6000FF729145E3D0F8E727B92846FFF72FFA3D
:100D700050450BD094F82B30DB0798D40B2204F1AC
:100D8000200128463EF0EAFA002890D1484605B0F6
:100D9000BDE8F08F4FF00409F8E700BFC48B0608E8
:100DA000D18B06082DE9F04F90F82BB01BF0A00472
:100DB00089B0054640F0E38007683A6932F814309C
:100DC000002B6CD105F1200696E807000DF1140AFE
:100DD0001BF0010F8AE8070000F0D880402385F857
:100DE0002B304FF001089AE80700B4463B69ACE8A5
:100DF00003002CF8022BB8F1050F4FEA12428CF8D1
:100E0000002060D9981E424630F8021F002948D1C0
:100E10000DF1130C072102F00F0E0EF130003928EE
:100E200088BF0EF137000F2A0CF8010901F1FF31DC
:100E30004FEA121049D808AB5A187E2002F8140C59
:100E400005F11F00844600228A4206D01CF801EFFB
:100E5000BEF1200F02F1010939D107299CBF08AB6F
:100E600003EB010C02F1010296BF1CF814CC4FF009
:100E7000200C0131072A00F802C0EED92846FFF7FE
:100E8000EDFE814600287DD108F10108B8F1640F1C
:100E9000A9D14FF00709484609B0BDE8F08F0134E9
:100EA0008CE74FF0100C01F0010E0EEB4202D30361
:100EB00044BF82F4883282F02102BCF1010C4FEA77
:100EC0005101F0D1A0E74246A2E70246A3E74A4615
:100ED000BAE729692846A1EB4411FFF771FC814666
:100EE0000028D8D13046FFF772F94FF6FF7801900D
:100EF000A9693846FFF7E9F981460028CBD1EB69AB
:100F0000019AD7F810E05A73E1B24FF00F024FF098
:100F10000D0CDA72DFF8D8A018734A1E0CFB02F22F
:100F20009876D876844640451AF8019B18BF3EF85B
:100F3000120003F8090003EB090B0CF1010C18BFB8
:100F400001324FEA1029002808BF4046BCF10D0FBE
:100F50008BF80190E7D1404502D03EF812200AB943
:100F600041F0400119700123FB7100212846FFF771
:100F70003CFD814600288ED1013CB9D11AE04FF0EA
:100F8000060988E7042886D185F82BB01BF0020FEC
:100F90001BBF0C340D230124B4FBF3F418BF013440
:100FA00021462846FFF776FD814600287FF473AF7F
:100FB000013C8ED1A9693846FFF787F981460028A0
:100FC0007FF469AF01462022E8693EF0A1F903CE23
:100FD000EB6918605960B278318819819A7295F876
:100FE0002B30EA6903F0180313730123FB7152E7F6
:100FF000C48B0608F8B50446FFF745F905460028F6
:1010000042D16379032B37D1277A012F34D104F1F0
:101010003C0601464FF4007230463EF079F9552304
:1010200084F83A32AA2384F83B32522341227221B7
:1010300084F83C3084F83D30612384F83E3084F8F5
:101040003F2084F8222284F8233284F8201284F886
:10105000211204F50970A169FFF7A6F8616904F58A
:101060000A70FFF7A1F8A26A20680132A2633B462A
:10107000314601F0ACFB257200221146206801F0D8
:10108000BBFB003018BF0120F8BD2DE9F04700265A
:10109000D0F800A08E75836980460C46002B00F0C6
:1010A0009280C36A01336DD1D8F81C1000234D1E05
:1010B00018462E2615F8012F202A00F101000CD029
:1010C000052A08BFE522092804D10B2B9EBFE7188B
:1010D00001337E72E71801337A720B28EAD1E218E5
:1010E00000205072A27D002A5CD1002B51D06FF0FD
:1010F000080604F109000825361B321810F8013BD8
:10110000002B49D09BB22E2B5FD0A3F14102192AAC
:1011100003D80A7B154200D020330373EDE7B9F101
:10112000000F05D100F520539BB2B3F5006F12D329
:1011300040F2B51140EA094052F02AFAFF28C7F1FF
:10114000FF0518D9012D20D9E319020A9A75D8751F
:1011500002231F44002002368146DAF81030985BE3
:101160000028DCD13D46B9F1000F18BF0025254409
:101170000023AB7598E750B1002DF4D0E3199875B2
:101180000123E6E7B1463746E7E70025EBE70546EA
:10119000E9E73F23A37501222244002393750B7BCB
:1011A00003B96372CB7A237201F11C00FEF7F4FFDE
:1011B0002060CA7D8B7D43EA0223E3804A7E0B7E5A
:1011C00043EA0223A380BDE8F0871025A5E70000CD
:1011D0002DE9F04F0B78D0F800B02F2B87B00646E2
:1011E000884601D05C2B0AD1424613782F2B9046BB
:1011F00002F10102F9D05C2BF7D0002301E0DBF80B
:101200001C30B36098F800301F2B00F22D81802332
:1012100086F82B3000213046FFF7D2FA07B0BDE840
:10122000F08FFE2D00F249812AF81530013521E1B9
:1012300008F101020592DDF8148098F800202F2AA9
:10124000F6D05C2AF4D0202B34BF04240024012DD6
:101250002CD1BAF800302E2B2ED100232AF81530CD
:1012600006F120029D428CBF2E21202101330B2B41
:1012700002F8011BF6D144F0200486F82B403046DA
:10128000FFF7ECFC96F82B30002800F0DC800428F7
:10129000C4D1990603F0040240F1D180002A00F085
:1012A000E380802386F82B300020B7E7022D03D19E
:1012B000BAF802302E2BCCD00AEB450385BB0021B7
:1012C0000AEB45032AF81510002D00F0F6803AF8D5
:1012D0001120202A01F101002AD009B92E2A01D1BA
:1012E00044F0030433F8022D2E2A01D0013DF9D138
:1012F0004FF020324FF0000972623262C6F82720A8
:1013000008234F463AF811004A1CF8B1202803D0B0
:101310002E280FD1954211D044F003041146F1E775
:1013200033F8022D202A01D02E2AC8D1013DC5E76D
:101330000146CCE7994504D2954229D10B2B20D107
:1013400001E00B2B18D144F003040B2396F8202066
:10135000E52A04BF052286F82020082B04BFBF0021
:10136000FFB207F00C030C2B03D007F00303032B91
:1013700059D144F0020480E7954202D044F00304BE
:10138000E4D3BF00FFB22A460B234FF00809C5E79C
:101390007F2813D9CDE9022340F2B51144F00203AE
:1013A000019352F0F5F810F0800FDDE9022310D020
:1013B00000F07F004349085C019C30B1DFF80CC1AC
:1013C0001CF8011BE9B18142FAD144F003045F200B
:1013D00010E0FF28F0D9591E894503D344F00304D7
:1013E00099469BE706EB0901040A81F82040019C1D
:1013F00009F1010906EB090109F1010981F8200051
:101400008CE7A0F1410189B2192902D847F00207FF
:10141000F0E7A0F1610189B219299EBF203847F099
:10142000010780B2E6E7A3073FF527AFFD0748BFF6
:1014300044F01004780748BF44F008041DE7002A70
:1014400008BF0520EAE65A073FF5E8AEB379DB06A8
:1014500035D533699BF80500C3F308030BF13C0154
:101460001944FEF7F6FEB0603368CDF81480D3F867
:1014700010A0002505A8FEF7DCFE421C1DD0B0F52B
:10148000803F24BF030C2AF8153083B228BF0135F2
:101490001F2B7FF6D0AE2F2B3FF4CDAE5C2B3FF44D
:1014A000CAAE7F2B3FF6BDAE0749184611F8012B97
:1014B000002A3FF4B6AE8242F8D10620AEE60520FF
:1014C000ACE600BF448B06083E8C0608478C060835
:1014D00000214171FEF74CBF2DE9F04305468DB068
:1014E00090461E460C46002900F0BE8003F03F07E0
:1014F0003946FEF73DFF002840F0AE804146684681
:101500000095FFF765FE024620B99DF92B30002BB0
:10151000B8BF062216F01C0F6DD0002A3ED0042A58
:1015200039D16846FFF73EFC0246A0BB47F00807EA
:10153000DDF81C902E46494616F8050FFEF789FE89
:1015400080464AF0B9FC014609F10E00FEF72CFE78
:10155000079B2022DA72079900223046FEF787FEA9
:10156000079B00221A775A779A77DA770123EB7173
:10157000B8F1000F1BD041466846AE6BFFF7D5F9B6
:10158000024640B931462846FEF79FFE08F1FF317A
:101590006961024658B10023236028E09DF80630B7
:1015A00013F0110F31D1700758D43107C0D4AB6B91
:1015B000079E2362666268793907314648BF47F063
:1015C0004007FEF746FE0146A06006F11C00FEF74C
:1015D000E3FD6B89A380BA064FF000030646E06086
:1015E000256027746374E361636110D400221046A0
:1015F0000DB0BDE8F083002ACDD19DF80630DA06A3
:101600002ED4B607D3D5D807D1D50722C3E70028F3
:10161000ECD0EF8960617F02B7420FD30022A16155
:10162000002AB8D1C6F30803002BDFD02846FEF706
:10163000C3FDB8B100EB5620E061D8E72068FFF7A2
:1016400065F801280146A6EB070603D9431CE3D140
:101650000122E4E70222E2E702469CE708229AE739
:10166000042298E7022296E70922C0E72DE9F04F0D
:10167000994685B000238846C9F8003003A904467E
:101680001546FEF7B3FD0646E0B9667CD6B9237C65
:10169000DA077BD5E3686769DF1BAF4228BF2F46B7
:1016A00087B16269C2F30803002B56D1039BDB8923
:1016B000013B13EA522A13D142B9A06801280AD883
:1016C00002266674304605B0BDE8F08FA169206837
:1016D000FFF71CF8F2E7431C01D10126F1E7A061F6
:1016E000DDF80CB0A1695846FEF766FD0028E7D08A
:1016F0000AEB0003B7F5007F01932CD37D0ABBF8FA
:101700000E20DBF800000AEB0501914288BFA2EB36
:101710000A052B46019A414601F04AF80028DCD11F
:101720000399CB795BB1886B019BC01AA84206D2A2
:101730004FF400723C3108EB40203DF0A5FD6D02F6
:10174000D9F800302B44C9F8003063697F1BA844E6
:101750001D446561A4E7019BE3616569E169039844
:10176000C5F30805C5F50075BD4228BF3D46FEF727
:10177000ACFD0028B1D1039963693C31C3F3080380
:101780002A46194440463DF07FFDD9E7072699E7F0
:101790002DE9F04F9B4685B000238946CBF80030F9
:1017A00003A904461746FEF721FD064618BB667CD2
:1017B0000EBB237C9A0740F1AA806369FB4200D3E9
:1017C000DF43A7B16369C3F30802002A40F08280B7
:1017D000039AD289013A12EA532201921ED173B9B7
:1017E000A06870B901462046FFF72BF848B9237C62
:1017F00043F040032374304605B0BDE8F08FA16983
:10180000F1E7012802D102266674F4E7431C01D1F6
:101810000126F9E7A368A06103B9A0600398E36912
:10182000826B9A4203D1FEF72EFD0028F0D1DDF83D
:101830000CA0A1695046FEF7BFFC0028E3D0019B35
:10184000B7F5007F03EB000836D3019ABAF80E30E3
:10185000DAF800007D0A2A449A4284BF019A9D1A50
:101860002B464246494600F0B2FF0028D0D1DDF8B1
:101870000CA0DAF83810A1EB0801A9420BD20190B4
:101880004FF4007209EB41210AF13C003DF0FCFCF1
:10189000019B8AF807306D02DBF800302B44CBF84F
:1018A000003063697F1BA9441D44E3686561AB4256
:1018B0002CBFE360E56084E76269E3689A4207D37E
:1018C0005046FEF7E0FC0028A2D1039BC3F8388005
:1018D000C4F81C806569E1690398C5F30805C5F57E
:1018E0000075BD4228BF3D46FEF7EFFC00288FD1B2
:1018F000039863693C30C3F308032A4618444946F9
:101900003DF0C2FC039B4FF00102DA71C4E70726E9
:1019100071E7F7B501A90446FEF768FC054660BB10
:10192000237C5B0629D54AF0C7FA216A074601984D
:10193000FEF7CBFC054600BB666AF37A43F0200352
:10194000F3722068A26831460530FEF790FCE1682A
:1019500006F11C00FEF728FC394606F11600FEF7DA
:1019600023FC0198B5740123F574C371FFF742FBA2
:10197000237C23F0400305462374284603B0F0BDC2
:1019800013B50446FFF7C5FF28B901A92046FEF7A5
:101990002DFC00B9206002B010BD70B50E468CB0B1
:1019A00000210546FEF7E4FC044660B9314668466E
:1019B0000095FFF70DFC044690B99DF92B30002BE4
:1019C00004DA029BEB6120460CB070BD9DF8063036
:1019D000DB0609D507996879FEF73BFCE861F2E779
:1019E000042808BF0524EEE70524ECE72DE9F047BD
:1019F0000D460021D2B0297080469146FEF7B8FC12
:101A00000446C8B9D8F81C30CDF8008002934E4681
:101A1000DDF808A0BAF1000F14D14E4502BF06F15F
:101A2000FF362F23AB55711B2B469A5D1A7001357B
:101A30006A1891452B46F8D8002320462B7052B0E7
:101A4000BDE8F08720216846FEF7BAFE00284CD199
:101A500006994046FEF739FC0746002843D107990E
:101A600098F80500FEF7F5FB394602906846FEF748
:101A7000A7FE002839D100216846FFF72DF8074658
:101A8000B8BB079998F80500FEF7E3FB50450AD06C
:101A900039466846FEF7A9FF0028ECD00446042C1E
:101AA00008BF0224C8E70CA96846FFF7EEFA0DF15B
:101AB0004602394612F8010B4B1C58B9B34216D8EE
:101AC000AA190B4643B9731ECA43591A2F236B54E4
:101AD00016449DE71946EDE7013B0CA81844807DAC
:101AE00002F8010DEEE70446A6E70446A4E7112438
:101AF000A2E70446D3E7F7B50D4601A90446FEF771
:101B000075FB0646002850D1667C002E4DD1E36857
:101B1000AB4204D2227C12F0020F08BF1D46002205
:101B2000636962619DB90025E2686369934282BF7F
:101B3000227CE36042F04002C3F3080388BF2274B2
:101B4000002B32D0E369AB4218BFE5612DE0019A6A
:101B5000D7897F02FBB1013B6A1EB3FBF7F1B2FBF1
:101B6000F7F28A4217D37A421340A1696361ED1AF2
:101B70000029D8D0BD42636921D863692B446361D1
:101B8000C5F30803002BCED00198FEF715FB50B12A
:101B900000EB5525C8E7A16879B92046FEF751FE4C
:101BA0000128014604D102266674304603B0F0BD18
:101BB000013001D10126F7E7A160A161D8E73B44DC
:101BC0006361237C9A07A5EB070506D52046FEF73F
:101BD00038FE014628B90546CFE72068FEF796FD96
:101BE00001464B1CE6D00129DDD9019B1B6A8B42C3
:101BF000D9D9A161BEE770B5054616460C4621B39A
:101C00000021FEF7B5FB68B9256031462046FFF795
:101C1000DFFAE0B994F92B30002B0BDBA379DB065C
:101C200003D40520002323600EE06879E169FEF704
:101C300010FBA0606B89A38000212046FEF7C0FD49
:101C40000428EED00028EDD170BD0920FCE704285F
:101C5000E7D0E7E713B501A90446FEF7C7FA00B9D4
:101C6000206002B010BD73B50D4601A90446FEF711
:101C7000BDFA20B9014620461DB9FEF7A1FD02B00C
:101C800070BDFEF729FF10F0FB06F8D1294620466B
:101C9000FFF7FBF931462046FEF7A7FE042808BFF0
:101CA0000020ECE770B50E468CB0002104461546C6
:101CB000FEF75EFB0094044670B931466846FFF7B4
:101CC00087FA044640B99DF92B30002B07DB1DB184
:101CD00029466846FFF7D9F920460CB070BD0624A6
:101CE000FAE72DE9F84F884600210446FEF740FB4D
:101CF000074640B9D4F820A0A369AAF10202934292
:101D000004D8C8F800303846BDE8F88F6379012B55
:101D100017D10226054631462046FEF7F7FC431C44
:101D200037D0012837D000B90135236A0136B342D4
:101D3000F1D8C8F80050237AA56143F0010323725B
:101D4000E1E7E16A0646054604F13C0936B920465A
:101D500001F1010BFEF7B9FAF8B959466379022B84
:101D600009EB06000DD119F80630427853EA022338
:101D700008BF01350236BAF1010AC6F30806E5D1FB
:101D8000D7E7FEF709FA30F0704308BF0135043693
:101D9000F1E70127CDE70227CBE70746C9E7F0B512
:101DA0000E4699B002210546FEF7E2FA044688B9CC
:101DB000314668460095FFF70BFA044650B99DF886
:101DC0002B3098063BD4190639D49DF80670FA07D3
:101DD00003D50724204619B0F0BD07996879FEF7AE
:101DE00038FAFB0606460BD46846FEF70FFF04469A
:101DF0000028EFD1D6B92846FFF7FCF80446E9E7FA
:101E0000EB698342E5D00E9021460CA80C95FEF7B5
:101E1000D7FC04460028DDD101460CA8FEF75CFE85
:101E200004460028D5D00428D4D1DDE70246314647
:101E30006846FEF77AFD04460028CBD1DBE706248E
:101E4000C8E72DE9F0430E4691B002210546FEF7A2
:101E50008FFA044600286BD1314604A80495FFF799
:101E6000B7F90446002871D0042861D19DF83B10D1
:101E700011F020016CD168460095FEF7E2FC0646A1
:101E8000002859D0012859D0431C5C425C414AF0DB
:101E900013F88046002C53D131462846FEF77CFDCE
:101EA000044600284CD14FF02033EB632B64C5F877
:101EB00043302E2385F83C30102385F847304146C7
:101EC00005F1520005F13C046F1DFEF76DF9324635
:101ED00021463846FEF7CBF905F15C031A4651F866
:101EE000040B42F8040B9942F9D12E2385F85D309A
:101EF000069A38464FF00109FEF7B9F985F80790C0
:101F000004A8FEF74FFF0446D0B90B98414616309F
:101F1000FEF74AF932460B993846FEF7A8F90B9BB3
:101F20001022DA72284685F80790FFF763F8044616
:101F3000204611B0BDE8F0830724A8E70224A6E7F5
:101F4000002231466846FEF7F0FCF1E70824EFE78F
:101F50000624EDE7F0B50C46A1B00221064617466F
:101F6000FEF706FA002877D1214608A80896FFF761
:101F70002FF9002870D19DF84B3013F0A00F6DD1D0
:101F80000F9B6C4603F1200518685968224603C26E
:101F90000833AB421446F7D108AD0FCD14AC0FC4D3
:101FA0000FCD0FC495E80F0084E80F00394614A840
:101FB000FFF70EF948B9169A0A9B9A4203D1189A6C
:101FC0000C9B9A4203D0082046E0042844D114A870
:101FD000FEF7E8FE00283FD11B990DF10D0301F13A
:101FE0000D020DF11D0053F8044B42F8044B8342DF
:101FF000F9D1188810809B7893709DF80B30DA0621
:1020000058BF43F020030124CB72F471CB7ADB0676
:102010001BD50A9A169B9A4217D07079FEF719F9C8
:1020200001463046FEF7C8F80146C8B13046FEF713
:102030004CF988B996F85D302E2B06D1169A06F128
:102040005C01701DFEF713F9F47108A8FEF7DEFDC0
:1020500010B93046FEF7CEFF21B0F0BD0620FBE7F9
:102060000220F9E7F0B595B0074601910221FEF78D
:102070007FF90546002833D102AE4FF0203302939A
:1020800004467360C6F80730019B1B781F2B20D8CD
:102090009DF80830E52B22D01CB1631EF25C202A8B
:1020A00035D0002108A808970A91FEF789FB05465C
:1020B000B0B9012108A8FEF70FFD98BB0F9A44B3F1
:1020C000334603CB1060516019889B78937211815D
:1020D00021E001A8FEF7ADF8B0F5803F03D3062557
:1020E000284615B0F0BD51F087FA40F2B51151F015
:1020F0004FFA0028F3D01D4A12F8013B13B1984261
:10210000FAD1ECE7FF2822D80A2C28D9E7E71C46A9
:10211000C2E7E52313700123FB713846FEF76AFF1F
:102120000546DDE70428FBD1002CD9D0012108A801
:10213000FEF7B0FC05460028D2D1202201460F98B8
:102140003DF0E6F80F9B0822DA720F9AB8E7092CE7
:10215000C5D814AB2344020A03F8482C013414AB4D
:102160002344013403F8480C8EE700BFD18B0608E6
:102170002DE9F04F07688BB01C4600234371039193
:1021800003790293154605210DF11F02384600F030
:1021900033FB9DF81F30DA0700F192825E0700F1F1
:1021A000918208AA0321384600F026FB30B9089A2C
:1021B000531EB3F5004F01D21A4201D001230893F8
:1021C0005DB15F4BA5F500729A4203D913200BB0A5
:1021D000BDE8F08F6B1E2B42F8D1002C00F074820A
:1021E000149BB3F5007FC0F06F82029B002B63D07D
:1021F000012300222146384600F0DAFA08B1012016
:10220000E5E794F8FF2194F8FE3143EA02234AF609
:102210005522934201D00E20D9E7029B04EB031113
:1022200001F5D7710B79002BF5D001F10800FDF70E
:10223000B3FF814601F10C00FDF7AEFF0990DDF818
:1022400024A0BAF1150FE6D9B5F5813FBED2039BA4
:1022500013F0020E4FEA552244D003F00701022981
:1022600000F04082D80740F13D82002A59D135481C
:102270004FEA1A35012630F8021B09B1A94239D9B3
:1022800040F6F571BAFBF6F58D429BBF05EB4505AF
:10229000013502356D088CBF6D00033505F2FF1561
:1022A0004FF020018CBF4FF002084FF001086D0A7B
:1022B0004FF0010B059139E209AA0121384600F0DF
:1022C0009BFA00289BD1039B13F0080F099B14BFB6
:1022D0004FF000094FF03F094B459CD3A3EB090396
:1022E0000993ACE70399C907BFD46FE7520000E236
:1022F000114605E27600BEE7B8F1020F24D1049B37
:102300004FF6F5718B420ED9002A40F0E78172003A
:10231000402AAAD9BEF1000F40F0E781802A3FF69B
:102320007AAF1646ACE7049B40F6F5718B4213D8A2
:10233000002A7FF470AF7200802A96D96BE700BF45
:1023400000FEFF00EE8B0608049A40F6F5739A42F1
:102350003FF661AF4FF001084FF4007200212046B4
:102360003CF0D6FFD94B84F80EB01A6822605A6848
:1023700062601A899B7A2281B8F1030F4FF0020242
:10238000A3724FF00003E3722273CBF3072B4FF0DD
:102390000102637418BF0223BAF5803F667384F8A4
:1023A0000FB02274A37480F0228184F813A0CAF3C2
:1023B000072A84F814A0F82363753F2323764FF08F
:1023C000000AFF2384F819A0A37684F81BA04946CD
:1023D00004F11C00FDF7E8FEB8F1030F40F00D8199
:1023E00049F06AFD014604F14300FDF7DDFE294690
:1023F00004F12400FDF7D8FE022384F82C300123D9
:1024000084F83030062384F83230802384F840305A
:10241000292384F84230AE4B84F82DA084F82EA0F6
:1024200084F82FA084F831A084F833A004F1470287
:1024300003F1100153F8040B42F8040B8B42F9D15D
:1024400019889B7893704FF0550B6FF055031180EE
:10245000384684F8FF3184F8FEB101234A4621460C
:1024600000F0B5F9824600287FF4C9AEB8F1030F39
:102470003FD1012309F106022146384600F0A7F9B1
:102480004FF40072514620463CF042FF5223237025
:1024900063706123A37084F8E731049B41227221A9
:1024A000E27084F8E41184F8E51184F8E621591EFD
:1024B00004F5F470FDF778FE022384F8EC316FF038
:1024C000550384F8FF3109F107020123214684F8FE
:1024D000EDA184F8EEA184F8EFA184F8FEB13846AE
:1024E00000F075F9012309EB03022146384600F09C
:1024F0006EF9149B23F4FF7222F0010200212046A2
:102500003CF006FFB8F1030F40F09480F8232370ED
:10251000FF236370A370E37023716371A371E37190
:1025200023726372A3720F23E372149B4FEA532B3F
:102530005D45AA4628BFDA4621465346019A3846E9
:1025400000F045F9014600287FF459AE4FF40072BF
:1025500020463CF0DDFE019BB5EB0A055344019398
:10256000E6D1059BB8F1030F18BF1E465E45354600
:1025700028BF5D462B46019A2146384600F027F9D0
:1025800000287FF43CAE019B761B2B440193EDD1D8
:10259000B8F1030F58D0099BB3F5803F56D2B8F17C
:1025A000020F0CBF04250125029B002B50D00022F6
:1025B00001232146384600F0FBF8024600287FF44C
:1025C0001EAE029B04EB031383F8B2510123214694
:1025D000384600F0FCF800287FF411AE00221146C6
:1025E000384600F009F9003018BF0120EFE55146E8
:1025F00004F12000FDF7D8FDDDE649F05DFC014661
:1026000004F12700FDF7D0FDC5F30723E375802310
:1026100084F82430292384F826302E4BA57504F144
:102620002B0203F1100153F8040B42F8040B8B4208
:10263000F9D105E7B8F1010F2749204618BF6FF01F
:102640000701FDF7B1FD70E70C25ADE70625ABE707
:10265000039B1B07C2D44FF40072029920463CF042
:1026600057FE552384F8FE31099A84F8C251AA23F3
:1026700084F8FF31029B84F8BE3184F8C1314A44AA
:1026800043F6C163B2FBF3F2FE2384F8C33193082F
:1026900043F03F03012684F8C43184F8C52149463C
:1026A00004F5E37084F8BF6184F8C061FDF77CFD38
:1026B000099904F5E570FDF777FD3346029A86E740
:1026C000032084E50A2082E5112080E50A8C0608B3
:1026D000168C06082A8C0608F8FFFF00BEF1000FD2
:1026E0003FF499AD002A7FF403AE2F484FEA5A45D4
:1026F000012230F8021B19B1A9427FF6F7AD002183
:10270000BAFBF2F0294E8500A0F57F40F63805F2BD
:102710000725B0424FEA55253FF67DAD16460A46DD
:10272000002105914FF0200B4FF0030809EB0B013E
:1027300001910599DDF820C06818019908440CF151
:10274000FF31B8F1030F0144CCF1000C08BF019B2D
:1027500001EA0C01A1EB000101BF5B188B44194693
:10276000019118BF6D18C9EB061108448245FFF4AA
:1027700052AD059BAAEB0301A1EB0B01B8F1030FCE
:10278000A1EB0501B1FBF6F304937FF4B5AD4FF671
:10279000F5718B423FF6E0AD002A7FF43CAD012E8F
:1027A0007FF639AD72089DE7FC8B0608FFFFFE0F30
:1027B00010B50C4611461A4638B1234604303CF099
:1027C00047F8003018BF012010BD0420FCE710B509
:1027D0000C4611461A4650B1234604303CF05CF8D2
:1027E00010F11E0F05D0003018BF012010BD0420CD
:1027F000FCE70220FAE7000070B50D4614460646D5
:10280000002836D001F00703244AD15C002932D0D9
:10281000002204303CF06AF8062D2AD8DFE805F0E3
:1028200008050A17291B1B001D482AF0D5FC20604B
:10283000002070BD1A4B984205D14FF400732380DD
:102840002388B360F4E72AF0C7FC2080F8E701236F
:102850002360EDE71248124B984201D0430806D19D
:10286000336A002B0CBF042300232370E0E701230D
:10287000FBE70420DDE7062DFBD801A353F825F084
:1028800031280008292800083B2800084F280008A4
:1028900073280008552800085528000848F6050840
:1028A000F4B60508086832F0FBBF000037B51D46D6
:1028B000043001AB1446FEF76BFF38B1064B1B5CCE
:1028C0002B604FF0FF34204603B030BD019BA34284
:1028D000F9D01C23F4E700BF88F6050813B51C46A1
:1028E000043001ABFEF7C2FE30B1044B1B5C236029
:1028F0004FF0FF3002B010BD0198FBE788F60508E5
:102900002DE9F8438146506890460F4630F05CFB55
:10291000254A0138002410F8013FD3B92C201DF0BE
:10292000CFFB0646054646F8047BD8F8000030F099
:102930004BFBE3B20246314609F14400FEF7CCFD01
:10294000074640B328461DF0D5FB184BD85D29F04B
:1029500061FE722B11D008D8612B17D0622B18D0D2
:102960002B2BD8D144F00304D5E7772B08D0782B54
:1029700009D0742B08BF1746CDE744F00104CAE71D
:1029800044F00A04C7E744F00604C4E744F0120424
:10299000C1E7074FBFE7E30603D529693046FFF7D4
:1029A000AAF82846BDE8F883D8F6050888F6050891
:1029B0009CF6050830B587B0054603AC08461146BD
:1029C0001A46064B0093019403232AF0A3F82246EB
:1029D00029460020FFF794FF07B030BD70F60508C8
:1029E0001FB5054B0393CDE9011201AA0349FFF777
:1029F00087FF05B05DF804FBF4B60508D8F60508B6
:102A000070B5054608460C462AF004FB23460246EC
:102A100002492846BDE8704000F080BF64F6050812
:102A2000022970B5044615461E4613D15368012B82
:102A30000AD0022B0CD01BB91168201DFFF75BF8E0
:102A4000A3692B60002070BD81692B681944F4E7ED
:102A50000169FAE701290AD10430FEF75AFF00287C
:102A6000F0D0084B1B5C33604FF0FF30EBE70429DC
:102A700006D14368002BE5D00430FEF781FFEEE776
:102A80001623F0E788F605082DE9F74F062901908F
:102A90009DF8305012D8012907D93F2300F8013B97
:102AA0000190019A0023137001E00029F9D1012956
:102AB00094BF0020012003B0BDE8F08F10EE104A53
:102AC000002C019C25DAB4EE400AF1EE10FA20D673
:102AD0002D2504F8015BB1EE400A9FEDC27AF0EEBD
:102AE000C07AF4EE477A02F0200EF1EE10FA5FFAA7
:102AF0008EF513DD85F04903237085F04E0385F0D4
:102B000046056370E11CA57000230B70019BC81A79
:102B1000D1E7002DE1D004F8015BDEE7B4EE400A16
:102B2000F1EE10FA08D745F04E0385F04105237009
:102B30006570E11CA370E7E7002B42F02002B8BFEC
:102B40000623672A02D1002B08BF01230198251A0A
:102B500010EE100A491B051E01F1FF3C48D1662A00
:102B600038D15D1C6545A8BFCB1E00275D1C6621C2
:102B7000BC463E4623EAE373652940F029815D1C8B
:102B80004FF000084FF02E0BB2EE047A454540F3AB
:102B90008180FDEEC07A04F1010A17EE900A002848
:102BA000A6BF00F130095FFA89F94FF03009E0451E
:102BB00084F8009004D11BB104F1020A84F801B03A
:102BC000F8EEE77A08F1010830EE670A544620EE85
:102BD000070ADBE75D1D6545A8BFCB1F652A1146C7
:102BE0004FF0000540F0EA802B27AC462E46C1E7A7
:102BF000B5F17E5F80F08E80DFED7B7ADFF8F081CB
:102C0000DFF8F0A1B4EEE70AF1EE10FA4FF000059C
:102C1000ACBF4FF031094FF0300920272E46B8ECF9
:102C2000017AB4EEC07AF1EE10FAC4BF0AEB050BDC
:102C30009BED007A05F10405C4BFF61920EE070AE2
:102C4000182D4FEA6707EAD110EE100AB0F17E5F47
:102C500044D2B4EEE70AF1EE10FA3ADB002E14BFCC
:102C60002D272B27B7EE000A662A03D0672A47D103
:102C7000042E45DC672A04BF06F1FF355B195D1C95
:102C80006545A8BFCB1E84F800904BBB01341D46A0
:102C900066211F46662A40F0AF80AE4240F30681AF
:102CA00097B10A2196FBF1F393FBF1F201FB136656
:102CB00001FB12324EF0450E3032303684F800E01F
:102CC0006770A270E670043400232370019BE01A41
:102CD000F1E6F2EE047A20EE270A01362D27C3E74B
:102CE0002E2161701D4602343021013E68D01DB98D
:102CF0002F464FF0FF3C46E004F8011B013DF4E78E
:102D00008D1F9D4260DC672A5CD0CB1F11460025D9
:102D1000AC462FE70025DFF8DC80DFF8D4902027D1
:102D20002E46F8EC017AF4EEC07AF1EE10FA9CBF70
:102D300009EB050ADAED007A05F104059CBFF619E6
:102D400020EE270A182D4FEA6707EAD1FDEEC07A78
:102D500017EE905A092DC2BFDFED247A013620EE1E
:102D6000270A662A11D1664512DA9919013161459F
:102D700005DBACEB0603023B591C08BF0023F5182A
:102D80000135B44600276621F4E6652A40F09680B6
:102D90008D1F9D4200DCCB1F00252B27AC466521F3
:102DA000E8E61D1D654500DB8B1F9E4203DB6721A6
:102DB00000252B27ACE7711C5B1AE0E72F4614E7D0
:102DC000374696E72B46A1E700251146AC46D3E6E9
:102DD00067297FF4D5AE13B901252B46D0E61D46F1
:102DE000CEE600BFFFFF7F7FF8FF7F3FCDCCCC3D1D
:102DF0008C970508A4970508F1EE047AB4EEE70A6B
:102E0000F1EE10FA2BDB04F1FF3C4FF030099CF897
:102E100000502E2DE0460CF1FF3CF8D0A5F1300A11
:102E2000BAF1090F2CD908F1010898F80050302D9B
:102E300015D198F801C0BCF12E0F30D166292ED0E3
:102E40002D2F88F800C088F8015026D1013E08BF18
:102E50002B272146884524D3312188F80010672A82
:102E60007FF41EAF002B3FF41BAF23461C46013BF3
:102E700014F8012C302AF9D02E2A08BF1C460FE77F
:102E8000392D03D0013588F80050CEE701988CF831
:102E900001904045BBD18046C7E70136D9E70134F0
:102EA000D7E711F8015C01F80159D3E7F1EE047A94
:102EB000B4EEE70AF1EE10FAA5DAF1E6672A3FF47C
:102EC00070AF114674E700BF08B5044631B1054B39
:102ED00003608A6B096800232CF03EF920461DF040
:102EE000BBF800BF4CAB05082DE9FF471F46019218
:102EF000461812B1023A222A34D80546B5422C4669
:102F000039D215F8010B1EF0A7F980460028F5D13B
:102F100023782B2B29D12C46311B204601AA27F0E0
:102F200092FE2518A9460024B1454B4626D3B8F198
:102F3000000F00D06442640044F00104AB4209D0A9
:102F40001D46B5422B4641D2187801351EF084F952
:102F50000028F6D12049019A20482CF063F8394620
:102F6000FFF7B2FF1E4829F07DF92D2B04BF2C4638
:102F70004FF00108D0E74FF00008CDE719F8012B1A
:102F8000A2F1300ABAF1090F09D95F2ACCD042F078
:102F90002002A2F161011929C9D8A2F1570A0199A9
:102FA0005145C4D9204636F0F7FC28B9019B03FBF4
:102FB00004A494EA4403B7D5019B03954246711BD0
:102FC00003A82DF0B1FA039B0446B7E7C2D120460F
:102FD00004B0BDE8F08700BFF99705083CAC0508D0
:102FE000D69705082DE9F04F2DED028B83B0914661
:102FF00000930E9B019346180446B442254680F088
:10300000318128781EF028F9013407460028F4D1D0
:103010002B782B2B09D125468246B4420CD30023B2
:10302000DFED938A1F46194682E02D2B03D12546FA
:103030004FF0010AF1E782462B7843F02003692B19
:1030400032D1AB1C9E4240F205816B7843F02003E5
:103050006E2B40F0FF80AB7843F02003662B40F0EE
:10306000F980EB1D9E4205F103041AD9EB7843F079
:103070002003692B15D12B7943F020036E2B10D13F
:103080006B7943F02003692B0BD1AB7943F020031C
:10309000742B06D1EB7943F02003792B01D105F194
:1030A00008049FED748A14E06E2B59D1AB1C9E422C
:1030B00040F2D0806B7843F02003612B40F0CA804F
:1030C000AB7843F020036E2B40F0C4809FED6A8AFA
:1030D000EC1CBAF1000F01D0B1EE488AA54209D02C
:1030E000B442234680F09880187801341EF0B4F87A
:1030F0000028F5D1614962482BF066FF0199FFF77E
:10310000E3FE02202246144614F801EBAEF1300B28
:10311000BBF1090F47D8022831D15A4A914201DC4C
:1031200008FB01B1B442EDD3BCF1000F00D049421D
:103130000B4413F1250FBEBFDFED537A253368EE44
:10314000A78A13F1090F5CD35B4200EE903AB2EE0E
:10315000040AF8EEE00A3DF087F888EE808AB8E7C6
:103160004FF0000C2A46634661466046DFED408A18
:103170009FED467AF2EE046A4FF00A08C3E7F4EED8
:10318000C78AF1EE10FA0BD507EE90BAF8EEE77A9F
:103190000128E8EEA67AF0EE678A2ED1013BC1E75E
:1031A00028B90133BEE720B9BEF12E0F03D10120AB
:1031B000B8E7022814D04EF0200BBBF1650F0FD1F9
:1031C000A64252D950782B2804D1941CB44291D0F5
:1031D0000220A7E72D2894D1941C4FF0010CF5E7AD
:1031E000B9F1000F04D04EF0200BBBF16A0F06D0EE
:1031F000BEF15F0F96D0144696E7002092E74F4647
:1032000092E707EE903AB2EE040AF8EEE70A3DF0D4
:103210002BF828EE808A5CE77FF46CAF57B19FED06
:10322000140AF0EE480A03B0BDEC028BBDE8F04F83
:103230002AF096BF009B23B1DFED0D0AB0EE480ADD
:10324000F1E7B0EE480A03B0BDEC028BBDE8F04FE9
:103250002CF0A2B8BAF1000F3FF44CAF2C469FED12
:10326000048A39E74FF0000AD9E63FF443AF5BE741
:10327000000000000000807F0000C07FBC970508B0
:103280003CAC050864666606EA1C0802EC78AD6092
:103290000846114641F0E6BB70B5054608460E46A5
:1032A0003CF07EF8044620B102466B68286831463F
:1032B0009847204670BD00002DE9F74F01919DF819
:1032C000301091460D9A11F0DF0F0646A2EB09026D
:1032D0003DD030290CA9244F0EBF4FF010080F46E7
:1032E0004FF0010813F0800435D002EBD274641063
:1032F000151B002C36DDA246D045C346A8BFD346D9
:10330000736830685A463946AAEB0B0A9847BAF1F7
:10331000000FF1DCB9F1000F05D073680199306836
:103320004A4698474C44002D0DDD2C44A845C14623
:10333000A8BFA946736830684A463946A5EB090517
:103340009847002DF2DC204603B0BDE8F08F074F10
:103350004FF01008C6E713F0010501D11446C8E785
:103360001546D7E70024D5E79C8405088B8405081B
:103370002DE9F04389B007460020119D9DF8488053
:10338000139E8DF80F0002B3814219DA2D228DF8B9
:103390000F204942109A08ACA2F10A000DF1100E5C
:1033A000B1FBF3FC03FB1C12092A8CBF121830324C
:1033B00004F8012D74450FD08B420DD86146EFE71C
:1033C000A80727D52B228DF80F200029E2D1302322
:1033D0008DF81F300DF11F0415F040099DF80F30D6
:1033E0001CD023B30122CDE900822B460DF10F0141
:1033F0003846FFF761FF013E814608AACDE9008605
:103400002B46121B21463846FFF756FF484409B0A9
:10341000BDE8F0836A07D8D52022D4E7002BECD092
:1034200004AA9442E9D904F8013C013CE5E7994635
:10343000E3E700002DE9F04F93B080461E46C80731
:103440009DF874301C9D06930C469146DDE91E7A6A
:103450000BD4A10703D12268794B9A4205D02046AC
:1034600029F0BAFE400040F0010415F0810306D1B6
:10347000069A302A03D15745B8BF57469A46204688
:103480002CF061FF00280DF1280B18DBAA0712D5DC
:103490002B238DF828300DF12903E806F6B21DD54F
:1034A000B9F1020F0DD11A46302102F8021B711C2E
:1034B0005970134612E06B0701D52023E9E75B46FC
:1034C000EBE7B9F1080F60D1A9054FF030021A708F
:1034D00045BF06F10E025A7001330233002215F087
:1034E000200F1A70A3EB0B0305930EA90CBF134614
:1034F0002C23BAF1010F0B91C8BF45F040051021F4
:10350000CDE90C1215F040018DF827200791CDE987
:10351000026344D0CDE9009223460DAA0CA90BA862
:103520002CF0E0FD03782D2B814606D18DF8273055
:103530000D9B013B00F101090D93BAF1010F3CDD38
:103540000D9C079B5445B8BF54462BB19DF82730BE
:1035500003B10134059B1C44A7422BDD15F0010388
:10356000A7EB040427D126461C4625F001054EB1E1
:1035700020230093002301961A4632494046FFF764
:103580009BFE06463023069319E0B9F1100FA5D132
:103590001A46302102F8021B06F1170188E70AAB30
:1035A000CDE900930DAA23460CA90BA82CF09AFD97
:1035B0008146C2E700240026D7E700242646079B61
:1035C000DBB19DF8273053B100230122CDE9003251
:1035D0000DF127014046FFF76FFE013F0644059BB2
:1035E0005BB100230122CDE900325946059A4046DD
:1035F000FFF762FE059B0644FF1A069B0093BAF193
:10360000010FC8BF574601972B460D9A49464046C1
:10361000FFF752FE06444CB120230093002301948F
:103620001A4608494046FFF747FE06440B980EAB82
:10363000984201D01CF05EFD304613B0BDE8F08F1B
:10364000DCB10508BB2E06082DE9F04316468BB009
:10365000B20780469946129F3CD416F0040F0CBF67
:103660000023202300930A46139B202102A8FFF782
:103670000BFAF30504460DD5431C1F2B0AD80AAAE2
:103680001444252204F8202C0AAA1A44002102F826
:10369000201C1C4616F040051ED09DF808302F2B2C
:1036A0004FF000031AD8012202A9CDE900324046AA
:1036B000FFF702FE013F0546013C0DF10901CDE98E
:1036C0000097334622464046FFF7F6FD28440BB0EC
:1036D000BDE8F0832B23C5E702A9F0E702A91D4648
:1036E000EDE700002DE9F04F824689B01446002630
:1036F0000B461D4613F8012B0AB1252AF9D1A94220
:1037000008D26F1ADAF80430DAF800003A4698471F
:103710003E4429460B78002B00F0F880013120232D
:103720004FF000090A4612F8015B0DB90A271DE0A7
:103730002D2D03D149F001091146F3E72B2D02D1BC
:1037400049F00209F8E7202D02D149F00409F3E716
:10375000212D02D149F00809EEE7302D22D149F0A0
:1037600040092B46E8E707FB0525303D884611F860
:10377000012BA2F130000928F5D92E2A39D198F869
:1037800001202A2A10D04FF0000B0A27884611F892
:10379000012BA2F1300009280CD807FB0B2BABF151
:1037A000300BF3E70025C1E754F8042B08F10208B9
:1037B00022EAE27B98F800206C2A08BF08F1010891
:1037C00098F80070002F00F0A180642F7DD028D8D9
:1037D000502F2DD010D8A7F14502022A40F2838045
:1037E000DAF80430DAF80000012241469847013641
:1037F00049E04FF0FF3BDDE7622F38D049D8582F22
:10380000EED17A1C27F00F070F3F02F00602FFB23D
:10381000CDE90235CDF804900097C2F110030022E3
:103820005BE0712F3FD00BD8672F5CD9702FD7D1B9
:10383000CDE9023561230093CDF804901023EEE723
:10384000752FDED0782FDCD0732FC9D1BBF1FF3FAD
:1038500054F8047B05D1384605933BF0A1FD059B48
:103860008346CDE900355A464B46394607E054F8C1
:10387000042BCDE900354B4642B12649042250467F
:10388000FFF71AFD064408F1010131E7052222493C
:10389000F5E754F8042B8DF81C20CDE90035012202
:1038A0004B4607A9EBE707A954F8040B05931DF055
:1038B000E6FABBF1FF3F059B08BFDDF81CB0CDE980
:1038C000003501464B465A46D9E7CDE9023561231A
:1038D0000093CDF804900A23012254F8041B5046AB
:1038E000FFF746FDCEE7073424F00704F4E80201B1
:1038F000059350F083F8CDE9005B00EE100A059BBC
:103900004A4639465046FFF79FFEBBE7304609B0AE
:10391000BDE8F08F80840508858405080EB403B5E2
:1039200003AA52F8041B0192FFF7DCFE02B05DF817
:0839300004EB03B07047000036
:020000040802F0
:10000000034B1B685B681A69026018610020704727
:10001000CC630020034B1B685B681A6912681A6185
:10002000704700BFCC630020C460056146618761F2
:10003000C0F81C80C0F82090C0F824A0C0F828B0F8
:10004000C0F82CD080ED0C8B80ED0E9B80ED10ABBA
:10005000C0F808E0FFF7D4BF08B5114B1B685A6819
:1000600013690BB923F08AFB1968586011611846AF
:10007000C468056946698769D0F81C80D0F820906B
:10008000D0F824A0D0F828B0D0F82CD090ED0C8B6C
:1000900090ED0E9B90ED10ABD0F808E0012070477A
:1000A000CC63002010B50021044600F009FB18B90C
:1000B00014B120460CF0C0F810BD002100F000BBC8
:1000C00010B50121044600F0FBFA18B914B120461E
:1000D0000CF0B2F810BDFFF7E5BF10B501220C46D9
:1000E00000F032FC18B914B120460CF0A5F810BD90
:1000F00000F02ABC00F0BABB2DE9F0432A4C0025E1
:100100004FF00309D4F8F4710021013143189A0823
:1001100003F00303BA5C5B0042FA03F303F003034A
:10012000022BF2D0D4F8003209018A0803EB001048
:1001300081B300EB820103681A0728D1D4F80022AA
:100140009A4224D89A1AD4F804624FEA921C1209EF
:1001500002F003079E424FEA470718D9D4F8F4E1AA
:100160001EF80C8048FA07F303F00303012B0ED1AD
:1001700009FA07F747EA080704EB45083F2D0EF890
:100180000C709ABF0135A8F80C22C4F8083204306C
:100190008842D0D12DB1013D04EB4503B3F80C02E8
:1001A000B0E7BDE8F08300BF245D0020F0B4194E35
:1001B000D6E97F53C01AC10904096B5C04F0070734
:1001C0000122BA4023EA02036B54D6F89832D6F8DB
:1001D000F4518009984238BFC6F89802295C04F0AF
:1001E0000303A00803275B0007FA03F321EA0303D4
:1001F0002B540134D6F8F451A00804F00303295C11
:100200005A0041FA02F202F00302022AEBD0F0BCDB
:10021000704700BF245D002021F00F0370B5164A1F
:10022000164D1C1AE400A2FB0424640A0219A3EB75
:100230008416C5F8FC2100212246C5E98063C5E982
:100240007D041FF065F8A2000732D208D5F8FC0142
:1002500000211FF05DF800234FF480314FF0FF3292
:1002600005F52770C5F88C12C5E9A432C5F8983297
:10027000BDE8704025F0A0B9F32C23FA245D0020DE
:10028000034AB2F88C320133A2F88C32704700BFB7
:10029000245D0020034AB2F88C32013BA2F88C3274
:1002A000704700BF245D0020034BB3F88C02003080
:1002B00018BF0120704700BF245D0020F8B51C4C1A
:1002C000B4F88C3200220133A4F88C32C4F89022A6
:1002D000C4F80822251D04F5E676032755F8042FF7
:1002E000130719D1D4F80002824215D3101AD4F89A
:1002F00004124FEA901C000900F003038A424FEAFF
:10030000430309D2D4F8F41111F80CE04EFA03F2C9
:1003100002F00302012A02D0AE42DFD1F8BD07FA93
:1003200003F343EA0E0301F80C30FFF7E5FEF3E7B1
:10033000245D002079B3F8B5041F174E04EB810546
:10034000032754F8043F1A0719D1D6F8000298423F
:1003500015D8181AD6F804124FEA901C000900F0BC
:10036000030299424FEA420209D9D6F8F41111F872
:100370000CE04EFA02F303F00303012B02D0A54276
:10038000DFD1F8BD07FA02F242EA0E0201F80C20B2
:10039000FFF7B2FEF3E77047245D00202DE9F04F30
:1003A000824CD4F8F831D4F8082285B09B00002A9A
:1003B00000F0868000264FF0030BC4F80862002B83
:1003C00068D0002002E00130984274D2D4F8F47171
:1003D000810800F00302795C520041FA02F202F057
:1003E0000302032AEFD1844600230022013202EBEC
:1003F0000C014FEA910E01F0030117F80EE04900DD
:100400004EFA01F101F003010229EFD0D4F80012F5
:1004100012014FEA920E01EB0C1C92B30CEB8E0E04
:10042000DCF800703A0728D1D4F80022974224D390
:10043000BA1AD4F804524FEA9218120902F00301D2
:10044000AF424FEA410118D2D4F8F49119F808A04C
:100450004AFA01F707F00307012F0ED10BFA01F159
:1004600041EA0A0104EB430A3F2B09F808109ABF3E
:100470000133AAF80C22C4F808720CF1040CF445FC
:10048000CED193B1013B04EB4302D4F8F471B2F83E
:100490000CC2AAE7B4F88C320022013BA4F88C32DB
:1004A000C4F8982205B0BDE8F08FD4F8F8310130D7
:1004B0009B0098428AD3D4F80822002A7FF47DAFAB
:1004C000002BE7D04FF0000E76464FF003094FF0B7
:1004D0000108022704E0012930D001369E42D9D21A
:1004E0004FEA960AD4F8F40106F0030510F80A2042
:1004F0006D0042FA05F101F00301022900EB0A0C3C
:100500000DD00329E7D107FA05F522EA050500F821
:100510000A50D4F8F8314FF0000E9B00DDE7BEF131
:10052000000FDAD009FA05F522EA05058CF800502B
:10053000D4F8F8314FF0010E9B00CEE7F308D4F861
:10054000FC11019311F803E006F0070B4EFA0BF0D3
:100550001944C307E6D53001D4F8002252F800C090
:100560001044BCF1000F14D002AAB1210BF086F99F
:10057000DDE9013242B10CF085F8DDE902010CF051
:1005800067F80CF095F8019BD4F8FC1111F803E022
:10059000194408FA0BFB2EEA0B0E81F800E0D4F8A0
:1005A000F43103EB0A0C13F80A20BBE7245D0020AA
:1005B000054BB3F88C2200210132A3F88C22C3F83A
:1005C0000812FFF7EBBE00BF245D00203B4BD3E9D0
:1005D00080122DE9F047D3E97D760023C0E901338D
:1005E000C0E90333C0E90533521A02601D46B60064
:1005F0009E469C461C461A4699461946984617F848
:10060000093049000B4103F00303012B47D0002BB5
:100610003DD0022B02D101354560013401329642B2
:100620000ED04FEA920902F0030117F809304FEAA1
:10063000410A43FA0AF313F0030301D0012BDED180
:10064000012C11D0022C02D1416901314161816933
:10065000A14238BF846196420FD0012B23D04FEACC
:10066000920902F00301CAE7016901310161816960
:10067000A14238BF84619642EFD1C44516D9964253
:10068000C0F80CC012D0E0464FF0000CE7E70EF1C6
:10069000010EC0F808E00CF1010C1C46BEE7013564
:1006A00045601C46BAE7E045EED2E8E72D014FEA87
:1006B0000E13C0E90153BDE8F08700BF245D0020A0
:1006C0000F302DE9F047060951D0674DB5F88C324F
:1006D000002B4CD1B5F88E32002B0C460CBF4FF0DE
:1006E000010E4FF0000E47D1D5F89802D5F8F871F9
:1006F000874239D9D5F8F4C1411E614400221AE07D
:100700000132964253D913F00C0F1ED1013296429A
:1007100040F2A08013F0300F1CD10132964240F21B
:100720009C8013F0C00F1AD10132964240F298809B
:100730000130B84218D211F8013F13F0030FDFD097
:1007400013F00C0F4FF00002E0D013F0300F4FF019
:100750000002E2D013F0C00F4FF00002E4D00130ED
:10076000B8424FF00002E6D3BEF1000F14D04FF0B4
:1007700000084046BDE8F087D5E9A4239A42B3D3E8
:1007800028F048FED5F89802D5F8F871874288BF5E
:100790004FF0010EAED8EAE728F03CFED5F89802FB
:1007A000D5F8F87187424FF0010EA3D8DFE780003B
:1007B000811A012A01F1010703D1431C9B08C5F8E6
:1007C00098324FEA970E07F003034FEA43081CF8EC
:1007D0000E90012303FA08F3023143EA0903884229
:1007E0000CF80E3013D34FF002084FEA910CD5F8F5
:1007F000F4E101F003031EF80C905B0008FA03F328
:10080000013143EA090388420EF80C30EDD2D5F8E5
:1008100000A2D5F890324FEA07190AEB09081E44E6
:10082000120140460021C5F890621EF071FDE307F9
:100830009FD50023D5F8FC114AF80930FA080123A6
:10084000885C07F0070703FA07F707438F54404611
:10085000BDE8F08780000130AAE780000230A7E7FA
:1008600080000330A4E700BF245D0020F0B41B4EDD
:10087000B6F88C327BBB70B3D6E97F53C01AC1097E
:1008800004096B5C04F007070122BA4023EA020363
:100890006B54D6F8982283099342D6F8F40138BFF6
:1008A000C6F89832C15CA50804F0030303275B0077
:1008B00007FA03F321EA030343550134D6F8F401A0
:1008C000A50804F00303415D5A0041FA02F202F068
:1008D0000302022AEBD0F0BC704700BF245D002069
:1008E00010F00F030DD11749D1F80022824208D829
:1008F00010B4D1F80442844205D818465DF8044B80
:10090000704700207047801AD1F8F441810902092C
:10091000615C02F003004000014101F00301012984
:100920001846EBD101301318990803F00303615CFA
:100930005B0041FA03F303F00303022BF2D0000142
:10094000DCE700BF245D00202DE9F84F0B46074689
:10095000002800F0A680574DB5F88C42002971D0D0
:10096000002C71D1D5F80002D5F8F831381A4FEAC9
:10097000101C0CF1010E4FEA830901F10F06F1453D
:100980004FEA161640F29380D5F8F4A14FF0010813
:100990004FEA9E0B0EF003031AF80BB05B004BFA04
:1009A00003F303F00303022B52D023B9013408EB05
:1009B0000403B3424ED3464540D021D34444B4420D
:1009C0004DD2002A40D0C009D5F8FC311B5C0CF098
:1009D000070C43FA0CFC08460CF00101FFF770FE0F
:1009E000044688B34FEA081239461EF04DFCB5F8AC
:1009F0008C3223BB3846FFF7D9FB2046BDE8F88F81
:100A000066443046C4444FF003094FEA900ED5F8CF
:100A1000F41100F0030311F80E405B0009FA03F330
:100A2000013024EA0303604501F80E30EDD1D5F81A
:100A30009832B6089E4238BFC5F898623C462046B8
:100A4000BDE8F88F002CD6D000242046BDE8F88FF2
:100A500008F101080EF1010EF14599D1ABE70CEB5D
:100A60000802B444944510D902219008D5F8F44105
:100A700002F0030314F800E05B0001FA03F3013213
:100A800043EA0E0394452354EFD1A6EB080212016A
:100A900007EB081000213C461EF03AFC2046BDE85A
:100AA000F88F01461846BDE8F84FFFF709BE4FF032
:100AB000010880E7245D002010B58AB003A80B4C24
:100AC000FFF784FD059B00932046DDE903230849D9
:100AD000E2F724FF069A099B019200932046DDE984
:100AE00007230449E2F71AFF0AB010BD788405080D
:100AF000E83D05080C3E05082DE9F047DFF864A144
:100B00004949DAF800224948E2F708FFDAF8F81113
:100B1000890074D0DFF85091DFF85081434F0025F1
:100B20000CE0012E46D02E2241493846E2F7F6FE6F
:100B3000DAF8F81101358900A94260D905F00306F9
:100B4000AA064FEA4606DAF8F4010BD0AB08C35CFC
:100B500043FA06F606F00306022E29D0032EE0D152
:100B60006D22E1E72C46A20804F00303825C5B00DF
:100B700042FA03F39B0702D101348C42F3D3621B88
:100B80007F2A0CD992092B493846E2F7C7FEDAF8DA
:100B9000F83124F03F05B5EB830F30D2002609EA87
:100BA000051241463846E2F7B9FEDAF8F401CDE71E
:100BB0003D22B9E7DAF800121F4B2A018A589A42FF
:100BC00023D01E4B9A4222D01D4B9A4225D01D4B5A
:100BD0009A421ED01C4B9A421BD01C4B9A421AD0F0
:100BE0001B4B9A4217D01B4B9A4218D01A4B9A4271
:100BF00017D01A4B9A420CBF4D22682294E718492D
:100C00000A48BDE8F047E2F747BB54228CE74C2284
:100C10008AE7532288E7412286E7442284E7462276
:100C200082E7422280E700BFA03D050878840508DE
:100C3000E43D0508C03D0508D0C4050874B30508A7
:100C400068A5050800C2050824BF0508D4A005084A
:100C500098A005083CAD0508CCAD050820B50508F1
:100C6000BC3D0508245D0020F0FF0F00DC3D0508B9
:100C7000054B5B695A68824204D8801A043053F8E5
:100C8000200070471B68F5E7245D0020014441F215
:100C90000553884204D398B2002808BF012070474A
:100CA00010F8012B03EB43135340F2E70448054BC4
:100CB00043610023C0F8D03100F5EE7024F07CBC15
:100CC000245D0020F41D06082DE9F84F8246894670
:100CD000FFF7DCFF134B5C6983460CB920461EE02E
:100CE000E66804F1100808EB86064546B5422F4633
:100CF00001D32468F1E755F8040B03885B45F5D16F
:100D000083784B45F2D14A46514603301EF026FB0C
:100D10000028EBD16068A7EB080700EBA700BDE84F
:100D2000F88F00BF245D00202DE9F04780460E4675
:100D3000FFF7CAFF0246002877D1FF2E03D94049AA
:100D400040480BF06FFA404CD4F8D001351D90B1FB
:100D5000D4E975132B448B422BD92944FFF7C8F9EA
:100D60000746E8B90246D4F8D811D4F8D001FFF705
:100D7000BFF9C4F8D071802D2F4638BF8027384680
:100D8000FFF79BF9C4F8D001002852D12846FFF79D
:100D900094F9C4F8D00100284AD128460BF04CFA47
:100DA000D4F8D4312B44C4F8D431D4F8D031002B4A
:100DB000E1D0D4F8D891D4F8D0A131464D44404682
:100DC000C4F8D851FFF762FF0AEB09070AF80900D7
:100DD000000A7870BE7032464146F81C1EF054FA84
:100DE000BB190026DE706369D3E90253AB4212D30C
:100DF0006D000A2D38BF0A25281D8000FFF75DF918
:100E00000028CAD0626902605368D268C660134481
:100E1000C0E9013560616369D9685A68481C0431CA
:100E2000D860013A43F8217002441046BDE8F087CB
:100E30002F460023C4F8D471C4F8D831B9E700BFF5
:100E40001B52050898AA0508245D002010B5044629
:100E50001EF0A6FA01462046BDE81040FFF764BF29
:100E600008B5FFF705FF008808BD08B5FFF700FFCC
:100E7000807808BD08B5FFF7FBFE033008BD08B554
:100E8000FFF7F6FE83780B60033008BD2DE9F843C9
:100E90001D46002303600B6013602B60174BDFF8C7
:100EA00060905C690746884616460CB14C4505D1F2
:100EB0002B68326813442B60BDE8F8833B6801332C
:100EC0003B60E268D8F800301344C8F80030E268AC
:100ED00004F1100303EB8202934207D32046FFF78D
:100EE000FFFC2B68246818442860DEE753F8041BD5
:100EF00088783168043101443160EDE7245D0020D9
:100F0000F41D06082DE9F8430E4B0F4F5C69DFF81E
:100F10003C80DFF83C900CB1BC4201D1BDE8F883C5
:100F2000E36804F1100505EB8306B54201D324689C
:100F3000F1E755F8042B414603324846E2F7EEFC50
:100F4000F3E700BF245D0020F41D060814520508D5
:100F50007884050838B5446803680C449C4205460B
:100F600010D9037BDB0703D5002107480BF05AF9A2
:100F7000103424F00704083421468068FFF7ADF8E8
:100F80002C60A86038BD00BF98AA050870B504465B
:100F90000E4611461546FFF7DDFFD4E901302A461B
:100FA000314618441EF09CF962682A44626070BDA4
:100FB00070B5466804468E42354628BF0D4601216D
:100FC000FFF7C8FFA368681C5919721B18441EF06C
:100FD00087F96368A06801336360284470BD38B541
:100FE0000446081E08BF0120002520606560FFF749
:100FF00059F8237BA06065F30003237338BD38B52F
:1010000005460C460131FFF7EAFF6C6038BD00234E
:10101000C0E90132037B016043F0010303737047B1
:1010200038B514460546FFF7DAFF024B25606360CA
:1010300038BD00BF8D0F0208037BDB0710B50446E7
:1010400002D48068FFF756F80023A36010BD38B5BE
:1010500005461020FFF726F829460446FFF7BFFF94
:10106000204638BD10B5044650B1037BDB0702D4DF
:101070008068FFF73FF82046BDE81040FFF73AB818
:1010800010BD000038B5037BDB0704460D4603D5D1
:10109000002107480BF0C6F8016880682944FFF773
:1010A0001CF82368A0601D442560184438BD00BFAB
:1010B00098AA050838B504460D46FFF74BFFD4E95A
:1010C00001301D446560184438BDD0E900239A42C0
:1010D00010B5044602D10121FFF7D4FFD4E9013253
:1010E0000021D154A06810BD10B50C460121FFF7B6
:1010F000E1FF047010BD7F29F8B50C46CEB204D8CC
:101100000121FFF7D7FF0670F8BD06F03F06B1F5E5
:10111000006FC1F3871546F0800607D20221FFF762
:10112000C9FF65F03F0505704670EDE705F03F0526
:10113000B1F5803FC1F3073745F0800508D20321A0
:10114000FFF7B8FF67F01F03037045708670DBE799
:101150000421FFF7AFFFA40C07F03F0364F00F0476
:1011600063F07F03047043708570C670CCE738B5B8
:10117000054608460C461EF013F92146024628464D
:10118000BDE83840FFF702BF10B51446FFF710FF67
:10119000047010BD10B51446FFF70AFF047010BDAF
:1011A00043688B422CBF5B1A00234360704738B5FD
:1011B000154642688A4204460B4603D929448A42AE
:1011C00001D8436038BD8068521A014418441EF0AB
:1011D00087F86268521B6260F4E703781A060AD542
:1011E00003F07F034022134207D110F8012F02F0D1
:1011F000C001802905D01846704723EA020352082F
:10120000F1E702F03F0242EA8313EEE7421C104688
:101210000132037803F0C003802BF8D0704700231D
:10122000814201D81846704711F8012D02F0C00222
:10123000802A18BF0133F3E7014403460020994296
:101240001A4600D87047127802F0C002802A03F1D3
:10125000010318BF0130F2E77F289DBF024B185CE5
:10126000C0F3400000207047AD8405087F289DBF73
:10127000024B185CC0F3C00000207047AD84050825
:101280007F289DBF024B185CC0F380000020704790
:10129000AD8405087F289DBF024B185CC0F3801009
:1012A00000207047AD8405087F2809D8064B1B5CD9
:1012B00013F00C0F06D1A0F15F035842584170475C
:1012C0000020704701207047AD8405087F289DBF2E
:1012D000024B185CC0F3001000207047AD84050875
:1012E0007F289DBF024B185CC0F340100020704760
:1012F000AD84050808B50246FFF7E8FF00B12032CB
:10130000104608BD08B50246FFF7EAFF00B1203AD3
:10131000104608BD3038092884BF20F02000073867
:10132000704710B501440246E5240020914203D8DD
:10133000B0FA80F0400917E012F8013B30B103F039
:10134000C003802B11D10138C0B2EFE7BF2B09D900
:10135000F72B09D8DB0803F0060344FA03F303F084
:101360000300E3E71B06E1D510BD0020FCE70239CE
:1013700081420B4603D31A880239002AF8D002337F
:101380001B1A5810704770B51C09944215D2121BD5
:1013900001EB4401154603F00F030E46012D31F811
:1013A000024B18BF3468DC40A4B2013D20F8024B68
:1013B000F3D104B9013A104670BD0022FBE7F0B545
:1013C000059D0024521B2746A5420FD16D004419EC
:1013D00000230D449A4214D104EB42031FB10121B2
:1013E00024F812100233181A4010F0BD31F81460BE
:1013F00033F814C066443E4420F81460370C0134BE
:10140000E2E735F813603E4424F81360370C0133EB
:10141000E0E7F0B4049E0025921B2C46AE420AD1B0
:101420007600851900230E449A420FD105EB420144
:10143000F0BCFFF79CBF31F815703C4433F81570D1
:10144000E41B20F8154024140135E7E736F81310A3
:101450000C4425F8134024140133E5E72DE9F0434B
:10146000079CDDF828E0DDE9087602391546844658
:101470004FF6FF78A4EB020955B900EB42011FB10A
:10148000012320F812300231BDE8F043FFF76FBFAF
:1014900031F8024F013D4444264405EB0904AC42B7
:1014A00096BF33F8024B4FF6FF744444744486EA07
:1014B000040E17FA8EF72CF8027B4FEA144E360C06
:1014C0003F0CD9E738B502290446806838BF0221AD
:1014D0000D4618B12368B1EB930F07D96900FEF7E9
:1014E000FCFD2368A06065F39F03236038BD38B519
:1014F00005460C20FEF7D6FD2A78037862F3000338
:101500006FF341030446037028682368C0F39D000D
:1015100060F39F0323606B6863604000FEF7C2FDC9
:10152000A0602A68A968C2F39D0252001DF0ACFEBB
:10153000204638BD10B54B0018441A4409B9084676
:1015400010BD30F8023D32F8024D1B1B002B02DBB0
:1015500004D10139F2E74FF0FF30F1E70120EFE766
:1015600010B5044638B18068FEF7C4FD2046BDE8DA
:101570001040FEF7BFBD10BD38B505460C46022130
:10158000FFF7A0FF002C2B78B4BF0122002262F3EA
:1015900000032B704FF00003B8BF64426B6004B9C6
:1015A00038BDD5E90132581C686022F81340240C7C
:1015B000F5E70023C0E900338360704728B1037862
:1015C0009B0702D48068FEF795BD704738B5054685
:1015D0000C464968FFF776FF22782B78A86862F3FB
:1015E00000032B7063686B606268A1685200BDE8FD
:1015F00038401DF049BE034609B959607047FFF7EE
:10160000BBBF08B5FFF7D5FFBDE80840FFF7F3BF44
:1016100030B4046862F39F04046004F0FC0444F0F6
:10162000020400220470C0E9012130BC1946FFF712
:10163000E2BFF8B59DF818700421064614461D4611
:10164000FFF740FF8FB1002C75F100030DDA624205
:1016500065EB45030120317860F300013170002112
:10166000716052EA030104D1F8BD22462B460020E6
:10167000F1E7D6E901104C1C746020F81120110C20
:1016800041EA0341180C0A460346EAE72DE9F04116
:1016900010EE106A0378F20F62F300030370C6F3D2
:1016A0000F4313F4FF43074603D100237B60BDE8DB
:1016B000F081B3F5FF4FF8D0C6F3C753A3F17F0411
:1016C000002CF2DB04D10121BDE8F041FFF754BF4B
:1016D000B3F16F0848BFA3F16008C6F31606162CD5
:1016E0004FEA281846F4000621DCC4F11704E6404E
:1016F0000024254641463846FFF7E4FEC7F804803B
:1017000025B16A000021B8681DF002FE44B1BB6833
:1017100006FA04F223F81520C4F11004E64001355E
:10172000A845C4D0BB6823F81560360CF7E7B3F1C1
:10173000960504F1090448BFA3F1870504F00F04DE
:101740002D11D7E72DE9F84304468F18C2F35B0249
:101750000D46511C9846089EFFF7B4FE22780023E0
:1017600068F300022270636029461FFA86FCB942C2
:10177000084602D3401BBDE8F8830278A2F130038B
:10178000092B01F1010105D9A2F14103192B14D84C
:10179000A2F13703B342EDD2D4E901E0F04681462D
:1017A000B8F1000F10D100EB4E0213B120F81E303B
:1017B0000232121A52106260D9E7A2F16103192BAA
:1017C000D8D8A2F15703E5E7B9F8002002FB0C33A3
:1017D00029F8023B08F1FF381B0CE1E7F8B5044695
:1017E00015461E46C1B1531E1E444FF0FF37E90097
:1017F0000F3109092046FFF765FE237800216FF3BA
:101800000003237061604DB9D4E9011000EB410180
:10181000FFF7ADFD6060F8BD0127E8E700230F2961
:1018200008DC32788A401343013D9BB201F1080184
:101830003E44F4D16268501C6060A068103920F802
:101840001230E0E70A46416838B5044609B95068E5
:1018500090B11378257803F0010305F00100181A00
:101860000AD15368994208D30AD89268A068FFF752
:1018700061FEEB0748BF404238BD4FF0FF30F8E74C
:101880000120F6E7884210B5044601D0FFF79EFE1E
:1018900023786FF30003237010BD884210B504460F
:1018A00001D0FFF793FE2378C3F30002C2F10102D7
:1018B00062F30003237010BD88421FB5044601D0B7
:1018C000FFF784FE626862B901212046FFF7FAFD46
:1018D000A268012313806360237843F0010323701F
:1018E00010E02378D9070FD56FF30003A1682370A8
:1018F0000123ADF80E30009308460DF10E03FFF7FB
:1019000088FD606004B010BD511C2046FFF7DAFD71
:10191000D4E901210123ADF80E30009308460DF102
:101920000E03FFF74CFD6060D6E72DE9F0470E4649
:1019300049680546174601B12AB931462846BDE82F
:10194000F047FFF743BE02F10F0424092144FFF7DB
:10195000B9FD7068A968B36817F00F0E04EB0007B3
:1019600007F1004808F1FF384FEA480801EB080C7E
:1019700008BF4FF0100E03EB40090146E24600227B
:10198000CEF1100E11BB6FF0010358430CEB0009B0
:1019900022FA0EF22CF8002003FB049304F100421B
:1019A0000233013A184652001DF0B2FC08F1020859
:1019B0000346434417B133F8022D8AB16F60327881
:1019C0002B7862F300032B70BDE8F08739F8023DF5
:1019D0001A4322FA0EF32AF8023912040139D1E728
:1019E000013FE7E7F0B50E46496885B00546144665
:1019F00001B12AB931462846FFF7E8FD05B0F0BD30
:101A0000FFF760FDD6E901212346A868FFF7BBFC7C
:101A1000686031782B7861F300032B70DB07024696
:101A2000ECD500237768ADF80E3021099F4201D034
:101A30008B420FD18F42E1D9B36804F00F0433F821
:101A40001110012303FA04F4013C214213D0ADF834
:101A50000E3008E0B06830F8130050B101238F4217
:101A6000ADF80E30E8D8A96801234AB90B806B6045
:101A7000C4E70133DAE7BDF80E30002BBED0F2E741
:101A8000009308460DF10E03FFF799FC6860B5E777
:101A900073B553680C46496899420646154606D305
:101AA00008D89268A068FFF745FD002802DA2346AF
:101AB0002C461D4623782A7861685340DB0713D4EF
:101AC00001313046FFF7FEFC6B680093AB68B068ED
:101AD000D4E90121FFF773FC70602278337862F358
:101AE0000003337002B070BD3046FFF7EBFC6B684B
:101AF0000093AB68B068D4E90121FFF78AFCEBE7FB
:101B0000F7B553680C46496899420646154606D310
:101B100028D89268A068FFF70DFD002822DA234636
:101B200001272C461D4623782A7861685340DB073D
:101B30001AD501313046FFF7C5FC6B680093AB68DE
:101B4000B068D4E90121FFF73AFC7060237803F014
:101B500001030FB183F00103327863F300023270A6
:101B600003B0F0BD0027DEE73046FFF7ABFC6B6843
:101B70000093AB68B068D4E90121FFF74AFCE4E7C1
:101B80002DE9F04F15464A686B689A420E463EBFF3
:101B90002E460B461D4633787168DB0785B0044638
:101BA00021D42B7813F001071DD1FFF78BFCD5E969
:101BB000011CA068B6683B4699420BD100EB41017D
:101BC000FFF7D5FB237860606FF30003237005B047
:101BD000BDE8F08F36F813203CF813502A4020F867
:101BE00013200133E8E701312046FFF76BFC327820
:101BF0002F78AB68009382EA0703DB4303F001030D
:101C0000C3F1000C02F001021FFA8CF1C2F1000CCA
:101C100002911FFA8CF10191B168D6F804E0A06836
:101C2000A1F1020A696807F00107C7F10008A1EBFA
:101C30000E011FFA88F8F44681460391BCF1000FAB
:101C400015D100EB4E011BB1012320F81E300231EB
:101C5000FFF78DFB606033782A78C3F30003C2F38B
:101C600000021340227863F300022270AFE73AF8D3
:101C700002BF019981EA0B0B03990CF1FF3C5A4416
:101C800001EB0C0BE3459FBF009931F802BB0091BB
:101C900088EA0B0B88BFC3465F44029902EA070B30
:101CA0008BEA010B13FA8BF329F8023B3F0C120C61
:101CB0001B0CC3E72DE9F84F16464A6873689A4231
:101CC0000D463EBF35460B461E462B786968DB073E
:101CD00004462ED4327812F001082AD1FFF7F2FB25
:101CE000D6E9013CA9686D68A768ED1A424693429F
:101CF00010D15B00194400223B44954213D103EB01
:101D00004503DB1B5B10636023786FF300032370D4
:101D1000BDE8F88F31F812003CF81260304327F824
:101D200012000132E3E731F8120023F81200013209
:101D3000E3E701312046FFF7C5FBD6E901232F7801
:101D400036786968A068AD6807F0010706F00106FB
:101D5000C7F10008C6F1000CA5F1020E1FFA88F8C1
:101D60001FFA8CFC0D4682464FF00109A2EB010BD5
:101D700045B900EB4101FFF7FAFA2378606043F0C0
:101D80000103C4E73EF8022F013D88EA020217442E
:101D90000BEB0502AA4296BF33F8022B62468CEA8F
:101DA0000202164447EA0602D24319FA82F22AF8DE
:101DB000022B360C3F0C4FEA1249D9E7F0B5164614
:101DC0004A6873689A4238BF0B460C463CBF34469B
:101DD0001E462778337861685F4017F0010785B0A9
:101DE00005463AD1FFF76EFB237813F0010328D1A3
:101DF000D6E90117A2686468A868641A994210D1EC
:101E000049000A4400230144A34214D101EB4301D9
:101E1000FFF7ADFA2B7868606FF300032B7005B005
:101E2000F0BD32F8136037F813C086EA0C0620F8CC
:101E300013600133E2E732F8136021F813600133D5
:101E4000E2E7CDE90277019773680093B368A86869
:101E5000D4E90121FFF702FBDCE70131FFF732FB98
:101E60003378A868DB4303F0010303932378DB4353
:101E700003F0010302930123019373680093B36895
:101E8000D4E90121FFF7EAFA2B78686043F00103F7
:101E9000C4E72DE9F04F4B6885B004460E46154661
:101EA0000BB1536823B90023636005B0BDE8F08F20
:101EB000814234D1FFF71BFBA5420646074600D1FD
:101EC00005466B68716820461944FFF7FBFA2268E3
:101ED000A068C2F39D02520000211DF019FAB368F8
:101EE000A1680193AB68D6F804A002936B680393D2
:101EF00000228B1E009301EB4A0C1346039890427C
:101F000039D163602A78337853402278384663F3B6
:101F10000002227005B0BDE8F04FFFF721BB8242FE
:101F200004D1FFF7E4FA05460746CAE70027C8E7E9
:101F300038F8029F0298994430F812003BF8023BAF
:101F400000FB0393A8F800300EF1FF3E1B0CBEF11E
:101F5000000FEDD1E6460CF1020813B1ACF80030E9
:101F6000C6460098AEEB010E02304FEA6E03013216
:101F7000C4460090C2E7DDE9008BD6460023E6E7C1
:101F80004B6870B50646144613B11378DA0702D5CC
:101F90000023736070BD636823B90121BDE8704000
:101FA000FFF7EABA0846FFF7A2FA05462046FFF710
:101FB0009EFA012104463046FFF7DEFA636883B1DA
:101FC000A3681B88DB0704D52A4631463046FFF755
:101FD00060FFD4E9012101230846FFF7D4F96060CE
:101FE00038B92846FFF7BCFA2046BDE87040FFF735
:101FF000B7BA2A4629462846FFF74BFFDEE72DE908
:10200000F04F0C4651688FB091460131054602935E
:10201000FFF758FAD9F80420A868013252000021CD
:102020001DF076F900236B60D9F8041020460131C9
:10203000FFF748FA49462046FFF7C8FA029B67684F
:102040005B680193BB4232D8029BD4F808B09E680B
:10205000AB6803932DD3324639465846FFF76AFAE8
:10206000002823D1039A6060012313806B60029AD9
:1020700099F8003012785340DB0714D52B7843F0E1
:1020800001032B70636873B14FF0FF310BA8FFF7AA
:10209000B8FA0BAA29462846FFF7FAFC029A21460D
:1020A0002046FFF7F5FC0FB0BDE8F08F01DA002302
:1020B000DCE7019B03F1004001384FEA400A36F8A3
:1020C0001020002312F4004F03F1010152D07A00D6
:1020D0009BB24FF0000E791C02F102080592C3F189
:1020E00010022BF817E0D8446160DC467746049272
:1020F000C44543D336F8100000FA03F20492019A63
:10210000012A09D906EB0A00C3F1100730F8020CC6
:10211000F840049F074304970198059A091A6960DB
:10212000039801F10041013900EB410105910AF1E9
:1021300002010991B11E5A440891D4F804A00199F2
:10214000514527D30AF1004A0AF1FF3A0BEB4A0A3C
:102150000020C3F11006D3457BD96FF000416B68B6
:102160002BB15A18039830F81220002A7BD06FF058
:1021700000417DE0520092B20B46A3E7BCF800E0BC
:102180000EFA03F21743049A2CF8027B2EFA02F798
:10219000BFB2ADE7118832F8027C47EA01470499E3
