:020000040800F2
:1000000000000120B9A20208673D0208553D020820
:10001000693D0208793D0208893D020800000000A0
:10002000000000000000000000000000993D0208F0
:100030009B3D0208000000003D4202088542020884
:100040009FA10208093E0208153E02081D3E020853
:100050009FA102089FA102089D3D0208A33D02083E
:10006000A93D0208AF3D0208B53D0208356102080E
:100070004561020855610208656102087561020860
:1000800085610208956102089FA102089FA10208EC
:100090009FA102089FA102089FA10208BB3D020880
:1000A000313E0208373E0208493E02084F3E020830
:1000B000553E02085B3E0208613E0208A53E02086A
:1000C000AB3E0208B13E0208B73E02089FA10208FB
:1000D0009FA10208813E0208873E02088D3E020869
:1000E000DF3D02080F3E02089FA102089FA10208FF
:1000F0009FA102089FA102089FA10208A561020812
:100100009FA102089FA10208693E02089FA1020860
:10011000933E0208993E02089FA102089FA102088F
:10012000B5610208C5610208D5610208E5610208EF
:10013000F56102089FA102089FA102089FA1020881
:100140009FA102089FA102089FA102089FA1020887
:100150000562020815620208256202089F3E020835
:10016000BD3E0208C33E02089FA102089FA10208EB
:100170009FA102089FA102089FA1020800000000A1
:100180009FA102089FA102089FA102089FA1020847
:10019000034B1B685B681A69026018610020704796
:1001A000EC060020034B1B685B681A6912681A6131
:1001B000704700BFEC060020C4600561466187619E
:1001C000C0F81C80C0F82090C0F824A0C0F828B067
:1001D000C0F82CD0C0F808E0FFF7DABF08B50E4B26
:1001E0001B685A6813690BB923F082FB19685860C1
:1001F00011611846C468056946698769D0F81C8092
:10020000D0F82090D0F824A0D0F828B0D0F82CD086
:10021000D0F808E001207047EC06002010B500215E
:10022000044600F0FFFA18B914B120460CF08AFF1A
:1002300010BD002100F0F6BAFFF7F0BF10B50122A3
:100240000C4600F033FC18B914B120460CF07AFFCC
:1002500010BD00F02BBC00F0BBBB00002DE9F0434B
:100260002A4C00254FF00309D4F8F4710021013124
:1002700043189A0803F00303BA5C5B0042FA03F3E5
:1002800003F00303022BF2D0D4F8003209018A08EC
:1002900003EB001081B300EB820103681A0728D139
:1002A000D4F800229A4224D89A1AD4F804624FEA69
:1002B000921C120902F003079E424FEA470718D921
:1002C000D4F8F4E11EF80C8048FA07F303F00303B6
:1002D000012B0ED109FA07F747EA080704EB450896
:1002E0003F2D0EF80C709ABF0135A8F80C22C4F807
:1002F000083204308842D0D12DB1013D04EB4503D2
:10030000B3F80C02B0E7BDE8F08300BF4004002062
:10031000F0B4194ED6E97F53C01AC10904096B5CC9
:1003200004F007070122BA4023EA02036B54D6F80F
:100330009832D6F8F4518009984238BFC6F898022E
:10034000295C04F00303A00803275B0007FA03F30A
:1003500021EA03032B540134D6F8F451A00804F029
:100360000303295C5A0041FA02F202F00302022A56
:10037000EBD0F0BC704700BF4004002021F00F0319
:1003800070B5164A164D1C1AE400A2FB0424640A38
:100390000219A3EB8416C5F8FC2100212246C5E909
:1003A0008063C5E97D041FF08FF9A2000732D208EF
:1003B000D5F8FC0100211FF087F900234FF48031AC
:1003C0004FF0FF3205F52770C5F88C12C5E9A4324D
:1003D000C5F89832BDE8704024F02CBAF32C23FA0B
:1003E00040040020034AB2F88C320133A2F88C3268
:1003F000704700BF40040020034AB2F88C32013B32
:10040000A2F88C32704700BF40040020034BB3F8C1
:100410008C02003018BF0120704700BF400400204C
:10042000F8B51C4CB4F88C3200220133A4F88C329D
:10043000C4F89022C4F80822251D04F5E8760327A5
:1004400055F8042F130719D1D4F80002824215D3AE
:10045000101AD4F804124FEA901C000900F00303AC
:100460008A424FEA430309D2D4F8F41111F80CE0A0
:100470004EFA03F202F00302012A02D0AE42DFD1AB
:10048000F8BD07FA03F343EA0E0301F80C30FFF757
:10049000E5FEF3E74004002079B3F8B5041F174EDA
:1004A00004EB8105032754F8043F1A0719D1D6F845
:1004B0000002984215D8181AD6F804124FEA901C78
:1004C000000900F0030299424FEA420209D9D6F826
:1004D000F41111F80CE04EFA02F303F00303012BC0
:1004E00002D0A542DFD1F8BD07FA02F242EA0E02BD
:1004F00001F80C20FFF7B2FEF3E77047400400203C
:100500002DE9F04F824CD4F8F831D4F8082285B0A8
:100510009B00002A00F0868000264FF0030BC4F8F1
:100520000862002B68D0002002E00130984274D2AB
:10053000D4F8F471810800F00302795C520041FAAA
:1005400002F202F00302032AEFD1844600230022C4
:10055000013202EB0C014FEA910E01F0030117F892
:100560000EE049004EFA01F101F003010229EFD03B
:10057000D4F8001212014FEA920E01EB0C1C92B358
:100580000CEB8E0EDCF800703A0728D1D4F800226C
:10059000974224D3BA1AD4F804524FEA9218120997
:1005A00002F00301AF424FEA410118D2D4F8F491AE
:1005B00019F808A04AFA01F707F00307012F0ED136
:1005C0000BFA01F141EA0A0104EB430A3F2B09F857
:1005D00008109ABF0133AAF80C22C4F808720CF173
:1005E000040CF445CED193B1013B04EB4302D4F8A3
:1005F000F471B2F80CC2AAE7B4F88C320022013BC5
:10060000A4F88C32C4F8982205B0BDE8F08FD4F875
:10061000F83101309B0098428AD3D4F80822002A8E
:100620007FF47DAF002BE7D04FF0000E76464FF001
:1006300003094FF00108022704E0012930D00136F8
:100640009E42D9D24FEA960AD4F8F40106F0030587
:1006500010F80A206D0042FA05F101F003010229A9
:1006600000EB0A0C0DD00329E7D107FA05F522EAC1
:10067000050500F80A50D4F8F8314FF0000E9B0041
:10068000DDE7BEF1000FDAD009FA05F522EA05052B
:100690008CF80050D4F8F8314FF0010E9B00CEE7F3
:1006A000F308D4F8FC11019311F803E006F0070BEE
:1006B0004EFA0BF01944C307E6D53001D4F80022F6
:1006C00052F800C01044BCF1000F14D002AAB021AF
:1006D0000CF086F8DDE9013242B10CF057FFDDE99C
:1006E00002010CF039FF0CF067FF019BD4F8FC11FC
:1006F00011F803E0194408FA0BFB2EEA0B0E81F8FF
:1007000000E0D4F8F43103EB0A0C13F80A20BBE73D
:1007100040040020054BB3F88C2200210132A3F8DD
:100720008C22C3F80812FFF7EBBE00BF4004002084
:100730003B4BD3E980122DE9F047D3E97D760023C6
:10074000C0E90133C0E90333C0E90533521A02603E
:100750001D46B6009E469C461C461A4699461946BA
:10076000984617F8093049000B4103F00303012BA9
:1007700047D0002B3DD0022B02D10135456001341A
:10078000013296420ED04FEA920902F0030117F8A7
:1007900009304FEA410A43FA0AF313F0030301D088
:1007A000012BDED1012C11D0022C02D14169013183
:1007B00041618169A14238BF846196420FD0012B0B
:1007C00023D04FEA920902F00301CAE7016901311F
:1007D00001618169A14238BF84619642EFD1C4456D
:1007E00016D99642C0F80CC012D0E0464FF0000C6B
:1007F000E7E70EF1010EC0F808E00CF1010C1C4611
:10080000BEE7013545601C46BAE7E045EED2E8E7B1
:100810002D014FEA0E13C0E90153BDE8F08700BF78
:10082000400400200F302DE9F047060951D0674DF4
:10083000B5F88C32002B4CD1B5F88E32002B0C461B
:100840000CBF4FF0010E4FF0000E47D1D5F89802C3
:10085000D5F8F871874239D9D5F8F4C1411E614401
:1008600000221AE00132964253D913F00C0F1ED128
:100870000132964240F2A08013F0300F1CD10132B9
:10088000964240F29C8013F0C00F1AD1013296427A
:1008900040F298800130B84218D211F8013F13F0AD
:1008A000030FDFD013F00C0F4FF00002E0D013F075
:1008B000300F4FF00002E2D013F0C00F4FF00002F3
:1008C000E4D00130B8424FF00002E6D3BEF1000F91
:1008D00014D04FF000084046BDE8F087D5E9A423C6
:1008E0009A42B3D327F08CFAD5F89802D5F8F8716C
:1008F000874288BF4FF0010EAED8EAE727F080FAB2
:10090000D5F89802D5F8F87187424FF0010EA3D8B8
:10091000DFE78000811A012A01F1010703D1431C9E
:100920009B08C5F898324FEA970E07F003034FEA89
:1009300043081CF80E90012303FA08F3023143EA3E
:10094000090388420CF80E3013D34FF002084FEA27
:10095000910CD5F8F4E101F003031EF80C905B0054
:1009600008FA03F3013143EA090388420EF80C3018
:10097000EDD2D5F800A2D5F890324FEA07190AEB6C
:1009800009081E44120140460021C5F890621EF07D
:100990009BFEE3079FD50023D5F8FC114AF80930E8
:1009A000FA080123885C07F0070703FA07F70743F3
:1009B0008F544046BDE8F08780000130AAE78000F0
:1009C0000230A7E780000330A4E700BF4004002006
:1009D000F0B41B4EB6F88C327BBB70B3D6E97F53B4
:1009E000C01AC10904096B5C04F007070122BA4070
:1009F00023EA02036B54D6F8982283099342D6F86F
:100A0000F40138BFC6F89832C15CA50804F00303AE
:100A100003275B0007FA03F321EA0303435501347C
:100A2000D6F8F401A50804F00303415D5A0041FA29
:100A300002F202F00302022AEBD0F0BC704700BFC2
:100A40004004002010F00F030DD11749D1F8002207
:100A5000824208D810B4D1F80442844205D818461E
:100A60005DF8044B704700207047801AD1F8F441BC
:100A700081090209615C02F003004000014101F0BC
:100A8000030101291846EBD101301318990803F02E
:100A90000303615C5B0041FA03F303F00303022BE1
:100AA000F2D00001DCE700BF400400202DE9F84F40
:100AB0000B460746002800F0A680574DB5F88C423B
:100AC000002971D0002C71D1D5F80002D5F8F83189
:100AD000381A4FEA101C0CF1010E4FEA830901F19C
:100AE0000F06F1454FEA161640F29380D5F8F4A1AF
:100AF0004FF001084FEA9E0B0EF003031AF80BB0FB
:100B00005B004BFA03F303F00303022B52D023B92B
:100B1000013408EB0403B3424ED3464540D021D301
:100B20004444B4424DD2002A40D0C009D5F8FC312B
:100B30001B5C0CF0070C43FA0CFC08460CF001019E
:100B4000FFF770FE044688B34FEA081239461EF0DC
:100B500077FDB5F88C3223BB3846FFF7D9FB20462A
:100B6000BDE8F88F66443046C4444FF003094FEAAD
:100B7000900ED5F8F41100F0030311F80E405B005D
:100B800009FA03F3013024EA0303604501F80E304B
:100B9000EDD1D5F89832B6089E4238BFC5F89862B4
:100BA0003C462046BDE8F88F002CD6D000242046D5
:100BB000BDE8F88F08F101080EF1010EF14599D159
:100BC000ABE70CEB0802B444944510D9022190081D
:100BD000D5F8F44102F0030314F800E05B0001FAD9
:100BE00003F3013243EA0E0394452354EFD1A6EBFD
:100BF0000802120107EB081000213C461EF064FDBC
:100C00002046BDE8F88F01461846BDE8F84FFFF7CB
:100C100009BE4FF0010880E74004002010B58AB0FB
:100C200003A80B4CFFF784FD059B00932046DDE9EC
:100C30000323084900F0C6FE069A099B019200931F
:100C40002046DDE90723044900F0BCFE0AB010BDD0
:100C5000E42E030864EC020888EC02082DE9F04752
:100C6000DFF864A14949DAF80022494800F0AAFEF9
:100C7000DAF8F811890074D0DFF85091DFF850816C
:100C8000434F00250CE0012E46D02E224149384624
:100C900000F098FEDAF8F81101358900A94260D910
:100CA00005F00306AA064FEA4606DAF8F4010BD06F
:100CB000AB08C35C43FA06F606F00306022E29D001
:100CC000032EE0D16D22E1E72C46A20804F00303D5
:100CD000825C5B0042FA03F39B0702D101348C4231
:100CE000F3D3621B7F2A0CD992092B49384600F0B6
:100CF00069FEDAF8F83124F03F05B5EB830F30D206
:100D0000002609EA05124146384600F05BFEDAF893
:100D1000F401CDE73D22B9E7DAF800121F4B2A01B2
:100D20008A589A4223D01E4B9A4222D01D4B9A4297
:100D300025D01D4B9A421ED01C4B9A421BD01C4BF7
:100D40009A421AD01B4B9A4217D01B4B9A4218D08A
:100D50001A4B9A4217D01A4B9A420CBF4D22682266
:100D600094E718490A48BDE8F04700F0DEBA54227B
:100D70008CE74C228AE7532288E7412286E7442207
:100D800084E7462282E7422280E700BF1CEC02088B
:100D9000E42E030860EC02083CEC0208306F030804
:100DA000AC5D0308544F0308606C030884690308B2
:100DB000C04A0308844A030838570308C857030881
:100DC000CC5F030838EC020840040020F0FF0F005D
:100DD00058EC0208054B5B695A68824204D8801AB5
:100DE000043053F8200070471B68F5E740040020EA
:100DF000014441F20553884204D398B2002808BF49
:100E00000120704710F8012B03EB43135340F2E726
:100E10000448054B43610023C0F8D43100F5F0705D
:100E200023F008BD40040020B4ED02082DE9F84F7E
:100E300082468946FFF7DCFF134B5C6983460CB999
:100E400020461EE0E66804F1100808EB86064546D9
:100E5000B5422F4601D32468F1E755F8040B038807
:100E60005B45F5D183784B45F2D14A465146033074
:100E70001EF050FC0028EBD16068A7EB080700EBE0
:100E8000A700BDE8F88F00BF400400202DE9F0471F
:100E900080460E46FFF7CAFF024600286ED13C4C42
:100EA000D4F8D401351D90B1D4E976132B448B428C
:100EB0002BD92944FFF7CDF90746E8B90246D4F803
:100EC000DC11D4F8D401FFF7C4F9C4F8D471802D33
:100ED0002F4638BF80273846FFF7ABF9C4F8D40156
:100EE00000284FD12846FFF7A4F9C4F8D401002800
:100EF00047D128460CF026F9D4F8D8312B44C4F851
:100F0000D831D4F8D431002BE1D0D4F8DC91D4F826
:100F1000D4A131464D444046C4F8DC51FFF768FF88
:100F20000AEB09070AF80900000A7870BE70324619
:100F30004146F81C1EF084FBBB190026DE70636975
:100F4000D3E90253AB420FD36D00281D8000FFF799
:100F500070F90028CDD0626902605368D268C6601B
:100F60001344C0E9013560616369D9685A68481C57
:100F70000431D860013A43F8217002441046BDE8BC
:100F8000F0872F460023C4F8D871C4F8DC31BCE7E1
:100F90004004002010B504461EF0DEFB014620464A
:100FA000BDE81040FFF772BF08B5FFF713FF0088D8
:100FB00008BD08B5FFF70EFF807808BD08B5FFF73C
:100FC00009FF033008BD08B5FFF704FF83780B6005
:100FD000033008BD2DE9F8431D46002303600B6074
:100FE00013602B60174BDFF860905C6907468846FA
:100FF00016460CB14C4505D12B68326813442B6062
:10100000BDE8F8833B6801333B60E268D8F8003004
:101010001344C8F80030E26804F1100303EB8202C5
:10102000934207D32046FFF70DFD2B682468184430
:101030002860DEE753F8041B8878316804310144E6
:101040003160EDE740040020B4ED02082DE9F843DB
:101050000E4B0F4F5C69DFF83C80DFF83C900CB121
:10106000BC4201D1BDE8F883E36804F1100505EB4B
:101070008306B54201D32468F1E755F8042B4146B5
:101080000332484600F09EFCF3E700BF4004002016
:10109000B4ED02086CFF0208E42E030838B544687A
:1010A00003680C449C42054610D9037BDB0703D53B
:1010B000002107480CF03CF8103424F007040834F1
:1010C00021468068FFF7BAF82C60A86038BD00BFE1
:1010D0009454030870B504460E4611461546FFF7B2
:1010E000DDFFD4E901302A46314618441EF0D4FA17
:1010F00062682A44626070BD70B5466804468E42DC
:10110000354628BF0D460121FFF7C8FFA368681CBC
:101110005919721B18441EF0BFFA6368A0680133A6
:101120006360284470BD38B50446081E08BF01201E
:10113000002520606560FFF771F8237BA06065F3F0
:101140000003237338BD38B505460C460131FFF75F
:10115000EAFF6C6038BD0023C0E90132037B016007
:1011600043F001030373704738B514460546FFF793
:10117000DAFF024B2560636038BD00BFD510000860
:10118000037BDB0710B5044602D48068FFF763F8E1
:101190000023A36010BD38B505461020FFF73EF8C8
:1011A00029460446FFF7BFFF204638BD10B5044668
:1011B00050B1037BDB0702D48068FFF74CF8204670
:1011C000BDE81040FFF747B810BD000038B5037BFD
:1011D000DB0704460D4603D5002107480BF0A8FFA6
:1011E000016880682944FFF729F82368A0601D443E
:1011F0002560184438BD00BF9454030838B5044630
:101200000D46FFF74BFFD4E901301D4465601844DB
:1012100038BDD0E900239A4210B5044602D101211D
:10122000FFF7D4FFD4E901320021D154A06810BDEA
:1012300010B50C460121FFF7E1FF047010BD7F29B6
:10124000F8B50C46CEB204D80121FFF7D7FF0670DF
:10125000F8BD06F03F06B1F5006FC1F3871546F003
:10126000800607D20221FFF7C9FF65F03F05057030
:101270004670EDE705F03F05B1F5803FC1F3073754
:1012800045F0800508D20321FFF7B8FF67F01F0380
:10129000037045708670DBE70421FFF7AFFFA40CF5
:1012A00007F03F0364F00F0463F07F0304704370A2
:1012B0008570C670CCE738B5054608460C461EF06A
:1012C0004BFA214602462846BDE83840FFF702BFE8
:1012D00010B51446FFF710FF047010BD10B514468A
:1012E000FFF70AFF047010BD43688B422CBF5B1AE6
:1012F00000234360704738B5154642688A42044669
:101300000B4603D929448A4201D8436038BD80681E
:10131000521A014418441EF0BFF96268521B626001
:10132000F4E70846114622F02DBE70B50546084682
:101330000E461EF011FA044620B102466B6828687A
:1013400031469847204670BD2DE9F74F01919DF831
:10135000301091460D9A11F0DF0F0646A2EB0902FC
:101360003DD030290CA9244F0EBF4FF010080F4676
:101370004FF0010813F0800435D002EBD2746410F2
:10138000151B002C36DDA246D045C346A8BFD34668
:10139000736830685A463946AAEB0B0A9847BAF187
:1013A000000FF1DCB9F1000F05D0736801993068C6
:1013B0004A4698474C44002D0DDD2C44A845C146B3
:1013C000A8BFA946736830684A463946A5EB0905A7
:1013D0009847002DF2DC204603B0BDE8F08F074FA0
:1013E0004FF01008C6E713F0010501D11446C8E715
:1013F0001546D7E70024D5E7082F0308F72E030882
:101400002DE9F04389B007460020119D9DF84880E2
:10141000139E8DF80F0002B3814219DA2D228DF848
:101420000F204942109A08ACA2F10A000DF1100EEB
:10143000B1FBF3FC03FB1C12092A8CBF12183032DB
:1014400004F8012D74450FD08B420DD86146EFE7AB
:10145000A80727D52B228DF80F200029E2D13023B1
:101460008DF81F300DF11F0415F040099DF80F3065
:101470001CD023B30122CDE900822B460DF10F01D0
:101480003846FFF761FF013E814608AACDE9008694
:101490002B46121B21463846FFF756FF484409B039
:1014A000BDE8F0836A07D8D52022D4E7002BECD022
:1014B00004AA9442E9D904F8013C013CE5E79946C5
:1014C000E3E700002DE9F04F93B080461E46C807C1
:1014D0009DF874301C9D06930C469146DDE91E7AFA
:1014E0000BD4A10703D12268794B9A4205D020463C
:1014F0000CF0DAFD400040F0010415F0810306D144
:10150000069A302A03D15745B8BF57469A46204617
:101510000FF025FE00280DF1280B18DBAA0712D5C5
:101520002B238DF828300DF12903E806F6B21DD5DE
:10153000B9F1020F0DD11A46302102F8021B711CBD
:101540005970134612E06B0701D52023E9E75B468B
:10155000EBE7B9F1080F60D1A9054FF030021A701E
:1015600045BF06F10E025A7001330233002215F016
:10157000200F1A70A3EB0B0305930EA90CBF1346A3
:101580002C23BAF1010F0B91C8BF45F04005102183
:10159000CDE90C1215F040018DF827200791CDE917
:1015A000026344D0CDE9009223460DAA0CA90BA8F2
:1015B0000FF0A4FC03782D2B814606D18DF827303F
:1015C0000D9B013B00F101090D93BAF1010F3CDDC8
:1015D0000D9C079B5445B8BF54462BB19DF827304E
:1015E00003B10134059B1C44A7422BDD15F0010318
:1015F000A7EB040427D126461C4625F001054EB171
:1016000020230093002301961A4632494046FFF7F3
:101610009BFE06463023069319E0B9F1100FA5D1C1
:101620001A46302102F8021B06F1170188E70AABBF
:10163000CDE900930DAA23460CA90BA80FF05EFC80
:101640008146C2E700240026D7E700242646079BF0
:10165000DBB19DF8273053B100230122CDE90032E0
:101660000DF127014046FFF76FFE013F0644059B41
:101670005BB100230122CDE900325946059A40466C
:10168000FFF762FE059B0644FF1A069B0093BAF122
:10169000010FC8BF574601972B460D9A4946404651
:1016A000FFF752FE06444CB120230093002301941F
:1016B0001A4608494046FFF747FE06440B980EAB12
:1016C000984201D0FEF7C7FD304613B0BDE8F08F59
:1016D000145C030843A103082DE9F04316468BB0C0
:1016E000B20780469946129F3CD416F0040F0CBFF7
:1016F0000023202300930A46139B202102A809F00F
:1017000013FFF30504460DD5431C1F2B0AD80AAA64
:101710001444252204F8202C0AAA1A44002102F8B5
:10172000201C1C4616F040051ED09DF808302F2BBB
:101730004FF000031AD8012202A9CDE90032404639
:10174000FFF702FE013F0546013C0DF10901CDE91D
:101750000097334622464046FFF7F6FD28440BB07B
:10176000BDE8F0832B23C5E702A9F0E702A91D46D7
:10177000EDE700002DE9F04F824689B014460026BF
:101780000B461D4613F8012B0AB1252AF9D1A942AF
:1017900008D26F1ADAF80430DAF800003A469847AF
:1017A0003E4429460B78002B00F0038101312023B1
:1017B0004FF000080A4612F8015B15B94FF00A0C09
:1017C0001DE02D2D03D148F001081146F2E72B2D25
:1017D00002D148F00208F8E7202D02D148F00408B1
:1017E000F3E7212D02D148F00808EEE7302D22D191
:1017F00048F040082B46E8E70CFB0525303D0F4636
:1018000011F8012BA2F130000928F5D92E2A3AD17E
:101810007A782A2A11D04FF0000B4FF00A0C0F46AD
:1018200011F8012BA2F1300009280BD80CFB0B2B6F
:10183000ABF1300BF3E70025C0E754F8042B023777
:1018400022EAE27B3A786C2A08BF013797F80090C9
:10185000B9F1000F00F0AD80B9F1640F00F088809D
:1018600026D8B9F1500F2DD010D8A9F14502022A7F
:1018700040F28C80DAF80430DAF8000001223946B0
:10188000984701364AE04FF0FF3BDBE7B9F1620FC2
:1018900038D048D8B9F1580FECD1A9F11709CDE9E2
:1018A0000235CDF804805FFA89F3009310235DE0E0
:1018B000B9F1710F41D00BD8B9F1670F66D9B9F101
:1018C000700FD7D1CDE90235CDF804806123ECE764
:1018D000B9F1750F43D0B9F1780FDED0B9F1730FBC
:1018E000C8D1BBF1FF3F54F8049B05D1484605938E
:1018F0001DF032FF059B8346CDE900355A4643462D
:10190000494607E054F8042BCDE9003543463AB187
:101910002A4904225046FFF717FD0644791C2FE799
:1019200005222749F6E754F8042B8DF81C20CDE951
:1019300000350122434607A9ECE707A954F8040B38
:101940000593FFF740FBBBF1FF3F059B08BFDDF8A8
:101950001CB0CDE90035014643465A46DAE7CDE9E9
:10196000023561230093CDF804800A23002207E0AA
:10197000CDE9023561230093CDF804800A230122CA
:1019800054F8041B5046FFF73BFDC6E7073424F02C
:101990000704F4E8020105932CF06EFFCDE9005B2B
:1019A00000EE100A059B424649465046FFF794FE5A
:1019B000B3E7304609B0BDE8F08F00BFEC2E030856
:1019C000F12E03080EB403B503AA52F8041B0192CA
:1019D000FFF7D0FE02B05DF804EB03B07047037868
:1019E0001A060AD503F07F034022134207D110F8EC
:1019F000012F02F0C001802905D01846704723EA64
:101A000002035208F1E702F03F0242EA8313EEE7D5
:101A1000421C10460132037803F0C003802BF8D03B
:101A200070470023814201D81846704711F8012DF4
:101A300002F0C002802A18BF0133F3E701440346D5
:101A4000002099421A4600D87047127802F0C0026E
:101A5000802A03F1010318BF0130F2E77F289DBF00
:101A6000024B185CC0F3400000207047192F030898
:101A70007F289DBF024B185CC0F3C0000020704758
:101A8000192F03087F289DBF024B185CC0F380000C
:101A900000207047192F03087F289DBF024B185C58
:101AA000C0F3801000207047192F03087F2809D841
:101AB000064B1B5C13F00C0F06D1A0F15F035842DC
:101AC000584170470020704701207047192F0308C4
:101AD0007F289DBF024B185CC0F3001000207047A8
:101AE000192F03087F289DBF024B185CC0F34010DC
:101AF00000207047192F030808B50246FFF7E8FFDA
:101B000000B12032104608BD08B50246FFF7EAFFD3
:101B100000B1203A104608BD3038092884BF20F0B3
:101B200020000738704710B501440246E524002024
:101B3000914203D8B0FA80F0400917E012F8013B57
:101B400030B103F0C003802B11D10138C0B2EFE7F0
:101B5000BF2B09D9F72B09D8DB0803F0060344FA99
:101B600003F303F00300E3E71B06E1D510BD0020FB
:101B7000FCE7023981420B4603D31A880239002A56
:101B8000F8D002331B1A5810704770B51C099442E4
:101B900015D2121B01EB4401154603F00F030E464C
:101BA000012D31F8024B18BF3468DC40A4B2013D6E
:101BB00020F8024BF3D104B9013A104670BD00225F
:101BC000FBE7F0B5059D0024521B2746A5420FD127
:101BD0006D00441900230D449A4214D104EB4203D2
:101BE0001FB1012124F812100233181A4010F0BD61
:101BF00031F8146033F814C066443E4420F8146091
:101C0000370C0134E2E735F813603E4424F81360E2
:101C1000370C0133E0E7F0B4049E0025921B2C46FC
:101C2000AE420AD17600851900230E449A420FD1A4
:101C300005EB4201F0BCFFF79CBF31F815703C4446
:101C400033F81570E41B20F8154024140135E7E73C
:101C500036F813100C4425F8134024140133E5E73B
:101C60002DE9F043079CDDF828E0DDE9087602392C
:101C7000154684464FF6FF78A4EB020955B900EBF0
:101C800042011FB1012320F812300231BDE8F043B8
:101C9000FFF76FBF31F8024F013D4444264405EB86
:101CA0000904AC4296BF33F8024B4FF6FF7444442C
:101CB000744486EA040E17FA8EF72CF8027B4FEA7A
:101CC000144E360C3F0CD9E738B50229044680681B
:101CD00038BF02210D4618B12368B1EB930F07D925
:101CE0006900FEF7ABFA2368A06065F39F032360E9
:101CF00038BD38B505460C20FEF790FA2A780378EF
:101D000062F300036FF341030446037028682368FD
:101D1000C0F39D0060F39F0323606B686360400025
:101D2000FEF77CFAA0602A68A968C2F39D025200FF
:101D30001DF086FC204638BD10B54B0018441A44EF
:101D400009B9084610BD30F8023D32F8024D1B1BA0
:101D5000002B02DB04D10139F2E74FF0FF30F1E74D
:101D60000120EFE710B5044638B18068FEF773FA3A
:101D70002046BDE81040FEF76EBA10BD38B50546E6
:101D80000C460221FFF7A0FF002C2B78B4BF0122E4
:101D9000002262F300032B704FF00003B8BF6442CF
:101DA0006B6004B938BDD5E90132581C686022F86F
:101DB0001340240CF5E70023C0E90033836070472B
:101DC00028B103789B0702D48068FEF744BA7047B5
:101DD00038B505460C464968FFF776FF22782B7820
:101DE000A86862F300032B7063686B606268A16887
:101DF0005200BDE838401DF023BC034609B95960C4
:101E00007047FFF7BBBF08B5FFF7D5FFBDE8084037
:101E1000FFF7F3BF30B4046862F39F04046004F07A
:101E2000FC0444F0020400220470C0E9012130BC2B
:101E30001946FFF7E2BFF8B59DF818700421064671
:101E400014461D46FFF740FF8FB1002C75F10003CB
:101E50000DDA624265EB45030120317860F3000141
:101E600031700021716052EA030104D1F8BD2246AD
:101E70002B460020F1E7D6E901104C1C746020F8D5
:101E80001120110C41EA0341180C0A460346EAE707
:101E90002DE9F04110EE106A0378F20F62F30003AF
:101EA0000370C6F30F4313F4FF43074603D1002327
:101EB0007B60BDE8F081B3F5FF4FF8D0C6F3C753A0
:101EC000A3F17F04002CF2DB04D10121BDE8F04135
:101ED000FFF754BFB3F16F0848BFA3F16008C6F322
:101EE0001606162C4FEA281846F4000621DCC4F129
:101EF0001704E6400024254641463846FFF7E4FE35
:101F0000C7F8048025B16A000021B8681DF0DCFB29
:101F100044B1BB6806FA04F223F81520C4F110049A
:101F2000E6400135A845C4D0BB6823F81560360CDF
:101F3000F7E7B3F1960504F1090448BFA3F187055B
:101F400004F00F042D11D7E72DE9F84304468F184C
:101F5000C2F35B020D46511C9846089EFFF7B4FE83
:101F60002278002368F300022270636029461FFA7A
:101F700086FCB942084602D3401BBDE8F8830278CC
:101F8000A2F13003092B01F1010105D9A2F14103AE
:101F9000192B14D8A2F13703B342EDD2D4E901E0F2
:101FA000F0468146B8F1000F10D100EB4E0213B19C
:101FB00020F81E300232121A52106260D9E7A2F1E4
:101FC0006103192BD8D8A2F15703E5E7B9F800202F
:101FD00002FB0C3329F8023B08F1FF381B0CE1E748
:101FE000F8B5044615461E46C1B1531E1E444FF0B7
:101FF000FF37E9000F3109092046FFF765FE237816
:1020000000216FF30003237061604DB9D4E9011022
:1020100000EB4101FFF7ADFD6060F8BD0127E8E787
:1020200000230F2908DC32788A401343013D9BB21C
:1020300001F108013E44F4D16268501C6060A06860
:10204000103920F81230E0E70A46416838B50446F6
:1020500009B9506890B11378257803F0010305F0B1
:102060000100181A0AD15368994208D30AD8926815
:10207000A068FFF761FEEB0748BF404238BD4FF054
:10208000FF30F8E70120F6E7884210B5044601D09A
:10209000FFF79EFE23786FF30003237010BD884284
:1020A00010B5044601D0FFF793FE2378C3F3000276
:1020B000C2F1010262F30003237010BD88421FB514
:1020C000044601D0FFF784FE626862B90121204610
:1020D000FFF7FAFDA268012313806360237843F0C1
:1020E0000103237010E02378D9070FD56FF30003A5
:1020F000A16823700123ADF80E30009308460DF15E
:102100000E03FFF788FD606004B010BD511C20462F
:10211000FFF7DAFDD4E901210123ADF80E30009379
:1021200008460DF10E03FFF74CFD6060D6E72DE980
:10213000F0470E4649680546174601B12AB93146AF
:102140002846BDE8F047FFF743BE02F10F0424091B
:102150002144FFF7B9FD7068A968B36817F00F0E46
:1021600004EB000707F1004808F1FF384FEA480880
:1021700001EB080C08BF4FF0100E03EB40090146BD
:10218000E2460022CEF1100E11BB6FF0010358435E
:102190000CEB000922FA0EF22CF8002003FB04934A
:1021A00004F100420233013A184652001DF08CFA45
:1021B00008F102080346434417B133F8022D8AB1EF
:1021C0006F6032782B7862F300032B70BDE8F087E4
:1021D00039F8023D1A4322FA0EF32AF802391204A2
:1021E0000139D1E7013FE7E7F0B50E46496885B010
:1021F0000546144601B12AB931462846FFF7E8FDE5
:1022000005B0F0BDFFF760FDD6E901212346A868BF
:10221000FFF7BBFC686031782B7861F300032B700B
:10222000DB070246ECD500237768ADF80E302109B4
:102230009F4201D08B420FD18F42E1D9B36804F0A5
:102240000F0433F81110012303FA04F4013C214276
:1022500013D0ADF80E3008E0B06830F8130050B17C
:1022600001238F42ADF80E30E8D8A96801234AB99E
:102270000B806B60C4E70133DAE7BDF80E30002B4A
:10228000BED0F2E7009308460DF10E03FFF799FC6C
:102290006860B5E773B553680C46496899420646CD
:1022A000154606D308D89268A068FFF745FD0028B8
:1022B00002DA23462C461D4623782A78616853406B
:1022C000DB0713D401313046FFF7FEFC6B68009347
:1022D000AB68B068D4E90121FFF773FC7060227825
:1022E000337862F30003337002B070BD3046FFF7FD
:1022F000EBFC6B680093AB68B068D4E90121FFF791
:102300008AFCEBE7F7B553680C46496899420646E4
:10231000154606D328D89268A068FFF70DFD00285F
:1023200022DA234601272C461D4623782A78616845
:102330005340DB071AD501313046FFF7C5FC6B6807
:102340000093AB68B068D4E90121FFF73AFC7060F4
:10235000237803F001030FB183F00103327863F3B4
:102360000002327003B0F0BD0027DEE73046FFF711
:10237000ABFC6B680093AB68B068D4E90121FFF750
:102380004AFCE4E72DE9F04F15464A686B689A422B
:102390000E463EBF2E460B461D4633787168DB075E
:1023A00085B0044621D42B7813F001071DD1FFF727
:1023B0008BFCD5E9011CA068B6683B4699420BD15D
:1023C00000EB4101FFF7D5FB237860606FF300035A
:1023D000237005B0BDE8F08F36F813203CF8135099
:1023E0002A4020F813200133E8E701312046FFF7A7
:1023F0006BFC32782F78AB68009382EA0703DB43EB
:1024000003F00103C3F1000C02F001021FFA8CF18A
:10241000C2F1000C02911FFA8CF10191B168D6F85B
:1024200004E0A068A1F1020A696807F00107C7F19A
:102430000008A1EB0E011FFA88F8F44681460391CB
:10244000BCF1000F15D100EB4E011BB1012320F8A8
:102450001E300231FFF78DFB606033782A78C3F3BA
:102460000003C2F300021340227863F300022270DB
:10247000AFE73AF802BF019981EA0B0B03990CF11F
:10248000FF3C5A4401EB0C0BE3459FBF009931F828
:1024900002BB009188EA0B0B88BFC3465F440299D8
:1024A00002EA070B8BEA010B13FA8BF329F8023BC4
:1024B0003F0C120C1B0CC3E72DE9F84F16464A6877
:1024C00073689A420D463EBF35460B461E462B7832
:1024D0006968DB0704462ED4327812F001082AD14D
:1024E000FFF7F2FBD6E9013CA9686D68A768ED1A11
:1024F0004246934210D15B00194400223B4495426E
:1025000013D103EB4503DB1B5B10636023786FF390
:1025100000032370BDE8F88F31F812003CF8126018
:10252000304327F812000132E3E731F8120023F8B4
:1025300012000132E3E701312046FFF7C5FBD6E97F
:1025400001232F7836786968A068AD6807F0010725
:1025500006F00106C7F10008C6F1000CA5F1020E55
:102560001FFA88F81FFA8CFC0D4682464FF00109CD
:10257000A2EB010B45B900EB4101FFF7FAFA237812
:10258000606043F00103C4E73EF8022F013D88EA92
:10259000020217440BEB0502AA4296BF33F8022B46
:1025A00062468CEA0202164447EA0602D24319FA4E
:1025B00082F22AF8022B360C3F0C4FEA1249D9E777
:1025C000F0B516464A6873689A4238BF0B460C4607
:1025D0003CBF34461E462778337861685F4017F069
:1025E000010785B005463AD1FFF76EFB237813F05B
:1025F000010328D1D6E90117A2686468A868641AA3
:10260000994210D149000A4400230144A34214D145
:1026100001EB4301FFF7ADFA2B7868606FF300031D
:102620002B7005B0F0BD32F8136037F813C086EA9E
:102630000C0620F813600133E2E732F8136021F84A
:1026400013600133E2E7CDE90277019773680093E5
:10265000B368A868D4E90121FFF702FBDCE7013188
:10266000FFF732FB3378A868DB4303F001030393E1
:102670002378DB4303F00103029301230193736882
:102680000093B368D4E90121FFF7EAFA2B78686078
:1026900043F00103C4E72DE9F04F4B6885B00446D1
:1026A0000E4615460BB1536823B90023636005B08D
:1026B000BDE8F08F814234D1FFF71BFBA5420646EF
:1026C000074600D105466B68716820461944FFF73C
:1026D000FBFA2268A068C2F39D02520000211CF0A0
:1026E000F3FFB368A1680193AB68D6F804A0029326
:1026F0006B68039300228B1E009301EB4A0C134678
:102700000398904239D163602A7833785340227815
:10271000384663F30002227005B0BDE8F04FFFF7C2
:1027200021BB824204D1FFF7E4FA05460746CAE717
:102730000027C8E738F8029F0298994430F8120041
:102740003BF8023B00FB0393A8F800300EF1FF3E7C
:102750001B0CBEF1000FEDD1E6460CF1020813B1DF
:10276000ACF80030C6460098AEEB010E02304FEADE
:102770006E030132C4460090C2E7DDE9008BD64605
:102780000023E6E74B6870B50646144613B113788C
:10279000DA0702D50023736070BD636823B9012195
:1027A000BDE87040FFF7EABA0846FFF7A2FA05460F
:1027B0002046FFF79EFA012104463046FFF7DEFA75
:1027C000636883B1A3681B88DB0704D52A463146BA
:1027D0003046FFF760FFD4E9012101230846FFF7E7
:1027E000D4F9606038B92846FFF7BCFA2046BDE846
:1027F0007040FFF7B7BA2A4629462846FFF74BFF35
:10280000DEE72DE9F04F0C4651688FB0914601315B
:1028100005460293FFF758FAD9F80420A868013258
:10282000520000211CF050FF00236B60D9F8041007
:1028300020460131FFF748FA49462046FFF7C8FA1B
:10284000029B67685B680193BB4232D8029BD4F855
:1028500008B09E68AB6803932DD33246394658467C
:10286000FFF76AFA002823D1039A606001231380DE
:102870006B60029A99F8003012785340DB0714D548
:102880002B7843F001032B70636873B14FF0FF3175
:102890000BA8FFF7B8FA0BAA29462846FFF7FAFC5F
:1028A000029A21462046FFF7F5FC0FB0BDE8F08FF5
:1028B00001DA0023DCE7019B03F1004001384FEA15
:1028C000400A36F81020002312F4004F03F10101F2
:1028D00052D07A009BB24FF0000E791C02F1020830
:1028E0000592C3F110022BF817E0D8446160DC4672
:1028F00077460492C44543D336F8100000FA03F239
:102900000492019A012A09D906EB0A00C3F11007C3
:1029100030F8020CF840049F074304970198059A89
:10292000091A6960039801F10041013900EB410186
:1029300005910AF102010991B11E5A440891D4F897
:1029400004A00199514527D30AF1004A0AF1FF3A40
:102950000BEB4A0A0020C3F11006D3457BD96FF078
:1029600000416B682BB15A18039830F81220002AE6
:102970007BD06FF000417DE0520092B20B46A3E79E
:10298000BCF800E00EFA03F21743049A2CF8027B1D
:102990002EFA02F7BFB2ADE7118832F8027C47EA9F
:1029A00001470499B7FBF1F70999511A0691089963
:1029B0000791DDF818C000218E4662450CD81088BA
:1029C000091A002941D1059921F8027905910AF1E6
:1029D000FF31023A6160B2E7079EBCF8008036F82A
:1029E000020F0796984040EA1E4E1FFA8EF0784379
:1029F000404503D2A8EB00068E420FD80144A1EB5C
:102A000008081FFA88F10031C8F1000618BF01213B
:102A1000B6B201EB18412CF8026BCEE7761AB6B2CB
:102A20000021F8E738F802CF0CFA03FC4CEA1E4EFE
:102A3000B6F800C010FA8EF0604426F8020B000CC5
:102A4000B242EFD8091A013FBBE70020DDF8208031
:102A5000069E8646F4E7BAF8002042FA03F10143E5
:102A6000B2402AF8021990B277E7013B6B6078E731
:102A7000013B63606368002B3FF4FBAE5A183BF8E0
:102A80001220002AF4D0F4E6F0B51F464B6885B05A
:102A900006460C4615464BB11378DA0706D47B6818
:102AA000012B07D1BB681B88012B03D10023736066
:102AB00005B0F0BD01213046FFF760F96B68002BCF
:102AC000F6D02046FFF715F904462846FFF711F91E
:102AD000054601A8FFF76FF96B68B3B1AB681B88B7
:102AE000DB070AD5224631463046FFF7D4FD3B4688
:102AF0003246314601A8FFF784FED5E901210123C2
:102B00000846FFF742F8686048B901A8FFF758F98E
:102B10002046FFF727F92846FFF724F9C8E72246A1
:102B200021462046FFF7B7FD3B462246214601A835
:102B3000FFF767FED0E710B5D0E90121002301EBD4
:102B40004202914205D30278D20748BF5B42184641
:102B500010BD32F8024D44EA0343F2E730B5D0E944
:102B60000124002304EB4202944206D30278D207E8
:102B700048BF5B420B60012030BDB3F5004F04D26B
:102B800032F8025D45EA0343EEE70020F4E72DE961
:102B9000F043884661B19F18D0E901140025A4F1E3
:102BA000020E4FF00109AC461A4419B9BDE8F08392
:102BB0001F46F1E73EF8024F0CF1100C44EA0545C0
:102BC000BCF1070F01DC0139EFE70678ACB2F6077C
:102BD00041BFE44359FA84F4A4B24FEA1429E4B2A1
:102BE000B8F1000F09D07E1E07F8014CB342DDD0CA
:102BF000ACF1080C2D0A3746E2E73E4606F8014BD9
:102C00009642F4E7D0E901329FED0C0A9FED0C7A71
:102C100002EB43039A4205D30378DB0748BFB1EECA
:102C2000400A704733F8021D07EE901AF8EEE77A73
:102C3000E0EE077AB0EE670AECE700BF00000000A4
:102C4000000080472DE9F84F44689DF828A00B9DAF
:102C50008046894616469B469CB982B1561E2B4635
:102C600016F8012F18463AB930230370002300F8F4
:102C7000013F401BBDE8F88F03F8012BF0E7284621
:102C8000F2E764002046FDF7C9FA22460746D8F865
:102C900008101CF0D5FCABF13A0B28462A4607EB8E
:102CA000040CACF1020300219F421C4633D93031A1
:102CB0003929144688BF594404F8011B3B469C45FA
:102CC000194632D8BAF1000F08D00123211A03297E
:102CD00002BF941C82F801A02046D3B13846FDF70C
:102CE000BAFA3EB130461CF037FD23463044B042BC
:102CF0001C4623D898F80030DB0744BF2D2304F886
:102D0000013B2B46621E9A421DD800232370601B94
:102D1000B0E72246C5E7248844EA0141B1FBF9F453
:102D200023F8024909FB1411BEE709880233002980
:102D3000C5D0BAF1000FECD00023C7E710F8012D81
:102D400003F8012BD3E71978107803F8010B02F888
:102D50000119D8E7D0E9023293423DBF5A1C826084
:102D600018784FF0FF307047036810B5044613B170
:102D70004068FDF770FA2046BDE81040FDF76BBAD9
:102D8000F8B5054610200C461F461646FDF746FAD4
:102D9000054B8460C0E900743444C4606B60034B2D
:102DA0002860AB60F8BD00BF552D0008692D0008F4
:102DB0000369272B1DD0222B1BD0752B03D023F0AA
:102DC0001002622A10D14269272A12D0222A10D07A
:102DD000722B09D1622A0ED18069272809D0A0F16F
:102DE0002203584258417047622B04D14369722B29
:102DF000F1E7012070470020704702690A2A10B5E8
:102E0000044622D1C3690133C3610123236263698C
:102E10002361A3696361D4E9010398476369A061F1
:102E20000D2B07D10A239842636103D1D4E9010332
:102E30009847A061A369013306D163695A1C03D086
:102E40000A2B1CBF0A23A36110BD036A092A04BF11
:102E5000073323F007030133D8E770B504460E4665
:102E600000252069431C01D1284670BD0A2808D1DD
:102E700016B1A36A002BF7D02046FFF7BEFF01254D
:102E8000EFE7FEF7EBFD18B12046FFF7B6FFE8E7E6
:102E90002369232B08D12046FFF7AFFF23695A1C73
:102EA000DFD00A2BF7D1DCE75C2BDDD163690A2B7D
:102EB000DAD12046FFF7A1FFE6E700002DE9F74F42
:102EC000044600218164FFF7C8FFE369A363636AD6
:102ED000256AE563002B04DA062284F840200133DA
:102EE00004E007D0052284F84020013B636203B070
:102EF000BDE8F08F90B3A36A83BBD4E90C20042310
:102F000084F840306FF00043D118013D30F81110C3
:102F10008D42ECD017D9E16A8A4207D308314900C3
:102F2000FDF78CF9E36A60630833E362D4E90C329D
:102F3000591C216322F81350636AD0E7013A2263D7
:102F4000626A013A6262226BD11830F811108D4228
:102F5000F4D3CCD0022384F84030C8E72169481C60
:102F600001D10023F7E72046FFF722FF8146002822
:102F700000F03C81002384F840302369752B5BD03E
:102F8000622B4ED16369722B0DBF4F46002701257E
:102F900002250B2394F84020002A55D184F84030B4
:102FA0003DB12046FFF729FF022D02D12046FFF751
:102FB00024FF23692046222B14BF4FF027084FF02F
:102FC0002208FFF71AFF2369434540D163699845FA
:102FD0003DD12046FFF711FF2046FFF70EFF0326E5
:102FE0004FF0000A04F14405D4F810B0BBF1FF3FE4
:102FF00000F0F680012E03D1BBF10A0F00F0F08043
:10300000B24526D3514604F14400FEF76DF9012183
:103010002046FFF722FF2046FFF7CAFE0028ACD16A
:1030200065E7722B0CD16369622B4F4615BF0125F2
:1030300002250A230B23ADE701250A230027A9E770
:1030400000250A232F46A5E79A42A9D04FE701267B
:10305000C6E7D84509D1414628460AF1010AFEF7DC
:10306000EEF82046FFF7C9FEBEE7BBF15C0F40F06B
:10307000AC802046FFF7C1FED4F810A02FB15C2130
:103080002846FEF7DCF8D34665E0BAF1620F00F09F
:10309000858027D8BAF14E0F6ED010D8BAF1220F22
:1030A0001ED0BAF1270F1BD0BAF10A0F61D0AAF1D6
:1030B000300BBBF1070FE2D84FF0030A66E0BAF11C
:1030C0005C0F0DD0BAF1610F6BD0BAF1550FEED194
:1030D00094F840200B2A1FD15C212846FEF7AFF858
:1030E000D3463EE0BAF1740F5ED00BD8BAF16E0F42
:1030F0005DD0BAF1720F5DD0BAF1660FD7D14FF043
:103100000C0B2EE0BAF1760F57D0E1D3BAF1780F5D
:10311000CDD14FF0020A06E0BAF1750F0CBF4FF0A7
:10312000040A4FF0080A4FF0000B11E02046FFF7A9
:1031300064FE226901921046FEF7AEFC002800F002
:103140006281019A1046FEF7E7FC4FEA0B1B8344AD
:103150001AF1FF3AEAD2BBF1FF3F0AD0AD4B9B45D3
:1031600039D894F840300A2B2AD159462846FEF720
:1031700066F84FF0000A74E7A7480AF0DBF920462A
:10318000FFF73BFE2269303A02EBCB0B6269303A23
:10319000072AE0D8BAF1010AF1D1DCE74FF0080BB9
:1031A000DFE74FF0070BDCE74FF0090BD9E74FF0F3
:1031B0000A0BD6E74FF00D0BD3E74FF00B0BD0E720
:1031C000BBF1FF0F07D80B2B05D15FFA8BF1284617
:1031D000FEF72EF8CDE74FF0010384F84030C8E742
:1031E000B2453CBF032284F840200BE70846FEF7B7
:1031F0003FFC054620691DB95F2801D07F283ED9D4
:10320000072384F8403004F14405C1B22846FEF794
:103210000FF82046FFF7F1FD2069421C1BD128461C
:10322000FDF7F7FF7D4E0746002556F8041B38468C
:103230001CF0A0FA00281CD10D35EDB2102D84F839
:1032400040507FF454AE764BD3F8E431002B0CBFE2
:103250000F230D237FE6FEF70BFC40B920695F28A2
:1032600005D07F2803D8FEF70DFC0028D7D0217C9D
:10327000CCE7FFF63CAE0135242DD6D137E6FEF77C
:1032800001FC68B321692E2935D1092384F8403027
:1032900004F144063046FDF7D2FF2046FFF7ADFDAE
:1032A00009272069431C3FF422AE002D35D120F0C0
:1032B0002003452B31D16521304684F84070FDF75D
:1032C000BEFF2046FFF799FD21692B2901D02D294A
:1032D000E7D13046FDF7B3FF2046FFF78EFDE0E76C
:1032E00023692E2B04D16069FEF7CCFB0028C9D1DD
:1032F00000264C4D31E00823302984F84030C7D1F6
:10330000656945F02005A5F16203162B9DBF464D6A
:10331000DD4005F001050025BAE7FEF7A9FB28B15D
:1033200021692E290DD184F84070D2E72069FEF77B
:10333000A9FB0028F4D123692E2BF1D05F2BCBD031
:10334000D5E521F020034A2BC3D1ECE7652F01D04E
:10335000632F00D10135013601352F7817B123696C
:10336000BB42F3D12046FFF748FD0FB90123F2E538
:10337000212F07D123693D2BF8D12046FFF73DFDD2
:103380004323E8E52E2F0FD123692E2B02D1636949
:103390002E2B01D04C23DEE52046FFF72EFD2046E4
:1033A000FFF72BFD0C23D6E50335334615F8027CD9
:1033B000632F0FD0652F0DD01C4AD35C84F84030AA
:1033C00003F0FD02442A01D0482B14D1A36A013333
:1033D000A3628CE515F8012C2169914206F10106E2
:1033E00007D12046FFF709FD3346652FE4D00235AB
:1033F000DCE7632FFAE7452A02D0492B7FF477AD4B
:10340000A36A013BE4E74FF0010384F840308346B0
:10341000A7E600BFFFFF1000DA2F03089C30030867
:1034200040040020992F0308012040006F3003085A
:103430007FB5064601AD542085E80E00FCF7EEFE90
:103440000446034695E8070043F8046B83E8070049
:1034500001236FF00102C4E9073200250A22C4E902
:103460000B23C4E909551420FCF7D8FE2021606322
:1034700004F14400FDF757FE636B20461D80C4E94C
:1034800005552561FFF7B9FC2046FFF7B6FC20463D
:10349000FFF7B3FC2046FFF711FDE36B012B18BFCC
:1034A0000523204618BF84F8403004B070BD30B505
:1034B00085B001AC05462046FFF762FC94E80E009B
:1034C0002846FFF7B5FF05B030BD30B585B001AC7B
:1034D0000146054620461BF0C1FE2846FDF75AFD71
:1034E00094E80E00FFF7A4FF05B030BD10B5044608
:1034F00070B1C3684068984704F14400FDF740FE8E
:10350000606BFCF7A8FE2046BDE81040FCF7A3BEA8
:1035100010BDD0E90432013B036152F8230070472B
:10352000C1F17F5101F57F11036901F57F513F31F1
:103530001944436953F821007047F8B5446A0646B8
:103540000D46B4B1D4E900030B44834222D90831BB
:10355000002201442046FCF77CFE0246B8B96168AF
:1035600020460831FCF775FE63682360336A6360A8
:103570003462802D2F4638BF802707F10800FCF702
:103580004DFE0023076043600446706202E023683A
:103590002B44236060680544656008342044F8BD0E
:1035A00038B50D46D0E903138B42044608D31031D9
:1035B00089004069FCF742FEE36860611033E36014
:1035C000D4E90432591C216142F8235038BDF8B5C2
:1035D0000D461F46D0E900138B420446164608D319
:1035E0001031C9008068FCF729FE2168A060103105
:1035F0002160D4E901104B1C636050F8312065F361
:10360000170200EBC10340F83120DE705F60F8BDA7
:1036100010B48469CAB20023A16B5DF8044BFFF7B4
:10362000D6BF0000F7B586690F4696F84010072907
:1036300005461FD1D6E91210FDF728FC8E2F04464F
:103640000ED18100002241F0020105F128000AF0AC
:103650001FFA28B14468E30720D544F0010002E0D6
:10366000200140F002000146284603B0BDE8F040CA
:10367000FFF796BF082907D133460022D6E912107A
:1036800008F0BEF90446E6E7092912D100960023A6
:103690000122D6E9121008F031FA04460C2128461E
:1036A000B66BFFF74AFF40F239130660C0E90134F8
:1036B000D9E7A1F10A03012B1CD8D6E912100A2977
:1036C0000BD8FDF7E3FB96F8403048B10A2B0CBF4E
:1036D00006210A2141EA0010C5E7FDF7A7FBF2E742
:1036E000064C0748D6E912210A2B08BF20460FF0E6
:1036F00057FDD2E7090141F00E00B4E7606C030802
:1037000084690308DE2807D010F0010306D04308BF
:103710000CBF0120002070470120704718467047F9
:10372000FE2807D010F0010306D0430814BF012083
:1037300000207047012070471846704710F00102C2
:1037400004D040F00100086001207047A8B110F0DB
:1037500003030FD10279392A0ED183680B6013F06D
:1037600001000AD19A0708D11868044BC31A5842BD
:10377000584170471046704718467047145C03085C
:103780002DE9F04F2C2A85B00446884616461D4682
:103790000BD10021FFF7C4FE88B3810702D1037962
:1037A000902B2CD005B0BDE8F08FA2F11D03012BAA
:1037B00054D82F462A460AE01D2E42D1FFF7B0FF0B
:1037C000B0B90846FFF79EFF002808BF4A4602F13D
:1037D000FF396FB1013F39462046FFF7A1FE23694B
:1037E000A3EB020C6369014643F82C00002FE3D1E0
:1037F000002189452DD1A5EB0905012DD2D0A6F1D7
:103800002203022B55D8691E2046FFF789FE01A925
:10381000FFF794FF002879D0222E37D0232E0CBF3B
:103820004FF016094FF01709AF1E002F31DA002DA7
:1038300040F05A81019EF30740F15B8146F001019F
:103840001EE0FFF75FFF0028D2D10846FFF768FFB0
:10385000BAE72046FFF75DFE0131CAE71F2ACED145
:103860000021FFF75DFE0246FFF74CFF60B91046EE
:10387000FFF756FF0028C2D0DE212046FFF749FEA1
:103880002046FFF78DFE8DE7FE21F6E74FF0150984
:10389000CAE739462046FFF743FE02A9FFF74EFF6D
:1038A000A0B3DDE90112484609F06AFC013F01902E
:1038B000BBE7A6F12503022B4BD8691E2046FFF774
:1038C0002FFE01A9FFF73AFF00B3DFF84CA2AF1EAD
:1038D000002FACDD791E2046FFF722FE02A9FFF77C
:1038E0002DFF98B139462046FFF71AFEC0F30710A6
:1038F000504410F8319CB9F1FF0F07D002980DF039
:103900002EFCB9F1190F17D800281ADAA91C890062
:103910002046FFF712FE46EA052646600146C0F83B
:10392000008000F10806002DAAD02046FFF7F1FD27
:10393000013D46F82500F6E7B9F11C0F01D9002832
:10394000E4D0DDE90112484609F01AFC023F01907B
:10395000BEE7282E1BD100212046FFF7E1FD01A97B
:10396000FFF7ECFE0028D1D001212046FFF7D8FD5B
:10397000C0F30710312808D032280CBF01200220E4
:10398000019908F001FE019051E70020F8E7052EAB
:1039900068D100212046FFF7C3FD07460028B5D0B7
:1039A00010F0030A04D1436803F0FE03562BADD098
:1039B00001212046FFF7B4FD00F00F03022BA5D133
:1039C000BAF1000FA2D13B792B2B9FD1BB6803F03A
:1039D0000F02022A9AD11B09482B97D1FB68002BB2
:1039E00094D09A0792D11A792F2A8FD1D3F808B0A0
:1039F0004FEA101902A95846FFF7A0FE68B94249DC
:103A000042480CF023FAA1693A6809680546534612
:103A10000CF0E4FA2846FCF7E1FB4FEA89010122A9
:103A200041F0020104F128000AF032F8029B4360E1
:103A30004846FDF7C3FA03785F2B20460BD1FFF70A
:103A400068FD2046FFF765FD002308221946204641
:103A5000FFF796FEA6E6FFF75CFD59462046FFF706
:103A60009FFD53E72B2E7FF451AF01212046FFF736
:103A700057FD00F00F03022B07467FF447AF0021EC
:103A80002046FFF74DFD00283FF440AF10F0030241
:103A90007FF43CAF0379312B7FF438AF39098900CB
:103AA000D0F808901A4841F0020109F0F1FF00280F
:103AB0003FF42CAF02AA4FEA1911406808F090FEBB
:103AC000029B002B3FF422AFD90707D49A077FF45B
:103AD0001DAF19680F4A91427FF418AF039A002A6C
:103AE0007FF414AF0193A2E62046FFF712FD013DDB
:103AF0009DE60C212046FFF720FD40F239130146D8
:103B00000560C0E90136BBE6B73103084855030834
:103B10002C310308145C0308AB360308036830B586
:103B200013B91360184630BD9C0702D01060012005
:103B3000F9E75C68E5B28D42F8D108331360200ADA
:103B4000F1E700002DE9F04F93B0002440230290EC
:103B50004FF400700F460192CDE90534FCF75EFB8F
:103B6000202307908020CDE90834FCF757FB21463D
:103B7000CDE90A070FA8CDE90D4409F04FFF019BDD
:103B8000002B4CD0022B0CBF3C2222460023B96BE9
:103B9000DFF8CCB205A8FFF71AFD4FF00008069C2D
:103BA000002C00F05F81013C079BA84D069403EBBD
:103BB000C40253F83430D6785268C3F3170AA44BC2
:103BC0009B5D0093A34B9B5D652E88BF43F4807380
:103BD00005EB4305009B03F00F0903F03003102BA6
:103BE0001FD0202B51D0B8F1000F00F00481B9F1A3
:103BF000020F40F0F380012A18D000210098C0077E
:103C000002F1FF3306D568880BEA0000B0F5805F4B
:103C100008BF5308012B40F0DF8069B1DCE03A2295
:103C2000B4E732B905EB4205914508D84FF00108D9
:103C3000B5E7B8F1000FF5D14FF00008AFE7A8469F
:103C400035F8023B03EA0B01B1F5805F0DD197F81F
:103C50004010C3F30B03994215D105A83146FFF775
:103C6000E1FC3846FFF72AF9E6E7531C4B4504D23E
:103C70003246514605A8FFF7AAFCB8F8001005A87F
:103C8000FFF7C6FCD8E70132CEE7B8F1000F0FD03E
:103C900002F10043013B35F813300BEA0303B3F59F
:103CA000405F1BD1002105A80392FFF779FC039A1E
:103CB00005EB4204914525D8019B0BB1052E43D05D
:103CC000002405EB490922464D455BD1012A7AD1F2
:103CD000009B5B0677D5002529466EE0012AA5D911
:103CE00097F84030052B40F0EC805B495B480CF0C6
:103CF000ADF800230446BA6B39680CF06FF9204622
:103D0000FCF76CFAA04634F8023B03EA0B01B1F56C
:103D1000805F17D197F84010DBB299420ED1072986
:103D200005D1314605A80392FFF77CFC039A039264
:103D30003846FFF7C3F8039A0132BBE7002A3FF485
:103D400075AFCDE7531C93E7002105A8FFF7E8FB0B
:103D50000028B5D1012105A8FFF7E2FB820700F09A
:103D6000B78000F00F000228AAD005A8FFF7D1FB0A
:103D700005A8FFF7CEFB00230822514605A8FFF750
:103D8000FFFC59E739F8023D03EA0B01B1F5805F0A
:103D900005D1DBB2072B97D10134013294E72146DC
:103DA00005A8FFF7BDFB00B1013201348CE7FFF736
:103DB000B0FB0135002818BF0146A54205A8F6D181
:103DC000FFF7EEFB38E7009B1D0604D5002105A890
:103DD000FFF7E6FB013423463246CEE7012A3FF4E3
:103DE00025AF12F001013FF409AFB9F1030F7FF4E1
:103DF00077AF012102E709EA020303F0010335F876
:103E0000134004EA0B01B1F5805F13D197F840101D
:103E1000C4F30B04A14202F1010409D11BB93146DC
:103E200005A8FFF7FFFB3846FFF748F82246E2E710
:103E30002246DCE6531C514605A83246FFF7C7FB75
:103E4000214605A8FFF7E4FBA9E600BF823203087C
:103E5000D3310308FC350308683103083C520308DA
:103E600000F0FFFF0FA809F0F2FD0E9850B1416875
:103E700022460831FCF7EDF90E9B5A681A600D9A3C
:103E80005A600D9397F84030002B7FF429AF099BBF
:103E9000002B3FF425AF0A9B07981B680C93FCF797
:103EA000DAF90A98FCF7D7F93846FFF71FFB0CAB95
:103EB00093E80300029B83E80300184613B0BDE8B3
:103EC000F08F022B01D1064910E7064906480EE79C
:103ED00000283FF4F5AE0379392B3FF446AFEFE607
:103EE0007A310308A83103084855030810B5406823
:103EF00000B910BD4468FCF7AEF92046F8E70000B1
:103F00002DE9F041054630200E4690461F46FCF74D
:103F100093F9072D04460570C660A0F8148001D0FF
:103F2000012D10D1B368C3F30F13E38207F03CFFF8
:103F300004232061678323852020FCF76FF9E0626A
:103F40002046BDE8F081014B5B5DEEE7B636030825
:103F500010B50446C06AFCF77EF92046BDE8104063
:103F6000FCF779B930B5448D0022944202D8002381
:103F7000184630BDC36A03EBC2035D688D42F7D0BB
:103F80000132F2E770B504460D461646FFF7EAFF28
:103F9000C0B9218D638D8B4208D30631C900E06A18
:103FA000FCF74CF9238DE06206332385638DE26ACA
:103FB000591C02EBC300618502F833600023437093
:103FC0004380456070BD43680BB9FFF7CBBF18460F
:103FD000F9E7F8B544680F462CB9F8BD032BFCD1BE
:103FE00004230370F9E723465D68002DF5D07E6851
:103FF00018463146FFF7B6FF2B460028F4D0037869
:10400000033B022BE9D805233B701D4600223146B5
:104010002046FFF7B7FF0378002BDFD105706468F7
:10402000F4E7436A5B8B012B1EBF03695B180361D6
:104030007047C36A10B50446DB6F806A9847A38B4C
:10404000626A0133D18C9BB29942A38338BFD38477
:1040500010BD838B10B5013B8383C36A0446D3F83C
:104060008430806A984720460121BDE81040FFF760
:10407000D8BF2DE9F04180461F4659B111F0030524
:1040800010D14E68F3B293420CD1360A01F1080404
:10409000B54201DBBDE8F08154F8041B4046B84747
:1040A0000135F5E740463B46BDE8F04118472DE9AC
:1040B000F04F044685B00D4691469A461BB10B8BD6
:1040C00043F008030B83636AA5F820901A8B42F033
:1040D00030021A831B78002B49D1E36AA06AD3F817
:1040E000B4604A4653462946B44605B0BDE8F04F91
:1040F0006047DB6A03EBC60B13F83630043B012B39
:1041000020D8002319E0EB6A039A039903EBC2025B
:1041100013F83130052B0ED1DBF8041053689942A7
:1041200009D1E36ABBF802205B69A06A1F4600233D
:10413000B84708F10108039B01330393039A6B8D81
:104140009342E0DC0136636A5A8DB242D1DCB8F1A9
:10415000000FC2D0E36ACDF800A0D3F8B860A06A1F
:104160004B4642462946B04705B0BDE8F08F0026D1
:10417000B046E8E7F8B504460F4611461A46002354
:1041800085794669837143610E4BFFF772FFA3681F
:10419000BBB9E18A51B1A28A42B9E36AA06AD3F8F5
:1041A000A0309847E36AA06A5B6C9847A38AE28ACA
:1041B00039462046FFF77BFF003518BF0125A57162
:1041C0006661F8BD15590008024B89689B22FFF70C
:1041D00050BF00BF35660008024B89686A22FFF7AE
:1041E00048BF00BF77490008C36A10B50446D3F83A
:1041F0008830806A00219847E36AA06A5B6B0E21D1
:104200009847E36AA06AD3F8CC300121984720464A
:104210000321BDE81040FFF704BF38B5C36A044668
:104220009B6C806A00229847E36AA06AD3F8C0506A
:1042300000231A461946A8472046BDE83840FFF734
:10424000D3BFC36A89685B6D806A00220909184779
:10425000C36A89681B6C806A184710B50446084613
:1042600011462268FFF74CFE636A436000238360B7
:10427000236A13B9206210BD13469A68002AFBD145
:104280009860F8E770B54379012B05460C4606D1D6
:10429000436A0A465B8B0221FFF7DFFF2061A268B9
:1042A000216928464B23BDE87040FFF763BF70B516
:1042B00013464279012A06460C4604D10A460721D4
:1042C000FFF7CBFFA061A569E2683046432329468A
:1042D000FFF750FFE88A70BD2DE9F04F87B0064622
:1042E00000AF0C4611B90121116015E011F003086F
:1042F0001BD10B79672B07D1CB681B0913608C6826
:10430000002CF0D04FF0010804F00F03022B0FD166
:104310002109B8F1000FE7D0F36AB06A1B6B0022E5
:1043200098471C37BD46BDE8F08F4FF00008EBE71B
:10433000B8F1000F02D1A3681B09136063684FEA4C
:10434000132904F1080309F1FF3AFB609B4600259D
:104350004D4527DB0AF1070323F00703ADEB030DFF
:10436000C7F808D06D464FF0000BCB4522DB514615
:10437000B868FCF78BFDF36A01461B6BB06A00223C
:104380009847B8F1000FCCD00C3401254D45C8DA60
:1043900054F8041BF36AB06A5B6D00220909984760
:1043A0000135F3E75BF8040B0009FCF702FE013569
:1043B0008244CDE7BBF1000F03D04FF02E0305F888
:1043C000013BFB6853F8040BFB6007F11401000983
:1043D000FCF7F9FD7B697B601A46014628461BF015
:1043E0002FF97B680BF1010B1D44BEE731B1026868
:1043F00001F00303134304BF0B6803607047000020
:1044000038B5836804460D465BB9114605480BF084
:104410001DFD2946A06004F10C00BDE83840FFF7FF
:10442000E5BF38BD485503082DE9F04F04460D4659
:1044300062712B786162072B4FF000018DB0164638
:10444000016105D0824AFFF7DBFF0DB0BDE8F08FB8
:10445000012A06D0436B00F108021B68006B31464D
:1044600098476379D5F80C80032B10D10BAA432110
:1044700008F10C00FFF752FB636B0B9A9B68014637
:10448000206B9847A368A883002B40F0B080D8F831
:104490001010C1B101F00F05022D10D10B095E2BD8
:1044A00012D004D83E2B3AD06A4A2046CBE7752B6F
:1044B00037D040F23C429342F6D1032504E0664AED
:1044C0002046FFF79DFF0225D8F8143009930AAA69
:1044D000192109A8FFF722FB4FF000090690069B5F
:1044E000994520DB6379012B15D9636B206B5B68E1
:1044F000294698476379042B0DD10023606A039500
:104500000293818B226BCDE900310521D2E9023281
:10451000006907F060FCA368002B68D195E70125CE
:10452000D2E70025D0E70A9B53F829100B79082B16
:104530004FEA890B02D109F10109D0E7052B01D01F
:10454000464AB2E7CB68002BFAD18B681A792B2A3E
:10455000F6D19F6807F00F02022AF1D1DB680593BC
:10456000002BEDD09A07EBD11B792F2BE8D1059BBF
:104570000BAA03F10800A321FFF7D0FA3F0940F28C
:104580005D339F4282461BD1012805D10B9A1368E7
:1045900003F00F03022B04D0314A0A9B53F80B108F
:1045A00083E72169012E01F1010323611AD012680A
:1045B000636B206BDB681209984798B9294AECE7CE
:1045C00040F2A6239F4216D1012803D10B9B196804
:1045D000CF0701D4244AE0E7012E03D04910206B15
:1045E00003F0D2FAA368002BA5D0DDF81480D8F828
:1045F0000030E36029E7B7F5397F1DD1012803DDDD
:104600000B9B1B68D80701D4184AC6E7012EE9D0D6
:104610005B1001270B9A52F82720D10701D4144AC6
:10462000BBE719465210206B0793013703F0B3FA2A
:10463000BA45079BEED1D5E7012ED3D0636B024676
:10464000D3F810B0206B0B9B3946D847CAE700BFA0
:10465000AA390308CE390308DB390308033A0308F3
:10466000263A0308423A0308523A03086E3A03080E
:10467000933A0308014AFFF7C3BE00BFB53A0308E7
:104680000B79092B70B50BBF058B458B094A0A4A7C
:104690004FF6FF739D42044601D1FFF7B1FEA18B97
:1046A000E28BE36AA06A9B6F8A1A2946BDE87040D4
:1046B000184700BF97370308AC37030838B50546DD
:1046C000A9B101F00F03022B0DD10C09204609F00E
:1046D000A5F8002806DA2246064907480BF0E4FB55
:1046E000A860002038BD054AFFF78AFEF9E70846B2
:1046F000F8E700BF7D3B030874560308E23903085E
:104700002DE9F8430546406A1746028B12F0020C69
:104710000E4606D0324A31462846BDE8F843FFF738
:104720006FBE01F00F01022917D1AC79310984B1B4
:10473000C38B0133C38364464FF0010800294CD07A
:104740000022FFF71FFC03788146002B30D0254A5A
:10475000E1E7838B01338383EEE73179B942344655
:1047600008D1B168AB790909002BF2D0C38B0133B2
:10477000C383E1E7994213D1AC79002CCAD101235C
:10478000AB71B16849B31A4301F00F03022B18BF94
:104790000C46028318BFA1684FF003080909CDE752
:1047A000B16842F00202090902834FF00508C5E72B
:1047B0000323037080F801806B6A5B8B032B0CD1A1
:1047C000452F0AD14CB1E1682846FFF777FF99F8E9
:1047D000013043EA001089F80100BDE8F88300BF0A
:1047E000A8310308953903084E234D22FFF788BFEF
:1047F00046234522FFF784BF10B44279446A012A58
:104800000B4604D120465DF8044BFFF7BBBBC16AE1
:10481000806A224614315DF8044B02F005BC10B4E6
:104820004479426A012C0B4604D110465DF8044BD2
:1048300002F0ECBBC16A5DF8044B806A1C3102F0E7
:10484000F3BB436A10B55A8B0446FFF730FD0146AF
:104850002046BDE81040FFF7E2BF2DE9F3418D6827
:1048600005F00F030E2B04460E4606D0002D43D054
:10487000AB0741D12B79642B30D10095002501AADB
:1048800064216846FFF74AF90023019A194640F26D
:10489000CE4C834228DBF768E36AA06A9B6B40F248
:1048A0003E3297422AD19847E36AA06ADB6B052122
:1048B0009847E36AA06AD3F8A03000220121984704
:1048C00001AA29462046FFF707FDE36AA06A1B6B91
:1048D00002220021984702B0BDE8F081612B0BD184
:1048E000AB680093ED68CAE752F8237067450CBFC8
:1048F000013103310133CCE70021CCE7984706F1C1
:104900000C006A466921FFF709F900260746BE42F6
:10491000D4E90A0311DBD3F8A030002239469847C6
:10492000294601AA2046FFF7D7FC0025BD42D4E95D
:104930000A030BDB1B6E9847CDE7009ADB6B52F83E
:1049400026209168090998470136E0E7009A1B6B19
:1049500052F82580D8F80860360931460122984778
:10496000D8F80C1029B931462046FFF758FF013519
:10497000DCE70909F8E7C36A37B504460D469B6BC7
:10498000806A00219847E36AA06A5B6B0E21984712
:1049900001AA29462046FFF79FFC01992046FFF710
:1049A0003EFF03B030BD10B44479426A012C0B467F
:1049B00004D110465DF8044B02F028BBC16A5DF8D3
:1049C000044B806A243102F02FBB000037B5044647
:1049D0000D46B1B1CA0705D5C36A9B6B4910A06AE1
:1049E00098470EE08B0731D001F00F05062D4FEAF6
:1049F000111308D00A2D0CD0022D1FD11946FFF734
:104A0000FBFE03B030BDC26A806AD26B1946904784
:104A1000F7E74279042A03D0C36A12491B6CDEE728
:104A200001A91846FCF7CFFAE36A0199A46A1D6C44
:104A30000EF040FE01462046A847E2E7042BE0D0F6
:104A4000C26A806A526BD9B29047DAE7C36A0968D2
:104A50001B69806A98472A79034B294653F822300C
:104A60002046BDE774610308103803082DE9F14FB3
:104A70000D46A9070446164612D005F00F03022B77
:104A800017D129090AB1022A05D1204601B0BDE893
:104A9000F04FFFF7C4BE01B0BDE8F04FFFF7ACBE6A
:104AA0006968CBB22C2B7BD00BD8062B0DD02B2BCF
:104AB00012D0554A2946204601B0BDE8F04FFFF715
:104AC0009FBC2D2B7DD09B2BF3D1002EF1D105F176
:104AD00008030A0A002187E0022A02D0A968FFF72A
:104AE00075FFEF68002FE4D017F00309E1D17B6870
:104AF000DAB28C2AB8460DD1022E4FEA132805D01F
:104B000007F1080A08F1FF3BD94511DB08F101085C
:104B100057F8288098F80430302B24D1022E0FD17A
:104B2000E36AA06A9B6E9847E36A1B6D012115E05A
:104B30005AF8041B2046FFF749FF09F10109E3E792
:104B4000D8F808102046FFF741FF012EE36AECD1A8
:104B5000DB6DA06A9847E36A1B6D0021A06A01B073
:104B6000BDE8F04F1847312BA3D1012ED4E90A0339
:104B70000CD19B6D9847E36AD8F808105B6D002252
:104B8000A06A090901B0BDE8F04F1847022E01D113
:104B90005B6E9847E36AD8F808105B6D0122EFE777
:104BA000A868002885D0002A83D1C16839B311F0E4
:104BB000030324D14A68D6B2932E17D11A468168CE
:104BC00012E0002A7FF475AFA96829B90B4601B03D
:104BD000BDE8F04F00F01AB88B0703D10B79902B8A
:104BE0000846E2D000231A462046F0E7942E03D16F
:104BF00001F10803120AE2E7AB2E3FF45AAF00F1CD
:104C00000803022266E700BFDD3603082DE9F84FEE
:104C10000F1E054690461E4614BF4FF001094FF087
:104C2000000921D017F003041ED13B79212B1BD1A1
:104C3000C36A806AD3F8B030214698474FF0000A23
:104C400008F1FF3BC24512D1631C2DD1EB6AA86A63
:104C5000D3F8AC3009EB0801984777BB06EB88081E
:104C600046452DD1BDE8F88F4FF0FF34E6E756F802
:104C70002A1081B18A070ED10B79212B0BD1013477
:104C80000CD1EB6AA86AD3F8B0300AEB0904ABEB9D
:104C90000A02214698470AF1010AD3E728460F4A3B
:104CA000BDE8F84FFFF7ACBB002FD7D02CB9B968DF
:104CB00022462846FFF7DAFED0E700223946F8E719
:104CC00056F8041BA1454FF0000208BF896828462A
:104CD000FFF7CCFE09F10109C2E700BFF83603086F
:104CE0002DE9F74F04460D4616461F462846FEF7A7
:104CF00009FD20B1CEB9E36A3946DB6E4CE02846A7
:104D0000FEF70EFD08B186B1F5E7002D55D0AB07D3
:104D100053D16B684FEA132ADBB21D2B1AD1EEB1C7
:104D2000083505EB8A0A55450CD103B0BDE8F08F74
:104D30005B46019A59F8041B2046FFF7D1FF08F1A2
:104D400001081AE03B46324655F8041B2046FFF79F
:104D5000C7FFE8E71E2B24D1002EE1D0D4F810B015
:104D60000BF1010323610AF1FF33009386F0010385
:104D700005F108094FF000080193009B4345D7DC7B
:104D80000AF101013B4655F8211032462046FFF753
:104D9000A7FFE36ADB6A5946A06A03B0BDE8F04F9B
:104DA00018471F2B03D186F00106AD689EE72C2B18
:104DB00003D1AB68002BA6D19CE729462046FFF71C
:104DC00005FEE36AA06A1B6F3A46314603B0BDE8B0
:104DD000F04F18472DE9F04706691F46B31C0361E1
:104DE000C36A04460D46DB6A806A3146914698479D
:104DF000E36AA06AD3F88C3006F10108414698476F
:104E0000A96800222046FFF731FE2D69002D2DD123
:104E100049462046FFF7DAFD636A1978E36A0629F6
:104E20001DD1D3F8CC30A06A2946984720460121ED
:104E3000FFF7F7F8E36AA06A1B6E9847E36AA06A77
:104E4000DB6E31469847E36AA06ADB6A41469847C1
:104E5000E36AA06AD3F89030BDE8F0471847BA007B
:104E6000D3F8A830A06A05329847E7E72B79AC2B36
:104E700007D1A968334600222046FFF731FFED68CD
:104E8000C4E7E9682046FFF7A1FDE36AA06AD3F80A
:104E90008830012198477B1C4A4629462046FFF767
:104EA00099FFCBE72DE9F04104460D466271C36AD4
:104EB00045620026114606611B68806A2A469847AB
:104EC00006212046FFF7ADF86779012F08BF6E6213
:104ED000EE686EB1B2070BD133793C2B08D1B168C3
:104EE000FFF774FDE36AA06AD3F8C43098472CE05A
:104EF0002B784BB931462046FFF768FDE36A5B6BC0
:104F0000A06A0E219847EDE7072B24D1012F12D17B
:104F10000023A3714322594BF1682046FFF7A9F8FB
:104F20006B8B032B07D131692046FFF7C7FB2B8B17
:104F300043EA8010288320467169FFF747FDE36A42
:104F4000A06A9B6898470028D8D0E36AA06A5B688B
:104F5000BDE8F0411847022B15D1012F07D10023DE
:104F6000A3714B22464BB1682046FFF782F8F168E7
:104F70002046FFF72BFD2B8B5B07B3D5E36AA06AB6
:104F80001B6E9847BAE7033B032B4AD8012FD6F88C
:104F90000C8005D103223946606AFEF7F3FFAF8328
:104FA0002B78032B24D1E36AD3F8A030012200210F
:104FB000A06A98472B78062B28D1E36AA06A5B6C1D
:104FC000984701212046FFF717FCE36AA06A5B6C53
:104FD0009847E36AA06A5B6C98470023B268414631
:104FE0002046FFF7F7FE2B78062B7FF47BAF85E793
:104FF000042B04D1E36A0322D3F8A030D7E7052BB2
:10500000D8D1E36A0622D3F8A030D0E720460121A8
:10501000FFF7F2FBE36AA06AD3F8883001219847D2
:10502000DBE7012F04D103220A212846FEF7AAFF5D
:1050300017212046FFF7E0FB16212046FFF7EFFB84
:10504000B168E36AA06ADB6B090998471A21204618
:10505000FFF7E5FB31692046FFF7B8FC0A21284637
:10506000FEF780FF0378032BE36A3FF448AF5D69E6
:105070004288A06A00230A21A84733E7F1470008C5
:10508000E947000838B5436A1B78072B04460A46EF
:1050900006D0022B04D0154ABDE83840FFF7B0B95E
:1050A000956885B9E36AA06A5B6B0E219847E36A4D
:1050B000A06AD3F8CC300021984720460121BDE8F2
:1050C0003840FEF7AEBFAB070BD12B79AE2B08D122
:1050D0002046A968FFF77AFC2046BDE83840FFF774
:1050E00083B829462046FFF771FCE0E78F3B0308B1
:1050F00070B54379CD68012B0446164606D1436A44
:105100000A465B8B3146FFF7A8F8686100231A4610
:1051100069692046FEF7CBFFE9682046FFF756FC99
:10512000062E05D1E36AA06AD3F88830002198479B
:10513000E36AA06AD3F8BC500023AC461A460121AA
:10514000BDE87040604700002DE9F04F87B0CDE921
:105150000221044605AAA32103A81F46FEF7DEFC90
:105160004FF0000B0190D946DA465E46D846019BC7
:105170009B451ADB6EB1BAF1000F6CD1E36AA06AED
:105180005B6C9847B9F1000F6BD1E36AA06A5B6C66
:105190009847029AD4E90A03002A68D0D3F8C0409D
:1051A000334642463946A04710E0059A52F82B5044
:1051B000002D41D0A8073FD12A79A52A0FD1F107A8
:1051C00007D52C4A29462046FFF71AF907B0BDE853
:1051D000F08F46F00106AA460BF1010BC7E7A62A9D
:1051E00007D1B20701D5244AECE746F00206A946EA
:1051F000F2E7A72A20D1EA6822B1930702D11279F7
:10520000AB2A12D0A96801F00F02022A01D01B4A72
:10521000D8E7E26AA06AD26B09099047E96820469C
:10522000FFF7D4FB08F10108D6E7062229462046FD
:10523000FFF75EFF0137CFE70EB1114AC2E7B8F1C1
:10524000000F01D00F4ABDE729462046FFF7BEFBFD
:1052500001374646C0E7DAF808102046FFF7B6FBEC
:1052600090E7D9F808102046FFF7B0FB91E7D3F894
:10527000BC4095E7D23A0308E93A0308013B03082A
:10528000223B03083D3B030870B50D4641790129D7
:105290000446134603D12A46FEF7DFFF6861E36A3E
:1052A000A06ADB6C98476E6900231A463146204697
:1052B000FEF7FDFEE36AF18ADB6BA06A9847E968B6
:1052C00029B18B0703D10B79A22B08BF00212046FF
:1052D00002230022FFF738FFF08A70BD436A10B541
:1052E0005A8B0446FFF7D0FF01462046BDE8104028
:1052F000FFF795BA00231A468968FFF725BF38B52E
:105300000C460546C968FFF761FBA1682846BDE861
:105310003840FFF75BBB0B79332B70B504460D4665
:1053200010D18968FFF752FBED68AD6885B9E36A73
:10533000A06A5B6B0E219847E36A0822D3F8A0307D
:1053400002211AE0C36A806A5B6B0E219847ECE782
:10535000AB071FD12B79982B13D1E36AA06A5B6B43
:105360000E219847A9680029E6D02046FFF72EFBBA
:10537000E36AD3F8A03008220321A06ABDE8704098
:105380001847992B06D1A9682046FFF71FFBEB6849
:105390009968E8E729462046FFF718FBCCE710B5E7
:1053A00004468968FFF712FBE36AA06A1B6D0021BF
:1053B000BDE81040184700002DE9F7438D6804460A
:1053C000164645B9F2B1C36AD3F8A0300322294684
:1053D000A06A984716E0AB0740F086802B79362B01
:1053E00013D132B1C36A806AD3F8A03003220121FD
:1053F000984720462946FFF7E9FAE36AA06AD3F8FE
:10540000A430984703B0BDE8F0839D2B6CD1EB68C6
:105410001A79A02A58D1A12101AA03F10800FEF7A8
:105420007DFBA968804621B38F0722D10B79362BEB
:105430001FD136B1E36A411CD3F8A030A06A032221
:105440009847A9682046FFF7C1FAE36AA06AD3F833
:10545000A43098474FF00109002747450FDBB9F109
:10546000000FCFD1E36A0622D3F8A03008F1010182
:10547000AEE72046FFF7AAFA4FF00009ECE7019BE0
:1054800053F8271099B18E0711D10E79A6F1360085
:10549000464246412046FFF799FAB9F1000F0FD076
:1054A0003EB9164A29462046FEF7AAFFAAE700267B
:1054B000F0E7E36AA06AD3F8A43098470137CCE755
:1054C000002EFBD00E4AEDE7AB684BB19A0707D12F
:1054D0001B79362B04D104222946FFF709FE91E7F8
:1054E000052229462046F8E729462046FFF76EFAAE
:1054F000E36A0622D3F8A030012169E72A370308BE
:10550000473703080122FFF757BF2DE9F04107464F
:1055100015460C4611B1FFF759FA01243DB16E68EA
:105520004FF00008360A0835B04509DB3444FB6A01
:10553000B86AD3F8A03021460022BDE8F0411847F0
:1055400055F8041B3846FFF741FA08F10108EBE76C
:105550000A460021FFF7D9BF2DE9F8430C468968B8
:105560000546FFF733FAE668002E57D07768696A78
:10557000FBB209788C2BA36819BF04F10C06012734
:105580003F0A0836072903F00F024BD1022A47D100
:105590001A099A2A48D1326811792F2944D1926880
:1055A000002A41D10A212846FFF726F96A6AD36A00
:1055B000528D32B93168414A2846BDE8F843FEF7BA
:1055C0001FBF5978C9070FD559682846FFF714F946
:1055D000022FEB6A0BD8D3F8BC40A86A00231A4606
:1055E0000221A047012417E0013A0833E1E772687D
:1055F00011793129EFD1B46821792F29EBD1916844
:105600009B6CA86A012209099847A168002301221E
:105610002846FFF799FD0324A74226D8BDE8F88362
:105620000024F9E7022AFBD140F26722B2EB131FF4
:10563000F6D133681A792F2AF2D19B68002BEFD06C
:1056400013F00304ECD11B792E2BE5D1EB6AA86A89
:10565000D3F8BC80224623462146C0473368224601
:1056600099682846FFF7A8FEBCE704F10108B84591
:105670004FEA840356F824101AD20A79312A17D136
:105680003344D3F8049099F804302F2B10D1896853
:10569000EB6AA86A9B6C0022090998470023012243
:1056A000D9F808102846FFF74FFD08F10104B3E7C9
:1056B0002846FFF78BF9A046F7E700BF7F370308BE
:1056C000436A1B78072B10B50A46044606D0022B06
:1056D00004D0074ABDE81040FEF792BE20461146AE
:1056E000FFF73AFF2046BDE81040FEF77DBD00BF42
:1056F0006637030870B50D46C9680446FFF766F9BA
:10570000AB68C3F30713312B0AD0322B0CBF012136
:105710000221E36AA06AD3F89830BDE870401847C8
:105720000021F6E72DE9F0414E68DFF844800C4691
:1057300089680746FFF74AF9360A0225AE4201DCBE
:10574000BDE8F08121693846FFF740F9E368B86A9F
:10575000C3F30713313B082B98BF18F80310FB6AFB
:1057600088BF1921D3F89C30984702350834E5E703
:10577000BD3603082DE9F0414D680C468968804626
:10578000FFF724F9A5F10D07FFB22D0A0C3401260D
:10579000AE4201DBBDE8F08154F8041B4046FFF740
:1057A00015F9D8F82C30D8F82800D3F89C303946B1
:1057B00098470136ECE700002DE9F0474E68DFF826
:1057C000DC9004460D46360A8968FFF7FFF8032E81
:1057D00083BFD4F8108008F1010323614FF0000863
:1057E00001277B1C9E4222DC032E55DD2569A06A21
:1057F0006B1C2361E36A2946DB6E9847E36AA06A63
:10580000DB6A41469847E36AA06ADB680121984752
:10581000E36AA06A5B6E9847E36AA06A1B6E9847CA
:10582000E36AA06ADB6A2946BDE8F04718472969A0
:1058300020460237FFF7CAF8B74207DAE36AA06AE0
:105840009B6D9847E36AA06A9B6E9847EB68E26A93
:10585000A06AD2F89C2003F00F010E2911D11B0978
:10586000383B0B2B94BF19F8031006219047B74221
:1058700005DAE36AA06A5B6F424600219847083563
:10588000AFE71979832901D12421EFE79B680BB990
:105890000721EBE72521E9E7BDE8F087C6360308D5
:1058A00010B504468968FFF791F8E36AA06AD3F857
:1058B00098300321BDE8104018472DE9F0474D68A6
:1058C000D0F810805FFA85F9A9F11D03D3F1000922
:1058D00049EB030908F10103044603612D0A01F1B4
:1058E00008060027AF4206DBE36AA06ADB6A41468E
:1058F000BDE8F047184756F8041B20460137FFF76C
:1059000065F8AF42EEDAE36AA06A5B6F4246494649
:105910009847E7E701F00F03022B70B504460ED05D
:105920004B6803F0F702462A02D10123837170BD50
:10593000472AFCD0DBB2452B0DD10D696DB9A37997
:10594000002BF4D1E38A002BF1D020461D4ABDE89C
:105950007040FEF755BDCD68F0E7A37943B3A38A45
:105960008E6801339BB2012BA3820ED1E18AD4E968
:105970000A03D1B1D3F8A03000229847E36AA06AA5
:10598000D3F8A03003220021984729462046FFF78C
:105990001DF8E36AA06ADB6B31099847E36AA06AE5
:1059A000D3F8A430BDE8704018475B6C9847E5E732
:1059B000E38A0133E38229462046BDE87040FFF7C1
:1059C00005B800BFE23703082DE9F0410569CF684B
:1059D000AB1C03618846044600222B46B968FFF7DA
:1059E0007FF9D8F808102046FEF7F0FFE36AA06AB6
:1059F000DB6E6E1C31469847E36AA06ADB6A294673
:105A00009847E36AA06ADB684FF0FF319847F9686E
:105A10002046FEF7DBFFE36AA06ADB6A3146BDE899
:105A2000F04118472DE9F0470446904699460F4645
:105A300021B91946BDE8F047FEF7C8BF0669731CD7
:105A4000036115683DB315F0030A24D12B797A2B35
:105A500021D1A968FEF7BAFF524631462046FEF72B
:105A6000E8FA5246E9682046FFF700F808F1040218
:105A70004B46791E2046FFF7D5FFE36AA06AD3F8AC
:105A800080303146984720460321FEF7CAFABDE828
:105A9000F047FEF7DEBA29462046FEF797FF20467C
:105AA00000223146FEF7C5FAE36AA06A1B6E9847EA
:105AB000DCE737B50C46054601AA792104F1080058
:105AC000FEF72CF8E368019A01462846FFF7AAFF83
:105AD00003B030BD2DE9F04F85B006691D460E9B21
