:020000040800F2
:1000000060270020A9010008C7230008CB220008B0
:10001000C52300080B030008D73C000800000000BF
:10002000000000000000000000000000D7230008CE
:100030000305000800000000D5230008D9230008AC
:10004000C3010008C3010008C3010008C301000880
:10005000C3010008C3010008C3010008C301000870
:10006000C3010008C3010008C3010008C301000860
:10007000C3010008C3010008C3010008C301000850
:10008000C3010008C3010008C3010008000000000C
:10009000000000000000000000000000C301000894
:1000A000C3010008C3010008C3010008C301000820
:1000B00085240008C3010008C3010008C30100082B
:1000C000C3010008C3010008C3010008C301000800
:1000D000C301000829270008C30100080000000030
:1000E000C3010008C3010008C301000800000000AC
:1000F000000000000000000000000000C301000834
:1001000000000000C3010008C3010008C30100088B
:1001100000000000000000000000000000000000DF
:10012000C3010008C3010008C3010008C30100089F
:10013000C3010008000000000000000000000000F3
:10014000000000000000000000000000C9230008BB
:10015000C3010008C3010008A1040008C30100088E
:10016000C3010008C30100080000000000000000F7
:10017000000000000000000000000000000000007F
:1001800000000000C30100080000000000000000A3
:10019000C3010008DFF80CD000F07AF800480047EF
:1001A000FD3C0008602700200648804706480047BD
:1001B000FEE7FEE7FEE7FEE7FEE7FEE7FEE7FEE717
:1001C000FEE7FEE769240008950100082DE9F05FCD
:1001D0000546002092469B468846064681464024B6
:1001E0001BE0284641464746224600F041F8534668
:1001F0005A46C01A914110D311461846224600F0C3
:1002000028F82D1A67EB01084F46224601200021ED
:1002100000F01FF817EB00094E41201EA4F1010465
:10022000DFDC484631462A464346BDE8F09FD2B25D
:1002300001E000F8012B491EFBD270470022F6E7CF
:1002400010B513460A4604461946FFF7F0FF20464C
:1002500010BD202A04DB203A00FA02F1002070478A
:100260009140C2F1200320FA03F3194390407047F4
:10027000202A04DB203A21FA02F00021704721FAFB
:1002800002F3D040C2F12002914008431946704762
:10029000064C074D06E0E06840F0010394E80700D3
:1002A00098471034AC42F6D3FFF778FFA03E000821
:1002B000C03E000870B58C1810F8015B15F00703FC
:1002C00001D110F8013B2A1106D110F8012B03E0EF
:1002D00010F8016B01F8016B5B1EF9D12B0705D4F7
:1002E0000023521E0DD401F8013BFAE710F8013B40
:1002F000CB1A921C03E013F8015B01F8015B521E5C
:10030000F9D5A142D8D3002070BDFEE770B52228F0
:100310003CD0212829D020285AD108682D4E5E4D86
:100320004A7930600879897905F10C04727130716D
:100330002046B17101F099FD08B100F0E3F8317980
:1003400070798A1E0029B2FA82F24FEA521218BF5F
:1003500051030228A9611DD0012807BF4FF4805026
:100360004FF4C0610021002018E01A4802680A70AA
:100370000268120A4A7042888A70C278CA7002798A
:100380000A7142794A718079887121E042480121DD
:1003900001701DE04FF480504FF480610C23002267
:1003A000C5E90713B3793168C5E90922082B18BFDD
:1003B0001046C5E90410204601F026FE08B100F001
:1003C000A1F868682B4901220144204601F004FF8E
:1003D000002070BD2C00002080B52F480C3001F0AB
:1003E00044FD08B100F08EF8002080BD10B52A4C05
:1003F0001F494FF4E1320C23204640F80C1F002126
:10040000C0E90121C0E90311C0E90531C16101F072
:10041000FBFD08B100F076F8164904F10C0001224A
:1004200001F0DAFE08B100F06DF8134843F67F6181
:100430004FF0804253240023C0E90024C0E9023178
:10044000036101F005FC08B100F05CF80A4801F016
:100450001AFC08B100F056F8084C06490022204664
:1004600002F068FA0649204602F05EFA002010BD4C
:1004700000100140840C0020400200208414002061
:100480008404002080B5034603480A8819460C30CE
:1004900001F0DCFE002080BD9401002000207047A8
:1004A0000148006B00F042B8A001002010B50168BF
:1004B0006FF00F02182308A452FA81F2B2FBF3F393
:1004C0005F2AE35C40F2FF3421EA040188BF043173
:1004D000C0E91613084610BD0006101600061016D7
:1004E000B0B50468806825684028084625F4802552
:1004F0002560636008BF1046A06008BF0A46E2603E
:10050000B0BD7047704790F83510022909D1052118
:1005100080F835100068016821F0010101600020B9
:10052000704780214165012070470000F8B50446FE
:100530000020594A08210090D4E9166015683768F0
:10054000814039420CD0226813685B0708D51368D4
:1005500023F004031360B160616D41F00101616536
:1005600001218140394208D022685269120604D51F
:10057000B160616D41F00201616504218140394241
:1005800008D022681268920704D5B160616D41F00D
:100590000401616510218140394217D0206802684A
:1005A000120713D5B16002680168520306D4C90569
:1005B00006D4016821F00801016001E0080301D4BC
:1005C000216C00E0A16C09B120468847E16D202034
:1005D00000FA01F23A423BD020680368DB0637D5C7
:1005E000B26094F835300268052B19D122F016025A
:1005F0000260426922F080024261226C0AB9A26C58
:100600001AB1026822F0080202603F208840B06000
:10061000002084F83400012084F83500216D37E093
:10062000016852030CD4C9050ED4016821F01001F1
:100630000160002084F83400012084F8350003E0D4
:10064000080301D4616C00E0E16B09B120468847E2
:10065000606D00B3606DC00719D005214FF41650CE
:1006600084F83510B5FBF0F021680A6822F0010229
:100670000A60009A01328242009202D80A68D207C8
:10068000F7D1012084F83500002084F83400E16CB3
:1006900009B120468847F8BD340000202DE9F0411B
:1006A000044600F005FAACB10546022084F8350096
:1006B0000020216884F83400086820F001000860F8
:1006C0000868C00709D000F0F3F9401B052838D8A6
:1006D0002168F5E70120BDE8F0810868271D344A4C
:1006E000E8CF00EA020ED4E9050CD4E9072843EA72
:1006F0000E032B4333433B431843636A40EA0C0029
:100700001043042B40EA08021FD1D4E90A53206B9E
:100710001A4340EA0200086051F8140F20F0030069
:1007200040EA050040F00402B3B1BCF5005F24D0FC
:10073000BCF1000F31D1022D32D0012D27D0002D78
:100740002DE003262027032012E00A6051F8140F41
:1007500020F0070040EA030220460A60FFF7A6FEE9
:10076000E16D3F220027012602FA01F1816000209D
:10077000676584F83560BDE8F081032DECD801266B
:1007800040270120DFE805F0020C0203F0E7A3F1A7
:10079000C070B0FA80F0400904E0032D04D3DBD12F
:1007A000C3F300600028D7D0012640270120DFE7EF
:1007B0003F8010F0B0B5044690F83400012828D0EE
:1007C0000120A56D84F8340094F8350001281DD16E
:1007D000022084F83500002060652046FFF780FE87
:1007E000E26D3F232068216C03FA02F2AA600268DE
:1007F00042F01602026019B1016841F0080101607F
:10080000016841F0010101600020B0BD002084F8C2
:1008100034000220B0BD0000B0B5044600F048F935
:100820000546C548611C007818BF044400F040F933
:10083000401BA042FAD3B0BD2DE9F84F934A0724DC
:100840004FF0000A4FF0000900279042904A08BF7D
:10085000042402444FEAB223042B38BF4FEAB224E7
:100860008C4A009401230F24A2F57E7B102F08BF31
:10087000BDE8F88F03FA07F20A4240D00AF00C0CE8
:10088000D24304FA0CF8BC085BF824E0009B0EEAA3
:10089000080503FA0CF6B54213D17E4B1D681540CE
:1008A0001D605D6815405D609D6815409D607A4BD8
:1008B0001D6815401D605BF8245025EA08054BF8BB
:1008C00024500323056803FA09F40F23A5430560A8
:1008D0000AF01C0503FA05F56FF0030303EA570657
:1008E0000644336AAB433362C368A343C3604368BF
:1008F0001A40012342608268A2430F2482600AF1F9
:10090000040A09F102090137B0E700BF2DE9FC4FE5
:100910005E4A07244FF0010B4FF000084FF0000E25
:1009200090425B4A08BF042402444FEAB223042BDE
:1009300038BF4FEAB22400220094BEF1200F08BF56
:10094000BDE8FC8F0F680BFA02F6374200F090808A
:100950004F68122F00F292800BFA07F414F0061F72
:1009600000F08C8003234FEA420A03FA0EF48368F6
:10097000CD686FEA040CA34305FA0EF52B438360A0
:100980003B0945689340B5432B434360C4688D6879
:1009900004EA0C0405FA0AF52C43C46047F010047D
:1009A000122C12D108F01C040F2303FA04F56FF087
:1009B000030303EA52070744D7F820900B6929EA9A
:1009C0000505A3402B433B624F68036807F003040F
:1009D00004FA0AF403EA0C0323430360FB0047D53F
:1009E00000232E4C2B4F22F0030501932368BC46B5
:1009F0003D4443F48043236023680F2403F4804381
:100A0000019308F00C03019F9C40254FB946EF5914
:100A100027EA0404009F07FA03F3234345F809304B
:100A2000DCF800304D6843EA0604EF0358BF23EAC0
:100A30000604CCF80040AF03DCF8043043EA0604B7
:100A400058BF23EA0604CCF80440EF02DCF8083073
:100A5000114F43EA060458BF23EA0604CCF80840C5
:100A6000AD023B6843EA060458BF23EA06043C6033
:100A700008F104080EF1020E01325EE70323F2468C
:100A800003FA0EF46FEA040C80E700BF0010024086
:100A90000000FEBF003C01400C3C014044380240D5
:100AA00008FCFFFF002A08BF0904816170470000AD
:100AB00005480068704700BF1F48034900780A686E
:100AC00010440860704700BF5C1B002080B50B48D5
:100AD000016841F400710160016841F480610160C6
:100AE000016841F480710160032000F081F800206A
:100AF00000F006F800F024F8002080BD003C024021
:100B000070B50D4E04464FF47A713078B1FBF0F0B9
:100B10000A490968B1FBF0F001F084F801250F2CB7
:100B200008D838B94FF0FF3021460022002500F0E8
:100B300043F87460284670BD08000020340000208F
:100B400082B000200B4901904A6842F480424A601A
:100B50004A6802F480420192019A0090086840F0CD
:100B600080500860086800F080500090009802B043
:100B7000704700BF4038024000280CD400F01F012D
:100B80000122400902FA01F1034A42F82010BFF3A2
:100B90004F8FBFF36F8F704780E100E0002808D4CB
:100BA00000F01F010122400902FA01F1014A42F856
:100BB0002010704700E100E070B5134B4FF0FF3597
:100BC0001B68C3F30223DC1E83F0070338BF002435
:100BD000042B28BF042305FA04F605FA03F3B243F5
:100BE0009943A1401143BDE8704003F075B800BFC0
:100BF00005494FF6FF030A681A4060F30A220348CA
:100C000010430860704700BF0CED00E00000FA05DB
:100C100070470068416200207047B0B50068436AC1
:100C2000B1B1846A013903EB14430024E5B2A9424F
:100C300007D900EB85050134D5F8045103EB1543C2
:100C4000F4E700EB810043EA0241C0F8041102E03E
:100C500043EA024181620020B0BDD0F8040402F0F2
:100C600082B8C1EBC10200EB8202D0F80404926C9E
:100C700001F0F2BFC1EBC10200EB8202D0F8040424
:100C8000D2F8082202F03BB8D0F8040402F06DB8A4
:100C900010B5044601F00F000906C0EBC00104EBDB
:100CA00081015DBF002281F8FD2101F5FE71012265
:100CB00044BF81F83D203C31087094F8BC03012802
:100CC00004BF022010BD012084F8BC03206802F09C
:100CD0003BFC002084F8BC0310BDB0B5044601F015
:100CE0000F006268904201D9012521E009064FF00A
:100CF0000005C0EBC00104EB81015DBF002281F85B
:100D0000FD2101F5FE71012244BF81F83D203C31F7
:100D100008708D7094F8BC03012801D1022507E00A
:100D2000012084F8BC03206802F0D4FD84F8BC5391
:100D30002846B0BD01F00F01C1EBC10100EB8100FD
:100D4000D0F814027047B0B5044601F00F00090650
:100D5000C0EBC00104EB81015DBF002581F8FD51AE
:100D600001F5FE71012544BF81F83D503C318A6098
:100D7000CB7008704A7802B1C880022B04BF0020F3
:100D8000087194F8BC03012804BF0220B0BD012003
:100D900084F8BC03206802F035FB002084F8BC0313
:100DA000B0BDB0B501F00F04C4EBC40100EB810588
:100DB0000021C5E9843185F8FD11C5F8082285F8C0
:100DC000FC4105F5FE710369012B08BFC5F80C2233
:100DD000DAB2006814B102F0B1FD01E002F0DAFC11
:100DE0000020B0BDB0B50446406801F00F05854253
:100DF00084BF0120B0BD080609D4C1EBC1000021A9
:100E000004EB800080F8FD1100F5FE7108E0C5EBF1
:100E1000C500012104EB800080F83D1000F13C0189
:100E200094F8BC2301200D708870012A04BF0220B1
:100E3000B0BD84F8BC03206802F064FD2DB9217CAC
:100E4000206804F5717202F019FD002084F8BC03DB
:100E5000B0BD70B501F00F040026C4EBC40100EB77
:100E60008105294601F83C4FC1E905360123CA60D6
:100E70004B700369012B08BFEA64DAB2006814B151
:100E800002F05CFD01E002F085FC002070BD000076
:100E90002DE9F04F87B004680646204602F02EFE8A
:100EA00010B107B0BDE8F08F306802F053FE0028A3
:100EB000F7D0306802F04EFE01463068890703D54E
:100EC000416901F00201416102F044FE01463068CF
:100ED00006960394C9063ED5816921F0100181610F
:100EE000246AC4F3434004F00F0506281CD00228EE
:100EF0002BD147F6F070044027D0C5EBC50022097E
:100F000006EB80050398D5F8081202F027FED5F805
:100F10000802D5F8141200EB1410C5F8080201EB12
:100F20001410C5F8140210E0039806F57171082238
:100F300002F014FEC5EBC50006EB8000D0F81412D9
:100F4000C4F30A121144C0F814123068816941F0E8
:100F500010018161039C02F0FDFD000312D4DDF855
:100F60001890D9F8000002F0F5FD400300F1C480AC
:100F7000D9F8000002F0EEFD002800F17481D9F8E4
:100F800000008BE1069C206802F0C3FD064604F5D4
:100F9000717004F5057A039C4FF000094FF4306836
:100FA0000590002EDBD0F00700F09E8006985FFAD7
:100FB00089FB5946006802F0C5FD0746C0075AD0B4
:100FC00004EB080001218160069C206808EB000109
:100FD000036C8A682469012C22D114072CD494064E
:100FE00046D4039C12F0280F45D1D94DAB4202D311
:100FF00012F4004227D15AE90423B8F5306F1344A4
:101000004AF80C3C09696FF3DF41A2EB0101CAF811
:10101000001028D10699D1F8101221BB01211FE040
:10102000CB4CFF34A34212D1039C10040BD4900686
:1010300044BF2020886016E0C548039C83421AD331
:1010400012F4004017D04FF40040886013E0039C76
:10105000B8F5306F07D10699D1F8101219B90021EF
:10106000059A02F00BFC06985946FFF703FE02E0D2
:1010700020208860039C380723D504EB0800082152
:1010800081600698016808EB01000C6C8168090416
:10109000AF49A1F1010504D5AC4284BF4FF4004132
:1010A0008160069800F001FBAC42039C09D90698C8
:1010B0000069012805D10698059A0121006802F00F
:1010C000DDFBF80642BF04EB080010218160B80682
:1010D00042BF04EB080020218160B80442BF04EB4A
:1010E00008004FF4005181600AF11C0A08F1200841
:1010F000760809F1010954E7D9F8000002F002FD71
:10110000064609F571700023019004F51060049003
:10111000002E3FF42DAFF00700F0A280DFB2D9F827
:1011200000000593394602F0FBFC0546C00729D0B4
:10113000059B0122D4F8341803F00F0002FA00F0E6
:1011400021EA0000C4F83408049800EB43108260E0
:10115000D9F81000012811D1C3EBC30009EB8000BE
:10116000D0E911121144816443B9D9F8500028B96B
:10117000D9F80000019A012102F080FB4846394667
:10118000FFF76FFD059B280704D50498082100EBA5
:1011900043108160E80604D50498102100EB431049
:1011A0008160680604D50498402100EB43108160FB
:1011B000A80704D50498022100EB4310816028069B
:1011C0004ED5C3EBC30009EB800AD3465BF8500F42
:1011D000D84658F8042F904242D3D9F800505AF814
:1011E000441F841A02968C4288BF0C4605EB4311BB
:1011F0000AF1040601F5106918E0069CDAF80030DF
:101200003168247C0094841A28463A469C4288BF60
:101210001C46A3B202F04EFD306820443060D8F87E
:1012200000000219DBF80000C8F80020D9F81830D7
:10123000E11C9BB2B3EB910F28BF9042DDD8DDE9F2
:101240000264DDE9053990420AD803F00F0001215C
:1012500001FA00F0D5F8341821EA0000C5F8340886
:101260007608013354E7D4F8040820F00100C4F8EC
:10127000040899F8F403012807D10020002189F817
:10128000F4034846FFF7C4FC02E0484600F0F1F9D9
:10129000D9F80000416901F00041416102F05AFCB7
:1012A000000502D4D9F800000CE0D4F80808C00703
:1012B00002D0484600F020FAD9F80000416901F454
:1012C0000061416102F046FCC00402D4D9F800007C
:1012D0005DE0D4F80408102120F00100C4F80408EF
:1012E000D9F8000002F0ECFBD9F8042004F51061F5
:1012F00004F500604FF67F33CAB18B60013A0C6889
:1013000024F400140C600C6844F000640C60C1F814
:101310000832D1F8004224F40014C1F80042D1F898
:10132000004244F00064C1F800422031E4E7C169A2
:1013300041F00111C161D9F8301059B1D0F88410D1
:1013400041F00B01C0F8841000F1440109E000BF36
:101350000B30544F416942F22B021143416100F1BD
:1013600010010A6842F00B020A6009F57172016807
:1013700021F4FE610160D9F8000099F8101002F024
:101380007DFAD9F80000416901F48051416102F011
:10139000E1FB0146D9F8000089041AD502F070F883
:1013A000D9F8000002F09CFBD9F80050C9F80C00F5
:1013B00000F058FA99F80C200146284602F002FC89
:1013C000484600F041F9D9F80000416901F40051A4
:1013D000416102F0BFFB000702D4D9F8000008E029
:1013E000484600F04AF9D9F80000416901F00801C7
:1013F000416102F0AFFBC00202D4D9F8000009E05D
:101400004846002100F03AF8D9F80000416901F49B
:101410008011416102F09EFB800202D4D9F80000E5
:1014200009E04846002100F02DF8D9F80000416994
:1014300001F40011416102F08DFB400002D4D9F8A3
:10144000000008E04846FFF708FCD9F800004169B1
:1014500001F08041416102F07DFB40077FF521AD45
:10146000D9F800004468610704D54846FFF70CFC32
:10147000D9F8000041682143416012E5D0F8040426
:1014800001F0C4BCD0F8040401F0C2BC2DE9F04F57
:101490008BB0002800F087800446056890F8BD03F3
:1014A00028B9002084F8BC03204600F08BF8032004
:1014B00084F8BD03E86BC0055CBF00202061206894
:1014C00002F062F9206804F1140E04F1040B04F137
:1014D000240A0A90D4E90C509EE8C0509BE80E08FC
:1014E0009AE80007CDE9085002A8CDE900B680E8E7
:1014F000805005A880E800070A9801F0D1FF002875
:101500004ED120680021002502F035FB61680120E2
:101510000022D3B2994210D9C3EBC30604EB86066E
:1015200086F83C20A6F8423086F83D003565C6E9CD
:10153000115586F83F500132EBE700200022D3B26C
:1015400099420FD9C3EBC30304EB8303C3F8100222
:10155000C3E9810083F8FC2183F8FF0183F8FD01D2
:101560000132ECE7A06804F1140E04F1240A2268A9
:101570000A90D4E90C50D4E9033B9EE8C0509AE8A5
:101580000007CDE9085002A8CDE900B680E88050F8
:1015900005A880E8000710460A9A02F02FF838B133
:1015A000022084F8BD03012528460BB0BDE8F08F6A
:1015B0000025012084F8385084F8BD03206802F02B
:1015C00011F8F1E7B0B586B0044601A81421FEF782
:1015D00035FE2068B0F1A04F2FD10025184C01A98D
:1015E0000095206840F001002060206800F00100B4
:1015F00000900A2005900320CDE9035002200290BC
:101600004FF4C050019000980E48FFF77FF96068D2
:101610000521002240F0800060600095606940F480
:1016200080406061606900F4804000900098432031
:10163000FFF7C2FA4320FFF7B1FA06B0B0BD00BF12
:10164000303802400000024010B50446C06828B19E
:10165000022801D0FEF756FF012100E00021D4F856
:10166000040401F02BFCD4F80404BDE8104001F0A0
:10167000E6BBD0F8040401F00BBCD0F8040401F080
:1016800011BC10B5044690F8BC03012804BF022029
:1016900010BD84F83810012084F8BC03206802F0E3
:1016A00081FA002084F8BC0310BDD0F8042400F5B2
:1016B0007171104601F00EBC10B5044690F8BC03E1
:1016C000012804BF022010BD0121206884F8BC134A
:1016D000A16A012906D1A169012903D0816B41F4D6
:1016E0008031816301F072FF206802F0D5F900209B
:1016F00084F8BC0310BD000010B50446D0F8040403
:1017000001F028FC2068D0F8001E41F00101C0F86B
:10171000001E206A20B10948016841F006010160FD
:1017200010BD00BF05480129026822F004020260D2
:101730000FBF30BF40BF20BF20BF704710ED00E09B
:101740002DE9F041002860D0434B04468846D3F889
:10175000000400F00F00884207D283F80084D3F819
:10176000000400F00F0040454FD12068810711D5DB
:10177000410703D5996841F4E0519960010703D509
:10178000996841F460419960A1689A6822F0F0027A
:1017900011439960C00731D1D3F8000400F00F0065
:1017A000404507D983F80084D3F8000400F00F0007
:1017B00040452AD12068410705D5E1689A6822F49E
:1017C000E05211439960000706D52069996821F419
:1017D000604141EAC00098601C4600F061F8A168D1
:1017E0001E4AC1F30311515CC8402A4908601C48D5
:1017F0000068FFF785F90020BDE8F0816068811E70
:10180000022905D21968890107D40120BDE8F081B9
:1018100001281DD119688903F7D599681D4621F063
:10182000030108439860FFF743F9064641F2883701
:101830006068A9682B4601F00C01B1EB800FABD0BA
:10184000FFF736F9801BB842F2D90320BDE8F081DA
:1018500019688907D9D5E0E700380240883E0008BA
:101860000C0000200B480068704700BF09480A4977
:101870000A4A00680968C1F38221515CC840704778
:1018800004480549054A00680968C1F34231515CC2
:10189000C84070473400002008380240983E0008D5
:1018A00010B5134C606800F00C00082804D0042820
:1018B00014BF1048104810BD226820680023400261
:1018C00002F03F020C485CBF42F20040C0F2F4005C
:1018D0002168C1F38811A0FB0101FEF777FC2168A4
:1018E0000222C1F3014102EB4101B0FBF1F010BD56
:1018F000043802400024F40040787D012DE9FC41C9
:1019000000285CD004460078C34EC0070BD0B068F6
:1019100000F00C00042840F08F803068800302D56E
:10192000606800284BD0207880071AD5B06810F086
:101930000C0F09D0B06800F00C00082840F0A2801D
:101940007068400200F19E803068800702D5E06830
:10195000012834D12069316821F0F80141EAC00042
:101960003060207800072DD4207840073ED4A76946
:1019700017B3B06800F00C00082840F0C380012FB6
:101980001DD0E169706800F480028A4217D1216A93
:1019900000F03F028A4212D147F6C071626A0140EC
:1019A00091420CD1A16A00F440328A4207D1E16A27
:1019B00000F07060884202D10020BDE8FC81012067
:1019C000BDE8FC8161699548002900F0898001210A
:1019D000C0F8801EFFF76CF80546706F8007C3D40F
:1019E000FFF766F8401B0228F7D988E0306C4FF00B
:1019F0000008C0000CD4CDF804804FF00108306C12
:101A000040F080503064306C00F0805001900198BC
:101A1000834F3868C00548D4386840F48070386017
:101A2000FFF746F805463868C0053ED4FFF740F892
:101A3000401B0228F7D962E0B06800F00C000828CB
:101A400003D1706840023FF568AF6768B7F5803F23
:101A500007D03068B7F5A02F40F0A58040F4802073
:101A60003060306840F480303060FFF721F8054680
:101A7000306880033FF557AFFFF71AF8401B642822
:101A8000F6D93CE0E06800285BD0644801210160A1
:101A9000FFF70EF80546306880073FF55BAFFFF7AC
:101AA00007F8401B0228F6D929E0A768012F05D0C6
:101AB000306F052F56D140F004003067306F40F092
:101AC00001003067FEF7F4FF054641F28837306FBA
:101AD00080075FD4FEF7ECFF401BB842F7D90EE059
:101AE0000021C0F8801EFEF7E3FF0546706F8007F7
:101AF0007FF53AAFFEF7DCFF401B0228F6D9032042
:101B0000BDE8FC814549002088460866FEF7D0FF05
:101B10000546022F0AD14746306880015CD5FEF7A2
:101B2000C7FF411B03200229F6D946E73068800130
:101B30007FF542AFFEF7BCFF411B03200229F5D918
:101B40003BE7364800210160FEF7B2FF05463068EA
:101B500080077FF506AFFEF7ABFF411B032002298C
:101B6000F5D92AE720F001003067306F20F004003B
:101B70003067FEF79DFF0546002FA6D141F288375A
:101B8000306F800706D5FEF793FF411B0320B94253
:101B9000F6D912E7B8F1000F3FF4E9AE306C20F04F
:101BA00080503064E3E620F480303060306820F408
:101BB00080203060FEF77CFF0546002F7FF458AF91
:101BC00006E0FEF775FF411B032064293FF6F5AEE2
:101BD00030688003F5D4A6E61C341FCC0843D90333
:101BE00040EA82104FF6FF72914340EA0460A1F58B
:101BF00080310843706001203866FEF759FF0446C3
:101C0000306880013FF5D8AEFEF752FF011B03207C
:101C10000229F5D9D1E600BF003802400000474252
:101C200000700040411E0020B0EB116F1CBF01206E
:101C30007047044AF023516003490B7007219060FC
:101C40001160704710E000E023ED00E0704770473E
:101C5000B0B110B5044690F83D0028B9002084F8D2
:101C60003C00204600F00EF80220211D84F83D00C3
:101C7000206800F00DFC012084F83D00002010BD1C
:101C80000120704770470068C16841F00101C160E0
:101C9000816801F00701062903D0016841F00101C4
:101CA000016000207047704710B504460068016964
:101CB000890744BFC1685FEA817139D40169490766
:101CC00044BFC1685FEA41713ED40169090744BF5E
:101CD000C1685FEA017144D40169C90644BFC168A3
:101CE0005FEAC16149D40169C9071CBFC1685FEAE5
:101CF000C1714FD10169090644BFC1685FEA016142
:101D000050D40169490644BFC1685FEA416151D4BA
:101D10000169890644BFC1685FEA816100D410BDD2
:101D20006FF0200101612046BDE81040FFF78FBF32
:101D30006FF002010161012121778069800741D0A4
:101D40002046FFF7B0FF43E06FF00401016102217C
:101D50002177806910F4407F3ED02046FFF7A3FF33
:101D600040E06FF00801016104212177C06980071C
:101D70003CD02046FFF797FF3EE06FF01001016175
:101D800008212177C06910F4407F39D02046FFF741
:101D90008AFF3BE06FF001010161204600F03CF852
:101DA0002068A7E76FF0800101612046FFF74EFF32
:101DB0002068A6E76FF040010161204600F054F86A
:101DC0002068A5E7204600F025F8204600F023F81B
:101DD00000202077206871E7204600F01BF820469D
:101DE00000F019F80020207720686EE7204600F008
:101DF00011F8204600F00FF80020207720686BE7EC
:101E0000204600F007F8204600F005F80020207773
:101E1000206868E77047704770B5104E7078C0430F
:101E20007070D6E9010290420ED00D490D4D38BFB9
:101E30004FF40060841A11442846224600F07AFDCF
:101E4000284600F0D7FD00B170BDB0682044B0F561
:101E5000006118BF0146B16070BD00BF9401002051
:101E6000840C0020841400207047A8B110B50446EB
:101E7000242084F839002068C16821F40051C16031
:101E8000204600F0EFF80020E06384F8390084F881
:101E9000380084F83A0010BD01207047FEF732BBCD
:101EA000F8B5044600680168C268466901F02F056C
:101EB00002F02003202D05D123B12046BDE8F840D3
:101EC00000F089BB5FEA017E07D006F0010612F43C
:101ED000907F86F0010725D127B311400A060DD463
:101EE00049067AD5C16821F04001C160202084F8FC
:101EF00039002046BDE8F84000F0E2B994F8391006
:101F000021296AD1A268216AB2F5805F5CD10A8872
:101F10006FF35F2242602269002A14BF013102314F
:101F2000216255E0CD0718BF12F4807503D0E56B30
:101F300045F00105E56301F004054FF0010C8CEA62
:101F400095053D4303D1E56B45F00205E56301F0DE
:101F500002058CEA55053D4303D1E56B45F00405C8
:101F6000E563334318BF0123BEF1000F04D51BB155
:101F7000E36B43F00803E363E36B73B3114089063B
:101F800003D5204600F027FB20684069E16B00F094
:101F9000400001F00801401825D0204600F00EFB5B
:101FA00020684169490619D5416921F04001416124
:101FB000606B98B113490165FEF7A5FA68B1606BD3
:101FC000016DBDE8F84008474A1C2262097841606B
:101FD000E18C0139E18409040BD0F8BD2046BDE84D
:101FE000F840FFF75BBF2046FFF758FF0020E06393
:101FF000F8BDC16821F08001C160C16841F04001B5
:10200000C160F8BD3125000850B310B5044690F802
:10201000390028B9002084F83800204600F046F83E
:10202000242084F839002068C16821F40051C1607F
:10203000204600F00BFB2068016921F4904101610A
:10204000416921F02A014161C16841F40051C16038
:1020500000202021E06384F8391084F83A1010BD84
:1020600001207047B0B5104D564C4FF400712868F0
:1020700040F010002860286820F0100028602046FA
:10208000FEF7DAFB20464FF48061FEF7D5FB2520F2
:10209000FEF772FD286840F010002860286820F0E4
:1020A00010002860B0BD00BF243802402DE9F04781
:1020B00086B04FF0000AAD4F804607240121414D04
:1020C00001AECDF804A0386840F0010038603868EF
:1020D00000F0010001900198CDF804A0386840F0AC
:1020E00001003860386800F0010001900198CDF8D7
:1020F00004A0786940F010007861786900F0100061
:1021000001900198CDF804A0386840F48000386050
:10211000386800F480000190019805940220049032
:10212000CDE902014FF40070314601902846FEF7D8
:10213000EDFB05944FF48064284631460194FEF788
:10214000E5FBDFF88490252005210022C8471F4EBB
:102150002520B0471E4D1F4A4FF000614020C5E9C1
:102160000021C5E9020A05F1140014212C61FEF7D3
:1021700065F84FF400104FF400010322C5E90A216D
:1021800028632846FEF78AFA462006210022C8F86E
:102190003050C5F83880C8474620B047CDF800A079
:1021A00006210022386940F001003861386900F0EA
:1021B0000100009000981C20C8471C20B04706B0C2
:1021C000BDE8F08700000240B90B00089D0B000835
:1021D000E0010020B8640240B0B5034690F83A0030
:1021E000202806D10120E9B1E2B193F83800012896
:1021F00001D10220B0BD00202224DA85D86383F803
:102200003A401C68E56845F48075E560656945F00D
:10221000010565619A85996283F83800E16841F0AB
:102220002001E160B0BD000006494A680132B2F504
:10223000006318BF13464B60034901221944FFF79E
:10224000CBBF00BF94010020840C0020F8B50546E8
:1022500090F83900202806D139B113462AB195F8F3
:102260003800012803D1022422E0012420E00024C8
:10227000EB8401200F4E114FEC6385F83800AB84DE
:102280002962286B2A68C0E913640B4E0432C0E946
:102290000F76212685F83960FEF78CFA28686FF0F2
:1022A0004001016085F83840416941F08001416199
:1022B0002046F8BD3D250008B725000891250008F7
:1022C0003C4800F017BB00BF7047FEE7F0B5520076
:1022D000002337240025AA4208BFF0BD04EB107686
:1022E000070FB0F1204F4FEA001038BF07F130065A
:1022F0004E5545F0010602358B55ECE7F0B587B039
:1023000000251A481A4C01224FF400560127069561
:102310000195016841F004010160016801F00401C8
:10232000019101990195016841F080010160016806
:1023300001F08001019101990195016841F00101CD
:1023400001604FF40051006800F001000190019815
:102350002046FEF7A7FB02A92046CDE90455CDE9AA
:102360000267FEF7D3FA07B0F0BD00BF3038024075
:102370000008024080B50F480F49002200F042FCDF
:1023800008B1FEF7BFF80B480C4900F000FE08B199
:10239000FEF7B8F807480A4900F0BFFA08B1FEF79F
:1023A000B1F8044800F00CFE18B1BDE88040FEF71B
:1023B000A9B880BD8414002010000020380000203F
:1023C0005C010020FEE770470148FEF761BD00BFD9
:1023D0005417002070477047FEF76EBBB0B592B03F
:1023E00000241F480225CDE90A44CDE908440194A0
:1023F000016841F080510160006800F08050019058
:10240000019801941748016865F38F3101600068F5
:1024100000F4404001900198072011900420109092
:102420004FF4A8700F9019200E904FF48000CDE962
:102430000C504FF4803007900120069006A8FFF75B
:102440005DFA4FF480500594022104900F20CDE9ED
:102450000254019001A8FFF773F912B0B0BD00BF9C
:1024600040380240007000400548D0F8801041F428
:102470007001C0F880104FF000610160704700BF2C
:1024800008ED00E00148FFF70FBC00BF400200204C
:1024900070B503681F4AB0F1804F07D01E4CA042B0
:1024A00004D01E4CA04218BF90422FD14C6823F09C
:1024B00070032343B0F1804F13D0174CA04210D0CB
:1024C000164CA0420DD0164CA0420AD0904208D023
:1024D000144CA04205D0144CA04202D0134CA04290
:1024E00003D1CC6823F4407323434E6923F0800367
:1024F0000C688D68904243EA06030360C5628462FB
:1025000001D1096911630121416170BD044CA042F0
:10251000CCD0CFE70000014000040040000800409C
:10252000000C0040004001400048014000440140D0
:10253000806B0021C185C184FFF7B0BC10B5846BEE
:102540002068416994F83920212A0BD111F08001CB
:1025500008D00021E184C16821F0C001C1602021C0
:1025600084F83910406994F83A10222907D110F004
:10257000400004D00020E085204600F01FF8E06B0A
:1025800040F01000E0632046BDE81040FFF786BC35
:102590000168806B0968C90548BFFFF791BE00213B
:1025A000C1840068416921F080014161C16841F046
:1025B0004001C1607047806BFFF786BE0168CA6842
:1025C00022F49072CA604A6922F001024A61202115
:1025D00080F83A10704790F83A10222923D1816888
:1025E000B1F5805F0ED102680369816A5268002BE1
:1025F00019BFD2B221F8012B6FF35F2221F8022B11
:1026000081620BE0026901684968002A826A02F16E
:102610000103836218BF01F07F011170C18D013980
:10262000C185090400D070470168CA6822F0200201
:10263000CA60CA6822F48072CA604A6922F0010244
:102640004A61202180F83A10FFF7EEBDB0B504468C
:10265000006804F108030ECB056925F440551943C1
:102660002A4349F20C650261C26863691943E36950
:10267000AA431943B3F5004F41EA0201C160416921
:10268000A26921F4407141EA02014161254940F407
:10269000806004D1884207D1FFF7F2F806E0884253
:1026A0001FD1FFF7EDF81EE0FFF7E0F8636819218E
:1026B000A0FB01015A00DB0FFDF788FD64216FF0DC
:1026C0006303B0FBF1F202FB0300322303EBC00013
:1026D000B0FBF1F14FF4F87000EA410001F007019E
:1026E00019E0FFF7C3F863681921A0FB01019A0004
:1026F0009B0FFDF76BFD64216FF06303B0FBF1F2FC
:1027000002FB0300322303EB0010B0FBF1F101F0F8
:10271000F00001F00F0100EB02100843216888600F
:10272000B0BD00BF001401400148FFF7B9BB00BFB6
:10273000A001002070B50A46D0F8BC12F9B102EB36
:10274000820300EB830353F8184F5CB1D0F8C452F6
:10275000C2EBC20605EB86056D6CB4FBF5F606FB15
:10276000154474B10024C1F81442D0F8C002D1F865
:10277000083201F5047105691846A84708E00324EA
:1027800006E00024114600221C60002300F0EBFB51
:10279000204670BDB0B5D0F8BC5275B1044600F00B
:1027A000F0FAD4F8C012C5F80C02D5F80402CA68D1
:1027B00005F5037190470020B0BD0320B0BD0000B7
:1027C00070B50F4E81210446B047002520460121F7
:1027D0002587B04720468221A4F87851B047D4F825
:1027E000BC02E56448B1D4F8C00240688047D4F820
:1027F000BC0201F0EBFAC4F8BC52002070BD00BF6F
:10280000472C000810B5D0F8C01269B1D0F8BC420E
:1028100094F80002FF2807D08B6894F80122214623
:102820009847FF2084F80002002010BD0A21018093
:1028300000487047F800002043210180004870479D
:10284000700000204321018000487047B400002040
:102850004321018000487047040100202DE9F04128
:1028600004464FF4077001F0D9FAD0B30546C4F816
:10287000BC02207C4026DFF87880812102220028DB
:1028800008BF4FF4007620463346C0470127204654
:102890000121022233462787C047102082210322CC
:1028A0000823A4F87871A4F84E002046C047D4F855
:1028B000C002A4F84C700068804700200121C5F8D0
:1028C0001402C5F81802207CD5F8042200282046FE
:1028D00014BF40234FF4007300F0A8FA0020BDE8B5
:1028E000F0810020C4F8BC020220BDE8F08100BFE6
:1028F000152E000880B5D0F8BC1261B1027C4023CF
:10290000002A08BF4FF40073D1F80422012100F01F
:102910008DFA002080BD032080BD19B1C0F8C0121F
:102920000020704703207047D0F8BC02C0F80412A2
:1029300000207047D0F8BC02C0F81022C0F808127E
:10294000002070477CB50446D0F8BC6200200D46DC
:102950008DF80700ADF80400087810F060010FD082
:10296000202940D1EA88DAB1000622D468783146BD
:1029700086F8012286F80002204600F075F82CE067
:1029800068780B282BD0012827D00A281BD050BBF1
:1029900094F89C02032826D101A9204602221AE0BD
:1029A000D4F8C0126878002200248B682946984722
:1029B0001EE0D4F8C01268788B6831469847EA88E0
:1029C0002046314607E094F89C0203280BD10DF114
:1029D00007012046012200F05FF8002408E094F887
:1029E0009C020328F9D02046294600F032F803243F
:1029F00020467CBD80B5D0F8BC327BB1D3F8142220
:102A0000012162B9C3F814128121D3F80822D3F846
:102A10001032C36200F0A7FA002100E0032108464B
:102A200080BD80B5D0F8B8220AB152689047002026
:102A300080BD80B513460A46002100F0F7F900205A
:102A400080BD80B513460A46002100F08CFA0020B4
:102A500080BD10B58021044600F06AFA20460021AE
:102A6000BDE8104000F064BA80B513460A46032161
:102A7000C0E95633C0F89412002100F0D7F90020C5
:102A800080BD80B5052100220023C0F894120021EA
:102A900000F0CCF9002080BD80B513460A46022123
:102AA000C0E90633C0F89412002100F05CFA00205F
:102AB00080BD80B5042100220023C0F894120021BB
:102AC00000F051FA002080BD10B52B4C0A4603A03F
:102AD000214600F06DF8204610BD00BF434443205E
:102AE000436F6E66696700001220088000487047D7
:102AF0004801002010B5204C0A4603A0214600F0F2
:102B000057F8204610BD00BF43444320496E74650A
:102B10007266616365000000042008800048704709
:102B20007001002010B5144C0A4603A0214600F0A5
:102B30003FF8204610BD00BF53544D6963726F6566
:102B40006C656374726F6E696373000010B50A4C34
:102B50000A4603A0214600F02BF8204610BD00BF16
:102B600053544D3332205669727475616C20436F33
:102B70006D506F727400000084020020B0B51A20FE
:102B80000880094908688A6880180BD0074D4C688E
:102B90000822A91CFFF79AFB05F112012046042226
:102BA000FFF794FB0148B0BD107AFF1F74010020AD
:102BB000B0B5C8B100230446257815B101340133FE
:102BC000FAE7DCB2022303EB4404148003220C7006
:102BD0004A70002204783CB1DDB2023301304C551A
:102BE00045F001040A55F5E7B0BD0000032884BF95
:102BF000032070470249C00021FA00F0C0B27047BC
:102C000000030103A0B1D0F8B83213B10023C0F81B
:102C1000B832D0F8CC3213B10023C0F8CC3209B1AD
:102C2000C0F8B4120121027080F89C1200F0AEB816
:102C30000320704780B5D0F8C402FEF74EF8BDE817
:102C40008040FFF7D3BF80B5D0F8C402FEF720F86C
:102C5000BDE88040FFF7CABFB0B5044671B1D4F8F3
:102C6000B802426942B194F89C02032804D120467C
:102C70009047002841D0B0BD0320B0BDD4F89402E5
:102C8000022833D1D4E9070188420DD9431A1146ED
:102C900020461A46E361FFF7D4FE204600210022B9
:102CA000002300F0C3F821E00FD1A16981420CD3C9
:102CB000D4F89802814208D2204600210022002543
:102CC000FFF7BFFEC4F89852E7E7D4F8B802C1682E
:102CD00029B194F89C02032801D120468847204658
:102CE000802100F025F92046FFF7CBFE94F8A002E2
:102CF000012804BF002084F8A0020020B0BD10B558
:102D0000044669B1D4F8B80282693AB194F89C02D9
:102D1000032803D12046904718B310BD032010BDEF
:102D2000D4F8940203281CD1D4E9570398420BD954
:102D3000C01A1146C4F85C01984238BF03462046C9
:102D40001A46FFF776FE0CE0D4F8B802016929B103
:102D500094F89C02032801D1204688472046FFF7BB
:102D6000A8FE002010BD0020704780B5D0F8B82222
:102D7000012180F89C1212B101795268904700201D
:102D800080BDD0F8C402FDF7D5BF000010B50178B2
:102D900041BB15490222C0F8C412C1F80404002046
:102DA000C1E90B00C1E90620C1E90800C1E903201F
:102DB00004204FF0A042C1E900200846FEF766FB60
:102DC00008B1FDF79FFB084C80212046FDF721FF4D
:102DD000204600214022FDF720FF204601218022CD
:102DE000FDF71BFF002010BD5417002001F07F02EB
:102DF000D0F8C4020906C2EBC20200EB820000F167
:102E00003E0258BF00F5FF721078704700207047EF
:102E10000020704710B51446D0F8C4021A46234665
:102E2000FDF791FFBDE81040FFF7E0BE80B5D0F898
:102E3000C402FDF7B6FFBDE88040FFF7D7BE70B50E
:102E4000044600200125C4F89402C4F8A40260607E
:102E5000D4F8BC0284F89C5228B1D4F8B8020021FE
:102E60004268204690472046002100224023402609
:102E7000FFF7D0FF2046802100224023A4F86451B0
:102E8000C4F86061FFF7C6FF0020A584266270BD0C
:102E900090F89C12042904BF90F89D1280F89C12AF
:102EA0000020704780B590F89C12032904D1D0F817
:102EB000B812C96901B18847002080BD01740020A3
:102EC000704780B5D0F8C402FEF7DBFBBDE8804058
:102ED000FFF78CBEB0B500F2AA250446284600F0E4
:102EE0004BF8B4F8B0120120C4E9A50194F8AA0285
:102EF00000F01F01022908D001290CD089B9204611
:102F00002946BDE8B04000F05DB820462946BDE83E
:102F1000B04000F0B3B920462946BDE8B04000F00B
:102F20004ABA00F080012046BDE8B040AFF300800F
:102F300080B5D0F8C402FDF755FFBDE88040FFF72B
:102F400055BE80B5D0F8C402FEF7B6FBBDE88040A0
:102F5000FFF74CBE90F89C1280F89D12042180F877
:102F60009C120020704780B5D0F8C402FDF771FFB5
:102F7000BDE88040FFF73ABE0A7802704A78427096
:102F80004A8842808A888280C988C18070471CB57F
:102F900004460020ADF8060049B1C4F8B812896AA9
:102FA0000DF106008847C4F8CC0200201CBD0320A8
:102FB0001CBDD0F8B8220AB1126810470320704730
:102FC000FFF7BFBFBCB5044608780D4610F060009F
:102FD0000DD0402802D0202840F04081D4F8B8021B
:102FE00029468268204602B0BDE8B04010476878A4
:102FF000092800F23381DFE810F00A0020003101D7
:10300000310031013900590031016F00810094F81D
:103010009C020138022800F22181E888022840F051
:103020001D81D4F8A40203222146002808BF0122F2
:1030300041F80C2F204602220DE194F89C02013841
:10304000022800F20B8168880025012840F00A81DF
:10305000C4F8A4522046FFF72CFD03E1688801283C
:1030600040F0FF800120C4F8A402FDE0A8880028F9
:1030700040F0F480E888002840F0F08068887F28DD
:1030800000F2EC8094F89C12032900F0E780C5B2AE
:1030900084F89E0220462946FFF713FF2046FFF7DB
:1030A00008FD002D00F0E4800220E2E000204FF057
:1030B000FF31ADF80600688801EB1021062900F207
:1030C000CD80DFE801F0044047CBCB545E00D4F85C
:1030D000B412207C0A68AFE0E888012840F0BE8086
:1030E00094F89C02411E022926D200252146204642
:1030F000012241F8085FFFF7CFFCB3E068885E4D1E
:10310000C1B22870022903D32046FFF7A2FC66E073
:1031100094F89C02032840D0022859D1002900F0DD
:10312000A38020466160FFF744FF00286AD005466F
:103130002046FFF78EFC95E0032840F08F80211D8C
:103140002046012287E0217CD4F8B802002948D02B
:10315000C16A47E0C0B2052800F28080DFE800F0D5
:1031600003575B5F6367D4F8B402426862E0207C77
:10317000002873D1D4F8B802416B0DF106008847DE
:103180005DE0207C002869D1D4F8B802016B0DF114
:10319000060088470146072029E051B3606888424D
:1031A00062D0C1B22046FFF73CFC2978204661601E
:1031B000FFF7FFFE002857D005462046FFF749FCE1
:1031C00021792046FFF72DFC022084F89C0249E07B
:1031D0002046FFF73EFC29782046FFF722FC032516
:1031E00040E0816A0DF106008847014602204870E0
:1031F00026E00220002584F89C0220466560FFF747
:1032000010FC27E72046FFF754FC032031E0D4F8F8
:10321000B40282680EE0D4F8B402C2680AE0D4F8BE
:10322000B402026906E0D4F8B402426902E0D4F8BC
:10323000B402826992B1207C0DF1060190470146EB
:10324000EA888AB1BDF8060040B1904238BF024614
:10325000ADF806202046FFF71FFC02E02046FFF7EE
:10326000F8FB00252846BCBD2046FFF722FCF8E706
:10327000012084F89C02F4E780020020B0B50446E7
:1032800008780D4610F060000BD0402801D02028AF
:103290006DD1D4F8B802294682682046BDE8B04016
:1032A000104768782979B0B101282FD003285ED162
:1032B00094F89C0203282DD1688840B941F0800021
:1032C000802804D0E88810B92046FFF731FE204658
:1032D000FFF7EFFB4EE094F89C02032828D0022869
:1032E00045D141F08000802841D101F07F000906DE
:1032F00000EB800004EB800000F1140258BF00F5E1
:10330000AA72002011461060204650E094F89C02FA
:10331000032831D002282AD141F08000802826D00D
:103320002046FFF705FE20468021FFF701FE21E041
:1033300001F00F0211F0800002EB820204EB820226
:1033400014BF928CB2F864218AB101F07F02002888
:1033500041F0800002EB820204EB820202F5AA75C2
:1033600018BF02F11405802818D100201CE0204667
:10337000FFF76FFB0020B0BD68880028FAD148062F
:1033800002D02046FFF756FC2046FFF792FBD4F808
:10339000B8022946826820469047EBE72046FFF7AF
:1033A00025FD0028E1D00120286020462946022280
:1033B000FFF772FBDEE7B0B5044608780D4610F063
:1033C000600018BF402815D194F89C0201380228EB
:1033D00012D8A88810F0FE0F0ED1D4F8B8022946F2
:1033E00082682046904758B9E98849B92046FFF7D6
:1033F00060FB04E02028E7D02046FFF72AFB0020EE
:10340000B0BD0000B0B50A784C78012502F00F037A
:10341000012C05FA03F318D1D0F81C482343C0F857
:103420001C38530100F51060C458240424D41C58DF
:103430008D68C9786FF3DF2545EA8252224342EA5C
:1034400081410E4A1143195016E0D0F81C48520130
:1034500044EA0343C0F81C3800F5306083581B046D
:103460000AD413588C68C9786FF3DF24234343EAE6
:103470008141024B194311500020B0BD0080001063
:10348000D0F8001940F2FF729143C0F80019D0F84B
:10349000041841F48071C0F804180020704700003F
:1034A00070B504460698049D012817D1A16B194AEE
:1034B0000D9821F480310128A163E16801EA02013D
:1034C000E160E16821F44011E16003D1E06840F47B
:1034D0008010E060204600F01FF80FE0E0680A9ED0
:1034E00040F04000E060204600F016F8A16B16B1F5
:1034F00021F4803101E041F48031A163012D07D135
:10350000A16841F00601A160A16841F02001A1601D
:1035100070BD00BFBFFFBDFF0A490A46013A0FD088
:103520000369B3F1FF3FF9DC026942F00102026175
:10353000013905D00269D20704BF00207047F7E7C0
:1035400003207047410D030010B50A784B781E49DF
:1035500000EB4214012B10D104F51063D4F800499C
:10356000B4F1FF3F07DC1C6844F000641C601C6879
:1035700044F080441C60012412E004F53063D4F868
:10358000004B01F17071B4F1FF3F07DC1C6844F09F
:1035900000641C601C6844F080441C604FF480345C
:1035A00002F00F0204FA02F2D0F83C489443C0F84B
:1035B0003C48D0F81C4824EA0202C0F81C281868CD
:1035C00008401860002010BD007833EC80B5D0F8BA
:1035D000041821F00201C0F804180320FDF71CF9BB
:1035E000002080BD80B5D0F8041841F00201C0F879
:1035F00004180320FDF710F9002080BD2DE9F84FD5
:103600008046119CDDE90C09DDF828A00D4641211A
:103610000022502903D048F821200131F9E754B1A4
:10362000D8F8381021F40011C8F83810D8F838103C
:1036300041F4002115E0D8F8041841F00201C8F85F
:103640000418D8F8381041F40011C8F83810D8F828
:10365000381021F40021C8F83810D8F8381021F4B7
:103660008021C8F83810002108F5006B0128C8F83F
:10367000001EDBF80010CBF8001006D1DBF80000CC
:10368000002B18BF40F0010003E0DBF8000040F021
:103690000300CBF800004046102100F011FA064666
:1036A000404600F0FFF90021304308F510624FF664
:1036B0007F330026CBF81010CBF81410CBF81C1079
:1036C000B5420FD04FF09047002E06F1010608BF1B
:1036D0004FF00067146807EAE474146011619360A6
:1036E0002032EDE708F5306100224FF67F330026E7
:1036F000002818BF0120B5420FD04FF09044002E93
:1037000006F1010608BF4FF000640F6804EAE77491
:103710000C600A618B602031EDE7DBF81010BAF124
:10372000000F21F48071CBF810104FF00001C8F8A1
:1037300018106FF08041C8F8141005D1D8F818108F
:1037400041F01001C8F81810D8F818100C4AB9F157
:10375000000F41EA0201119AC8F8181005D0D8F8F4
:10376000181041F00801C8F81810012A05D1D8F83E
:103770001810044A1143C8F81810BDE8F88F00BFAC
:1037800000383C8004000040816821F00101816024
:1037900000207047F0B54B7891F800E0012B1DD167
:1037A00000EB4E13334F344CD3F810694D6903F5D9
:1037B0001063C5B326401E611E693E401E618E68BF
:1037C000B54284BF4E6135461E6946F400261E612F
:1037D00007F100561F692E403E432FE000EB4E10CC
:1037E000244CD0F8103B6FF31203C0F8103BD0F814
:1037F000103B6FF3DC43C0F8103B00F530634D69BC
:10380000886805B148611D6904F10054012A00EA85
:10381000040045F400251D611C6940EA040018619C
:1038200012D1C8680EE006EA07051D611D6945F45E
:1038300000251D611D6905EA04060025012A1E6197
:1038400009D1086900B158614FF004411868084374
:1038500018600020F0BD1968002D41F00441196086
:10386000F7D00EF00F01012200F6340302FA01F145
:10387000ECE700BFFFFF07E00000F8FF10B5036CA6
:10388000134CA34203D3D0F8003B002B1ED40023DB
:103890000129C0F8103BD0F8103B43F40023C0F8D6
:1038A000103BD0F8103B43F01803C0F8103BD0F8A1
:1038B000103B43F0C043C0F8103B07D1C0F8142BB5
:1038C000D0F8001B41F08021C0F8001B002010BD83
:1038D0000B30544F0A784B785201012B14BF00F57E
:1038E000306000F51060835823F400138350C978CA
:1038F00001F0FE01022903D1115841F0805111500D
:10390000002070470A78497800EB4210012919BF5E
:10391000D0F8001B00F53060D0F8001900F51060F9
:103920002AB1002903D4016821F0804101600168B7
:1039300041F400110160002070470000F8B54B7899
:103940000C78012B2BD100EB4413D3F810694D698F
:1039500003F51063002D44D06FF312061E611E693B
:103960006FF3DC461E618E68AF19013FB7FBF6F6B8
:10397000484F07EAC6461F693E431E612E461F692F
:103980006FF3DF463E431E61CE78012E34D11E69AF
:1039900026F0C0461E611E6946F000562BE000EB83
:1039A0004413D3F8104B6FF31204C3F8104BD3F841
:1039B000104B6FF3DC44C3F8104B03F530634D69D3
:1039C0008C68B5B32544334E1F69013DB5FBF4F552
:1039D00006EAC546ADB26C433E436FF3DF441E6159
:1039E0002EE06FF3DC461E611E6946F400261E6160
:1039F0001E696FF312061E61012A01D10A6926E0D1
:103A00001E6846F004461E60CE78012E35D1D0F8EF
:103A10000868F6054FF0805658BF4FF000561F68F3
:103A20003E431E60ABB2C9680092224600F042F9E4
:103A300021E01D696FF3DF442C431C614FF4002427
:103A40001D69012A44EA05041C6102D1CA6802B159
:103A50005A61C97801290AD1D0F80808C0054FF089
:103A6000805058BF4FF0005019680843186018681C
:103A700040F0044018600020F8BD002DFBD004F099
:103A80000F01012202FA01F1D0F834281143C0F8E5
:103A90003418F0E70000F81F816841F001018160EF
:103AA00000207047102101610C49013904BF032037
:103AB00070470269D2065CBF00207047F5E700BF7F
:103AC0008901203101610549013904BF0320704794
:103AD000026992065CBF00207047F5E7410D0300C4
:103AE000D0F8080800F006010F2041F00402062A71
:103AF00008BF0220002908BF08467047406900F04F
:103B000001007047D0F81818D0F81C08084080B29F
:103B10007047D0F81818D0F81C080840000C7047FF
:103B200010B5D0F81028D0F8344801F00F0300EB9E
:103B30004110D0F8080924FA03F3DB01DBB21A4381
:103B4000104010BD00EB4111D1F8081BD0F814084B
:103B500008407047416980690840704710B50332DA
:103B60004FF48053920822B1C458013A41F8044BF3
:103B7000F9E7084610BD80B5C268012922F0C042AD
:103B8000C26003D061B94FF0804101E04FF00051B5
:103B9000C2681143C1603220FCF73EFE002080BDA8
:103BA000012080BDD0F8002801F07F0122F4FE62E0
:103BB000C0F80028D0F8002842EA0111C0F8001827
:103BC00000207047022A34D1284A294B0A449A42DD
:103BD00002D24FF470512EE0264A274B0A449A42F3
:103BE00002D24FF4605126E0244A254B0A449A42FF
:103BF00002D24FF450511EE0224A234B0A449A420B
:103C000002D24FF4405116E0204A214B0A449A4216
:103C100002D24FF430510EE01E4A1F4B0A449A4222
:103C200002D24FF4205106E01C4A1D4B0A449A422E
:103C30000AD24FF41051C26822F47052C260C268B6
:103C40001143C16000207047164A174B0A449A423C
:103C500002D24FF40051EEE7144A154B0A444FF4D8
:103C6000C0519A4238BF4FF4E051E4E7405327FF78
:103C700000350C00401E1BFF40420F0000DC0BFF14
:103C8000804F1200808CF9FE20D6130060B6E5FE4E
:103C900060E3160000D3CEFE40771B00C05BB3FE8E
:103CA000C091210000CA91FE20753800E05459FEF1
:103CB000E09C410010B5029C0CB1002010BD033304
:103CC000120300F580509B08002BF6D051F8044BEE
:103CD000013B1450F8E7FEE710B5074C00F00F0366
:103CE000044AB0F1FF3F2344C8BF8318080118708D
:103CF00010BD00BF00E400E014ED00E0FCF7E6FEBC
:103D0000FEF76CFBFEF7FAFAFEF734FB244C254D68
:103D1000254E4FF0500800274FF00109287898B140
:103D200020464FF4005100222F70FCF7BBFE042008
:103D3000FCF772FD20464FF400510122FCF7B2FE61
:103D4000C720FCF769FDE9E73178708831B10138A7
:103D50007080010404BF0020307007E0013081B2A0
:103D60007080B1F5C86F28BF86F80090717880B276
:103D7000B0FBF8F04A1C142988BF0022C0B2D1B2AF
:103D8000727081424FF0000220464FF4005128BF6C
:103D90000122FCF787FE00200121FDF7C3FCBDE7EF
:103DA00000080240940100209001002002E008C8B1
:103DB000121F08C1002AFAD170477047002001E0A5
:103DC00001C1121F002AFBD17047000010B5002866
:103DD00021D0114B0022001F196803E0814203D853
:103DE0000A4649680029F9D152B11368841A9C42E5
:103DF00004D1006818441060104602E0506000E0F2
:103E0000186039B102680B1A934203D10B681A4447
:103E100002604968416010BD00000020F0B50B3021
:103E2000154D20F007010024144A0FE003688B426F
:103E30000BD38B4205D95E1A43184768C3E9006764
:103E400000E04368136002C004E0021D106800280F
:103E5000ECD12046002802D1286808B10020F0BD2E
:103E6000064A07481060074A121A22F00702C0E902
:103E7000002401202860D7E7040000200000002073
:103E8000641B0020602300200000000000000000F0
:103E900001020304060708090000000001020304F0
:103EA000C03E00080000002090010000B40200089D
:103EB000903F000890010020D0250000BC3D000884
:103EC000813201321013E92A1408192B1B0825042A
:103ED0001A4D041A7D041AC9141AF504112AC226AF
:103EE00022081324F4135D281408C1272C0845293F
:103EF00011211A05101A35101A9504C11A45181AFD
:103F000039041A51041A2D04140902431302011D25
:103F1000C0320904751A020B13052416100105247A
:103F20000110090104240202052406170107058275
:103F30000308151009040133020A2E070501024087
:103F4000072A810711093744113A02441907112B36
:103F50000A0606112A40D22B0907500A3B04941A7C
:103F600012171302021E40830440574D1B020359CF
:103F700013ED031B08D9041A0D041385041B089DB7
:103F800004071A040309041A0300000000000000DB
:040000050800019559
:00000001FF
