:020000040800F2
:10000000100D00205102000863260008B91F0008E7
:1000100061260008E5090008893700080000000093
:10002000000000000000000000000000E5340008AF
:10003000E70900080000000065260008E734000812
:100040006B0200086B0200086B0200086B020008DC
:100050006B0200086B0200086B0200086B020008CC
:100060006B0200086B0200086B0200086B020008BC
:100070006B0200086B0200086B0200086B020008AC
:100080006B0200086B0200086B0200080000000011
:100090000000000000000000000000006B020008EB
:1000A0006B0200086B0200086B0200086B0200087C
:1000B0006B0200086B0200086B0200086B0200086C
:1000C0006B0200086B0200086B0200086B0200085C
:1000D0006B0200086B0200086B02000800000000C1
:1000E0006B0200086B0200086B02000800000000B1
:1000F0000000000000000000000000006B0200088B
:10010000000000006B0200086B0200086B02000890
:1001100000000000000000000000000000000000DF
:100120006B0200086B0200086B0200086B020008FB
:100130006B0200080000000000000000000000004A
:100140000000000000000000000000006B0200083A
:100150006B0200086B0200086B0200086B020008CB
:100160006B0200086B0200080000000000000000A5
:10017000000000000000000000000000000000007F
:10018000000000006B0200080000000000000000FA
:100190006B0200086B02000800F002F800F048F85B
:1001A0000AA090E8000C82448344AAF10107DA45D2
:1001B00001D100F03DF8AFF2090EBAE80F0013F0DC
:1001C000010F18BFFB1A43F0010318479CEB000016
:1001D000BCEB0000103A24BF78C878C1FAD85207A7
:1001E00024BF30C830C144BF04680C6070470000B1
:1001F0000023002400250026103A28BF78C1FBD830
:10020000520728BF30C148BF0B607047642900F017
:100210004981782900F08281002070471FB503F0E2
:1002200025FC9DE8030000F087FA1FBD10B510BD46
:1002300000F056FB1146FFF7F1FF03F089FB00F0D9
:1002400074FB03B4FFF7F2FF03BC00F0A5FB000052
:100250000948804709480047FEE7FEE7FEE7FEE75A
:10026000FEE7FEE7FEE7FEE7FEE7FEE70448054996
:10027000054A064B704700007535000899010008D3
:1002800010070020100D0020100900201009002088
:1002900070B5064600F034FA056806F10B0020F050
:1002A0000704B4429CBF002070BD2B466A68BAB1F7
:1002B0001068A04210D304F1080188423CBF506886
:1002C000586007D35168101941601168091B01601B
:1002D00058601460101D70BD13465268002AE7D1A3
:1002E0002146284600F014FA0028DED170BD70B512
:1002F0000446051F00F004FA0068002C14BF44688F
:1003000070BD002C18BFAC423CBF20466468F8D3D7
:1003100001680A18AA4218BF456003D12A68054639
:100320001144016028684119A1421CBF6C6070BD76
:100330006168696021680844286070BD53EA020C56
:1003400000F069802DE9F04B4FF00006002B1FBF35
:10035000B3FA83F503FA05F424FA05F65E4012BFFA
:100360001643B2FA82F502FA05F4C5F120051EBF64
:1003700022FA05FC44EA0C04203556EA044C4FEA04
:10038000144418BF641C4FF000084FF0000990425D
:1003900071EB030C39D3002919BFB1FA81F701FAC7
:1003A00007F6B0FA80F700FA07F6C7F120071EBF7C
:1003B00020FA07FC46EA0C062037B6FBF4FCA7EB54
:1003C0000507103F07F01F0BCBF120060CFA0BFBC3
:1003D0002CFA06F644BFB3460026202FA4BF5E4683
:1003E0004FF0000B5BEA060C08BF4FF0010B19EB56
:1003F0000B09ABFB027C48EB0608C01B06FB02CCDA
:100400000BFB03CC71EB0C01C1E70B4602464146E6
:100410004846BDE8F08B13B54FF000004FF00001E7
:10042000AFF30080BDE81C40704700000FB41CB55E
:10043000074B06AA7B4469460090059800F011FA24
:100440000020694600F020FA1CBC5DF814FB000097
:100450005104000070B5044685690068C10601D5E5
:10046000302600E02026C00707D070BDD4E9012166
:1004700030469047206A401C20626D1EF6D570BD44
:1004800070B5044685690078C00707D170BDD4E90E
:10049000012120209047206A401C20626D1EF6D565
:1004A00070BD00002DE9F041064600241068752952
:1004B000314616A510D0AFF30080002802DA404282
:1004C00013A507E031688A0701D512A502E04907A4
:1004D00004D511A5012401E0AFF3008000210A2218
:1004E00006F1240709E0B0FBF2FCB0FBF2F302FBDB
:1004F0001C00303078541846491C0028F3D123469C
:100500002A463046BDE8F04100F04CB9000000003A
:100510002D0000002B0000002000000070B50446F4
:100520000D4621461068AFF300802188090502D5E9
:100530000F4A7A4402E00E4A7A440E32002104F156
:10054000240305E000F00F060009965D5E54491C87
:100550000028F7D120780023000704D5702D02D0A1
:1005600009B1022311322046BDE8704000F01AB9EB
:10057000F7E700002DE9F05F894604464FF0000AD6
:10058000DFF824B1FB44C0F820A02046E16888478A
:1005900000287DD0252806D0D4E901219047206A83
:1005A000401C2062F1E700255F462046E16888474D
:1005B0002028064607DB312E05D2B81910F8200C8A
:1005C00008B10543F1E7A80701D525F00405C4F8F3
:1005D0001CA00027C4F818A02A2E09D0304603F02A
:1005E000E4F838B304EB8708303EC8F8186019E027
:1005F00059F8041B204604EB87029161E1688847A3
:10060000012F064618D1E069002820DA25F02005E0
:100610001DE0D8F8180000EB800006EB40003038F1
:10062000C8F818002046E1688847064603F0BDF880
:100630000028EED1012F0AD02E2E08D12046E168E5
:1006400088477F1C0646022F45F02005C4DBA069C1
:10065000002803DA404245F00105A061E80701D017
:1006600025F01005A6B1A6F14100192802D82036C0
:1006700045F400654A463146204625604D46FFF761
:10068000C5FD60B1012807D0ED1D25F0070000E091
:1006900007E000F1080978E705F1040975E730463D
:1006A0007AE7206ABDE8F09FCDE700004FF0000236
:1006B00000B5134694469646203922BFA0E80C5058
:1006C000A0E80C50B1F12001BFF4F7AF090728BF33
:1006D000A0E80C5048BF0CC05DF804EB890028BFAF
:1006E00040F8042B08BF704748BF20F8022B11F0D8
:1006F000804F18BF00F8012B704770477047704754
:1007000000487047B4060020704770477047704734
:1007100038B504460A4600206946AFF30080002839
:1007200008BF38BD02460099204600F0B7F8012006
:1007300038BD012000F0CCB8F8B5AFF30080054615
:1007400000200C46102000BF0646A819A0420DD973
:10075000324669460020AFF30080070008BF00F072
:10076000B7F80098A04218BF0546C419FFF7C8FFA4
:1007700005600746F01D20F007004619284600F0E6
:100780000AF8B44208BFF8BDA21B31463868BDE87C
:10079000F84000F083B800210160C0E90110704703
:1007A000102070472DE9F0470D46994692460446C1
:1007B00000F124080168880604D5E06921F01001E1
:1007C000216000E00120A84201DD471B00E0002776
:1007D000A1697A1902EB0900081AA0612078C00605
:1007E00002D42046FFF736FE002608E0D4E90121B6
:1007F0001AF806009047206A401C761C20624E457D
:10080000F4DB2078C0060AD52046FFF723FE06E079
:10081000D4E9012130209047206A401C2062381E14
:10082000A7F10107F4DC07E0D4E9012118F805007D
:100830009047206A401C2062281EA5F10105F3DCC8
:100840002046FFF71DFE2078000602D50220BDE8F5
:10085000F0870120FBE7000001694A1C026108786B
:10086000704700B58FB0CDE90131002105910549F0
:100870007944CDE9031011466846FFF77BFE0FB0BF
:1008800000BD0000E5FFFFFF0A6802F8010B0A60E7
:100890007047000000487047AC06002003464068DF
:1008A0008C46002818BF88423CBF03464068F8D3F6
:1008B00018681844884207D00CF1030020F00700A4
:1008C000001D411A521A0146081D0A60FFF70FBDAC
:1008D00010B500F039F8BDE8104000F02FB87047AF
:1008E0007546FFF7D7FFAE4605006946534620F030
:1008F0000700854618B020B5FFF7B8FCBDE82040DA
:100900004FF000064FF000074FF000084FF0000BCB
:1009100021F00701AC46ACE8C009ACE8C009ACE87E
:10092000C009ACE8C0098D46704710B50446AFF366
:1009300000802046BDE81040FFF783BC002801D0AE
:1009400000F02AB87047000010B5012805D000213A
:1009500003A000F027F8012010BD09A1F8E700006E
:1009600053494752544D454D3A204F7574206F6698
:100970002068656170206D656D6F72790000000000
:100980003A2048656170206D656D6F727920636FE4
:10099000727275707465640001491820ABBEFEE781
:1009A0002600020070B505460C460A2000E06D1CCA
:1009B00000F011F835B128780028F8D102E0641C65
:1009C00000F009F814B120780028F8D1BDE8704093
:1009D0000A20AFF3008008B569468DF800000320B7
:1009E000ABBE08BDFEE770477047000070B5044617
:1009F00000F010F90546601C02D004480078044459
:100A000000F008F9401BA042FAD370BD000000209E
:100A10002DE9F84FDFF8B8A1002201240AF1040BF8
:100A200003254FF00F090BF1040E00BF0B6804FA09
:100A300002F63340B34273D10F7907F00307012F59
:100A400001D0022F16D187684FEA420805FA08FC48
:100A500027EA0C07D1F80CC00CFA08FC4CEA070C8A
:100A6000C0F808C04768B7430E79C6F30016964031
:100A70003E4346600E79F643B6070DD0C768560070
:100A800005FA06FC27EA0C07D1F808C00CFA06FCA8
:100A90004CEA070CC0F80CC00E7906F00306022ED3
:100AA00010D1D60800EB8608D8F8206057074FEA27
:100AB000D76C09FA0CF7BE430F6907FA0CF73743F6
:100AC000C8F8207006684FEA420C05FA0CF7BE43DE
:100AD0000F7907F0030707FA0CF7374307604E68F2
:100AE00016F4403F6DD03B4E376847F4804737607F
:100AF000366822F0030706F480460096364E07EB70
:100B0000060CDCF8086897073F0F09FA07F826EA91
:100B10000806DFF8C880404503D14FF000081EE00A
:100B20004FE0DFF8BC80404502D14FF0010816E0ED
:100B3000DFF8B080404502D14FF002080FE0DFF847
:100B4000A880404502D14FF0030808E0DFF89C8000
:100B5000404502D14FF0040801E04FF0070808FAC1
:100B600007F848EA0608CCF80888DAF80060574623
:100B7000D1F804C09E435FEACC3C00D51E433E60E2
:100B8000DBF800605F46D1F804C09E435FEA8C3C0E
:100B900000D51E433E60DEF800607746D1F804C001
:100BA0009E435FEACC2C00D51E433E60084F0C37B5
:100BB0003E68D1F804C09E435FEA8C2C00D51E43EA
:100BC0003E60521C102AFFF431AFBDE8F88F0000E0
:100BD000003C014044380240003001400000024027
:100BE0000004024000080240000C024000100240D5
:100BF0000069084000D0012070470AB18161704748
:100C00000904FBE702480068C0F30B0070470000CE
:100C1000002004E0014880687047000000000020C8
:100C2000024881680278114481607047000000200A
:100C30000B4810B5016841F400710160016841F48E
:100C400080610160016841F480710160032000F05F
:100C500061F8002000F006F800F024F8002010BD34
:100C6000003C024070B50D4D04464FF47A7128786F
:100C7000B1FBF0F00A490968B1FBF0F001F023F88C
:100C800048B9102C07D200222146501E00F022F84D
:100C900000206C6070BD012070BD000000000020CD
:100CA0000C0000200A4808B5016841F48041016049
:100CB000006800F4804000900548001F016841F082
:100CC00080510160006800F08050009008BD000075
:100CD00044380240F0B40E4B1B680C46C3F30223A9
:100CE000C3F10705042D00D90425191D072901D2D8
:100CF000002300E0DB1E012606FA05F1491E214013
:100D000099409E40761E16403143F0BC02F03DBD36
:100D10000CED00E0064900F0070208684FF6FF03FB
:100D2000184040EA0220034A104308607047000060
:100D30000CED00E00000FA052DE9F84304460068D8
:100D40004FF00109C1074FF0000601D1400729D536
:100D5000DFF82081C8F86860FFF75CFF0746464D62
:100D600005E000BFFFF756FFC01B022859D82868CE
:100D70000001F7D4A068217B800140EA017061681E
:100D800008433D4984310860C8F86890FFF742FF86
:100D9000074604E0FFF73EFFC01B022841D8286841
:100DA0000001F7D52078800752D5334840300168DC
:100DB00041F0805101600068304D00F0805000909B
:100DC000286840F480702860FFF724FF074604E09D
:100DD000FFF720FFC01B022823D82868C005F7D5DD
:100DE000254D7035286810F4407020D0218A01F418
:100DF000407181421BD02868214920F44070C1F81D
:100E000000900E6028602868C00710D0FFF702FF2E
:100E1000064641F2883707E0FFF7FCFE801BB84228
:100E200002D90320BDE8F88328688007F4D521693A
:100E30001148C1F301220830032A12D0016821F4BD
:100E4000F81101602868218AC1F30B01084328606A
:100E50002078000703D50B49207DC1F8E001002070
:100E6000E0E70268084B22F4F81219400A430260D6
:100E7000E8E70000000047420038024000700040F0
:100E8000400E474200104742FFFCFF0F2DE9F0479C
:100E90000E46050065D0DFF81481D8F80000F7B2DF
:100EA00000F00700B04207D288F80070D8F80000C0
:100EB00000F00700B04254D128683D4C810712D59C
:100EC000400703D5206840F4E050206028780007F0
:100ED00003D5206840F4604020602068A96820F0B5
:100EE000F000084320602878C0072DD0304968689A
:100EF0000839012812D0022813D0032811D009681C
:100F0000890700292DDA216821F0030101432160BE
:100F1000FFF780FE814641F2883A0EE009688903B6
:100F2000EFE709688901ECE7FFF774FEA0EB090120
:100F3000514502D90320BDE8F0872068696800F0B8
:100F40000C00B0EB810FEFD1D8F80010404601F053
:100F50000701B14207D90770006800F00700B042EE
:100F600001D00120E7E72878400705D52068E96827
:100F700020F4E050084320602878000706D5206858
:100F8000296920F4604040EAC100206000F018F8B0
:100F90002168084AC1F30311515CC8400649086042
:100FA00006480068FFF75EFE0020C4E7003C0240F0
:100FB00008380240763A00080C00002004000020A7
:100FC000154810B5006810F00C02144813D01449ED
:100FD000042A0FD0082A0ED10F4C241F2268236840
:100FE00002F03F025B0207D52068C0F38810A0FB27
:100FF000010106E0084610BD2168C1F38811A1FB7C
:1010000000010023FFF79AF92168C1F30141491C4F
:101010004900B0FBF1F010BD083802400024F40094
:1010200040787D012DE9F84F04006ED02078DFF87C
:101030004C93C007A9F104054AD009F104000168E6
:10104000C1F38101012908D00068C0F381000228A2
:101050000AD1D9F80000400206D52868800337D5A8
:1010600060680028E1D033E06068B0F5803F10D0C0
:10107000B0F5A02F286810D020F4803028602868B0
:1010800020F4802028606068A8B1FFF7C3FD064601
:101090000DE0286840F48030F4E740F480202860B8
:1010A000F7E700BFFFF7B6FD801B642873D82868F8
:1010B0008003F7D50CE0FFF7ADFD064605E000BF65
:1010C000FFF7A8FD801B6428F0D828688003F7D4B8
:1010D0002078DFF8AC8280074FF0000A3ED5A748A1
:1010E000001D016811F00C0F08D00068C0F38100EA
:1010F00002280BD1D9F80000400207D428688007E5
:1011000016D5E068012800D112E033E1E068B8B1FB
:101110000120C8F80000FFF77DFD064605E000BF8E
:10112000FFF778FD801B0228C0D828688007F7D514
:101130002868216920F0F80040EAC10028600DE02D
:10114000C8F800A0FFF766FD064604E0FFF762FD61
:10115000801B02281FD828688007F7D42078000752
:1011600022D5864F87486169703771B101210160CE
:10117000FFF750FD064604E0FFF74CFD801B0228F8
:1011800009D838688007F7D50EE0C0F800A0FFF74F
:1011900041FD064605E082E0FFF73CFD801B02288A
:1011A0007DD838688007F7D42078400768D5DFF805
:1011B000CCB100270BF13C0BDBF80000C0000BD4D6
:1011C000DBF8001041F08051CBF80010DBF8000094
:1011D000012700F0805000906B4E3068C00510D49D
:1011E000306840F480703060FFF714FD009005E037
:1011F000FFF710FD0099401A022850D83068C0054A
:10120000F6D55E4EA0686C3601280FD005283068F0
:1012100010D020F001003060306820F00400306011
:10122000A068B8B1FFF7F6FC00900FE0306840F01E
:101230000100F4E740F004003060F7E7FFF7EAFC54
:101240000099411A41F28830814266D8306880079F
:10125000F4D50EE0FFF7DEFC009007E0FFF7DAFCC4
:101260000099411A41F28830814256D8306880078F
:10127000F4D42FB1DBF8001021F08051CBF800102E
:10128000A069C8B33D49091D0968C1F3810102295C
:101290004AD00228504607D0C8F8600000E03CE081
:1012A000FFF7B8FC04463BE04746C8F86000FFF78C
:1012B000B1FC064605E000BFFFF7ACFC801B02282E
:1012C0002BD828688001F7D4D4E907010843A16A24
:1012D0002E4A490802EB0141626A41EA8211084341
:1012E00094F82C1040EA0161C9F80010012038661A
:1012F000FFF790FC044606E03EE000BFFFF78AFCE3
:10130000001B022809D828688001F7D534E000BF07
:10131000FFF780FC001B022802D90320BDE8F88FEC
:1013200028688001F4D427E00128F7D0D9F800001C
:10133000E26900F4800191421CD1226A00F03F0171
:10134000914217D147F6C071626A0140B1EB821F2A
:1013500010D1A26A4FF0FF3300F4403103EB520288
:10136000B1EB024F06D194F82C1000F07060B0EB96
:10137000016F01D00120D1E70020CFE704380240FF
:1013800000004742800E4742007000400000FFFF0F
:1013900010B500680B4641680D480140080CD87034
:1013A000C1F304245C7001F03F049C70C1F342312E
:1013B000197052B901F057F9D870587801F053F903
:1013C0005870987801F04FF99870002010BD000017
:1013D0003FFFFF0010B50B460168896A596001683C
:1013E0000969C1F30E019960006801680E48014067
:1013F000C1F305401870C1F306245C7001F07F044E
:101400009C70402404EA1141D97052B901F02BF9C3
:101410001870587801F027F95870987801F023F97E
:101420009870002010BD00007F7F7F0070B5040021
:1014300002D0607F10B106E0012070BD002020774F
:10144000204600F049F8022060772168CA204862EF
:10145000216853204862204601F01AF9FF2504262E
:1014600018BB206881681B4A114081602168886828
:1014700062681043D4E904231A431043886021684A
:10148000E068086120680169228941EA024101613E
:101490002068C16821F08001C160206880688006F2
:1014A00007D4204600F010F918B12068456266772D
:1014B000C2E72068016C21F4802101642068016C7E
:1014C000A269114301642068456201206077002011
:1014D00070BD0000BFFF8FFF10B586B00446182115
:1014E0006846FFF7E3F80949206888420CD10220DA
:1014F0000090000204906846FFF71EFC08B1FFF759
:1015000073FA03490120086006B010BD00280040AE
:101510003C0E47422DE9F0470446007F0B46012868
:101520001FD04FF0010984F81C9002206077DAB1D7
:101530009878D97840EA014558781978000240EA4D
:10154000413005432168CA2048622168532048621F
:10155000204601F09DF80026FF274FF0040860BBED
:101560001AE00220BDE8F0875878C10603D500F0E4
:10157000EF000A305870D87801F07EF802045878ED
:1015800001F07AF842EA0022987801F075F80243F7
:10159000187842EA4035D5E70F4805402068456095
:1015A0002068C16821F08001C160206880688006E1
:1015B0000AD4204600F088F830B12068476284F8E9
:1015C0001D8026770120CDE72068476284F81D90B2
:1015D00026770020C6E700003FFFFF002DE9F04717
:1015E0000446007F0D46012827D04FF0010A84F8F9
:1015F0001CA0022060772068002680684FEA4060C7
:10160000F2B1002800DBEE70A878297840EA0147A3
:101610006878E978000240EA014007432168CA205F
:101620004862216853204862204601F031F84FF0AB
:10163000FF084FF00409A0BB16E00220BDE8F087C8
:10164000002800DBEE70287801F016F802046878B4
:1016500001F012F842EA0022A87801F00DF80243E6
:10166000E87842EA0047D9E7164807402068076053
:101670002068816821F480218160D5E90301084355
:1016800021688A68104388602068C16821F0800161
:10169000C1602068806880060BD4204600F014F8F2
:1016A00038B12168C1F8248084F81D902677012084
:1016B000C4E72168C1F8248084F81DA026770020A3
:1016C000BCE700007F7F7F0070B504460068C168FA
:1016D00021F0A001C160FFF79DFA05464FF47A762C
:1016E00007E000BFFFF796FA401BB04201D9032084
:1016F00070BD2068C0688006F4D5002070BD70B54C
:10170000040009D0606A002540B125616561A562C9
:1017100094F8510040B10CE0012070BD6068B0F554
:10172000827FF4D0E561F2E784F85050204600F063
:1017300045F8022084F851002068016821F040013A
:101740000160A088218900F4827001F404410843FB
:10175000A18901F400610843217C01F002010843E2
:10176000217D01F001010843218B01F40071084340
:10177000217F01F03801084394F8201001F0800126
:101780000843218D01F40051084321680860A069D5
:10179000042101EA104094F8241001F010010843DC
:1017A000216848602068C16921F40061C1616565F4
:1017B000012084F85100002070BD000010B586B0F3
:1017C000044614216846FEF771FF134920688842D9
:1017D00020D112480021026842F480420260006871
:1017E00000F4804005900D481038026842F0020273
:1017F0000260006800F0020005904FF42040009065
:101800000220CDE9010103900520049069460448B7
:10181000FFF7FEF806B010BD003800404038024027
:10182000000402402DE9F84F044640680025984620
:1018300016460F464FF0040BB0F5827F01D1A06829
:1018400088B194F85000012818D0012084F8500085
:10185000FFF7E0F9814694F851004FF0000A0128A3
:101860000ED0022582E084F851B013460A46204685
:10187000CDF8008000F036F9BDE8F88F0220FBE7D4
:10188000002F72D0002E70D084F851B0C4F854A04C
:10189000A763A687E687C4F830A0A4F834A0A4F80C
:1018A00036A0C4F840A0C4F844A0A068B0F5004F2A
:1018B00009D12068016821F04001016020680168B9
:1018C00021F48041016020680168490603D4016861
:1018D00041F040010160E068D8B139E020688168DA
:1018E000C90709D0007BA16B0870A06B401CA063E6
:1018F000E08F401EE0870CE0FFF78CF9A0EB0901B8
:10190000414503D3B8F1FF3F03D036E0B8F1000FF3
:1019100033D0E08F0028E1D11DE020688168C9073D
:1019200009D0C068A16B0880A06B801CA063E08F09
:10193000401EE0870CE0FFF76DF9A0EB090141457F
:1019400003D3B8F1FF3F03D017E0B8F1000F14D074
:10195000E08F0028E1D14A464146204600F0B5FE1E
:1019600008B120206065606D00B10125012084F878
:10197000510084F850A028467EE70325F6E72DE9BC
:10198000F84F044690F8500000271D461646894639
:1019900001280DD04FF0010B84F850B0FFF73AF951
:1019A000804694F85100BA46012804D0022793E0FB
:1019B0000220BDE8F88FB9F1000F73D0002E71D06E
:1019C000032084F85100C4F854A0C4F83090A686CF
:1019D000E686C4F838A0A4F83CA0A4F83EA0C4F859
:1019E00044A0C4F840A0A068B0F5004F09D1206819
:1019F000016821F0400101602068016841F48041E4
:101A0000016020680168490603D4016841F0400183
:101A10000160E068B0F5006F606803D030B3012E5C
:101A200024D041E008B1012E1CD1206B2168008830
:101A3000C86006E020688168890709D5216B09889C
:101A4000C160206B801C2063E08E401EE08609E0B0
:101A5000FFF7E0F8A0EB0800A84202D3681C01D011
:101A600031E07DB3E08E0028E4D120E0206B2168D6
:101A70000078087306E020688168890709D5216B22
:101A800009780173206B401C2063E08E401EE086C5
:101A90000AE0FFF7BFF8A0EB0800A84203D3681CD8
:101AA00002D010E017E06DB1E08E0028E3D142468D
:101AB0002946204600F038FE08B120206065A06865
:101AC00018B106E0FFE7032706E02068C1688068D8
:101AD0000090606D00B1012784F851B084F850A0E7
:101AE000384666E72DE9F84F044690F85000002785
:101AF0000A9E1D4692468B464FF0010901280ED0E2
:101B0000012084F85000FFF785F8804694F85100D2
:101B1000616801280CD0B1F5827F07D102E0022074
:101B2000BDE8F88FA16809B9042801D00227C2E0F6
:101B3000BBF1000F27D0BAF1000F24D01DB394F8E9
:101B40005100042802D0052084F85100002060656F
:101B5000C4F838A0E587A587C4F830B0E586A58627
:101B60002064606420680168490603D4016841F07C
:101B700040010160E068B0F5006F606805D0E8B32F
:101B8000012D46D07FE0012795E008B1012D39D124
:101B9000206B21680088C860206B801C2063E08E69
:101BA000401EE0862EE02068816889070FD5E18E0F
:101BB00069B1B9F1010F0AD1216B0988C160206BAD
:101BC000801C2063E08E401EE0864FF000092068F4
:101BD0008168C9070CD0E18F51B1C068A16B088042
:101BE000A06B801CA063E08F401EE0874FF00109CE
:101BF000FFF710F8A0EB0800B04200E009E001D3C5
:101C0000701C50D1E08E0028CDD1E08F0028CAD1C1
:101C10003FE0206B216800780873206B401C206334
:101C2000E08E401EE0862EE02068816889070FD58F
:101C3000E18E69B1B9F1010F0AD1216B0978017305
:101C4000206B401C2063E08E401EE0864FF00009B0
:101C500020688168C9070CD0E18F51B1C068A16BC1
:101C60000870A06B401CA063E08F401EE0874FF01F
:101C70000109FEF7CFFFA0EB0800B04202D3701CB1
:101C800001D010E07EB1E08E0028CDD1E08F002899
:101C9000CAD142463146204600F046FD28B1012710
:101CA0002020606507E0032705E0A06818B92068D8
:101CB000C16880680090012084F85100002084F8F9
:101CC000500038462CE710B5401EB0F1807F01D39C
:101CD000012010BD4FF0E02460610F21601701F07A
:101CE00054FD0020A06107202061002010BD0000ED
:101CF00070B590F83C20012A2CD0012480F83C409B
:101D0000022280F83D2003685A689D6822F0700620
:101D10000A6832435A60104B02689A420ED0B2F100
:101D2000804F0BD00D4B9A4208D00D4B9A4205D0F4
:101D30000C4B9A4202D00C4B9A4204D1496825F0D0
:101D400080031943916080F83D40002180F83C10E9
:101D5000084670BD022070BD000001400004004034
:101D600000080040000C00400040014010B586B063
:101D7000044614216846FEF799FC2068B0F1804FB4
:101D800016D10C480021026842F00102026000688E
:101D900000F0010005904FF4004000900220CDE9D2
:101DA00001010120CDE9031069460348FEF730FE2A
:101DB00006B010BD303802400000024070B5044645
:101DC00090F83C0000260D4601280FD0012084F831
:101DD0003C006AB1042A1DD0082A2FD00C2A3FD01B
:101DE0000126002084F83C00304670BD022070BD02
:101DF000206801F027FC2068816941F008018161B9
:101E00002068816921F004018161206881692A6963
:101E1000114311E0206801F03DFC2068816941F424
:101E2000006181612068816921F48061816120689D
:101E300081692A6941EA02218161D2E7206801F0C3
:101E400055FC2068C16941F00801C1612068C16981
:101E500021F00401C1612068C1692A69114311E0C0
:101E6000206801F06FFC2068C16941F40061C16124
:101E70002068C16921F48061C1612068C1692A6953
:101E800041EA0221C161ACE710B5040003D094F827
:101E90003D0010B107E0012010BD002084F83C0097
:101EA000204600F01FF8022084F83D00211D206824
:101EB00001F06EFB012084F8460084F83E0084F8AF
:101EC0003F0084F8400084F8410084F8420084F820
:101ED000430084F8440084F8450084F83D00002065
:101EE00010BD000008B50068B0F1804F08D105486A
:101EF000016841F001010160006800F001000090FC
:101F000008BD00004038024010B50446022249B125
:101F100004290ED0082913D094F84100012816D0C6
:101F2000012010BD94F83E000128F9D184F83E202C
:101F30000FE094F83F000128F2D184F83F2008E038
:101F400094F840000128EBD184F8402001E084F8A7
:101F500041200122206801F067FB12492068884275
:101F600003D1426C42F400424264206888420ED0A1
:101F7000B0F1804F0BD00C49884208D00B49884201
:101F800005D00B49884202D00A49884204D18168B1
:101F900001F00701062903D0016841F00101016049
:101FA000002010BD00000140000400400008004077
:101FB000000C004000400140FEE7000001480068BE
:101FC000406B70471C0100202DE9F0410D462DEDBE
:101FD000028B0146FFF7F2FF0446884231D0002D04
:101FE0002FD000EE104A00EE901A01EE105AB8EE13
:101FF000400AF8EE600AB8EE411A70EE600A9FEDF2
:10200000130A30EE410A80EE808AFEF703FE104F7D
:1020100006460120FEF7EAFCFEF7FCFD801B00EE01
:10202000100A3A68F8EE400A00EE104AB8EE400A8C
:1020300000EE880ABCEEC00A10EE101A5163A842E6
:10204000E7D3BDEC028BBDE8F0810000000000008A
:102050001C0100202DE9FF4F85B01D460598049016
:102060006548DDF848B0904606880C4689460C2B3A
:1020700018D0082715FB07F04000FEF709F9824643
:1020800003A95E4800F0E0FD02A95C4800F0E4FD11
:10209000A8F12000C0B207900020BBF1000F01465C
:1020A00002D098E00627E5E7DFF84CE14AE00C2D86
:1020B0000ED0534A079B02EB03120023525C21F01F
:1020C000010B009313060AD573BAAEF800300CE08A
:1020D000079A02EB42034B4A02EB8302EDE7BEF89C
:1020E00002C09CFA9CFCAEF800C007FB00FC0AEBA7
:1020F0004C08401CBEF8003080B228F80B30A842D3
:1021000000D300205206641C029B120EA4B29C4213
:1021100003D300BFAEF8006047E0A4EB0903AB4275
:1021200008D1059A039B521C92B24C4605929A42E2
:10213000F0D205E0009B5B1CDBB20093082BC1D3FF
:10214000491CC9B2A942B2D347E00C2D33D02C4A66
:10215000079B02EB03124FF0000B525C21F0010EC3
:10216000130608D5244B07FB00FC0AEB4C081B8820
:102170005BBA28F80E30401C80B2A84200D3002081
:102180005206641C029B120EA4B29C420BD2A4EB1A
:102190000903AB4216D1059A039B521C92B24C46DE
:1021A00005929A4215D3144806805046FEF79FF8D0
:1021B00009B0BDE8F08F079A02EB4203114A02EB27
:1021C0008302C8E70BF1010303F0FF0BBBF1080F1B
:1021D000C6D3491CC9B2A942B7D30C2D09D00820D7
:1021E000CDE9000553464A460448049900F092FCA4
:1021F000D9E70620F4E70000100000206401002069
:10220000FA3E0008863A00082DE9F84F044600F02F
:10221000FF0910190D46DDE90AB61FFA80F85819B2
:1022200087B24FF0000A12E0444503D305EB0B00E0
:102230004C4685B2BD420FD25B4629462046CDF8BA
:1022400000A0FFF707FF04EB5B0084B2761C327836
:10225000A2F120005E28E7D9BDE8F88F2DE9F04F04
:102260006A4C4FF0000887B00120C4F80880207342
:102270000220607345466649664800F08FFF664E4F
:10228000224605213368634898476149B268091FAF
:1022900060489047DFF884A1DAF800004563002227
:1022A000B56A5F4B11465B48A847FEF7B3FC05468D
:1022B0000DF1080BDFF86C9151E00A20FEF796FB58
:1022C000FEF7A8FC401BB0F57A7F0CD8FEF7A2FC05
:1022D000401B642148434FF47A71B0FBF1F0DAF807
:1022E000001048633BE0FEF795FC411B40F6B83018
:1022F00081422DD8FEF78EFC401B0A21A0F57A7092
:10230000B0FBF1F248A102A8FEF790F81021CDE948
:10231000001B20880B4682B21E3880B20121FFF7D5
:1023200073FFFEF777FC401B2168A0F57A704843E5
:102330004FF4FA61B0FBF1F34FF6FF710320CDE9E2
:10234000000162680021B76B3248D21EB84706E030
:10235000FEF760FC411B40F6B83081420AD80121EB
:102360004F464846FEF744FC0028A6D102E00A206A
:10237000FEF73CFB01213846FEF73AFC0028F6D078
:102380004FF496710020FFF71FFE6168CDE9001839
:102390000022B56B236811461E48A84724A102A855
:1023A000FEF744F81026CDE9006B2088042182B2A4
:1023B0005D4633460846FFF727FFFEF723FC02463B
:1023C0001FA102A8FEF732F8CDE90065208810238E
:1023D00082B216210420FFF717FF0D481CA1083810
:1023E000426802A8FEF722F8CDE900652088102394
:1023F00082B228210420FFF707FF4FF416714FF433
:10240000FA70FFF7E1FD07B0BDE8F08F9C060020F1
:102410001800002064010020380000201C0100206A
:10242000EA44000800000240253033640000000048
:1024300057654163742053747564696F0000000030
:1024400053544D3332463478782030782558000084
:102450004C43442049443A3078255800F0B587B0C1
:1024600014216846FEF722F929480024016841F04A
:1024700004010160016801F004010591016841F067
:1024800080010160016801F080010591016841F05F
:1024900001010160016801F001010591016841F04D
:1024A0000201016000681B4E00F002004FF400556D
:1024B0000590002229463046FEF79FFB164F00226A
:1024C00069113846FEF799FB01224FF4C061384686
:1024D000FEF793FB00950125CDE90154694630468E
:1024E0000394FEF795FACDE9005469463846029503
:1024F000FEF78EFA4FF4E060CDE900050320CDE948
:10250000024069463846FEF783FA07B0F0BD000086
:1025100030380240000802400000024010B586B08A
:1025200014216846FEF7C2F81D4800241B49059493
:10253000C0E900147F218160FF21C0E903144461D8
:102540008461FEF773FF08B1FEF74EFA12208DF892
:1025500000008DF801408DF8024003940122694685
:102560000F480494FFF73AF808B1FEF73DFA01204E
:102570008DF8140009218DF815108DF81600202013
:102580008DF81700012205A90548FEF7C3FF0028B2
:1025900001D0FEF729FA06B010BD00000028004067
:1025A000A4000020114810B50F4901604FF482715A
:1025B00041604FF4004181600021C1604FF400721E
:1025C0000161C0E905120822C0E907214162816268
:1025D0000A21C162FFF793F8002803D0BDE810403C
:1025E000FEF702BA10BD000000380040C400002011
:1025F00010B58AB0002407941C2168460894FEF7A1
:1026000055F816484FF0804101600921C0E90114D6
:1026100040F2E731C0E903148461FFF735FC08B1EB
:10262000FEF7E2F9079407A90C480894FFF760FB4E
:1026300008B1FEF7D9F96020CDE90004022002902C
:102640000022694604940548FFF7B8FB08B1FEF77D
:10265000CBF90248FFF78AFB0AB010BD1C0100202D
:10266000FEE770477047010901EB810100F00F00A0
:1026700000EB4100C0B27047002102E00A38C0B24E
:10268000491C0A28FAD2090740EA11607047000085
:1026900070B504460068C168490614D44FF0FF3194
:1026A000C160FEF7B7FA05464FF47A7607E000BF3F
:1026B000FEF7B0FA401BB04201D9032070BD20687C
:1026C000C0684006F4D5002070BDF8B504464068E7
:1026D0004FF48273984221D1A0684FF48065B0F521
:1026E000004F01D0A8420AD12068066826F04006B3
:1026F00006606068984211D1A068A8420ED000928E
:102700000B4600228021204600F03AF8002804D031
:10271000606D40F0200060650320F8BD00920B461C
:1027200000220121EFE7000038B504461248134BA0
:102730000068B0FBF3F04FF47A7358430090606880
:10274000B0F5827F0DD10B460092002280212046F9
:1027500000F016F870B1606D40F020006065032055
:1027600038BD009830B1401E009020688068C0439A
:102770000006F6D5002038BD0C00002000366E01A2
:102780002DE9F8431E46914688460446089DFEF70B
:1027900041FA401B351AFEF73DFA07462548006806
:1027A000C0F3CB30684338E0701C37D0FEF732FA04
:1027B000C01BA84203D215B1009860B32CE020687A
:1027C000416821F0E00141606068B0F5827F0BD183
:1027D000A068B0F5004F02D0B0F5806F04D120683A
:1027E000016821F040010160A06AB0F5005F09D1E5
:1027F0002068016821F4005101602068016841F4FB
:1028000000510160012084F85100002084F850003C
:102810000320BDE8F8830025401E009020688168F1
:1028200038EA010004D000214945BDD10020F0E77D
:102830000121F9E70C00002000207047F8B504469C
:1028400000208DF80000034604F120006A461321A1
:10285000054601F004F906460A21204600F004FA74
:1028600000236A462821284601F0F9F806440A2187
:10287000204600F0F9F900236A463621284601F087
:10288000EEF884190A480B49027B806801EBC0000E
:1028900000790AB940F008008DF80000012269466D
:1028A000284601F0D5F8001901D04FF0FF30F8BDEF
:1028B0009C06002084000020F8B5044600208DF816
:1028C0000000034604F120006A461321054601F08A
:1028D000C6F806460A21204600F0C6F900236A46DB
:1028E0002921284601F0BBF806440A21204600F0C1
:1028F000BBF900236A463621284601F0B0F8841956
:102900000A480B49027B806801EBC00000790AB9D4
:1029100040F008008DF8000001226946284601F0C9
:1029200097F8001901D04FF0FF30F8BD9C06002049
:10293000840000202DE9FF4F987AD97A5D7B00EB67
:102940000120197B5F7D090401EB05610144987C3E
:10295000DD7C93F819C000EB05201D7D93F8058000
:102960002D0405EB07650544987DDF7D83B000EB02
:1029700007201F7E00243F0407EB0C6738449F7834
:1029800093F803C0264607EB0C2793F804C04FEAE0
:102990000C4C0CEB086C6744A7EB010ADFF8C8800D
:1029A0005F182B46D8F804100090891A091A8B4634
:1029B0000A46DDE9030100F08BFC651EF0BB98F8C8
:1029C0000C00DFF8A890D8F80810002819F831009A
:1029D00001D140F008008DF8040003980123203055
:1029E00001AA3621009001F03AF838BBDDE9030175
:1029F0005A4600F007FC08BB78788DF80800387854
:102A00008DF80900022202A9009801F021F808B10E
:102A10002C4603E0B61CBF1C5645EDD398F80C00BD
:102A2000D8F80810002809EBC1004646007901D10A
:102A300040F008008DF80400012300E00EE001AA38
:102A40003621009801F00BF840B970680090002220
:102A500011463368039800F03BFC00B12C4607B0E8
:102A60002046BDE8F08F00009C0600208400002076
:102A70002DE9F0411D46134B804600241B68481980
:102A8000069F661E984218D8404600F0BBFBA0B9CE
:102A90000020C7F307220C49FBB205E001F8102023
:102AA00001EB4007401C7B70A842F7D36A0006493F
:102AB00008F1200000F0CCFF00B134462046BDE80C
:102AC000F08100009C0600201C0400202DE9F05F2E
:102AD0008A460F491E468346496800259019DDF84D
:102AE000289017464FF0FF38884208D8002409E0A4
:102AF0003A194B465146584600F0C6FC08B14546C7
:102B000002E0641CB442F3D32846BDE8F09F000005
:102B10009C0600202DE9FF5F1E48DDE90E67914607
:102B20008B46026831444FF000081C464FF0FF3AD4
:102B3000914204D8406809EB0701814201D9D0468F
:102B400023E000251FE000BF09EB0502594600986D
:102B500000F058FBA8B900200F4909E014F8012B38
:102B600001F8102001EB400314F8012B5A70401CAF
:102B7000B042F3D3009872000749203000F068FF9C
:102B800000B1D0466D1CBD42DED304B04046BDE866
:102B9000F09F00009C0600209C0100202DE9F84FCA
:102BA0000026DDE90A7899468A468346144635466A
:102BB0000DE04B46224651465846CDF80080FFF7BF
:102BC00057FF10B14FF0FF3603E0641C6D1CBD428F
:102BD000EFD33046BDE8F88F4FF0FF30704700006C
:102BE0000248806808600020704700009C060020B2
:102BF000FEB51C46054600F005FB064605F1200023
:102C000002AA2E21054600F015FF0644012202A962
:102C1000284600F016FF064401226946284600F0C7
:102C200010FF0644012201A9284600F00AFF9DF882
:102C300000109DF80420801901EB0221216001D0D1
:102C40004FF0FF30FEBD0000024800680860002021
:102C5000704700009C060020024840680860002081
:102C6000704700009C06002070B50546C0690E46FE
:102C700080470446E8698047001BB042FAD3002031
:102C800070BD2DE9F74F82B05FEA00087DD04FF0AC
:102C9000000B08F120005C468DF800B05B466A46E8
:102CA0000121019000F0DBFE78214046FFF7DCFFB8
:102CB0008DF8004000236A460121019800F0CFFE04
:102CC000054678214046FFF7CFFF8DF800400123ED
:102CD0006A461121019800F0C2FE054400236A46AD
:102CE000B121019800F0BBFE461901258DF8005076
:102CF0002A466946019800F0ABFE87192C268DF80C
:102D0000006001226946019800F0A2FE00EB07096D
:102D10004FF02D0A57468DF800A001226946019810
:102D200000F096FE81448DF8005001236A46B221DE
:102D3000019800F094FE81448DF8006001226946FC
:102D4000019800F085FE81448DF8007001226946EB
:102D5000019800F07DFE81448DF8005001236A4601
:102D6000B321019800F07BFE81448DF800600122C0
:102D70006946019800F06CFE81448DF800700122D4
:102D80006946019800F064FE00E0CCE181448DF8D2
:102D9000005001226946019800F05AFE00EB090537
:102DA0008DF8006001226946019800F051FE05444B
:102DB0008DF8007001226946019800F049FE46191D
:102DC00007258DF8005001236A46B421019800F0D0
:102DD00046FE0644A2208DF8000001236A46C02169
:102DE000019800F03CFE871902268DF80060012250
:102DF0006946019800F02CFE074484208DF80000FD
:102E000001226946019800F023FE0744C5208DF891
:102E1000000001236A46C121019800F020FE07440A
:102E20000A208DF8000001236A46C221019800F0B3
:102E300016FE07448DF8004001226946019800F013
:102E400007FEC4198A278DF8007001236A46C32142
:102E5000019800F004FE04442A208DF800000122AD
:102E60006946019800F0F4FD04448DF800700123D8
:102E70006A46C421019800F0F2FD0444EE208DF86A
:102E8000000001226946019800F0E2FD04440E2092
:102E90008DF8000001236A46C521019800F0DFFD8E
:102EA000044404984FF000036A46007B00287ED05B
:102EB0002021019800F0D3FD0444012303AA3A2104
:102EC000019800F0CCFD0444B1468DF80060012368
:102ED0006A46E021019800F0C2FD04441C208DF8F0
:102EE000000001226946019800F0B2FD04448DF80B
:102EF000005001226946019800F0AAFD0444122006
:102F00008DF8000001226946019800F0A1FD0444FB
:102F100037208DF8000001226946019800F098FDE5
:102F2000044432208DF8000001226946019800F027
:102F30008FFD044429268DF800600122694601981E
:102F400000F086FD04448DF800A001226946019836
:102F500000F07EFD04448DF800600122694601986E
:102F600000F076FD044425208DF80000012269461A
:102F7000019800F06DFD04442B208DF80000012223
:102F80006946019800F064FD044439208DF8000082
:102F900001226946019800F05BFD07195C468DF837
:102FA00000B001226946019800F052FD00E0BFE048
:102FB000074401208DF8000002466946019800F0A0
:102FC00047FD07444FF0030B8DF800B0012269461E
:102FD000019800F03DFD074410208DF8000001220B
:102FE0006946019800F034FD07448DF800B00123D4
:102FF0006A46E121019800F032FD07441D208DF85A
:10300000000001226946019800F022FD07448DF876
:10301000005001226946019800F01AFDC5190620EA
:103020008DF8000001226946019800F011FD471952
:103030002E258DF8005001226946019800F008FD08
:1030400007442C208DF8000001226946019800F009
:10305000FFFC07448DF8006001226946019800F0EA
:10306000F7FCC6198DF800A001226946019800F00E
:10307000EFFC06448DF8005001226946019800F0EB
:10308000E7FC06448DF8005001226946019800F0E3
:10309000DFFC851937208DF8000001226946019870
:1030A00000F0D6FC05443F208DF80000012269465F
:1030B000019800F0CDFC05448DF8004001226946DE
:1030C000019800F0C5FC05448DF8004001226946D6
:1030D000019800F0BDFC05448DF80090012269467E
:1030E000019800F0B5FC054410208DF80000012285
:1030F0006946019800F0ACFC05448DF800400123BE
:103100006A461321019800F0AAFC441901236A467B
:103110002921019800F0A3FC04444046049900F0E2
:1031200063F9001901D04FF0FF3005B0BDE8F08F12
:103130002121BEE6F8B50E4620306A46DA21074660
:1031400000F078FC4FF0FF3408B12046F8BD6D4622
:10315000DB2138466A1C00F06DFC0028F5D1AA1C62
:10316000DC21384600F066FC0028EED1BDF80100F5
:103170009DF8001040BA61F31F4030600020F8BD98
:1031800030B40C460369204630BC1146184730B4B1
:103190000C468369204630BC1146184710B54FF0E5
:1031A000FF32D8B10B6803604C6844600C8904811D
:1031B000CC68C4600C6904614C6944618C698461A9
:1031C000C969C161064941620649016206498162D5
:1031D0000649C0E90B100BB198470246104610BDD6
:1031E00081310008D1340008F13100088F31000826
:1031F00030B40C464369204630BC114618474FF0A6
:10320000FF307047F8B50D46304914468B680A7B8D
:10321000497B012B0FD8012902D0022906D018E0E2
:103220000AB1183515E0641C1A3512E0012A10D1D4
:10323000641CAD1C0DE0012902D0022905D008E074
:103240000AB1183405E01A3402E0012A01D1A41CA5
:103250006D1C203000236A462A21064600F0FFFB41
:103260000746280A8DF8000001226946304600F022
:10327000EFFB07448DF8005001226946304600F00C
:10328000E7FBC51900236A462B21304600F0E7FB17
:103290000544200A8DF8000001226946304600F0FE
:1032A000D7FB05448DF8004001226946304600F006
:1032B000CFFB441900236A462C21304600F0CFFB97
:1032C000001901D04FF0FF30F8BD00009C0600202F
:1032D0002DE9F8430C4643491E4615468B680A7B88
:1032E000DDF82090497B012B0ED8012902D002295C
:1032F00005D019E00AB1183416E01A3402E0012AA8
:1033000012D1A41C6D1C0FE0012902D0022907D0A4
:103310000AE004F101040AB1183505E01A3503E0AA
:10332000012A01D1641CAD1C203000236A462A21E9
:10333000804600F094FB0746200A8DF80000012229
:103340006946404600F084FB07448DF800400122A6
:103350006946404600F07CFB34440744641E200A62
:103360008DF8000001226946404600F071FBC61945
:103370008DF8004001226946404600F069FB84193F
:1033800000236A462B21404600F069FB0444280ACA
:103390008DF8000001226946404600F059FB0444C4
:1033A0008DF8005001226946404600F051FB061995
:1033B00005EB0904641E200A8DF80000012269460D
:1033C000404600F045FB85198DF800400122694612
:1033D000404600F03DFB401901D04FF0FF30BDE802
:1033E000F88300009C0600202DE9FC41054650238F
:1033F000A0204A7B224C8F6880263FB1012F05D048
:10340000012A0FD08AB1022A0FD010E0012A03D07E
:103410002AB1022A03D00AE0C4E9003007E0C4E977
:10342000006004E0C4E9000301E0C4E90006886824
:10343000A060087B2073487B607360680090002266
:10344000114628462368FFF743FF217B06460029E3
:103450000C48A16800EBC100007901D140F00800E0
:103460008DF80400012301AA362105F1200000F0A7
:10347000F6FA801901D04FF0FF30BDE8FC81000062
:103480009C06002084000020F8B506464FF6FF7029
:1034900000EA032040EA1320ADF800000B480024A6
:1034A000651E03688B420DD9406890420AD93046A8
:1034B000FFF7A8FE30B90222694606F1200000F0AD
:1034C000C7FA00B12C462046F8BD00009C0600203B
:1034D000F0B414460D46C66821462846B446F0BCF2
:1034E0001A4660477047FDF79BBB000030B593B0AC
:1034F00030216846FDF7DAF814210CA8FDF7D6F85C
:103500001A480025016841F080510160006800F010
:10351000805011901648016841F4404101600068F4
:10352000022400F440401190092000904FF48030B4
:1035300001900120CDE90504800507900C2008903A
:103540006020CDE9090404200B906846FDF76AFD70
:103550000CA90F2081E83100E002CDE90F0503211D
:103560000CA8FDF793FC13B030BD000040380240BA
:10357000007000400548016841F470010160034992
:103580004FF00060803908607047000088ED00E06F
:10359000F0B502681D4B1E4C9F031E4D1E4E9842F7
:1035A00007D0B84205D0A04203D0A84201D0B04213
:1035B00004D122F0700C4A6842EA0C02984210D002
:1035C000B8420ED0A0420CD0A8420AD0B04208D0D7
:1035D000124CA04205D0124CA04202D0114CA04285
:1035E00003D122F44074CA6822434C6922F080025D
:1035F000224302608A68C2620A688262984201D1EC
:103600000969016301214161F0BD00000000014032
:103610000004004000080040000C00400040014051
:10362000004401400048014010B501F01F03012192
:10363000046A99408C430462016A9A401143016212
:1036400010BD000030B5026A22F001020262026A77
:103650004368846924F073050C682C4322F002054A
:103660008A682A430A4DA8420BD122F00805CA688D
:1036700023F440732A434D6922F004021D438B69F1
:103680002B434360846149684163026230BD00009E
:103690000000014030B5026A22F010020262026AA4
:1036A000436884690D6824F4E64444EA05248D687F
:1036B00022F0200242EA05120B4DA8420ED1CD683D
:1036C00022F0800242EA05124D6923F4406343EA86
:1036D00085038D6922F0400243EA850343608461DB
:1036E00049688163026230BD0000014030B5026A62
:1036F00022F480720262036A4268C46923F4007390
:1037000024F073050C682C438D6843EA05230C4DA7
:10371000A8420ED1CD6823F4006343EA05234D6926
:1037200022F4405242EA05128D6923F4806342EA92
:1037300005124260C4614968C163036230BD000084
:103740000000014030B5026A22F480520262046A2D
:103750004268C3690D6823F4E64343EA05238D6894
:1037600024F4005444EA0534064DA84204D14D69BE
:1037700022F4804242EA85124260C36149680164D2
:10378000046230BD00000140FEE70907090E002871
:1037900004DB00F1E02080F80014704700F00F0017
:1037A00000F1E02080F8141D704730380A2801D25B
:1037B0000120704700207047FDF72CBA70B50B4E02
:1037C00000244FF48075224629463046FDF715FA4D
:1037D0000520FDF70BF9012229463046FDF70DFAC9
:1037E00000210348FEF790FB204670BD0000024018
:1037F0001C0100202DE9F341164E88464FF48065E8
:10380000002229463046FDF7F8F96C1000222146C7
:103810003046FDF7F2F96423012269460E48FEF7AF
:10382000AEF80746012221463046FDF7E6F94FF48F
:10383000FA73012241460848FDF7F4FFC41901223A
:1038400029463046FDF7D9F9604294FBF0F0BDE817
:10385000FC81000000000240C40000202DE9F0417E
:103860000D4E0C4607464FF480650022294630462F
:10387000FDF7C3F9A2B24FF4FA7339460748FDF7D2
:10388000D1FF0446012229463046FDF7B6F96042D1
:1038900094FBF0F0BDE8F08100000240C40000207D
:1038A0002DE9F0410D4E0C4607464FF4806500228D
:1038B00029463046FDF7A1F9A2B2642339460848EB
:1038C000FEF75DF80446012229463046FDF795F9DA
:1038D000604294FBF0F0BDE8F0810000000002407F
:1038E000C40000202DE9F743174E154689464FF4D2
:1038F0008068002241463046FDF77FF977150022A7
:1039000039463046FDF779F96423012269460F48AC
:10391000FEF735F80446012239463046FDF76DF9C9
:103920003DB1AAB24FF4FA7349460848FEF727F8AA
:103930000444012241463046FDF75FF9604294FBA2
:10394000F0F0BDE8FE83000000000240C40000204B
:103950008EB0FDF76DF9FFF7C9FDFEF77FFDFEF7AD
:1039600021FEFEF745FEFEF7D9FDFEF777FC102598
:10397000DFF88C8007AC6E0240F2F3190CAF02A99D
:1039800000222048FDF726FD002239461D48FDF79C
:10399000FFFC9DF80A009DF809309DF80820C0073B
:1039A00001D019A100E01CA107A8FCF73FFDCDE95B
:1039B00000541023A0223A210420FEF725FCFDF735
:1039C00029F9024618A107A8FCF730FDCDE90054FB
:1039D0001023A0224A210420FEF716FC01223146C2
:1039E00047464046FDF709F94846FCF7FFFF00222D
:1039F00031463846FDF701F90220FCF7F7FFBDE735
:103A000000080240A400002054696D653A2025306A
:103A100032643A253032640054696D653A202530AD
:103A200032642025303264005469636B3A20256487
:103A30006D73000030B444680369A44630BC184676
:103A4000604730B4D0E90343A44630BC1846604711
:103A500030B484680369A44630BC1846604730B46B
:103A6000046905682046AC4630BC60474FF04070A2
:103A7000E1EE100A704700000000000000000102A3
:103A80000304060708090000000000000000000011
:103A90000000000000003F400000000000000000A7
:103AA0003000400030004000000009000BC03D0025
:103AB0000BC03D00090018C024407FE02240318047
:103AC0000000180024C01B000D80324001800380DC
:103AD0001C4027401C800740004010006000000090
:103AE0000000000000000000000000001F802040D7
:103AF00040200000402020401F80000000000900FE
:103B000006001F80060009000000040004003F803A
:103B1000040004000000001000600000000000002D
:103B20000000040004000400040004000000000081
:103B300000400000000000000000002001C006005E
:103B40003800400000001F802040204020401F809F
:103B50000000000010403FC000400000000018C0FE
:103B60002140224024401840000010802040244082
:103B700024401B80000002000D0011003FC00140E6
:103B800000003C80244024402440238000001F800B
:103B9000244024403440038000003000200027C02F
:103BA0003800200000001B802440244024401B805B
:103BB00000001C0022C0224022401F8000000000A4
:103BC0000000084000000000000000000000046049
:103BD000000000000000000004000A001100208026
:103BE0004040090009000900090009000000000028
:103BF0004040208011000A000400180020002340EB
:103C00002400180000001F802040274029401F404A
:103C10000000004007C039000F0001C000402040F4
:103C20003FC0244024401B8000001F8020402040D3
:103C300020403080000020403FC0204020401F80B6
:103C4000000020403FC024402E4030C000002040F3
:103C50003FC024402E00300000000F0010802040A4
:103C600022403380020020403FC0040004003FC0D7
:103C70002040204020403FC0204020400000006005
:103C8000202020203FC02000200020403FC02440B2
:103C90000B0030C0204020403FC02040004000408A
:103CA00000C03FC03C0003C03C003FC000002040BB
:103CB0003FC00C4023003FC020001F802040204018
:103CC00020401F80000020403FC0244024001800F6
:103CD00000001F802140214020E01FA00000204064
:103CE0003FC02440260019C0004018C02440244092
:103CF000224031800000300020403FC02040300092
:103D0000000020003F80004000403F802000200055
:103D10003E0001C0070038002000380007C03C000A
:103D200007C038000000204039C0060039C02040DC
:103D300000002000384007C038402000000030401C
:103D400021C02640384020C00000000000007FE075
:103D5000402040200000000070000C000380004064
:103D600000000000402040207FE000000000000034
:103D70002000400020000000000000100010001093
:103D800000100010001000000000400000000000C3
:103D90000000000002800540054003C000402000F4
:103DA0003FC0044004400380000000000380044042
:103DB00004400640000000000380044024403FC04F
:103DC0000040000003800540054003400000000063
:103DD00004401FC0244024402000000002E00550A1
:103DE00005500650042020403FC00440040003C09A
:103DF00000400000044027C0004000000000001008
:103E00000010041027E00000000020403FC00140E7
:103E1000070004C00440204020403FC00040004054
:103E2000000007C0040007C0040003C000000440F5
:103E300007C00440040003C00040000003800440A9
:103E4000044003800000041007F004500440038085
:103E50000000000003800440045007F000100440FC
:103E600007C00240040004000000000006400540B6
:103E7000054004C00000000004001F800440004012
:103E80000000040007800040044007C00040040018
:103E9000070004C0018006000400060001C00700FE
:103EA00001C006000000044006C0010006C0044036
:103EB00000000410071004E0018006000400000068
:103EC000044005C00640044000000000000004005B
:103ED0007BE040200000000000000000FFF0000038
:103EE0000000000040207BE00400000000004000D3
:103EF0008000400020002000400000000000000082
:103F000000000000000000000000000000000000B1
:103F10001FCC000C00000000000000000800300072
:103F200060000800300060000000022003FC1E203A
:103F3000022003FC1E200220000000000E181104C5
:103F40003FFF10840C78000000000F0010840F3831
:103F500000C0077818840078000000780F8410C42F
:103F600011240E9800E40084000808006800700026
:103F70000000000000000000000000000000000041
:103F800007E018182004400200000000400220044E
:103F9000181807E000000000000002400240018005
:103FA0000FF001800240024000000080008000808D
:103FB0000FF800800080008000000001000D000E5E
:103FC00000000000000000000000000000800080F1
:103FD000008000800080008000800000000C000C49
:103FE00000000000000000000000000000060018B3
:103FF00000600180060018002000000007F008089B
:1040000010041004080807F0000000000804080469
:104010001FFC000400040000000000000E0C10143F
:104020001024104411840E0C000000000C18100421
:104030001104110412880C700000000000E003203D
:10404000042408241FFC0024000000001F98108492
:1040500011041104108810700000000007F0088897
:104060001104110418880070000000001C001000EA
:1040700010FC13001C001000000000000E3811445A
:104080001084108411440E38000000000700088CD2
:1040900010441044088807F00000000000000000F1
:1040A000030C030C000000000000000000000001F1
:1040B0000106000000000000000000000080014038
:1040C0000220041008081004000002200220022030
:1040D0000220022002200220000000001004080834
:1040E0000410022001400080000000000E001200B9
:1040F000100C106C10800F00000003E00C1813E48B
:10410000142417C4082807D000000004003C03C48E
:104110001C40074000E4001C000410041FFC1104B4
:10412000110411040E880070000003E00C18100444
:104130001004100410081C10000010041FFC1004D0
:1041400010041004080807F0000010041FFC1104FC
:10415000110417C410040818000010041FFC1104F7
:10416000110017C010000800000003E00C18100434
:10417000100410441C780040000010041FFC108440
:104180000080008010841FFC100400001004100444
:104190001FFC1004100400000000000300011001C7
:1041A00010011FFE10001000000010041FFC11047D
:1041B00003801464181C1004000010041FFC100479
:1041C000000400040004000C000010041FFC1F0089
:1041D00000FC1F001FFC1004000010041FFC0C0456
:1041E000030000E010181FFC100007F0080810047E
:1041F00010041004080807F0000010041FFC1084CD
:104200001080108010800F00000007F008181024A4
:104210001024101C080A07F2000010041FFC1104EF
:10422000110011C011300E0C000400000E1C11040E
:104230001084108410441C38000018001000100472
:104240001FFC100410001800000010001FF81004DC
:104250000004000410041FF8100010001E0011E0FC
:10426000001C007013801C0010001FC0103C00E0F8
:104270001F0000E0103C1FC000001004180C163492
:1042800001C001C01634180C100410001C001304E7
:1042900000FC13041C00100000000804101C106433
:1042A000108413041C04101800000000000000001B
:1042B0007FFE4002400240020000000030000C007F
:1042C00003800060001C0003000000004002400268
:1042D00040027FFE000000000000000000002000FF
:1042E00040004000400020000000000100010001EB
:1042F0000001000100010001000100004000400039
:1043000020000000000000000000000000980124D0
:1043100001440144014400FC000410001FFC00881B
:104320000104010400880070000000000070008893
:1043300001040104010400880000000000700088EE
:104340000104010411081FFC0004000000F80144EE
:1043500001440144014400C80000000001040104BC
:104360000FFC1104110411001800000000D60129EF
:104370000129012901C90106000010041FFC008465
:1043800001000100010400FC000400000104190404
:1043900019FC0004000400000000000000030001FC
:1043A0000101190119FE0000000010041FFC002487
:1043B000004001B4010C01040000000010041004CE
:1043C0001FFC0004000400000000010401FC0104C3
:1043D000010001FC0104010000FC010401FC008457
:1043E00001000100010400FC0004000000F80104C9
:1043F00001040104010400F80000010101FF00852F
:1044000001040104008800700000000000700088B2
:1044100001040104010501FF00010104010401FC84
:1044200000840104010001800000000000CC012490
:104430000124012401240198000000000100010072
:1044400007F80104010400000000010001F8000465
:1044500000040004010801FC000401000180017057
:10446000000C001001600180010001F0010C00301F
:1044700001C00030010C01F0010000000104018CBA
:1044800000740170018C01040000010101810171BF
:10449000000E001801600180010000000184010C81
:1044A000013401440184010C000000000000000000
:1044B000000001003EFC400240020000000000003D
:1044C0000000FFFF0000000000000000400240026A
:1044D0003EFC0100000000000000000060008000C1
:1044E00080004000400020002000424D42A8000013
:1044F00000000000420000002800000080000000D2
:10450000A8000000010010000300000000A8000047
:10451000120B0000120B0000000000000000000061
:1045200000F80000E00700001F000000000000008D
:10453000000000000000000000000000000000007B
:10454000000000000000000000000000000000006B
:10455000000000000000000000000000000000005B
:10456000000000000000000000000000000000004B
:106CE0000000242196B55DEFFFFFFFFFFBDEB294AD
:106CF0000000000000000000000000000000000094
:106D00000000000000000000000000000000000083
:106D10000000000000000000000000000000000073
:106D20000000000000000000000000000000000063
:106D30000000000000000000000000000000000053
:106D40000000000000000000000000000000000043
:106D50000000000000000000000000000000000033
:106D60000000000000000000000000000000000023
:106D70000000000000000000000000000000000013
:106D80000000000000000000000000000000000003
:106D900000000000000000000000000000000000F3
:106DA00000000000000000000000000000000000E3
:106DB00000000000000000000000000000000000D3
:106DC00000000000000000000000000000000000C3
:106DD00000000000000000000000000000000000B3
:106DE000AA52BEF7FFFFBEF796B514A5F7BDBEF7D2
:106DF0005DEFAA520000000000000000000000004B
:106E00000000000000000000000000000000000082
:106E10000000000000000000000000000000000072
:106E20000000000000000000000000000000000062
:106E30000000000000000000000000000000000052
:106E40000000000000000000000000000000000042
:106E500000000000000000000000000000002421ED
:106E60002C632C632C630000000000000000000075
:106E70000000000000000000000000000000000012
:106E80000000000000000000000000000000000002
:106E90000000000000000000000000000000E739D2
:106EA0002C632C63AA5200000000000000000000C8
:106EB00000000000000000000000000000000000D2
:106EC000000000000000E7392C632C632C632C6366
:106ED0002C63E739000000000000000000002421BE
:106EE000BEF7FFFFBEF7AA52000000000000E7391E
:106EF000FBDEBEF7AA520000000000000000000008
:106F000000000000000000002C632C632C632C6345
:106F1000AA52000000000000000000000000000075
:106F20000000000000000000000000000000000061
:106F30000000000000000000000000000000000051
:106F40000000000000000000000000000000000041
:106F5000000000000000FFFFFFFFFFFFFFFFFFFF3B
:106F6000FFFFFFFFFFFFBAD6000000000000000097
:106F700000005DEFFFFFFFFFFFFFFFFFFFFFFFFFD1
:106F8000F7BD00000000000000000000000000004D
:106F900000000000CF7BFFFFFFFFFFFFFFFFFFFFB1
:106FA000FFFFFFFFFFFF14A500000000000000002E
:106FB000000000000000000059CEFFFFFFFFFFFFB0
:106FC000FFFFFFFFFFFFFFFFFFFFFFFFFFFFFFFFD1
:106FD000FFFFFFFFBAD6242100000000000014A527
:106FE000FFFFFFFF2C630000000000000000000016
:106FF0002421FBDEFBDE00000000000000003084E6
:10700000FFFFFFFFFFFFFFFFFFFFFFFFFFFFFFFF90
:10701000FFFFBEF7F7BD2C6300000000000000007A
:107020000000000000000000000000000000000060
:107030000000000000000000000000000000000050
:107040000000000000000000000000000000000040
:107050000000000000002C6330845DEFFFFFFFFFA5
:10706000F7BD00000000E73900000000000000004C
:107070000000AA523084BEF7FFFFFFFFB2942C63DA
:10708000AA52000000000000000000000000000004
:107090000000000024212C6314A5BEF7FFFFFFFFB2
:1070A000308400000000E73900000000000000000C
:1070B0000000000000000000E7393084FBDEFFFF25
:1070C000FFFF5DEF5DEFFFFFFFFF5DEF59CEB29475
:1070D0002C63B294FFFFF7BD0000000000005DEFDD
:1070E000FFFF5DEF00000000000000000000000056
:1070F0000000AA5296B50000000000000000000049
:107100000000AA52FFFFFFFFFBDE2C632C632C6301
:10711000B294FBDEFFFFFFFF59CE242100000000E8
:10712000000000000000000000000000000000005F
:10713000000000000000000000000000000000004F
:10714000000000000000000000000000000000003F
:1071500000000000000000000000AA52FFFFFFFF37
:107160005DEF0000000000000000000000000000D3
:107170000000000000003084FFFFFFFF96B5000014
:1071800000000000000000000000000000000000FF
:1071900000000000000000000000B294FFFFFFFFAD
:1071A000F7BD00000000000000000000000000002B
:1071B00000000000000000000000000024215DEF3E
:1071C000FFFFBEF7242100000000000000000000C7
:1071D00000002421FFFFFFFF000000002421FFFF2B
:1071E000FFFFF7BD000000000000000000000000ED
:1071F000000000000000000000000000000000008F
:107200000000000059CEFFFFFFFFE739000000003B
:10721000000000002C63BEF7FFFFFBDE242100000E
:10722000000000000000000000000000000000005E
:10723000000000000000000000000000000000004E
:10724000000000000000000000000000000000003E
:10725000000000000000000000000000FBDEFFFF57
:10726000FFFF2421000000000000000000000000DB
:107270000000000000002421FFFFFFFFFBDE0000F4
:1072800000000000000000000000000000000000FE
:10729000000000000000000000002421FFFFFFFFAD
:1072A000FBDE000000000000000000000000000005
:1072B0000000000000000000000000000000B29488
:1072C000FFFFFFFF3084000000000000000000000E
:1072D00000002C63FFFFBEF7000000002C63FFFFDF
:1072E000FFFF14A5000000000000000000000000E7
:1072F000000000000000000000000000242114A590
:10730000AA5200003084FFFFFFFFB294000000008B
:10731000000000000000AA52BEF7FFFFFBDE0000E5
:10732000000000000000000000000000000000005D
:10733000000000000000000000000000000000004D
:10734000000000000000000000000000000000003D
:10735000000000000000000000000000B294FFFFE9
:10736000FFFF30840000000000000000000000006B
:10737000000000000000000059CEFFFFFFFF2421A5
:1073800000000000000000000000000000000000FD
:10739000000000000000000000000000BAD6FFFF5F
:1073A000FFFF24210000000000000000000000009A
:1073B0000000000000000000000000000000E739AD
:1073C000FFFFFFFF59CE000000000000000000009A
:1073D000000000003084AA52000000002C63FFFF70
:1073E000FFFF14A5000000000000000000000000E6
:1073F000000000000000000000000000BAD6FFFFFF
:10740000BAD600002421FFFFFFFFFBDE00000000D2
:1074100000000000000000002C63FFFFFFFF14A528
:10742000000000000000000000000000000000005C
:10743000000000000000000000000000000000004C
:10744000000000000000000000000000000000003C
:10745000000000000000000000000000AA52FFFF32
:10746000FFFFF7BD0000000000000000000000006A
:107470000000000000000000B294FFFFFFFF308416
:1074800000000000000000000000000000000000FC
:10749000000000000000000000000000B294FFFFA8
:1074A000FFFF30840000000000000000000000002A
:1074B00000000000000000000000000000000000CC
:1074C0005DEFFFFFFFFF0000000000000000000074
:1074D000000000000000000000000000AA52FFFFB2
:1074E000FFFF14A5000000000000000000000000E5
:1074F00000000000000000000000CF7BFFFFBEF78F
:10750000308400000000BAD6FFFFFFFF24210000F6
:1075100000000000000000000000F7BDFFFFBEF704
:107520002421000000000000000000000000000016
:10753000000000000000000000000000000000004B
:10754000000000000000000000000000000000003B
:107550000000000000000000000000000000BEF776
:10756000FFFF5DEF000000000000000000000000D1
:10757000FBDEFFFFAA520000AA52FFFFFFFFF7BD8C
:10758000000000000000AA522421000000000000BA
:10759000000000000000000000000000AA52FFFFF1
:1075A000FFFFF7BD00000000000000000000000029
:1075B00000000000000000000000000000000000CB
:1075C000F7BDFFFFFFFFCF7B0000000000000000C1
:1075D0000000000000000000000000000000FFFFAD
:1075E000FFFFBAD60000000000000000000000000D
:1075F0000000000000000000000014A5FFFF2C6345
:1076000000000000000014A5FFFFFFFFCF7B00007B
:1076100000000000000000000000CF7BFFFFFFFF24
:1076200030840000000000000000000000000000A6
:10763000000000000000000000000000000000004A
:10764000000000000000000000000000000000003A
:107650003084BAD6CF7B0000000000000000F7BDE8
:10766000FFFFFFFFE7390000000000000000AA5202
:10767000FFFFFFFFAA52000000005DEFFFFFFBDEEF
:10768000000000000000BAD614A5000000000000B1
:1076900096B559CEE7390000000000000000BEF7A3
:1076A000FFFF5DEF00000000000000000000000090
:1076B00000000000000000000000000000000000CA
:1076C0003084FFFFFFFF96B50000000000000000BF
:1076D0000000000000000000000000000000BAD61A
:1076E000FFFFBEF7000000000000000000000000E7
:1076F0000000000000000000000059CEFBDE00008A
:107700000000000000002C63FFFFFFFF14A5000035
:10771000000000000000000000000000FFFFFFFF6D
:10772000F7BD0000000000000000000000000000A5
:107730000000000000000000000000000000000049
:107740000000000000000000000000000000000039
:107750005DEFFFFF14A50000000000000000308472
:10776000FFFFFFFF308400000000000000002C63DA
:10777000FFFFF7BD000000000000F7BDFFFFFFFFA7
:10778000BAD6BAD6BAD6FFFFF7BD00000000E73977
:10779000FFFFFFFF2C630000000000000000F7BDAA
:1077A000FFFFFFFFE73900000000000000000000BD
:1077B00000000000000000000000000000000000C9
:1077C000E739FFFFFFFFFBDE0000000000000000C4
:1077D0000000000000000000000000000000B29463
:1077E000FFFFFFFFAA5200000000000000000000A1
:1077F0000000000000000000000014A5FBDE0000F7
:107800000000000000000000FFFFFFFFBAD60000EC
:10781000000000000000000000000000FFFFFFFF6C
:10782000BAD60000000000000000000000000000C8
:107830000000000000000000000000000000000048
:107840000000000000000000000000000000000038
:10785000FFFFFFFFAA520000000000000000E73910
:10786000FFFFFFFFF7BD00000000000000002C63D9
:10787000FFFF30840000000000003084FFFFFFFFA6
:1078800059CE14A514A559CE5DEF000000002C635D
:10789000FFFFFBDE0000000000000000000030845D
:1078A000FFFFFFFF30840000000000000000000028
:1078B00000000000000000000000000000000000C8
:1078C0000000FBDEFFFFFFFFE739000000000000C3
:1078D0000000000000000000000000000000242163
:1078E000FFFFFFFFF7BD00000000000000000000E8
:1078F000000000000000000000003084FFFFE739B6
:107900000000000000000000BAD6FFFFFFFF0000EB
:10791000000000000000000000000000FFFFFFFF6B
:10792000BAD60000000000000000000000000000C7
:107930000000000000000000000000000000000047
:107940000000000000000000000000000000000037
:10795000FFFFF7BD00000000000000000000000075
:107960005DEFFFFF5DEF0000000000000000AA5285
:10797000FFFFB294000000000000E739FFFFFFFFA7
:1079800096B500000000AA52FFFF000000002C6323
:10799000FFFF308400000000000000000000E73915
:1079A000FFFFFFFFF7BD0000000000000000000027
:1079B00000000000000000000000000000000000C7
:1079C0000000B294FFFFFFFFB2940000000000002F
:1079D00000000000000000000000000000000000A7
:1079E000F7BDFFFFBEF724210000000000000000EB
:1079F000000000000000AA5296B52421BEF714A58D
:107A0000000000000000000014A5FFFFFFFF2C6332
:107A1000000000000000000000000000FFFFFFFF6A
:107A2000BAD60000000000000000000000000000C6
:107A30000000000000000000000000000000000046
:107A40000000000000000000000000000000000036
:107A5000BEF759CE0000000000000000000000004A
:107A6000F7BDFFFFFFFFE739000000000000000046
:107A70005DEFBAD600000000000000005DEFFFFFE0
:107A8000FBDE000000000000000000000000AA5221
:107A9000FFFFB294000000000000000000000000A2
:107AA0005DEFFFFF5DEF0000000000000000000040
:107AB00000000000000000000000000000000000C6
:107AC0000000E739FFFFFFFFFBDE000000000000C1
:107AD00000000000000000000000000000000000A6
:107AE0002421BEF7FFFF96B5000000000000000053
:107AF0000000000000002C63BAD6000014A5BEF7F9
:107B0000AA520000000000002C63FFFFFFFFB294A8
:107B100000000000000000000000CF7BFFFFFFFF1F
:107B200096B500000000000000000000000000000A
:107B30000000000000000000000000000000000045
:107B40000000000000000000000000000000000035
:107B5000F7BDFFFFE7390000000000000000000053
:107B60003084FFFFFFFFB29400000000000000001F
:107B7000CF7BFFFF3084000000000000F7BDFFFF57
:107B8000FFFFE7390000000000000000E739E73997
:107B90005DEFFBDE000000000000000000000000C0
:107BA000F7BDFFFFFFFFE739000000000000000005
:107BB00000000000000000000000000000000000C5
:107BC00000000000F7BDFFFFFFFFE73900000000E5
:107BD00000000000000000000000000000000000A5
:107BE0000000CF7BFFFFFFFF2C63000000000000C0
:107BF0000000000000002C63FFFF00000000FBDE1F
:107C0000FBDE2421000000000000FFFFFFFF59CE33
:107C100000000000000000000000BAD6FFFFFFFFD8
:107C2000E739000000000000000000000000000034
:107C30000000000000000000000000000000000044
:107C40000000000000000000000000000000000034
:107C5000E739BEF7FBDE2421000000000000000031
:107C6000E739FFFFFFFF59CE0000000000000000D1
:107C7000000096B5BEF73084000000003084FFFF9E
:107C8000FFFF3084000000000000000014A5BAD6F9
:107C9000CF7BFFFFF7BD00000000000000000000E8
:107CA0003084FFFFFFFFB2940000000000000000DE
:107CB00000000000000000000000000000000000C4
:107CC00000000000E739BEF7FFFF59CE00000000BA
:107CD0000000E739E7390000000000000000000064
:107CE0000000000014A5FFFFBEF7AA52000000002C
:107CF000000000000000CF7BFFFFE73900002421D7
:107D0000FBDE5DEFAA5200003084FFFFFFFFBEF7ED
:107D10000000000000000000B294FFFFFFFF96B5D6
:107D20000000000000000000000000000000000053
:107D30000000000000000000000000000000000043
:107D40000000000000000000000000000000000033
:107D50000000CF7BFFFFBEF796B52C63E73900002C
:107D600000005DEFFFFFBEF7000000000000000014
:107D70000000000096B5FFFFBAD6CF7BAA52FFFFE6
:107D8000FFFF59CE000000000000000096B5BEF7CE
:107D9000000096B5FFFF5DEFB2942C632421000034
:107DA000E739FFFFFFFF59CE000000000000000090
:107DB00000000000000000000000000000000000C3
:107DC000000000000000CF7BFFFFFFFF30840000B9
:107DD0003084BEF7BEF70000000000000000000085
:107DE0000000000000003084FFFFBEF7B2940000E6
:107DF000000000000000BAD6FFFFCF7B00000000AB
:107E0000242159CEFFFFF7BDB29414A5F7BDFBDEC8
:107E10002C6300002421F7BDFFFFFFFFF7BD00002A
:107E20000000000000000000000000000000000052
:107E30000000000000000000000000000000000042
:107E40000000000000000000000000000000000032
:107E500000000000AA52FBDEFFFFFFFFFFFFFFFF55
:107E6000FFFFFFFFFFFFFFFFFFFFFFFFFFFFFFFF22
:107E700059CE2C6300002C63F7BDBEF7FFFFFFFF58
:107E8000FFFFFFFFFFFFFFFFFFFFFFFFFFFFFFFF02
:107E9000AA520000CF7BBEF7FFFFFFFFFFFFFFFFEF
:107EA000FFFFFFFFFFFFFFFFFFFFFFFFFFFFBEF72B
:107EB000F7BDE739000000000000000000000000EE
:107EC00000000000000000002C635DEFFFFF5DEF8D
:107ED000FFFFFFFFBAD60000000000000000000016
:107EE0000000000000000000AA52BAD6FFFF5DEFBC
:107EF000F7BD96B55DEFFFFFBAD62C63000000001A
:107F0000000000002C63BAD6FFFF5DEFF7BD14A59B
:107F100014A5BAD6FFFFFFFFBEF7B2940000000021
:107F20000000000000000000000000000000000051
:107F30000000000000000000000000000000000041
:107F40000000000000000000000000000000000031
:107F50000000000000000000CF7BF7BDBAD6BEF7DE
:107F6000FFFFBEF7BAD6BAD659CE14A514A514A5EC
:107F7000FBDEFFFF2C6300000000000024212C63C7
:107F80002C632C632C632C632C632C632C6396B5BD
:107F9000AA52000000002421308459CEBAD6FFFF37
:107FA000FFFF5DEFBAD6BAD6F7BD14A514A514A588
:107FB000BEF7BEF724210000000000000000000012
:107FC0000000000000000000000024213084F7BD04
:107FD00059CEB294242100000000000000000000EF
:107FE000000000000000000000000000AA5214A5DC
:107FF000BAD659CE14A5E7390000000000000000F1
:108000000000000000000000E739308414A559CEBC
:10801000BAD6F7BD14A5CF7B000000000000000019
:108020000000000000000000000000000000000050
:108030000000000000000000000000000000000040
:108040000000000000000000000000000000000030
:108050000000000000000000000000000000000020
:108060000000000000000000000000000000000010
:10807000CF7BFFFF14A500000000000000000000FF
:1080800000000000000000000000000000000000F0
:1080900000000000000000000000000000000000E0
:1080A00000000000000000000000000000000000D0
:1080B00096B5FFFF2C6300000000000000000000E8
:1080C00000000000000000000000000000000000B0
:1080D00000000000000000000000000000000000A0
:1080E0000000000000000000000000000000000090
:1080F0000000000000000000000000000000000080
:10810000000000000000000000000000000000006F
:10811000000000000000000000000000000000005F
:10812000000000000000000000000000000000004F
:10813000000000000000000000000000000000003F
:10814000000000000000000000000000000000002F
:10815000000000000000000000000000000000001F
:10816000000000000000000000000000000000000F
:10817000AA52BEF7CF7B0000000000000000000004
:1081800000000000000000000000000000000000EF
:1081900000000000000000000000000000000000DF
:1081A00000000000000000000000000000000000CF
:1081B0003084BEF7E7390000000000000000000036
:1081C00000000000000000000000000000000000AF
:1081D000000000000000000000000000000000009F
:1081E000000000000000000000000000000000008F
:1081F000000000000000000000000000000000007F
:109050000000000000000000000000000000E739F0
:109060002C632C632C63242100000000000000000E
:1090700000000000000000000000000000000000F0
:1090800000000000000000000000000000000000E0
:1090900000000000000000000000000000000000D0
