:020000040800F2
:10000000F8FF0020817A0208DFFF0108CDFF010818
:10001000E1FF0108F1FF01080100020800000000F3
:1000200000000000000000000000000011000208B5
:1000300013000208000000002D10020889100208B9
:100040006F790208010102080D010208150102087A
:10005000016C02086F790208950002089B000208F3
:10006000A1000208A7000208AD000208E53202085C
:10007000F532020805330208153302082533020859
:1000800035330208453302086F790208000000008A
:10009000000000000000000000000000B3000208A3
:1000A000290102082F010208410102084701020844
:1000B0004D01020853010208590102086F79020834
:1000C0006F7902086F7902086F7902086F79020868
:1000D0006F790208790102087F0102080000000020
:1000E000D7000208070102082100020800000000F2
:1000F000000000000000000000000000553302086E
:10010000000000006F790208610102086F7902089F
:1001100000000000000000000000000000000000DF
:1001200065330208753302088533020895330208E7
:10013000A5330208000000000000000000000000DD
:100140000000000000000000000000001500020890
:10015000B5330208C5330208D53302088501020809
:100160006F7902086F7902080000000000000000AB
:10017000000000000000000000000000000000007F
:10018000000000006F79020800000000000000007D
:040190006F79020879
:10019400034B1B685B681A69026018610020704792
:1001A4000C320020034B1B685B681A6912681A61E1
:1001B400704700BF0C320020C4600561466187614E
:1001C400C0F81C80C0F82090C0F824A0C0F828B063
:1001D400C0F82CD080ED0C8B80ED0E9B80ED10AB25
:1001E400C0F808E0FFF7D4BF08B5114B1B685A6884
:1001F40013690BB91FF08CFC19685860116118461B
:10020400C468056946698769D0F81C80D0F82090D5
:10021400D0F824A0D0F828B0D0F82CD090ED0C8BD6
:1002240090ED0E9B90ED10ABD0F808E001207047E4
:100234000C32002010B50021044600F009FB18B967
:1002440014B1204608F06EFD10BD002100F000BB83
:1002540010B50121044600F0FBFA18B914B1204688
:1002640008F060FD10BDFFF7E5BF10B501220C4694
:1002740000F032FC18B914B1204608F053FD10BD4B
:1002840000F02ABC00F0BABB2DE9F0432A4C00254B
:100294004FF00309D4F8F0710021013143189A0892
:1002A40003F00303BA5C5B0042FA03F303F00303B5
:1002B400022BF2D0D4F8FC3109018A0803EB0010B8
:1002C40081B300EB820103681A0728D1D4F8FC211A
:1002D4009A4224D89A1AD4F800624FEA921C12095E
:1002E40002F003079E424FEA470718D9D4F8F0E119
:1002F4001EF80C8048FA07F303F00303012B0ED118
:1003040009FA07F747EA080705F582783F2D0EF842
:100314000C709ABF24F818200135C4F80432043054
:100324008842D0D12DB1013D05F5827334F8130014
:10033400B0E7BDE8F08300BF682B0020F0B4194E8D
:10034400D6E97E53C01AC10904096B5C04F007079F
:100354000122BA4023EA02036B54D6F89432D6F849
:10036400F0518009984238BFC6F89402295C04F021
:100374000303A00803275B0007FA03F321EA03033E
:100384002B540134D6F8F051A00804F00303295C7F
:100394005A0041FA02F202F00302022AEBD0F0BC46
:1003A400704700BF682B002021F00F0370B5164A78
:1003B400164D1C1AE400A2FB0424640A0219A3EBE0
:1003C4008416C5F8F82100212246C5E97F63C5E9F2
:1003D4007C041AF069FFA2000732D208D5F8F801AC
:1003E40000211AF061FF00234FF480314FF0FF32F7
:1003F40005F52670C5F88812C5E9A332C5F894320C
:10040400BDE8704021F032BAF32C23FA682B0020A7
:10041400034AB2F888320133A2F88832704700BF29
:10042400682B0020034AB2F88832013BA2F88832D4
:10043400704700BF682B0020034BB3F888020030DC
:1004440018BF0120704700BF682B0020F8B51C4C72
:10045400B4F8883200220133A4F88832C4F88C221C
:10046400C4F80422251D04F5E676032755F8042F65
:10047400130719D1D4F8FC01824215D3101AD4F809
:1004840000124FEA901C000900F003038A424FEA6D
:10049400430309D2D4F8F01111F80CE04EFA03F238
:1004A40002F00302012A02D0AE42DFD1F8BD07FAFE
:1004B40003F343EA0E0301F80C30FFF7E5FEF3E71C
:1004C400682B002079B3F8B5041F174E04EB81059F
:1004D400032754F8043F1A0719D1D6F8FC019842AF
:1004E40015D8181AD6F800124FEA901C000900F02B
:1004F400030299424FEA420209D9D6F8F01111F8E1
:100504000CE04EFA02F303F00303012B02D0A542E0
:10051400DFD1F8BD07FA02F242EA0E0201F80C201C
:10052400FFF7B2FEF3E77047682B00202DE9F04F88
:10053400824CD4F8F431D4F8042285B09B00002A0C
:1005440000F0868000264FF0030BC4F80462002BF1
:1005540068D0002002E00130984274D2D4F8F071DF
:10056400810800F00302795C520041FA02F202F0C1
:100574000302032AEFD1844600230022013202EB56
:100584000C014FEA910E01F0030117F80EE0490047
:100594004EFA01F101F003010229EFD0D4F8FC1165
:1005A40012014FEA920E01EB0C1C92B30CEB8E0E6F
:1005B400DCF800703A0728D1D4F8FC21974224D300
:1005C400BA1AD4F800524FEA9218120902F0030141
:1005D400AF424FEA410118D2D4F8F09119F808A0BB
:1005E4004AFA01F707F00307012F0ED10BFA01F1C4
:1005F40041EA0A0103F5827A3F2B09F808109ABFF1
:1006040024F81A200133C4F804720CF1040CF445E4
:10061400CED193B1013B03F58272D4F8F07134F872
:1006240012C0AAE7B4F888320022013BA4F8883249
:10063400C4F8942205B0BDE8F08FD4F8F431013049
:100644009B0098428AD3D4F80422002A7FF47DAF19
:10065400002BE7D04FF0000E76464FF003094FF021
:100664000108022704E0012930D001369E42D9D284
:100674004FEA960AD4F8F00106F0030510F80A20B0
:100684006D0042FA05F101F00301022900EB0A0CA6
:100694000DD00329E7D107FA05F522EA050500F88C
:1006A4000A50D4F8F4314FF0000E9B00DDE7BEF1A0
:1006B400000FDAD009FA05F522EA05058CF8005096
:1006C400D4F8F4314FF0010E9B00CEE7F308D4F8D0
:1006D400F811019311F803E006F0070B4EFA0BF042
:1006E4001944C307E6D53001D4F8FC2152F800C000
:1006F4001044BCF1000F14D002AAB12107F034FE5B
:10070400DDE9013242B108F021FDDDE9020108F022
:1007140003FD08F031FD019BD4F8F81111F803E052
:10072400194408FA0BFB2EEA0B0E81F800E0D4F80A
:10073400F03103EB0A0C13F80A20BBE7682B002006
:10074400054BB3F8882200210132A3F88822C3F8AC
:100754000412FFF7EBBE00BF682B00203B4BD3E92C
:100764007F122DE9F047D3E97C760023C0E90133F9
:10077400C0E90333C0E90533521A02601D46B600CE
:100784009E469C461C461A4699461946984617F8B2
:10079400093049000B4103F00303012B47D0002B20
:1007A4003DD0022B02D1013545600134013296421D
:1007B4000ED04FEA920902F0030117F809304FEA0C
:1007C400410A43FA0AF313F0030301D0012BDED1EB
:1007D400012C11D0022C02D141690131416181699E
:1007E400A14238BF846196420FD0012B23D04FEA37
:1007F400920902F00301CAE70169013101618169CB
:10080400A14238BF84619642EFD1C44516D99642BD
:10081400C0F80CC012D0E0464FF0000CE7E70EF130
:10082400010EC0F808E00CF1010C1C46BEE70135CE
:1008340045601C46BAE7E045EED2E8E72D014FEAF1
:100844000E13C0E90153BDE8F08700BF682B0020F8
:100854000F302DE9F047060951D0674DB5F88832BD
:10086400002B4CD1B5F88A32002B0C460CBF4FF04C
:10087400010E4FF0000E47D1D5F89402D5F8F4716B
:10088400874239D9D5F8F0C1411E614400221AE0EB
:100894000132964253D913F00C0F1ED10132964205
:1008A40040F2A08013F0300F1CD10132964240F286
:1008B4009C8013F0C00F1AD10132964240F2988006
:1008C4000130B84218D211F8013F13F0030FDFD002
:1008D40013F00C0F4FF00002E0D013F0300F4FF084
:1008E4000002E2D013F0C00F4FF00002E4D0013058
:1008F400B8424FF00002E6D3BEF1000F14D04FF01F
:1009040000084046BDE8F087D5E9A3239A42B3D353
:1009140024F0C4F9D5F89402D5F8F471874288BF5D
:100924004FF0010EAED8EAE724F0B8F9D5F89402F6
:10093400D5F8F47187424FF0010EA3D8DFE78000A9
:10094400811A012A01F1010703D1431C9B08C5F850
:1009540094324FEA970E07F003034FEA43081CF85A
:100964000E90012303FA08F3023143EA0903884293
:100974000CF80E3013D34FF002084FEA910CD5F85F
:10098400F0E101F003031EF80C905B0008FA03F396
:10099400013143EA090388420EF80C30EDD2D5F850
:1009A400FCA1D5F88C324FEA07190AEB09081E445A
:1009B400120140460021C5F88C621AF075FCE30769
:1009C4009FD50023D5F8F8114AF80930FA08012315
:1009D400885C07F0070703FA07F707438F5440467C
:1009E400BDE8F08780000130AAE780000230A7E765
:1009F40080000330A4E700BF682B0020F0B41B4E36
:100A0400B6F888327BBB70B3D6E97E53C01AC109ED
:100A140004096B5C04F007070122BA4023EA0203CD
:100A24006B54D6F8942283099342D6F8F00138BF68
:100A3400C6F89432C15CA50804F0030303275B00E5
:100A440007FA03F321EA030343550134D6F8F0010E
:100A5400A50804F00303415D5A0041FA02F202F0D2
:100A64000302022AEBD0F0BC704700BF682B0020C1
:100A740010F00F030DD11749D1F8FC21824208D898
:100A840010B4D1F80042844205D818465DF8044BEE
:100A9400704700207047801AD1F8F041810902099B
:100AA400615C02F003004000014101F003010129EF
:100AB4001846EBD101301318990803F00303615C65
:100AC4005B0041FA03F303F00303022BF2D00001AD
:100AD400DCE700BF682B00202DE9F84F0B460746E2
:100AE400002800F0A680574DB5F88842002971D03F
:100AF400002C71D1D5F8FC01D5F8F431381A4FEA3D
:100B0400101C0CF1010E4FEA830901F10F06F145A7
:100B14004FEA161640F29380D5F8F0A14FF0010881
:100B24004FEA9E0B0EF003031AF80BB05B004BFA6E
:100B340003F303F00303022B52D023B9013408EB6F
:100B44000403B3424ED3464540D021D34444B44277
:100B54004DD2002A40D0C009D5F8F8311B5C0CF006
:100B6400070C43FA0CFC08460CF00101FFF770FE79
:100B7400044688B34FEA081239461AF051FBB5F817
:100B8400883223BB3846FFF7D9FB2046BDE8F88FEF
:100B940066443046C4444FF003094FEA900ED5F83A
:100BA400F01100F0030311F80E405B0009FA03F39F
:100BB400013024EA0303604501F80E30EDD1D5F885
:100BC4009432B6089E4238BFC5F894623C4620462B
:100BD400BDE8F88F002CD6D000242046BDE8F88F5D
:100BE40008F101080EF1010EF14599D1ABE70CEBC8
:100BF4000802B444944510D902219008D5F8F04174
:100C040002F0030314F800E05B0001FA03F301327D
:100C140043EA0E0394452354EFD1A6EB08021201D4
:100C240007EB081000213C461AF03EFB2046BDE8C5
:100C3400F88F01461846BDE8F84FFFF709BE4FF09C
:100C4400010880E7682B002010B58AB003A80B4C7C
:100C5400FFF784FD059B00932046DDE90323084943
:100C640000F0C4FE069A099B019200932046DDE938
:100C74000723044900F0BAFE0AB010BD443A030841
:100C8400B4F80208D8F802082DE9F047DFF864A1A7
:100C94004949DAF8FC21494800F0A8FEDAF8F411D1
:100CA400890074D0DFF85091DFF85081434F00255C
:100CB4000CE0012E46D02E224149384600F096FE23
:100CC400DAF8F41101358900A94260D905F0030668
:100CD400AA064FEA4606DAF8F0010BD0AB08C35C6B
:100CE40043FA06F606F00306022E29D0032EE0D1BD
:100CF4006D22E1E72C46A20804F00303825C5B004A
:100D040042FA03F39B0702D101348C42F3D3621BF2
:100D14007F2A0CD992092B49384600F067FEDAF88D
:100D2400F43124F03F05B5EB830F30D2002609EAF5
:100D340005124146384600F059FEDAF8F001CDE7D5
:100D44003D22B9E7DAF8FC111F4B2A018A589A426E
:100D540023D01E4B9A4222D01D4B9A4225D01D4BC4
:100D64009A421ED01C4B9A421BD01C4B9A421AD05A
:100D74001B4B9A4217D01B4B9A4218D01A4B9A42DB
:100D840017D01A4B9A420CBF4D22682294E7184997
:100D94000A48BDE8F04700F0E8BA54228CE74C2238
:100DA4008AE7532288E7412286E7442284E74622E1
:100DB40082E7422280E700BF6CF80208443A030845
:100DC400B0F802088CF802084C700308105F03089E
:100DD400F45103087C6D0308A06A0308004E03085D
:100DE400C44D03088C590308E05903089C600308A8
:100DF40088F80208682B0020F0FF0F00A8F802080A
:100E0400054B5B695A68824204D8801A043053F84F
:100E1400200070471B68F5E7682B0020014441F26D
:100E24000553884204D398B2002808BF01207047B4
:100E340010F8012B03EB43135340F2E70448054B2E
:100E440043610023C0F8D03100F5EE7020F00EBDF0
:100E5400682B0020F8F902082DE9F84F82468946EC
:100E6400FFF7DCFF134B5C6983460CB920461EE098
:100E7400E66804F1100808EB86064546B5422F469D
:100E840001D32468F1E755F8040B03885B45F5D1D9
:100E940083784B45F2D14A46514603301AF02AFA78
:100EA4000028EBD16068A7EB080700EBA700BDE8BA
:100EB400F88F00BF682B00202DE9F04780460E46CE
:100EC400FFF7CAFF0246002874D1FF2E03D93E491A
:100ED4003E4807F01DFF3E4CD4F8D001351D90B1BB
:100EE400D4E975132B448B422BD92944FFF7C8F955
:100EF4000746E8B90246D4F8D811D4F8D001FFF770
:100F0400BFF9C4F8D071802D2F4638BF80273846EA
:100F1400FFF79BF9C4F8D00100284FD12846FFF70A
:100F240094F9C4F8D001002847D1284607F0FAFE06
:100F3400D4F8D4312B44C4F8D431D4F8D031002BB4
:100F4400E1D0D4F8D891D4F8D0A131464D444046EC
:100F5400C4F8D851FFF762FF0AEB09070AF8090041
:100F6400000A7870BE7032464146F81C1AF058F9EF
:100F7400BB190026DE706369D3E90253AB420FD379
:100F84006D00281D8000FFF760F90028CDD062694C
:100F940002605368D268C6601344C0E901356061D9
:100FA4006369D9685A68481C0431D860013A43F827
:100FB400217002441046BDE8F0872F460023C4F890
:100FC400D471C4F8D831BCE7630B03082457030871
:100FD400682B002010B504461AF0AEF901462046ED
:100FE400BDE81040FFF768BF08B5FFF709FF0088A8
:100FF40008BD08B5FFF704FF807808BD08B5FFF702
:10100400FFFE033008BD08B5FFF7FAFE83780B60D6
:10101400033008BD2DE9F8431D46002303600B602F
:1010240013602B60174BDFF860905C6907468846B5
:1010340016460CB14C4505D12B68326813442B601D
:10104400BDE8F8833B6801333B60E268D8F80030C0
:101054001344C8F80030E26804F1100303EB820281
:10106400934207D32046FFF703FD2B6824681844F6
:101074002860DEE753F8041B8878316804310144A2
:101084003160EDE7682B0020F8F902082DE9F843F8
:101094000E4B0F4F5C69DFF83C80DFF83C900CB1DD
:1010A400BC4201D1BDE8F883E36804F1100505EB07
:1010B4008306B54201D32468F1E755F8042B414671
:1010C4000332484600F092FCF3E700BF682B00208F
:1010D400F8F902085C0B0308443A030838B544687D
:1010E40003680C449C42054610D9037BDB0703D5F7
:1010F4000021074807F00CFE103424F007040834DC
:1011040021468068FFF7B1F82C60A86038BD00BFA5
:101114002457030870B504460E4611461546FFF7DA
:10112400DDFFD4E901302A46314618441AF0A4F808
:1011340062682A44626070BD70B5466804468E4297
:10114400354628BF0D460121FFF7C8FFA368681C78
:101154005919721B18441AF08FF86368A068013398
:101164006360284470BD38B50446081E08BF0120DA
:10117400002520606560FFF75DF8237BA06065F3C0
:101184000003237338BD38B505460C460131FFF71B
:10119400EAFF6C6038BD0023C0E90132037B0160C3
:1011A40043F001030373704738B514460546FFF74F
:1011B400DAFF024B2560636038BD00BF19110008D7
:1011C400037BDB0710B5044602D48068FFF75AF8A6
:1011D4000023A36010BD38B505461020FFF72AF898
:1011E40029460446FFF7BFFF204638BD10B5044624
:1011F40050B1037BDB0702D48068FFF743F8204635
:10120400BDE81040FFF73EB810BD000038B5037BC1
:10121400DB0704460D4603D50021074807F078FD97
:10122400016880682944FFF720F82368A0601D4402
:101234002560184438BD00BF2457030838B5044658
:101244000D46FFF74BFFD4E901301D446560184497
:1012540038BDD0E900239A4210B5044602D10121D9
:10126400FFF7D4FFD4E901320021D154A06810BDA6
:1012740010B50C460121FFF7E1FF047010BD7F2972
:10128400F8B50C46CEB204D80121FFF7D7FF06709B
:10129400F8BD06F03F06B1F5006FC1F3871546F0BF
:1012A400800607D20221FFF7C9FF65F03F050570EC
:1012B4004670EDE705F03F05B1F5803FC1F3073710
:1012C40045F0800508D20321FFF7B8FF67F01F033C
:1012D400037045708670DBE70421FFF7AFFFA40CB1
:1012E40007F03F0364F00F0463F07F03047043705E
:1012F4008570C670CCE738B5054608460C461AF02A
:101304001BF8214602462846BDE83840FFF702BFD5
:1013140010B51446FFF710FF047010BD10B5144645
:10132400FFF70AFF047010BD43688B422CBF5B1AA1
:1013340000234360704738B5154642688A42044624
:101344000B4603D929448A4201D8436038BD8068DA
:10135400521A0144184419F08FFF6268521B6260EC
:10136400F4E7084611461FF0D7BC70B50546084699
:101374000E4619F0E1FF044620B102466B68286866
:1013840031469847204670BD2DE9F74F01919DF8ED
:10139400301091460D9A11F0DF0F0646A2EB0902B8
:1013A4003DD030290CA9244F0EBF4FF010080F4632
:1013B4004FF0010813F0800435D002EBD2746410AE
:1013C400151B002C36DDA246D045C346A8BFD34624
:1013D400736830685A463946AAEB0B0A9847BAF143
:1013E400000FF1DCB9F1000F05D073680199306882
:1013F4004A4698474C44002D0DDD2C44A845C1466F
:10140400A8BFA946736830684A463946A5EB090562
:101414009847002DF2DC204603B0BDE8F08F074F5B
:101424004FF01008C6E713F0010501D11446C8E7D0
:101434001546D7E70024D5E7683A0308573A030866
:101444002DE9F04389B007460020119D9DF848809E
:10145400139E8DF80F0002B3814219DA2D228DF804
:101464000F204942109A08ACA2F10A000DF1100EA7
:10147400B1FBF3FC03FB1C12092A8CBF1218303297
:1014840004F8012D74450FD08B420DD86146EFE767
:10149400A80727D52B228DF80F200029E2D130236D
:1014A4008DF81F300DF11F0415F040099DF80F3021
:1014B4001CD023B30122CDE900822B460DF10F018C
:1014C4003846FFF761FF013E814608AACDE9008650
:1014D4002B46121B21463846FFF756FF484409B0F5
:1014E400BDE8F0836A07D8D52022D4E7002BECD0DE
:1014F40004AA9442E9D904F8013C013CE5E7994681
:10150400E3E700002DE9F04F93B080461E46C8077C
:101514009DF874301C9D06930C469146DDE91E7AB5
:101524000BD4A10703D12268794B9A4205D02046F7
:1015340008F0C0FA400040F0010415F0810306D120
:10154400069A302A03D15745B8BF57469A462046D3
:101554000AF0A1FF00280DF1280B18DBAA0712D509
:101564002B238DF828300DF12903E806F6B21DD59A
:10157400B9F1020F0DD11A46302102F8021B711C79
:101584005970134612E06B0701D52023E9E75B4647
:10159400EBE7B9F1080F60D1A9054FF030021A70DA
:1015A40045BF06F10E025A7001330233002215F0D2
:1015B400200F1A70A3EB0B0305930EA90CBF13465F
:1015C4002C23BAF1010F0B91C8BF45F0400510213F
:1015D400CDE90C1215F040018DF827200791CDE9D3
:1015E400026344D0CDE9009223460DAA0CA90BA8AE
:1015F4000AF020FE03782D2B814606D18DF8273082
:101604000D9B013B00F101090D93BAF1010F3CDD83
:101614000D9C079B5445B8BF54462BB19DF8273009
:1016240003B10134059B1C44A7422BDD15F00103D3
:10163400A7EB040427D126461C4625F001054EB12C
:1016440020230093002301961A4632494046FFF7AF
:101654009BFE06463023069319E0B9F1100FA5D17D
:101664001A46302102F8021B06F1170188E70AAB7B
:10167400CDE900930DAA23460CA90BA80AF0DAFDC4
:101684008146C2E700240026D7E700242646079BAC
:10169400DBB19DF8273053B100230122CDE900329C
:1016A4000DF127014046FFF76FFE013F0644059BFD
:1016B4005BB100230122CDE900325946059A404628
:1016C400FFF762FE059B0644FF1A069B0093BAF1DE
:1016D400010FC8BF574601972B460D9A494640460D
:1016E400FFF752FE06444CB12023009300230194DB
:1016F4001A4608494046FFF747FE06440B980EABCE
:10170400984201D0FEF7BEFD304613B0BDE8F08F1D
:10171400785D030877A303082DE9F04316468BB0E0
:10172400B20780469946129F3CD416F0040F0CBFB2
:101734000023202300930A46139B202102A805F0CE
:10174400A1FDF30504460DD5431C1F2B0AD80AAA94
:101754001444252204F8202C0AAA1A44002102F871
:10176400201C1C4616F040051ED09DF808302F2B77
:101774004FF000031AD8012202A9CDE900324046F5
:10178400FFF702FE013F0546013C0DF10901CDE9D9
:101794000097334622464046FFF7F6FD28440BB037
:1017A400BDE8F0832B23C5E702A9F0E702A91D4693
:1017B400EDE700002DE9F04F824689B0144600267B
:1017C4000B461D4613F8012B0AB1252AF9D1A9426B
:1017D40008D26F1ADAF80430DAF800003A4698476B
:1017E4003E4429460B78002B00F0F8800131202379
:1017F4004FF000090A4612F8015B0DB90A271DE0F3
:101804002D2D03D149F001091146F3E72B2D02D107
:1018140049F00209F8E7202D02D149F00409F3E761
:10182400212D02D149F00809EEE7302D22D149F0EB
:1018340040092B46E8E707FB0525303D884611F8AB
:10184400012BA2F130000928F5D92E2A39D198F8B4
:1018540001202A2A10D04FF0000B0A27884611F8DD
:10186400012BA2F1300009280CD807FB0B2BABF19C
:10187400300BF3E70025C1E754F8042B08F1020804
:1018840022EAE27B98F800206C2A08BF08F10108DC
:1018940098F80070002F00F0A180642F7DD028D824
:1018A400502F2DD010D8A7F14502022A40F2838090
:1018B400DAF80430DAF8000001224146984701368C
:1018C40049E04FF0FF3BDDE7622F38D049D8582F6D
:1018D400EED17A1C27F00F070F3F02F00602FFB289
:1018E400CDE90235CDF804900097C2F1100300222F
:1018F4005BE0712F3FD00BD8672F5CD9702FD7D105
:10190400CDE9023561230093CDF804901023EEE76E
:10191400752FDED0782FDCD0732FC9D1BBF1FF3FF8
:1019240054F8047B05D13846059319F005FD059B51
:101934008346CDE900355A464B46394607E054F80C
:10194400042BCDE900354B4642B1264904225046CA
:10195400FFF71AFD064408F1010131E70522224987
:10196400F5E754F8042B8DF81C20CDE9003501224D
:101974004B4607A9EBE707A954F8040B0593FFF7B7
:1019840042FBBBF1FF3F059B08BFDDF81CB0CDE96E
:10199400003501464B465A46D9E7CDE90235612365
:1019A4000093CDF804900A23012254F8041B5046F6
:1019B400FFF746FDCEE7073424F00704F4E80201FC
:1019C40005932DF07FFDCDE9005B00EE100A059B29
:1019D4004A4639465046FFF79FFEBBE7304609B0FA
:1019E400BDE8F08F4C3A0308513A03080EB403B52E
:1019F40003AA52F8041B0192FFF7DCFE02B05DF863
:101A040004EB03B0704703781A060AD503F07F038A
:101A14004022134207D110F8012F02F0C00180299F
:101A240005D01846704723EA02035208F1E702F092
:101A34003F0242EA8313EEE7421C10460132037868
:101A440003F0C003802BF8D070470023814201D8F3
:101A54001846704711F8012D02F0C002802A18BF01
:101A64000133F3E701440346002099421A4600D8A3
:101A74007047127802F0C002802A03F1010318BFF4
:101A84000130F2E77F289DBF024B185CC0F3400091
:101A940000207047793A03087F289DBF024B185CE9
:101AA400C0F3C00000207047793A03087F289DBF27
:101AB400024B185CC0F3800000207047793A030899
:101AC4007F289DBF024B185CC0F380100020704734
:101AD400793A03087F2809D8064B1B5C13F00C0FD6
:101AE40006D1A0F15F035842584170470020704767
:101AF40001207047793A03087F289DBF024B185C88
:101B0400C0F3001000207047793A03087F289DBF76
:101B1400024B185CC0F3401000207047793A030868
:101B240008B50246FFF7E8FF00B12032104608BDB1
:101B340008B50246FFF7EAFF00B1203A104608BD97
:101B44003038092884BF20F020000738704710B5CA
:101B540001440246E5240020914203D8B0FA80F003
:101B6400400917E012F8013B30B103F0C003802BA9
:101B740011D10138C0B2EFE7BF2B09D9F72B09D82F
:101B8400DB0803F0060344FA03F303F00300E3E77E
:101B94001B06E1D510BD0020FCE7023981420B464B
:101BA40003D31A880239002AF8D002331B1A5810BA
:101BB400704770B51C09944215D2121B01EB440105
:101BC400154603F00F030E46012D31F8024B18BFE2
:101BD4003468DC40A4B2013D20F8024BF3D104B9CF
:101BE400013A104670BD0022FBE7F0B5059D0024C4
:101BF400521B2746A5420FD16D00441900230D4402
:101C04009A4214D104EB42031FB1012124F81210AB
:101C14000233181A4010F0BD31F8146033F814C0C0
:101C240066443E4420F81460370C0134E2E735F88A
:101C340013603E4424F81360370C0133E0E7F0B43A
:101C4400049E0025921B2C46AE420AD176008519CB
:101C540000230E449A420FD105EB4201F0BCFFF77A
:101C64009CBF31F815703C4433F81570E41B20F820
:101C7400154024140135E7E736F813100C4425F811
:101C8400134024140133E5E72DE9F043079CDDF804
:101C940028E0DDE908760239154684464FF6FF78D8
:101CA400A4EB020955B900EB42011FB1012320F84E
:101CB40012300231BDE8F043FFF76FBF31F8024F35
:101CC400013D4444264405EB0904AC4296BF33F875
:101CD400024B4FF6FF744444744486EA040E17FA28
:101CE4008EF72CF8027B4FEA144E360C3F0CD9E7E2
:101CF40038B502290446806838BF02210D4618B160
:101D04002368B1EB930F07D96900FEF7AEFA236895
:101D1400A06065F39F03236038BD38B505460C20E9
:101D2400FEF788FA2A78037862F300036FF341031D
:101D34000446037028682368C0F39D0060F39F0382
:101D440023606B6863604000FEF774FAA0602A6841
:101D5400A968C2F39D02520019F062FA204638BD08
:101D640010B54B0018441A4409B9084610BD30F8A0
:101D7400023D32F8024D1B1B002B02DB04D101395A
:101D8400F2E74FF0FF30F1E70120EFE710B504462A
:101D940038B18068FEF776FA2046BDE81040FEF7B9
:101DA40071BA10BD38B505460C460221FFF7A0FFF5
:101DB400002C2B78B4BF0122002262F300032B70A5
:101DC4004FF00003B8BF64426B6004B938BDD5E975
:101DD4000132581C686022F81340240CF5E70023F4
:101DE400C0E900338360704728B103789B0702D4AD
:101DF4008068FEF747BA704738B505460C4649680F
:101E0400FFF776FF22782B78A86862F300032B7023
:101E140063686B606268A1685200BDE8384019F0DD
:101E2400FFB9034609B959607047FFF7BBBF08B54E
:101E3400FFF7D5FFBDE80840FFF7F3BF30B40468EF
:101E440062F39F04046004F0FC0444F002040022E2
:101E54000470C0E9012130BC1946FFF7E2BFF8B5B0
:101E64009DF818700421064614461D46FFF740FFEE
:101E74008FB1002C75F100030DDA624265EB450366
:101E84000120317860F3000131700021716052EA61
:101E9400030104D1F8BD22462B460020F1E7D6E920
:101EA40001104C1C746020F81120110C41EA03410C
:101EB400180C0A460346EAE72DE9F04110EE106AD1
:101EC4000378F20F62F300030370C6F30F4313F4B5
:101ED400FF43074603D100237B60BDE8F081B3F5DF
:101EE400FF4FF8D0C6F3C753A3F17F04002CF2DBF5
:101EF40004D10121BDE8F041FFF754BFB3F16F08ED
:101F040048BFA3F16008C6F31606162C4FEA28183A
:101F140046F4000621DCC4F11704E64000242546FB
:101F240041463846FFF7E4FEC7F8048025B16A004D
:101F34000021B86819F0B8F944B1BB6806FA04F294
:101F440023F81520C4F11004E6400135A845C4D097
:101F5400BB6823F81560360CF7E7B3F1960504F176
:101F6400090448BFA3F1870504F00F042D11D7E736
:101F74002DE9F84304468F18C2F35B020D46511C49
:101F84009846089EFFF7B4FE2278002368F3000207
:101F94002270636029461FFA86FCB942084602D3C0
:101FA400401BBDE8F8830278A2F13003092B01F14C
:101FB400010105D9A2F14103192B14D8A2F1370369
:101FC400B342EDD2D4E901E0F0468146B8F1000F06
:101FD40010D100EB4E0213B120F81E300232121A57
:101FE40052106260D9E7A2F16103192BD8D8A2F18B
:101FF4005703E5E7B9F8002002FB0C3329F8023B4C
:1020040008F1FF381B0CE1E7F8B5044615461E46F7
:10201400C1B1531E1E444FF0FF37E9000F310909C7
:102024002046FFF765FE237800216FF30003237039
:1020340061604DB9D4E9011000EB4101FFF7ADFD3A
:102044006060F8BD0127E8E700230F2908DC327837
:102054008A401343013D9BB201F108013E44F4D18F
:102064006268501C6060A068103920F81230E0E704
:102074000A46416838B5044609B9506890B11378E6
:10208400257803F0010305F00100181A0AD15368FA
:10209400994208D30AD89268A068FFF761FEEB075B
:1020A40048BF404238BD4FF0FF30F8E70120F6E763
:1020B400884210B5044601D0FFF79EFE23786FF3E3
:1020C4000003237010BD884210B5044601D0FFF709
:1020D40093FE2378C3F30002C2F1010262F300030A
:1020E400237010BD88421FB5044601D0FFF784FE5B
:1020F400626862B901212046FFF7FAFDA268012354
:1021040013806360237843F00103237010E0237885
:10211400D9070FD56FF30003A16823700123ADF82D
:102124000E30009308460DF10E03FFF788FD606042
:1021340004B010BD511C2046FFF7DAFDD4E901219B
:102144000123ADF80E30009308460DF10E03FFF79E
:102154004CFD6060D6E72DE9F0470E464968054618
:10216400174601B12AB931462846BDE8F047FFF7C2
:1021740043BE02F10F0424092144FFF7B9FD70683E
:10218400A968B36817F00F0E04EB000707F10048C5
:1021940008F1FF384FEA480801EB080C08BF4FF07C
:1021A400100E03EB40090146E2460022CEF1100E68
:1021B40011BB6FF0010358430CEB000922FA0EF235
:1021C4002CF8002003FB049304F100420233013A8B
:1021D4001846520019F068F808F10208034643440F
:1021E40017B133F8022D8AB16F6032782B7862F31D
:1021F40000032B70BDE8F08739F8023D1A4322FA38
:102204000EF32AF8023912040139D1E7013FE7E756
:10221400F0B50E46496885B00546144601B12AB9A1
:1022240031462846FFF7E8FD05B0F0BDFFF760FD35
:10223400D6E901212346A868FFF7BBFC6860317822
:102244002B7861F300032B70DB070246ECD50023E7
:102254007768ADF80E3021099F4201D08B420FD12F
:102264008F42E1D9B36804F00F0433F8111001234D
:1022740003FA04F4013C214213D0ADF80E3008E017
:10228400B06830F8130050B101238F42ADF80E301E
:10229400E8D8A96801234AB90B806B60C4E701330D
:1022A400DAE7BDF80E30002BBED0F2E70093084603
:1022B4000DF10E03FFF799FC6860B5E773B5536839
:1022C4000C46496899420646154606D308D89268D2
:1022D400A068FFF745FD002802DA23462C461D4678
:1022E40023782A7861685340DB0713D401313046E0
:1022F400FFF7FEFC6B680093AB68B068D4E901217A
:10230400FFF773FC70602278337862F30003337054
:1023140002B070BD3046FFF7EBFC6B680093AB680E
:10232400B068D4E90121FFF78AFCEBE7F7B55368FD
:102334000C46496899420646154606D328D8926841
:10234400A068FFF70DFD002822DA234601272C465A
:102354001D4623782A7861685340DB071AD501317A
:102364003046FFF7C5FC6B680093AB68B068D4E9EE
:102374000121FFF73AFC7060237803F001030FB1E9
:1023840083F00103327863F30002327003B0F0BDCE
:102394000027DEE73046FFF7ABFC6B680093AB68C1
:1023A400B068D4E90121FFF74AFCE4E72DE9F04FD6
:1023B40015464A686B689A420E463EBF2E460B4647
:1023C4001D4633787168DB0785B0044621D42B7829
:1023D40013F001071DD1FFF78BFCD5E9011CA068A0
:1023E400B6683B4699420BD100EB4101FFF7D5FBA0
:1023F400237860606FF30003237005B0BDE8F08FAD
:1024040036F813203CF813502A4020F813200133E7
:10241400E8E701312046FFF76BFC32782F78AB6890
:10242400009382EA0703DB4303F00103C3F1000CCA
:1024340002F001021FFA8CF1C2F1000C02911FFAA2
:102444008CF10191B168D6F804E0A068A1F1020A08
:10245400696807F00107C7F10008A1EB0E011FFA34
:1024640088F8F44681460391BCF1000F15D100EBC6
:102474004E011BB1012320F81E300231FFF78DFB02
:10248400606033782A78C3F30003C2F30002134078
:10249400227863F300022270AFE73AF802BF019991
:1024A40081EA0B0B03990CF1FF3C5A4401EB0C0B32
:1024B400E3459FBF009931F802BB009188EA0B0BFA
:1024C40088BFC3465F44029902EA070B8BEA010BFB
:1024D40013FA8BF329F8023B3F0C120C1B0CC3E7D5
:1024E4002DE9F84F16464A6873689A420D463EBF76
:1024F40035460B461E462B786968DB0704462ED406
:10250400327812F001082AD1FFF7F2FBD6E9013C38
:10251400A9686D68A768ED1A4246934210D15B0022
:10252400194400223B44954213D103EB4503DB1BC2
:102534005B10636023786FF300032370BDE8F88FAA
:1025440031F812003CF81260304327F812000132CF
:10255400E3E731F8120023F812000132E3E7013116
:102564002046FFF7C5FBD6E901232F783678696842
:10257400A068AD6807F0010706F00106C7F100087E
:10258400C6F1000CA5F1020E1FFA88F81FFA8CFCA4
:102594000D4682464FF00109A2EB010B45B900EB51
:1025A4004101FFF7FAFA2378606043F00103C4E7BE
:1025B4003EF8022F013D88EA020217440BEB0502A4
:1025C400AA4296BF33F8022B62468CEA02021644F2
:1025D40047EA0602D24319FA82F22AF8022B360C91
:1025E4003F0C4FEA1249D9E7F0B516464A687368BA
:1025F4009A4238BF0B460C463CBF34461E462778E9
:10260400337861685F4017F0010785B005463AD119
:10261400FFF76EFB237813F0010328D1D6E90117E5
:10262400A2686468A868641A994210D149000A44EF
:1026340000230144A34214D101EB4301FFF7ADFA97
:102644002B7868606FF300032B7005B0F0BD32F88F
:10265400136037F813C086EA0C0620F813600133C0
:10266400E2E732F8136021F813600133E2E7CDE9C1
:102674000277019773680093B368A868D4E90121CD
:10268400FFF702FBDCE70131FFF732FB3378A86880
:10269400DB4303F0010303932378DB4303F00103DB
:1026A40002930123019373680093B368D4E9012171
:1026B400FFF7EAFA2B78686043F00103C4E72DE9D9
:1026C400F04F4B6885B004460E4615460BB153686F
:1026D40023B90023636005B0BDE8F08F814234D193
:1026E400FFF71BFBA5420646074600D105466B686B
:1026F400716820461944FFF7FBFA2268A068C2F308
:102704009D025200002118F0CFFDB368A168019327
:10271400AB68D6F804A002936B68039300228B1E67
:10272400009301EB4A0C13460398904239D163603D
:102734002A78337853402278384663F300022270B3
:1027440005B0BDE8F04FFFF721BB824204D1FFF78B
:10275400E4FA05460746CAE70027C8E738F8029FA7
:102764000298994430F812003BF8023B00FB0393B3
:10277400A8F800300EF1FF3E1B0CBEF1000FEDD1A6
:10278400E6460CF1020813B1ACF80030C6460098D6
:10279400AEEB010E02304FEA6E030132C4460090E4
:1027A400C2E7DDE9008BD6460023E6E74B6870B547
:1027B4000646144613B11378DA0702D50023736072
:1027C40070BD636823B90121BDE87040FFF7EABA20
:1027D4000846FFF7A2FA05462046FFF79EFA0121B4
:1027E40004463046FFF7DEFA636883B1A3681B88AA
:1027F400DB0704D52A4631463046FFF760FFD4E9AB
:10280400012101230846FFF7D4F9606038B928464E
:10281400FFF7BCFA2046BDE87040FFF7B7BA2A4676
:1028240029462846FFF74BFFDEE72DE9F04F0C461B
:1028340051688FB09146013105460293FFF758FA6B
:10284400D9F80420A86801325200002118F02CFDA8
:1028540000236B60D9F8041020460131FFF748FAD1
:1028640049462046FFF7C8FA029B67685B680193F4
:10287400BB4232D8029BD4F808B09E68AB6803937D
:102884002DD3324639465846FFF76AFA002823D139
:10289400039A6060012313806B60029A99F80030F8
:1028A40012785340DB0714D52B7843F001032B70C7
:1028B400636873B14FF0FF310BA8FFF7B8FA0BAAA6
:1028C40029462846FFF7FAFC029A21462046FFF7DC
:1028D400F5FC0FB0BDE8F08F01DA0023DCE7019BC3
:1028E40003F1004001384FEA400A36F81020002373
:1028F40012F4004F03F1010152D07A009BB24FF061
:10290400000E791C02F102080592C3F110022BF8A3
:1029140017E0D8446160DC4677460492C44543D34B
:1029240036F8100000FA03F20492019A012A09D938
:1029340006EB0A00C3F1100730F8020CF840049FBC
:10294400074304970198059A091A6960039801F1ED
:102954000041013900EB410105910AF1020109919D
:10296400B11E5A440891D4F804A00199514527D3C3
:102974000AF1004A0AF1FF3A0BEB4A0A0020C3F1BC
:102984001006D3457BD96FF000416B682BB15A1800
:10299400039830F81220002A7BD06FF000417DE0CC
:1029A400520092B20B46A3E7BCF800E00EFA03F221
:1029B4001743049A2CF8027B2EFA02F7BFB2ADE754
:1029C400118832F8027C47EA01470499B7FBF1F712
:1029D4000999511A069108990791DDF818C0002148
:1029E4008E4662450CD81088091A002941D10599F0
:1029F40021F8027905910AF1FF31023A6160B2E7E8
:102A0400079EBCF8008036F8020F0796984040EA0B
:102A14001E4E1FFA8EF07843404503D2A8EB000601
:102A24008E420FD80144A1EB08081FFA88F1003147
:102A3400C8F1000618BF0121B6B201EB18412CF809
:102A4400026BCEE7761AB6B20021F8E738F802CF67
:102A54000CFA03FC4CEA1E4EB6F800C010FA8EF0D5
:102A6400604426F8020B000CB242EFD8091A013F69
:102A7400BBE70020DDF82080069E8646F4E7BAF81E
:102A8400002042FA03F10143B2402AF8021990B23D
:102A940077E7013B6B6078E7013B63606368002B79
:102AA4003FF4FBAE5A183BF81220002AF4D0F4E6A7
:102AB400F0B51F464B6885B006460C4615464BB12B
:102AC4001378DA0706D47B68012B07D1BB681B880F
:102AD400012B03D10023736005B0F0BD0121304602
:102AE400FFF760F96B68002BF6D02046FFF715F965
:102AF40004462846FFF711F9054601A8FFF76FF9C8
:102B04006B68B3B1AB681B88DB070AD52246314634
:102B14003046FFF7D4FD3B463246314601A8FFF765
:102B240084FED5E9012101230846FFF742F86860D5
:102B340048B901A8FFF758F92046FFF727F92846B6
:102B4400FFF724F9C8E7224621462046FFF7B7FDE0
:102B54003B462246214601A8FFF767FED0E710B5A1
:102B6400D0E90121002301EB4202914205D302780E
:102B7400D20748BF5B42184610BD32F8024D44EA02
:102B84000343F2E730B5D0E90124002304EB420209
:102B9400944206D30278D20748BF5B420B600120FF
:102BA40030BDB3F5004F04D232F8025D45EA034369
:102BB400EEE70020F4E72DE9F043884661B19F1861
:102BC400D0E901140025A4F1020E4FF00109AC462E
:102BD4001A4419B9BDE8F0831F46F1E73EF8024FE5
:102BE4000CF1100C44EA0545BCF1070F01DC013976
:102BF400EFE70678ACB2F60741BFE44359FA84F430
:102C0400A4B24FEA1429E4B2B8F1000F09D07E1E31
:102C140007F8014CB342DDD0ACF1080C2D0A37465D
:102C2400E2E73E4606F8014B9642F4E7D0E901326A
:102C34009FED0C0A9FED0C7A02EB43039A4205D3F5
:102C44000378DB0748BFB1EE400A704733F8021D32
:102C540007EE901AF8EEE77AE0EE077AB0EE670A2C
:102C6400ECE700BF00000000000080472DE9F84FAA
:102C740044689DF828A00B9D8046894616469B46CD
:102C84009CB982B1561E2B4616F8012F18463AB944
:102C940030230370002300F8013F401BBDE8F88F88
:102CA40003F8012BF0E72846F2E764002046FDF71D
:102CB400C1FA22460746D8F8081018F0B1FAABF169
:102CC4003A0B28462A4607EB040CACF10203002118
:102CD4009F421C4633D930313929144688BF5944A0
:102CE40004F8011B3B469C45194632D8BAF1000F43
:102CF40008D00123211A032902BF941C82F801A0E1
:102D04002046D3B13846FDF7BDFA3EB1304618F03F
:102D140013FB23463044B0421C4623D898F80030B5
:102D2400DB0744BF2D2304F8013B2B46621E9A4265
:102D34001DD800232370601BB0E72246C5E7248812
:102D440044EA0141B1FBF9F423F8024909FB1411E7
:102D5400BEE7098802330029C5D0BAF1000FECD0D0
:102D64000023C7E710F8012D03F8012BD3E71978E6
:102D7400107803F8010B02F80119D8E7D0E9023200
:102D840093423DBF5A1C826018784FF0FF30704761
:102D9400036810B5044613B14068FDF773FA204682
:102DA400BDE81040FDF76EBAF8B5054610200C4694
:102DB4001F461646FDF73EFA054B8460C0E90074D1
:102DC4003444C4606B60034B2860AB60F8BD00BF43
:102DD400812D0008952D00080369272B1DD0222B77
:102DE4001BD0752B03D023F01002622A10D1426944
:102DF400272A12D0222A10D0722B09D1622A0ED18E
:102E04008069272809D0A0F122035842584170470D
:102E1400622B04D14369722BF1E701207047002033
:102E2400704702690A2A10B5044622D1C3690133E6
:102E3400C3610123236263692361A3696361D4E9E4
:102E4400010398476369A0610D2B07D10A239842B7
:102E5400636103D1D4E901039847A061A3690133F5
:102E640006D163695A1C03D00A2B1CBF0A23A36131
:102E740010BD036A092A04BF073323F00703013393
:102E8400D8E770B504460E4600252069431C01D1DD
:102E9400284670BD0A2808D116B1A36A002BF7D0C2
:102EA4002046FFF7BEFF0125EFE7FEF7EBFD18B163
:102EB4002046FFF7B6FFE8E72369232B08D1204615
:102EC400FFF7AFFF23695A1CDFD00A2BF7D1DCE7E9
:102ED4005C2BDDD163690A2BDAD12046FFF7A1FF11
:102EE400E6E700002DE9F74F044600218164FFF76F
:102EF400C8FFE369A363636A256AE563002B04DA08
:102F0400062284F84020013304E007D0052284F827
:102F14004020013B636203B0BDE8F08F90B3A36A25
:102F240083BBD4E90C20042384F840306FF00043C1
:102F3400D118013D30F811108D42ECD017D9E16A57
:102F44008A4207D308314900FDF78FF9E36A6063C9
:102F54000833E362D4E90C32591C216322F813507C
:102F6400636AD0E7013A2263626A013A6262226BC1
:102F7400D11830F811108D42F4D3CCD0022384F848
:102F84004030C8E72169481C01D10023F7E72046F7
:102F9400FFF722FF8146002800F03C81002384F8DB
:102FA40040302369752B5BD0622B4ED16369722B41
:102FB4000DBF4F460027012502250B2394F840201E
:102FC400002A55D184F840303DB12046FFF729FF4F
:102FD400022D02D12046FFF724FF23692046222B2D
:102FE40014BF4FF027084FF02208FFF71AFF236998
:102FF400434540D1636998453DD12046FFF711FF11
:103004002046FFF70EFF03264FF0000A04F14405A3
:10301400D4F810B0BBF1FF3F00F0F680012E03D1CD
:10302400BBF10A0F00F0F080B24526D3514604F1FB
:103034004400FEF779F901212046FFF722FF2046DC
:10304400FFF7CAFE0028ACD165E7722B0CD1636987
:10305400622B4F4615BF012502250A230B23ADE73A
:1030640001250A230027A9E700250A232F46A5E7FF
:103074009A42A9D04FE70126C6E7D84509D141466F
:1030840028460AF1010AFEF7FAF82046FFF7C9FEBE
:10309400BEE7BBF15C0F40F0AC802046FFF7C1FEF9
:1030A400D4F810A02FB15C212846FEF7E8F8D346E7
:1030B40065E0BAF1620F00F0858027D8BAF14E0FAF
:1030C4006ED010D8BAF1220F1ED0BAF1270F1BD040
:1030D400BAF10A0F61D0AAF1300BBBF1070FE2D8A5
:1030E4004FF0030A66E0BAF15C0F0DD0BAF1610F3C
:1030F4006BD0BAF1550FEED194F840200B2A1FD1B2
:103104005C212846FEF7BBF8D3463EE0BAF1740FC3
:103114005ED00BD8BAF16E0F5DD0BAF1720F5DD0EC
:10312400BAF1660FD7D14FF00C0B2EE0BAF1760F3F
:1031340057D0E1D3BAF1780FCDD14FF0020A06E0AF
:10314400BAF1750F0CBF4FF0040A4FF0080A4FF0A4
:10315400000B11E02046FFF764FE2269019210463D
:10316400FEF7AEFC002800F06281019A1046FEF7DB
:10317400E7FC4FEA0B1B83441AF1FF3AEAD2BBF196
:10318400FF3F0AD0AD4B9B4539D894F840300A2B09
:103194002AD159462846FEF772F84FF0000A74E720
:1031A400A74805F0A7FF2046FFF73BFE2269303A07
:1031B40002EBCB0B6269303A072AE0D8BAF1010A74
:1031C400F1D1DCE74FF0080BDFE74FF0070BDCE74A
:1031D4004FF0090BD9E74FF00A0BD6E74FF00D0B70
:1031E400D3E74FF00B0BD0E7BBF1FF0F07D80B2B46
:1031F40005D15FFA8BF12846FEF73AF8CDE74FF098
:10320400010384F84030C8E7B2453CBF032284F888
:1032140040200BE70846FEF73FFC054620691DB930
:103224005F2801D07F283ED9072384F8403004F179
:103234004405C1B22846FEF71BF82046FFF7F1FD0E
:103244002069421C1BD12846FEF703F87D4E074631
:10325400002556F8041B384618F07CF800281CD1C9
:103264000D35EDB2102D84F840507FF454AE764BFA
:10327400D3F8E031002B0CBF0F230D237FE6FEF7BC
:103284000BFC40B920695F2805D07F2803D8FEF7DE
:103294000DFC0028D7D0217CCCE7FFF63CAE0135ED
:1032A400242DD6D137E6FEF701FC68B321692E2917
:1032B40035D1092384F8403004F144063046FDF743
:1032C400DEFF2046FFF7ADFD09272069431C3FF4CC
:1032D40022AE002D35D120F02003452B31D16521BC
:1032E400304684F84070FDF7CAFF2046FFF799FD89
:1032F40021692B2901D02D29E7D13046FDF7BFFFE5
:103304002046FFF78EFDE0E723692E2B04D1606988
:10331400FEF7CCFB0028C9D100264C4D31E0082330
:10332400302984F84030C7D1656945F02005A5F1FE
:103334006203162B9DBF464DDD4005F001050025B7
:10334400BAE7FEF7A9FB28B121692E290DD184F82B
:103354004070D2E72069FEF7A9FB0028F4D1236965
:103364002E2BF1D05F2BCBD0D5E521F020034A2BB7
:10337400C3D1ECE7652F01D0632F00D101350136AD
:1033840001352F7817B12369BB42F3D12046FFF7EB
:1033940048FD0FB90123F2E5212F07D123693D2B05
:1033A400F8D12046FFF73DFD3723E8E52E2F0FD156
:1033B40023692E2B02D163692E2B01D05A23DEE51B
:1033C4002046FFF72EFD2046FFF72BFD0C23D6E504
:1033D4000335334615F8027C632F0FD0652F0DD0CB
:1033E4001C4AD35C84F8403003F0FB02522A01D01B
:1033F400542B14D1A36A0133A3628CE515F8012C74
:103404002169914206F1010607D12046FFF709FD23
:103414003346652FE4D00235DCE7632FFAE7532AFD
:1034240002D0552B7FF477ADA36A013BE4E74FF05C
:10343400010384F840308346A7E600BFFFFF100075
:103444003C3B0308043C0308682B0020F93A0308BA
:1034540001204000D83B03087FB5064601AD542047
:1034640085E80E00FCF7E6FE0446034695E80700EF
:1034740043F8046B83E8070001236FF00102C4E9F9
:10348400073200250A22C4E90B23C4E90955142094
:10349400FCF7D0FE2021606304F14400FDF763FED5
:1034A400636B20461D80C4E905552561FFF7B9FC0F
:1034B4002046FFF7B6FC2046FFF7B3FC2046FFF793
:1034C40011FDE36B012B18BF0523204618BF84F8B8
:1034D400403004B070BD30B585B001AC054620461F
:1034E400FFF762FC94E80E002846FFF7B5FF05B02D
:1034F40030BD30B585B001AC01460546204617F015
:10350400ADF82846FDF766FD94E80E00FFF7A4FF2A
:1035140005B030BD10B5044670B1C3684068984723
:1035240004F14400FDF74CFE606BFCF7ABFE204653
:10353400BDE81040FCF7A6BE10BDD0E90432013B43
:10354400036152F823007047C1F17F5101F57F11E7
:10355400036901F57F513F311944436953F8210050
:103564007047F8B5446A06460D46B4B1D4E9000381
:103574000B44834222D90831002201442046FCF73F
:103584007FFE0246B8B9616820460831FCF778FE30
:1035940063682360336A63603462802D2F4638BFCA
:1035A400802707F10800FCF745FE0023076043600D
:1035B4000446706202E023682B442360606805447B
:1035C400656008342044F8BD38B50D46D0E90313CE
:1035D4008B42044608D3103189004069FCF745FE4C
:1035E400E36860611033E360D4E90432591C21615B
:1035F40042F8235038BDF8B50D461F46D0E90013F4
:103604008B420446164608D31031C9008068FCF783
:103614002CFE2168A06010312160D4E901104B1CFC
:10362400636050F8312065F3170200EBC10340F8E2
:103634003120DE705F60F8BD10B48469CAB2002323
:10364400A16B5DF8044BFFF7D6BF0000F7B58669A0
:103654000F4696F84010072905461FD1D6E91210E7
:10366400FDF72AFC8E2F04460ED18100002241F082
:10367400020105F1280005F017FF28B14468E307AB
:1036840020D544F0010002E0200140F00200014690
:10369400284603B0BDE8F040FFF796BF082907D1DC
:1036A40033460022D6E9121004F058F80446E6E73F
:1036B400092912D1009600230122D6E9121004F040
:1036C400CBF804460C212846B66BFFF74AFF40F2BC
:1036D40039130660C0E90134D9E7A1F10A03012BCB
:1036E4001CD8D6E912100A290BD8FDF7E5FB96F889
:1036F400403048B10A2B0CBF06210A2141EA0010D0
:10370400C5E7FDF7A9FBF2E7064C0748D6E9122105
:103714000A2B08BF20460AF0AFFFD2E7090141F0A7
:103724000E00B4E77C6D0308A06A0308DE2807D006
:1037340010F0010306D043080CBF0120002070479D
:103744000120704718467047FE2807D010F0010387
:1037540006D0430814BF01200020704701207047A1
:103764001846704710F0010204D040F001000860D0
:1037740001207047A8B110F003030FD10279392A50
:103784000ED183680B6013F001000AD19A0708D1A7
:103794001868044BC31A5842584170471046704782
:1037A40018467047785D03082DE9F04F2C2A85B040
:1037B4000446884616461D460BD10021FFF7C4FE79
:1037C40080B3810702D10379902B2BD005B0BDE8DB
:1037D400F08FA2F11D03012B53D82F462A460AE08D
:1037E4001D2E41D1FFF7B0FFB0B90846FFF79EFF89
:1037F400002808BF4A4602F1FF396FB1013F39463C
:103804002046FFF7A1FE2369A3EB020C636901467E
:1038140043F82C00002FE3D1002149452CD16D1A27
:10382400012DD3D0A6F12203022B55D8691E2046C0
:10383400FFF78AFE01A9FFF795FF00287BD0222E0F
:1038440037D0232E0CBF4FF017094FF01809AF1EC5
:10385400002F31DA002D40F05981019EF30740F129
:103864005A8146F001011EE0FFF760FF0028D3D122
:103874000846FFF769FFBBE72046FFF75EFE01310C
:10388400CBE71F2ACED10021FFF75EFE0246FFF7E9
:103894004DFF60B91046FFF757FF0028C2D0DE2164
:1038A4002046FFF74AFE2046FFF78EFE8EE7FE21F4
:1038B400F6E74FF01609CAE739462046FFF744FEFB
:1038C40002A9FFF74FFFB0B3DDE90112484605F046
:1038D40047FA013F0190BBE7A6F12503022B4DD81F
:1038E400691E2046FFF730FE01A9FFF73BFF10B326
:1038F400A5F10209B9F1000FACDD09F1FF31204651
:10390400FFF722FE02A9FFF72DFFA0B1494620468A
:10391400FFF71AFEC0F3071000F0FD03402B0AD096
:10392400442808D02238C7B2029808F0B4FD1A2FF0
:1039340017D8002819DAA91C89002046FFF711FEC0
:1039440046EA052646600146C0F8008000F10806F4
:10395400002DA8D02046FFF7F0FD013D46F82500D4
:10396400F6E71E2F01D90028E5D0DDE9011238461B
:1039740005F0F6F9A9F102090190BBE7282E18D148
:1039840000212046FFF7E0FD01A9FFF7EBFE002828
:10399400D1D001212046FFF7D7FDC0F3071031280D
:1039A4001ABF3D38C0B20220019904F0ABFB01906C
:1039B40050E7052E68D100212046FFF7C5FD0746D4
:1039C4000028B8D010F0030A04D1436803F0FE03C2
:1039D400562BB0D001212046FFF7B6FD00F00F03AF
:1039E400022BA8D1BAF1000FA5D13B792B2BA2D180
:1039F400BB6803F00F02022A9DD11B09482B9AD100
:103A0400FB68002B97D09A0795D11A792F2A92D167
:103A1400D3F808B04FEA101902A95846FFF7A2FEDE
:103A240068B94249424807F0BFFCA1693A6809688D
:103A34000546534607F080FD2846FCF7D5FB4FEAC0
:103A44008901012241F0020104F1280005F02CFD56
:103A5400029B43604846FDF7D1FA03785F2B20466A
:103A64000BD1FFF76AFD2046FFF767FD002308220C
:103A740019462046FFF798FEA8E6FFF75EFD594673
:103A84002046FFF7A1FD56E72B2E7FF454AF01210A
:103A94002046FFF759FD00F00F03022B07467FF481
:103AA4004AAF00212046FFF74FFD00283FF443AF03
:103AB40010F003027FF43FAF0379312B7FF43BAF67
:103AC40039098900D0F808901A4841F0020105F03C
:103AD400EBFC00283FF42FAF02AA4FEA191140680B
:103AE40004F042FC029B002B3FF425AFD90707D416
:103AF4009A077FF420AF19680F4A91427FF41BAFF5
:103B0400039A002A7FF417AF0193A3E62046FFF738
:103B140014FD013D9EE60C212046FFF722FD40F2F4
:103B2400391301460560C0E90136BCE6173D0308B8
:103B3400D8570308943C0308785D0308036830B53C
:103B440013B91360184630BD9C0702D010600120E1
:103B5400F9E75C68E5B28D42F8D108331360200AB6
:103B6400F1E700002DE9F04F93B0002440230290C8
:103B74004FF400700F460192CDE90534FCF75AFB6F
:103B8400202307908020CDE90834FCF753FB21461D
:103B9400CDE90A070FA8CDE90D4405F04BFC019BC4
:103BA400002B4CD0022B0CBF3C2222460023B96BC5
:103BB400DFF8CCB205A8FFF71EFD4FF00008069C05
:103BC400002C00F05F81013C079BA84D069403EB99
:103BD400C40253F83430D6785268C3F3170AA44B9E
:103BE4009B5D0093A34B9B5D642E88BF43F480735D
:103BF40005EB4305009B03F00F0903F03003102B82
:103C04001FD0202B51D0B8F1000F00F00481B9F17E
:103C1400020F40F0F380012A18D000210098C00759
:103C240002F1FF3306D568880BEA0000B0F5805F27
:103C340008BF5308012B40F0DF8069B1DCE03A2271
:103C4400B4E732B905EB4205914508D84FF00108B5
:103C5400B5E7B8F1000FF5D14FF00008AFE7A8467B
:103C640035F8023B03EA0B01B1F5805F0DD197F8FB
:103C74004010C3F30B03994215D105A83146FFF751
:103C8400E5FC3846FFF72EF9E6E7531C4B4504D212
:103C94003246514605A8FFF7AEFCB8F8001005A857
:103CA400FFF7CAFCD8E70132CEE7B8F1000F0FD016
:103CB40002F10043013B35F813300BEA0303B3F57B
:103CC400405F1BD1002105A80392FFF77DFC039AF6
:103CD40005EB4204914525D8019B0BB1052E43D039
:103CE400002405EB490922464D455BD1012A7AD1CE
:103CF400009B5B0677D5002529466EE0012AA5D9ED
:103D040097F84030052B40F0EC805B495B4807F0A6
:103D14004BFB00230446BA6B396807F00DFC2046C0
:103D2400FCF762FAA04634F8023B03EA0B01B1F552
:103D3400805F17D197F84010DBB299420ED1072962
:103D440005D1314605A80392FFF780FC039A03923C
:103D54003846FFF7C7F8039A0132BBE7002A3FF45D
:103D640075AFCDE7531C93E7002105A8FFF7ECFBE3
:103D74000028B5D1012105A8FFF7E6FB820700F072
:103D8400B78000F00F000228AAD005A8FFF7D5FBE2
:103D940005A8FFF7D2FB00230822514605A8FFF728
:103DA40003FD59E739F8023D03EA0B01B1F5805FE1
:103DB40005D1DBB2072B97D10134013294E72146B8
:103DC40005A8FFF7C1FB00B1013201348CE7FFF70E
:103DD400B4FB0135002818BF0146A54205A8F6D159
:103DE400FFF7F2FB38E7009B1D0604D5002105A868
:103DF400FFF7EAFB013423463246CEE7012A3FF4BB
:103E040025AF12F001013FF409AFB9F1030F7FF4BC
:103E140077AF012102E709EA020303F0010335F851
:103E2400134004EA0B01B1F5805F13D197F84010F9
:103E3400C4F30B04A14202F1010409D11BB93146B8
:103E440005A8FFF703FC3846FFF74CF82246E2E7E3
:103E54002246DCE6531C514605A83246FFF7CBFB4D
:103E6400214605A8FFF7E8FBA9E600BFE23D0308E9
:103E7400333D030860410308C83C0308CC540308DD
:103E840000F0FFFF0FA805F0EEFA0E9850B141685C
:103E940022460831FCF7F4F90E9B5A681A600D9A11
:103EA4005A600D9397F84030002B7FF429AF099B9B
:103EB400002B3FF425AF0A9B07981B680C93FCF773
:103EC400E1F90A98FCF7DEF93846FFF723FB0CAB5F
:103ED40093E80300029B83E80300184613B0BDE88F
:103EE400F08F022B01D1064910E7064906480EE778
:103EF40000283FF4F5AE0379392B3FF446AFEFE6E3
:103F0400DA3C0308083D0308D857030810B5406895
:103F140000B910BD4468FCF7B5F92046F8E7000085
:103F24002DE9F041054630200E4690461F46FCF729
:103F34009AF9072D04460570C660A0F8148001D0D4
:103F4400012D10D1B368C3F30F13E38203F0CEFD48
:103F540004232061678323852020FCF76BF9E0624A
:103F64002046BDE8F081014B5B5DEEE70F4203089C
:103F740010B50446C06AFCF785F92046BDE8104038
:103F8400FCF780B930B5448D0022944202D8002356
:103F9400184630BDC36A03EBC2035D688D42F7D097
:103FA4000132F2E770B504460D461646FFF7EAFF04
:103FB400C0B9218D638D8B4208D30631C900E06AF4
:103FC400FCF753F9238DE06206332385638DE26A9F
:103FD400591C02EBC300618502F83360002343706F
:103FE4004380456070BD43680BB9FFF7CBBF1846EB
:103FF400F9E7F8B544680F462CB9F8BD032BFCD19A
:1040040004230370F9E723465D68002DF5D07E682C
:1040140018463146FFF7B6FF2B460028F4D0037844
:10402400033B022BE9D805233B701D460022314691
:104034002046FFF7B7FF0378002BDFD105706468D3
:10404400F4E72DE9F04180461F4659B111F003050C
:1040540010D14E68F3B293420CD1360A01F1080430
:10406400B54201DBBDE8F08154F8041B4046B84773
:104074000135F5E740463B46BDE8F04118470000EE
:10408400024B89689B22FFF7DCBF00BF0D4C000880
:10409400024B89686A22FFF7D4BF00BF216600087B
:1040A40010B50446084611462268FFF739FF636AD3
:1040B400436000238360236A13B9206210BD134652
:1040C4009A68002AFBD19860F8E78968806A002220
:1040D400090902F06DBF8968806A02F03FBF2DE9CB
:1040E400F74F06460C4691469A461BB10B8B43F09C
:1040F40008030B83736AA4F820901B78002B3DD12E
:10410400B06A53464A46214603B0BDE8F04F03F077
:104114005AB8DB6A03EBC50B13F83530043B012BAB
:1041240019D8002714E0E36A03EBC70213F8373009
:10413400052B0CD1DBF804105368994207D10023F6
:10414400BBF80220B06A02F0B0FD08F101080137A3
:10415400638DBB42E7DC0135736A5A8DAA42D8DC11
:10416400B8F1000FCCD0CDF800A04B464246214612
:10417400B06A03F034F803B0BDE8F08F0025A84618
:10418400EAE70000F8B504460F4611461A46002334
:1041940085794669837143610D4BFFF752FFA3682C
:1041A400A3B9E18A39B1A28A2AB9A06A02F0D7FF79
:1041B400A06A02F0D5FEA38AE28A39462046FFF7B8
:1041C4008EFF003518BF0125A5716661F8BD00BFDB
:1041D400E952000870B54379012B05460C4606D117
:1041E400436A0A465B8B0221FFF75AFF2061A268EB
:1041F400216928464B23BDE87040FFF7C3BF70B563
:1042040013464279012A06460C4604D10A46072180
:10421400FFF746FFA061A569E268304643232946BB
:10422400FFF7B0FFE88A70BD10B50446806A02F05B
:1042340038FFA38B626A0133D18C9BB29942A3836A
:1042440038BFD38410BD838B013B8383806A02F023
:1042540047BF31B1026801F00303134304BF0B6885
:104264000360704738B5836804460D465BB9114650
:10427400054807F099F82946A06004F10C00BDE850
:104284003840FFF7E6BF38BDD8570308014AFFF7A7
:10429400E9BF00BFF344030838B50B79092B0CBF01
:1042A400058B458B4FF6FF739D42044602D1064AA7
:1042B400FFF7D8FFA28BE38BA06AD21A2946BDE888
:1042C400384002F0BEBE00BFD042030870B50646B7
:1042D400406A048B0D46A10706D5214A294630467B
:1042E400BDE87040FFF7BEBF05F00F01022912D1EF
:1042F4002909B3791BB1C38B0133C38302E0838BD8
:1043040001338383012451B30022FFF74BFE03786A
:1043140013B3144AE2E72979914202D1A968090941
:10432400E7E7994211D1B379002BD6D10123B371B8
:10433400A968A1B101F00F03022B18BF896844F0EA
:104344000404048309090324DDE7A96844F0020492
:10435400048309090524D6E703230370447070BD60
:10436400083D0308DE4403084E234D22FFF7AEBF89
:1043740046234522FFF7AABF10B504460021006872
:1043840002F0B3FE20680E2102F090FD20680121A6
:10439400BDE8104002F061BF10B504460022806AF7
:1043A40002F0E2FD002354F8280F1A46194602F0E1
:1043B40038FF2046BDE81040FFF7DEBF10B4427955
:1043C400446A012A0B4604D120465DF8044BFFF7EA
:1043D400E9BD22460249806A5DF8044B02F080BAC6
:1043E400DC45030810B44479426A012C0B4604D11D
:1043F40010465DF8044B02F065BA0349806A5DF823
:10440400044B02F06DBA00BFE4450308436A10B5DB
:104414005A8B0446FFF7F3FE01462046BDE81040E0
:10442400FFF7E0BF10B44479426A012C0B4604D173
:1044340010465DF8044B02F045BA0349806A5DF802
:10444400044B02F04DBA00BFD445030837B5054606
:104454000C4629B1CA0705D54910806A02F034FD1B
:1044640003B030BD8B072CD001F00F04062C4FEAAB
:10447400111307D00A2C0AD0022C1BD11946FFF7BE
:104484009DFFEDE71946806A02F063FDE8E7427993
:10449400042A04D01149806A02F060FDE0E701A912
:1044A4001846FCF7B0FD0199AC6A0AF06FFB0146AF
:1044B4002046F1E7042BD3D0D9B2806A02F0F6FC8F
:1044C400CEE70968806A02F079FC2279044B214620
:1044D40053F8223028469847C2E700BF70620308A9
:1044E4003C4303082DE9F14F0D46A907044616463F
:1044F40012D005F00F03022B17D129090AB1022AA1
:1045040005D1204601B0BDE8F04FFFF76BBF01B005
:10451400BDE8F04FFFF752BF6968CBB22C2B72D0C5
:104524000BD8062B0DD02B2B12D0504A29462046EF
:1045340001B0BDE8F04FFFF795BE2D2B74D09B2B37
:10454400F3D1002EF1D105F108030A0A00217EE01F
:10455400022A02D0A968FFF779FFEF68002FE4D0A0
:1045640017F00309E1D17B68DAB28C2AB8460DD181
:10457400022E4FEA132805D007F1080A08F1FF3B81
:10458400D9450EDB08F1010857F8288098F8043063
:10459400302B1FD1022E0CD1A06A02F021FD012183
:1045A40012E05AF8041B2046FFF750FF09F10109F5
:1045B400E6E7D8F808102046FFF748FF012EEED1B1
:1045C400A06A02F0E8FC0021A06A01B0BDE8F04F47
:1045D40002F00ABD312BA8D1012EA06A0BD102F042
:1045E400D6FCD8F808100022A06A090901B0BDE879
:1045F400F04F02F0DDBC022E01D102F0D5FCD8F858
:1046040008100122F0E7A86800288ED0002A8CD177
:10461400C16839B311F0030324D14A68D6B2932E8A
:1046240017D11A46816812E0002A7FF47EAFA96888
:1046340029B90B4601B0BDE8F04F00F019B88B075B
:1046440003D10B79902B0846E2D000231A4620466A
:10465400F0E7942E03D101F10803120AE2E7AB2E2E
:104664003FF463AF00F1080302226FE71642030828
:104674002DE9F84F0F1E054690461E4614BF4FF015
:1046840001094FF000091DD017F003041AD13B793A
:10469400212B17D12146806A02F08BFD4FF0000ACE
:1046A40008F1FF3BC24510D1631C29D109EB080175
:1046B400A86A02F079FD67BB06EB880846452BD152
:1046C400BDE8F88F4FF0FF34E8E756F82A1071B1CF
:1046D4008A070CD10B79212B09D101340AD10AEBB9
:1046E4000904ABEB0A022146A86A02F062FD0AF152
:1046F400010AD7E728460F4ABDE8F84FFFF7B2BDD5
:10470400002FD9D02CB9B96822462846FFF7EAFE13
:10471400D2E700223946F8E756F8041BA1454FF0CA
:10472400000208BF89682846FFF7DCFE09F1010989
:10473400C4E700BF314203082DE9F74F06460C4693
:1047440015461F462046FEF7F1FF08B1E5B904E01F
:104754002046FEF7F9FF38B1B5B1B06A394603B067
:10476400BDE8F04F02F056BC002C54D0A30752D140
:1047740063684FEA132ADBB21D2B1AD1EDB108345A
:1047840004EB8A0A54450CD103B0BDE8F08F5B46B4
:10479400019A59F8041B3046FFF7CEFF08F10108CF
:1047A4001AE03B462A4654F8041B3046FFF7C4FF80
:1047B400E8E71E2B23D1002DE1D0D6F810B00BF181
:1047C400010333610AF1FF33009385F0010304F11F
:1047D40008094FF000080193009B4345D7DC0AF118
:1047E4000101304654F821103B462A46FFF7A4FF46
:1047F400B06A594603B0BDE8F04F02F02FBB1F2B3F
:1048040003D185F00105A4689CE72C2B03D1A36890
:10481400002BA1D19AE721463046FFF717FEB06A74
:104824003A46294603B0BDE8F04F02F0F8BB2DE943
:10483400F843066904461F46B31C03610D46806AAB
:10484400314606F10108914602F008FB4146A06A90
:1048540002F053FCA96800222046FFF743FE2D69AD
:104864000DBB49462046FFF7F1FD636A1978062916
:1048740013D1A06A294602F0F0FCA06A02F08FFB73
:104884003146A06A02F0C6FBA06A414602F0E6FA8D
:10489400A06ABDE8F84302F035BCBA000532A06A4C
:1048A40002F06DFCECE72B79AC2B07D1A9683346F9
:1048B40000222046FFF740FFED68D1E7E968204673
:1048C400FFF7C4FDA06A012102F00FFC7B1C4A46DD
:1048D40029462046FFF7ABFFD2E700002DE9F0415F
:1048E40004460E4662710025056111464662324651
:1048F400806A02F056F86779012F08BF7562F5687F
:1049040065B1AA070AD12B793C2B07D1A9682046A7
:10491400FFF79CFDA06A02F090FC1FE0337843B9D6
:1049240029462046FFF792FD0E21A06A02F0BEFA46
:10493400F0E7072B17D1012F07D10023A3714322DE
:104944004E4BE9682046FFF77CFB20466969FFF778
:104954007DFDA06A02F025F90028E5D0A06ABDE833
:10496400F04102F0D7B8022B19D12968A06A02F0ED
:1049740025FA6379012B07D10023A3714B22404B05
:10498400A9682046FFF75DFBE9682046FFF75EFD56
:10499400338BDB07BED5A06A02F001FBC4E7033BFF
:1049A400032B40D8012FD5F80C8005D103223946BA
:1049B400606AFFF7F7FAB7832968A06A02F0FEF984
:1049C4003378032B1ED101220021A06A02F0C7FB19
:1049D4003378062B1ED1A06A02F0C2FA01212046C8
:1049E400FFF7ECFCA06A02F0BBFAA06A02F0B8FA86
:1049F4000023AA6841462046FFF719FF3378062BA7
:104A040088D191E7042B01D10222DDE7052BDFD108
:104A14000322D9E720460121FFF7D0FC0121A06A37
:104A240002F063FBE4E7012F04D103220A2130469C
:104A3400FFF7B8FA17212046FFF7C0FC16212046DD
:104A4400FFF7D0FCA968A06A090902F082FA1A21CA
:104A54002046FFF7C7FC29692046FFF7F7FC0A2127
:104A64003046FFF78FFA0378032B3FF45DAF42889B
:104A7400A06A00230A2102F018F94BE775430008E5
:104A84006D43000838B50C460546C968FFF7DEFCDF
:104A9400A1682846BDE83840FFF7D8BC38B50B7983
:104AA400332B04460D460CD18968FFF7CFFCED6823
:104AB400AD685DB90E21A06A02F0F8F90422022162
:104AC40015E00E21806A02F0F1F9F1E7AB071CD181
:104AD4002B79982B10D10E21A06A02F0E7F9A9686E
:104AE4000029EBD02046FFF7B1FC04220321A06A81
:104AF400BDE8384002F033BB992B06D1A9682046A3
:104B0400FFF7A4FCEB689968EAE729462046FFF71B
:104B14009DFCD3E710B504468968FFF797FCA06AAB
:104B24000021BDE8104002F05FBA2DE9F041804653
:104B340015460C4611B1FFF789FC012435B16E68A6
:104B44000027360A0835B74208DB34442146D8F832
:104B540028000022BDE8F04102F001BB55F8041B17
:104B64004046FFF773FC0137EDE70A460021FFF7E3
:104B7400DCBF2DE9F0470669D0F818A0B0F81E9004
:104B84000683B31C036106F10108838BA0F81A8025
:104B94000446C38388680D46FEF7C8FDE0B927695B
:104BA4007B1C2361A868FEF7CFFD18B94146A06AB3
:104BB40002F030FA3946A06A02F050F9E96820465A
:104BC400FFF744FC4146A06A02F048F93B46012243
:104BD400A9682046FFF7B0FD2969C4F818A020464B
:104BE400A4F81E90FFF732FC3146A06ABDE8F047F6
:104BF40002F034B910B504468968FFF727FCA06AAF
:104C0400BDE8104002F0CBB92DE9F04705460C464B
:104C140004F00F03022B05D121092846BDE8F04713
:104C2400FFF700BC002C66D0A20764D123792B2B9C
:104C340037D1A1682846FFF709FCE668002E5AD050
:104C440016F0030857D17768FAB28C2A334609D193
:104C54003F0A06F1080907F1FF3AC2450FDC0137A4
:104C640056F827301A79302A11D128469968FFF767
:104C7400EDFBA86A0221BDE8F04702F0B5B959F886
:104C8400041B2846FFF7E2FB08F10108E5E7312A97
:104C940031D19968A86A02220909BDE8F04702F0F7
:104CA40087B92C2B27D1A4682CB3E668EEB1B307DF
:104CB4001BD17768FAB2932A01D1A468A8E7942A91
:104CC40011D1A1682846FFF79FFF3F0A0836002448
:104CD400BC4201DBBDE8F08756F8041B2846FFF709
:104CE40093FF0134F4E7AB2A05D0A1682846FFF707
:104CF4008BFFE4688CE721462846024ABDE8F0476A
:104D0400FFF7B0BA4B4203084B682DE9F041064661
:104D14000F461D0A01F108080024AC4201DBBDE87E
:104D2400F08158F8041B3046FFF790FBB36843B199
:104D3400023406F10C0057F82410BDE8F041FFF7E7
:104D440088BA0134E9E710B50446FFF7DDFFA06A2D
:104D54002221BDE8104002F0E4B92DE9F3470669C9
:104D6400731C0361044688680D46FEF7DFFC0246A7
:104D7400F8B927697B1C2361A9683B462046FFF7E5
:104D8400DBFC2046E968FFF761FBA868FEF7DCFC62
:104D9400E8B92B690BB96B693BB1A06A01F001FF5B
:104DA40018B93146A06A02F035F93946A06A02F012
:104DB40055F801AA702105F11000FEF7BFFE002787
:104DC400824657450ADB69692046FFF73FFB3146B7
:104DD400A06A02F043F802B0BDE8F087019B53F8E3
:104DE4002780D8F80800FEF7A1FC024608BBD4F8D7
:104DF400109009F101032361D8F808104B462046AE
:104E0400FFF79AFC2046D8F80C10FFF71FFBD8F8E0
:104E14000800FEF799FC0028D9D1A06A01F0C1FE70
:104E240018B93146A06A02F0F5F84946A06A02F0C2
:104E340015F80137C5E770B54379CD68012B0446F1
:104E4400164606D1436A0A465B8B3146FFF728F9BA
:104E5400686100231A4669692046FFF740F9E9684A
:104E64002046FFF7F3FA062E03D10021A06A02F0D0
:104E74003CF90023A06A1A460121BDE8704002F003
:104E8400C5B970B58C68054634B901222146A86AB3
:104E9400BDE8704002F063B9A20730D12379902BAA
:104EA4002DD1E66806B3B3071ED13379932B05D110
:104EB400A168FFF7CBFA01221146E8E7942B0BD146
:104EC400A168FFF7C3FA31462846FFF71DFF716852
:104ED4000122090A1144DAE7AB2B05D1214603224A
:104EE400BDE87040FFF7A7BFA1682846FFF7AEFAF8
:104EF400E1682846FFF7AAFA01220221C7E7214602
:104F04002846D6E72DE9F04F87B0CDE902210546C2
:104F140005AAA32103A81F46FEF710FE4FF0000BBD
:104F24000190D946DA465E46D846019B9B4516DB7E
:104F34005EB1BAF1000F67D1A86A02F011F8B9F1B5
:104F4400000F67D1A86A02F00BF8029BA86A002B35
:104F540066D033464246394602F063F910E0059ABA
:104F640052F82B40002C40D0A0073ED12279A52A2C
:104F74000FD1F10707D52D4A21462846FFF772F9CC
:104F840007B0BDE8F08F46F00106A2460BF1010B15
:104F9400CBE7A62A07D1B20701D5254AECE746F0AC
:104FA4000206A146F2E7A72A1FD1E26822B19307BD
:104FB40002D11279AB2A11D0A16801F00F02022AA2
:104FC40001D01C4AD8E70909A86A01F0C2FFE168C8
:104FD4002846FFF73BFA08F10108D7E706222146E5
:104FE4002846FFF728FF0137D0E70EB1124AC3E77E
:104FF400B8F1000F01D0114ABEE721462846FFF759
:1050040025FA01374646C1E7DAF808102846FFF7C3
:105014001DFA94E7D9F808102846FFF717FA94E721
:1050240033464246394602F0F1F8A9E71045030831
:10503400274503083F450308604503087B450308EB
:1050440070B50D46417901290446134603D12A4619
:10505400FFF726F86861A06A01F095FF6E690023E6
:105064001A4631462046FFF73AF8F18AA06A01F061
:1050740070FFE96829B18B0703D10B79A22B08BF14
:105084000021204602230022FFF73CFFF08A70BD76
:10509400436A10B55A8B0446FFF7D2FF01462046F7
:1050A400BDE81040FFF79EB900231A468968FFF750
:1050B40029BF00002DE9F04F044685B0894602AAB5
:1050C4003F2109F10800FEF739FD636A00255F8B73
:1050D4000646A846B5420ADBD9F80C100B79032B17
:1050E4003DD13A462046FFF78AF8054647E0029B41
:1050F40053F825A003AA6B210AF10800FEF71EFD50
:10510400039B19680A09732A83460CD02046FFF7CB
:105114009DF901235B4516DBDAF80C1059B12046E2
:10512400FFF794F907E0022807D0214A2046FFF749
:1051340099F808F101080135CCE759680B09412BAE
:10514400F3D10127F5E7039AA06A52F823100193DB
:105154000022090901F02CFF019B0133DAE7412BFE
:1051640019D1D1F808903A4649462046FFF747F846
:10517400D9F81820138B43F0010305461383002745
:10518400A6EB0806BE420BDC29462046FFF72AF9A7
:1051940005B0BDE8F08F3A462046FFF751FFA4E77B
:1051A40000231A460121A06A02F030F80137E9E72A
:1051B400F04203082DE9F7438D680446164635B9D5
:1051C400BAB102222946A06A01F0C9FF11E0AB0777
:1051D40078D12B79362B0FD122B102220121806A9A
:1051E40001F0BDFF20462946FFF730F9A06A01F01F
:1051F400C1FF03B0BDE8F0839D2B63D1EB681A793E
:10520400A02A4FD1A12101AA03F10800FEF796FCC0
:10521400A9688046E9B18F071BD10B79362B18D1C9
:1052240026B1411C0222A06A01F099FFA968204618
:10523400FFF70CF9A06A01F09DFF4FF00109002768
:1052440047450CDBB9F1000FD3D1032208F101016A
:10525400B9E72046FFF7FAF84FF00009EFE7019BA2
:1052640053F8271099B18E0711D10E79A6F13600A3
:10527400464246412046FFF7E9F8B9F1000F0DD048
:105284003EB9144A29462046FEF7ECFFB1E7002652
:10529400F0E7A06A01F06EFF0137D1E7002EFBD0E2
:1052A4000D4AEFE7AB684BB19A0707D11B79362B50
:1052B40004D104222946FFF7BEFD9AE705222946B8
:1052C4002046F8E729462046FFF7C0F803220121CB
:1052D40079E700BF63420308804203080122FFF715
:1052E40069BF000001F00F03022B70B504460ED015
:1052F4004B6803F0F702462A02D10123837170BD83
:10530400472AFCD0DBB2452B0DD10D696DB9A379C9
:10531400002BF4D1E38A002BF1D02046194ABDE8D2
:105324007040FEF79FBFCD68F0E7A3790BB3A38A63
:105334008E6801339BB2012BA3820AD1E18AA06A51
:10534400A1B1002201F00BFF02220021A06A01F0AA
:1053540006FF29462046FFF779F8A06A310901F0D3
:10536400F8FDA06ABDE8704001F004BF01F0F8FD4B
:10537400EAE7E38A0133E38229462046BDE8704028
:10538400FFF764B80E4303082DE9F8430C46896817
:105394000646FFF75BF8E568002D55D06F68716A23
:1053A400FBB209788C2BA36819BF04F10C05012703
:1053B4003F0A0835072903F00F0249D1022A45D1D3
:1053C4001A099A2A46D12A6811792F2942D192685A
:1053D400002A3FD10A213046FEF7F0FF726AD36AF1
:1053E400528D32B929683E4A3046BDE8F843FEF78B
:1053F40039BF5978C9070DD559683046FEF7DEFF25
:10540400022F0AD800231A460221B06A01F0FEFED8
:10541400012417E0013A0833E3E76B681A79312A6B
:10542400F0D1AC6822792F2AECD19968B06A0122B4
:10543400090901F099FDA168002301223046FFF714
:1054440061FD0324A74224D8BDE8F8830024F9E7CA
:10545400022AFBD140F20922B2EB131FF6D12B68CA
:105464001A792F2AF2D19B68002BEFD013F0030492
:10547400ECD11B792E2BE5D1234622462146B06A76
:1054840001F0C4FE2B68224699683046FFF792FE6D
:10549400BEE704F10108B8454FEA840355F8241027
:1054A40019D20A79312A16D12B44D3F8049099F8E9
:1054B40004302F2B0FD18968B06A0022090901F04A
:1054C40053FD00230122D9F808103046FFF71AFDD6
:1054D40008F10104B6E73046FEF7B8FFA046F7E747
:1054E400B8420308436A1B78072B10B50A460446E2
:1054F40006D0022B04D0074ABDE81040FEF7B2BE26
:1055040020461146FFF740FF04F12800BDE8104093
:10551400FEF732BF9F420308F8B54B680C46896812
:1055240006461F0AFEF792FF0C3400250235AF42EF
:1055340004F1080400DCF8BD54F8041C3046FEF7FE
:1055440085FF54F8081CB06A09092239C9B201F070
:10555400E8FDEBE72DE9F0414D680C46896880468B
:10556400FEF774FFA5F10C07FFB22D0A0C340126D7
:10557400AE4201DBBDE8F08154F8041B4046FEF75F
:1055840065FF3946D8F8280001F0CBFD0136EFE776
:105594002DE9F041CD6804460F461DBB0379A3B144
:1055A400436A1D788DB9CB21FEF708FFB968204600
:1055B400FEF74CFF2B462A460121A06A01F026FE85
:1055C400A06ABDE8F04101F0EABCB968880700F0C0
:1055D400A38001F00F03022B40F0A5802046FEF7C4
:1055E40035FFEDE7A90740F091806B68DAB2562ADF
:1055F40011D10122B968FEF775FFE9682046FEF76C
:1056040025FFA968A06A09093C39C9B201F089FDDE
:105614000222B96875E0572A23D11B0A03F1FF3827
:10562400013355F82310FEF711FFB8F1000F02DD26
:10563400A06A01F0ACFC0022B9682046FEF752FFD4
:105644000835002646456EDA0136464502DAA06A78
:1056540001F09DFC002255F8041B2046FEF742FF92
:10566400F0E7062A52D1BE68002E4FD0B2074DD1C2
:105674007268D1B2062949D14FEA1228B8EB132F28
:1056840044D1A8F10203012B40D8B36823B1980791
:1056940002D11B79212B39D0F36823B1990702D1A8
:1056A4001B79212B32D0B8F1020F06D0336923B114
:1056B4009A0702D11B79212B28D0A9682046FEF72E
:1056C400C5FEE9682046FEF7C1FEB8F1030F06D116
:1056D40020462969FEF7BAFEA06A01F081FCA06A9F
:1056E40001F062FC0022B1682046FEF7FBFE0022B6
:1056F400F1682046FEF7F6FEB8F1030F13D13169C5
:1057040000222046BDE8F041FEF7ECBE29462046C3
:10571400FEF79CFE00227CE700293FF45FAF0B7983
:10572400392B7FF45BAFBDE8F08138B50C46C9680E
:105734000546FEF78BFEA168A86AC1F3071131295B
:105744001ABF3D39C9B20221BDE8384001F0E3BCBB
:1057540010B504468968FEF779FEA06A0321BDE806
:10576400104001F0D8BC2DE9F8434D68D0F8108002
:105774005FFA85F9A9F11D03D3F1000949EB030987
:1057840008F10103044603612D0A01F1080600270C
:10579400AF4205DB4146A06ABDE8F84301F05EBBB9
:1057A40056F8041B20460137FEF750FEAF42EFDAED
:1057B40042464946A06A01F03BFCE9E72DE9F04185
:1057C4004E6804460D46360A8968FEF73FFE032EEE
:1057D40083BFD4F8108008F1010323614FF000085F
:1057E40001277B1CB3421CDB032E4ADD2569A06A1A
:1057F4006B1C2361294601F00DFC4146A06A01F0AF
:105804002DFB0121A06A01F0D1F9A06A01F0CCFBC3
:10581400A06A01F0C4FB2946A06ABDE8F04101F08A
:105824001DBB296920460237FEF710FEB74205DA90
:10583400A06A01F0ACFBA06A01F0D2FBEB68A06A9D
:1058440003F00F020E2A11D1C3F30713242B1ABF3E
:10585400323BD9B2062101F064FCB74204DA424675
:105864000021A06A01F0E4FB0835BAE71A79832A1B
:1058740001D13221EFE79B680BB90721EBE7332114
:10588400E9E7BDE8F0812DE9F0410569CF68AB1C7B
:105894000361884604462B460022B968FEF74CFF94
:1058A4006E1CD8F808102046FEF7D0FD3146A06AD9
:1058B40001F0B0FB2946A06A01F0D0FAA06A4FF0CB
:1058C400FF3101F073F9F9682046FEF7BFFD314658
:1058D400A06ABDE8F04101F0C1BA2DE9F04F8B6830
:1058E40003F00F03022B89B004460F4640F0E98011
:1058F400CB68002B00F0E5809D0740F0E2801A7928
:105904002B2A40F0DE809A6802F00F01022940F051
:10591400D88012097C2A40F0D480DB681A792F2AB7
:1059240040F0CF809B68069307AAA32106A8FEF740
:1059340005F9431E022B00F2C480079A012813685C
:1059440000F0B2800228556800F0FF809668F007E6
:1059540040F1B780720800F0B48033B1990704D1E4
:105964001A79A53A022A40F2AC8035B1AA0704D1CB
:105974002A79A53A022A40F2A480BA6801923A69C7
:10598400D7F8148002922769A2690492E28B0392E9
:105994007A1C05926283A28BE28315F0010907F158
:1059A400040207F1020A278307F1030B226105D1E0
:1059B400294620460593FEF749FD059B19462046D6
:1059C400FEF744FD5946A06A01F024FB5146A06A43
:1059D40001F044FAA06A01F0DAFA002201992046A3
:1059E400FEF780FD02992046FEF730FD791CA06A7F
:1059F40001F034FA31462046FEF728FD0E21A06A54
:105A040001F08FFBA06A594601F028FAA06AB9F1A7
:105A1400000F4DD101F0BFFAA06A01F0C5FA002EC3
:105A2400ACBF00210121A06A01F07BFB5246012199
:105A3400A06A01F0F4FA049BA361039BE383B8F129
:105A4400000F3CD0A06A01F0AAFAB9F1000F02D10C
:105A5400A06A01F0A4FA41462046FEF7F7FC266945
:105A6400A06A731C3146236101F0D4FAE94301F0C2
:105A740001010131A06A01F099F8A06A394601F0E8
:105A8400EDF9A06A01F08BFAB9F1000F02D1A06A16
:105A940001F085FAB8F1000F03D03146A06A01F095
:105AA400DDF909B0BDE8F08F1D46032603465CE727
:105AB40001F06DFA29462046FEF7C8FCAFE74646DA
:105AC400DBE72569A38BB4F81E90E3836FEA4543B3
